{
  "address": "0xD28F3246f047Efd4059B24FA1fa587eD9fa3e77F",
  "abi": [
    {
      "inputs": [
        {
          "internalType": "address",
          "name": "_addressOfMing",
          "type": "address"
        },
        {
          "internalType": "uint256",
          "name": "_endTime",
          "type": "uint256"
        }
      ],
      "stateMutability": "nonpayable",
      "type": "constructor"
    },
    {
      "anonymous": false,
      "inputs": [
        {
          "indexed": false,
          "internalType": "string",
          "name": "message",
          "type": "string"
        }
      ],
      "name": "LogData",
      "type": "event"
    },
    {
      "inputs": [],
      "name": "balance",
      "outputs": [
        {
          "internalType": "uint256",
          "name": "",
          "type": "uint256"
        }
      ],
      "stateMutability": "view",
      "type": "function"
    },
    {
      "inputs": [
        {
          "internalType": "string",
          "name": "str1",
          "type": "string"
        },
        {
          "internalType": "string",
          "name": "str2",
          "type": "string"
        }
      ],
      "name": "concatString",
      "outputs": [
        {
          "internalType": "string",
          "name": "",
          "type": "string"
        }
      ],
      "stateMutability": "pure",
      "type": "function"
    },
    {
      "inputs": [
        {
          "internalType": "string",
          "name": "str",
          "type": "string"
        },
        {
          "internalType": "uint256",
          "name": "num",
          "type": "uint256"
        }
      ],
      "name": "concatStringWithUint",
      "outputs": [
        {
          "internalType": "string",
          "name": "",
          "type": "string"
        }
      ],
      "stateMutability": "pure",
      "type": "function"
    },
    {
      "inputs": [
        {
          "internalType": "uint256",
          "name": "",
          "type": "uint256"
        }
      ],
      "name": "deposits",
      "outputs": [
        {
          "internalType": "address",
          "name": "owner",
          "type": "address"
        },
        {
          "internalType": "uint128",
          "name": "liquidity",
          "type": "uint128"
        },
        {
          "internalType": "address",
          "name": "token0",
          "type": "address"
        },
        {
          "internalType": "address",
          "name": "token1",
          "type": "address"
        }
      ],
      "stateMutability": "view",
      "type": "function"
    },
    {
      "inputs": [],
      "name": "fund",
      "outputs": [],
      "stateMutability": "payable",
      "type": "function"
    },
    {
      "inputs": [
        {
          "internalType": "address",
          "name": "addr",
          "type": "address"
        }
      ],
      "name": "getAmountFunded",
      "outputs": [
        {
          "internalType": "uint256",
          "name": "",
          "type": "uint256"
        }
      ],
      "stateMutability": "view",
      "type": "function"
    },
    {
      "inputs": [
        {
          "internalType": "address",
          "name": "addr",
          "type": "address"
        }
      ],
      "name": "getCurrentAmountFunded",
      "outputs": [
        {
          "internalType": "uint256",
          "name": "",
          "type": "uint256"
        }
      ],
      "stateMutability": "view",
      "type": "function"
    },
    {
      "inputs": [],
      "name": "i_owner",
      "outputs": [
        {
          "internalType": "address",
          "name": "",
          "type": "address"
        }
      ],
      "stateMutability": "view",
      "type": "function"
    },
    {
      "inputs": [
        {
          "internalType": "string",
          "name": "message",
          "type": "string"
        }
      ],
      "name": "log",
      "outputs": [],
      "stateMutability": "nonpayable",
      "type": "function"
    },
    {
      "inputs": [
        {
          "internalType": "address",
          "name": "operator",
          "type": "address"
        },
        {
          "internalType": "address",
          "name": "",
          "type": "address"
        },
        {
          "internalType": "uint256",
          "name": "tokenId",
          "type": "uint256"
        },
        {
          "internalType": "bytes",
          "name": "",
          "type": "bytes"
        }
      ],
      "name": "onERC721Received",
      "outputs": [
        {
          "internalType": "bytes4",
          "name": "",
          "type": "bytes4"
        }
      ],
      "stateMutability": "nonpayable",
      "type": "function"
    },
    {
      "inputs": [],
      "name": "onFundingOver",
      "outputs": [],
      "stateMutability": "nonpayable",
      "type": "function"
    },
    {
      "inputs": [],
      "name": "poolFee",
      "outputs": [
        {
          "internalType": "uint24",
          "name": "",
          "type": "uint24"
        }
      ],
      "stateMutability": "view",
      "type": "function"
    }
  ],
  "transactionHash": "0x62bdce5409565e066100c3f5877879e47c3f6101cb7b4d13c64915b17f507668",
  "args": [
    "0xE2307e3710d108ceC7a4722a020a050681c835b3",
    1705248000000
  ],
  "numDeployments": 3,
  "solcInputHash": "39982096b9d5aaa87ab0737e9ce680b3",
  "bytecode": "0x608060405260006004556000600560006101000a81548160ff02191690831515021790555073c36442b4a4522e871399cd717abdd847ab11fe88600560016101000a81548173ffffffffffffffffffffffffffffffffffffffff021916908373ffffffffffffffffffffffffffffffffffffffff160217905550731f98431c8ad98523631ae4a59f267346ea31f984600660006101000a81548173ffffffffffffffffffffffffffffffffffffffff021916908373ffffffffffffffffffffffffffffffffffffffff1602179055506002600c60006101000a81548162ffffff021916908360020b62ffffff1602179055506305f5e100600d553480156200010657600080fd5b506040516200476f3803806200476f83398181016040528101906200012c919062000240565b81600360006101000a81548173ffffffffffffffffffffffffffffffffffffffff021916908373ffffffffffffffffffffffffffffffffffffffff16021790555033600960006101000a81548173ffffffffffffffffffffffffffffffffffffffff021916908373ffffffffffffffffffffffffffffffffffffffff16021790555073b4fbf271143f4fbf7b91a5ded31805e42b2208d6600860006101000a81548173ffffffffffffffffffffffffffffffffffffffff021916908373ffffffffffffffffffffffffffffffffffffffff16021790555080600a819055505050620002f3565b6000815190506200022381620002bf565b92915050565b6000815190506200023a81620002d9565b92915050565b600080604083850312156200025457600080fd5b6000620002648582860162000212565b9250506020620002778582860162000229565b9150509250929050565b60006200028e8262000295565b9050919050565b600073ffffffffffffffffffffffffffffffffffffffff82169050919050565b6000819050919050565b620002ca8162000281565b8114620002d657600080fd5b50565b620002e481620002b5565b8114620002f057600080fd5b50565b61446c80620003036000396000f3fe6080604052600436106100a75760003560e01c8063ac5065d211610064578063ac5065d2146101ce578063b02c43d01461020b578063b60d42881461024b578063b69ef8a814610255578063d583f40214610280578063dba6335f146102bd576100a7565b8063089fe6aa146100ac578063150b7a02146100d757806341304fac146101145780635bb96f1f1461013d5780636dbcf2521461017a578063a48b455514610191575b600080fd5b3480156100b857600080fd5b506100c16102e8565b6040516100ce9190613fc8565b60405180910390f35b3480156100e357600080fd5b506100fe60048036038101906100f991906135da565b6102ee565b60405161010b9190613e94565b60405180910390f35b34801561012057600080fd5b5061013b600480360381019061013691906136ac565b610303565b005b34801561014957600080fd5b50610164600480360381019061015f91906136ed565b61033d565b6040516101719190613eaf565b60405180910390f35b34801561018657600080fd5b5061018f610369565b005b34801561019d57600080fd5b506101b860048036038101906101b39190613588565b6106ec565b6040516101c59190613fe3565b60405180910390f35b3480156101da57600080fd5b506101f560048036038101906101f09190613759565b610738565b6040516102029190613eaf565b60405180910390f35b34801561021757600080fd5b50610232600480360381019061022d919061389a565b610764565b6040516102429493929190613e26565b60405180910390f35b610253610810565b005b34801561026157600080fd5b5061026a610e4a565b6040516102779190613fe3565b60405180910390f35b34801561028c57600080fd5b506102a760048036038101906102a29190613588565b610e52565b6040516102b49190613fe3565b60405180910390f35b3480156102c957600080fd5b506102d2610e9e565b6040516102df9190613d9d565b60405180910390f35b610bb881565b600063150b7a0260e01b905095945050505050565b7f4609e0ccf047a9139d8e498ab3b5fe10aae422e66592ab6db3d4e8c87cf516ff816040516103329190613eaf565b60405180910390a150565b60608282604051602001610352929190613d51565b604051602081830303815290604052905092915050565b600960009054906101000a900473ffffffffffffffffffffffffffffffffffffffff1673ffffffffffffffffffffffffffffffffffffffff163373ffffffffffffffffffffffffffffffffffffffff16146103f9576040517f08c379a00000000000000000000000000000000000000000000000000000000081526004016103f090613f51565b60405180910390fd5b600560009054906101000a900460ff1615610449576040517f08c379a000000000000000000000000000000000000000000000000000000000815260040161044090613ed1565b60405180910390fd5b6001600560006101000a81548160ff0219169083151502179055506104856040518060800160405280604281526020016143f560429139610ec4565b6104c66040518060400160405280600e81526020017f66756e645261697365643a202573000000000000000000000000000000000000815250600b54610fc2565b6000600360009054906101000a900473ffffffffffffffffffffffffffffffffffffffff16905060008173ffffffffffffffffffffffffffffffffffffffff166318160ddd6040518163ffffffff1660e01b815260040160206040518083038186803b15801561053557600080fd5b505afa158015610549573d6000803e3d6000fd5b505050506040513d601f19601f8201168201806040525081019061056d91906138c3565b905060006064603283028161057e57fe5b0490506105c06040518060400160405280601e81526020017f616d6f756e74206f66204d494e4720746f2020756e69737761703a202573000081525082610fc2565b6000600b5414156106b0576106096040518060400160405280601c81526020017f7a65726f207261697365642c206275726e20616c6c20746f6b656e7300000000815250610ec4565b8273ffffffffffffffffffffffffffffffffffffffff1663a9059cbb734444444444444444444444444444444444444444836040518363ffffffff1660e01b8152600401610658929190613db8565b602060405180830381600087803b15801561067257600080fd5b505af1158015610686573d6000803e3d6000fd5b505050506040513d601f19601f820116820180604052508101906106aa919061365a565b506106c6565b6106b9816110c9565b6106c5600b54826114d2565b5b6106e760405180606001604052806040815260200161436a60409139610ec4565b505050565b6000600160008373ffffffffffffffffffffffffffffffffffffffff1673ffffffffffffffffffffffffffffffffffffffff168152602001908152602001600020600001549050919050565b6060828260405160200161074d929190613d75565b604051602081830303815290604052905092915050565b60006020528060005260406000206000915090508060000160009054906101000a900473ffffffffffffffffffffffffffffffffffffffff16908060010160009054906101000a90046fffffffffffffffffffffffffffffffff16908060020160009054906101000a900473ffffffffffffffffffffffffffffffffffffffff16908060030160009054906101000a900473ffffffffffffffffffffffffffffffffffffffff16905084565b61084e6040518060400160405280600e81526020017f63616c6c696e672066756e642829000000000000000000000000000000000000815250610303565b600034905060008111610896576040517f08c379a000000000000000000000000000000000000000000000000000000000815260040161088d90613ef1565b60405180910390fd5b6108dd6108d86040518060400160405280600d81526020017f4554482062616c616e63653a200000000000000000000000000000000000000081525083610738565b610303565b600a544210610921576040517f08c379a000000000000000000000000000000000000000000000000000000000815260040161091890613f71565b60405180910390fd5b6000600860009054906101000a900473ffffffffffffffffffffffffffffffffffffffff1673ffffffffffffffffffffffffffffffffffffffff166370a08231306040518263ffffffff1660e01b815260040161097e9190613d9d565b60206040518083038186803b15801561099657600080fd5b505afa1580156109aa573d6000803e3d6000fd5b505050506040513d601f19601f820116820180604052508101906109ce91906138c3565b905060008214610b0c57600860009054906101000a900473ffffffffffffffffffffffffffffffffffffffff1673ffffffffffffffffffffffffffffffffffffffff1663d0e30db0836040518263ffffffff1660e01b81526004016000604051808303818588803b158015610a4257600080fd5b505af1158015610a56573d6000803e3d6000fd5b5050505050600860009054906101000a900473ffffffffffffffffffffffffffffffffffffffff1673ffffffffffffffffffffffffffffffffffffffff1663a9059cbb30846040518363ffffffff1660e01b8152600401610ab8929190613e6b565b602060405180830381600087803b158015610ad257600080fd5b505af1158015610ae6573d6000803e3d6000fd5b505050506040513d601f19601f82011682018060405250810190610b0a919061365a565b505b6000600860009054906101000a900473ffffffffffffffffffffffffffffffffffffffff1673ffffffffffffffffffffffffffffffffffffffff166370a08231306040518263ffffffff1660e01b8152600401610b699190613d9d565b60206040518083038186803b158015610b8157600080fd5b505afa158015610b95573d6000803e3d6000fd5b505050506040513d601f19601f82011682018060405250810190610bb991906138c3565b9050610c02610bfd6040518060400160405280601581526020017f62616c616e6365206f662057455448206e6f773a20000000000000000000000081525083610738565b610303565b8282820314610c46576040517f08c379a0000000000000000000000000000000000000000000000000000000008152600401610c3d90613f31565b60405180910390fd5b600160003373ffffffffffffffffffffffffffffffffffffffff1673ffffffffffffffffffffffffffffffffffffffff16815260200190815260200160002060010160009054906101000a900460ff16610d9c576002339080600181540180825580915050600190039060005260206000200160009091909190916101000a81548173ffffffffffffffffffffffffffffffffffffffff021916908373ffffffffffffffffffffffffffffffffffffffff16021790555060018060003373ffffffffffffffffffffffffffffffffffffffff1673ffffffffffffffffffffffffffffffffffffffff16815260200190815260200160002060010160006101000a81548160ff021916908315150217905550610d9b6040518060400160405280601381526020017f66756e646572732e6c656e677468203d20257300000000000000000000000000815250600280549050610fc2565b5b34600160003373ffffffffffffffffffffffffffffffffffffffff1673ffffffffffffffffffffffffffffffffffffffff1681526020019081526020016000206000016000828254019250508190555034600b60008282540192505081905550610e45610e406040518060400160405280600c81526020017f66756e645261697365643a200000000000000000000000000000000000000000815250600b54610738565b610303565b505050565b600047905090565b6000600160008373ffffffffffffffffffffffffffffffffffffffff1673ffffffffffffffffffffffffffffffffffffffff168152602001908152602001600020600001549050919050565b600960009054906101000a900473ffffffffffffffffffffffffffffffffffffffff1681565b610fbf816040516024018080602001828103825283818151815260200191508051906020019080838360005b83811015610f0b578082015181840152602081019050610ef0565b50505050905090810190601f168015610f385780820380516001836020036101000a031916815260200191505b50925050506040516020818303038152906040527f41304fac000000000000000000000000000000000000000000000000000000007bffffffffffffffffffffffffffffffffffffffffffffffffffffffff19166020820180517bffffffffffffffffffffffffffffffffffffffffffffffffffffffff8381831617835250505050611c47565b50565b6110c582826040516024018080602001838152602001828103825284818151815260200191508051906020019080838360005b83811015611010578082015181840152602081019050610ff5565b50505050905090810190601f16801561103d5780820380516001836020036101000a031916815260200191505b5093505050506040516020818303038152906040527fb60e72cc000000000000000000000000000000000000000000000000000000007bffffffffffffffffffffffffffffffffffffffffffffffffffffffff19166020820180517bffffffffffffffffffffffffffffffffffffffffffffffffffffffff8381831617835250505050611c47565b5050565b6110ea60405180608001604052806045815260200161429b60459139610ec4565b6000600360009054906101000a900473ffffffffffffffffffffffffffffffffffffffff1690506000600860009054906101000a900473ffffffffffffffffffffffffffffffffffffffff1673ffffffffffffffffffffffffffffffffffffffff166370a08231306040518263ffffffff1660e01b815260040161116e9190613d9d565b60206040518083038186803b15801561118657600080fd5b505afa15801561119a573d6000803e3d6000fd5b505050506040513d601f19601f820116820180604052508101906111be91906138c3565b90506111ff6040518060400160405280601381526020017f62616c616e6365206f6620574554483a2025730000000000000000000000000081525082610fc2565b6000600280548060200260200160405190810160405280929190818152602001828054801561128357602002820191906000526020600020905b8160009054906101000a900473ffffffffffffffffffffffffffffffffffffffff1673ffffffffffffffffffffffffffffffffffffffff1681526020019060010190808311611239575b505050505090506112ca6040518060400160405280601981526020017f63757272656e7446756e646572732e6c656e6774683a202573000000000000008152508251610fc2565b60005b81518110156114aa5760008282815181106112e457fe5b602002602001015190506000600160008373ffffffffffffffffffffffffffffffffffffffff1673ffffffffffffffffffffffffffffffffffffffff1681526020019081526020016000206000015490506000858289028161134257fe5b0490508673ffffffffffffffffffffffffffffffffffffffff1663a9059cbb84836040518363ffffffff1660e01b8152600401611380929190613e6b565b602060405180830381600087803b15801561139a57600080fd5b505af11580156113ae573d6000803e3d6000fd5b505050506040513d601f19601f820116820180604052508101906113d2919061365a565b5061149a6040518060400160405280601581526020017f62616c616e6365206f662066756e6465723a20257300000000000000000000008152508873ffffffffffffffffffffffffffffffffffffffff166370a08231866040518263ffffffff1660e01b81526004016114459190613d9d565b60206040518083038186803b15801561145d57600080fd5b505afa158015611471573d6000803e3d6000fd5b505050506040513d601f19601f8201168201806040525081019061149591906138c3565b610fc2565b50505080806001019150506112cd565b506114cc60405180608001604052806043815260200161432760439139610ec4565b50505050565b60006004541415611c4357600360009054906101000a900473ffffffffffffffffffffffffffffffffffffffff1673ffffffffffffffffffffffffffffffffffffffff1673b4fbf271143f4fbf7b91a5ded31805e42b2208d673ffffffffffffffffffffffffffffffffffffffff1610156117fa576115856040518060400160405280600981526020017f696e697420706f6f6c0000000000000000000000000000000000000000000000815250610ec4565b60006115a7600d54838161159557fe5b04600d5485816115a157fe5b04611c61565b90506000600560019054906101000a900473ffffffffffffffffffffffffffffffffffffffff1673ffffffffffffffffffffffffffffffffffffffff166313ead56273b4fbf271143f4fbf7b91a5ded31805e42b2208d6600360009054906101000a900473ffffffffffffffffffffffffffffffffffffffff16610bb8866040518563ffffffff1660e01b81526004016116449493929190613de1565b602060405180830381600087803b15801561165e57600080fd5b505af1158015611672573d6000803e3d6000fd5b505050506040513d601f19601f8201168201806040525081019061169691906135b1565b905080600760006101000a81548173ffffffffffffffffffffffffffffffffffffffff021916908373ffffffffffffffffffffffffffffffffffffffff160217905550600760009054906101000a900473ffffffffffffffffffffffffffffffffffffffff1673ffffffffffffffffffffffffffffffffffffffff1663d0c93a7c6040518163ffffffff1660e01b815260040160206040518083038186803b15801561174157600080fd5b505afa158015611755573d6000803e3d6000fd5b505050506040513d601f19601f820116820180604052508101906117799190613683565b600760146101000a81548162ffffff021916908360020b62ffffff16021790555060006117bc600d5486816117aa57fe5b04600d5486816117b657fe5b04611c8e565b5050509050806004819055506117ef600454600d5487816117d957fe5b048703600d5487816117e757fe5b048703612aeb565b505050505050611aa9565b6118386040518060400160405280601281526020017f696e697420706f6f6c2072657665727365640000000000000000000000000000815250610ec4565b600061185a600d54848161184857fe5b04600d54848161185457fe5b04611c61565b90506000600560019054906101000a900473ffffffffffffffffffffffffffffffffffffffff1673ffffffffffffffffffffffffffffffffffffffff166313ead562600360009054906101000a900473ffffffffffffffffffffffffffffffffffffffff1673b4fbf271143f4fbf7b91a5ded31805e42b2208d6610bb8866040518563ffffffff1660e01b81526004016118f79493929190613de1565b602060405180830381600087803b15801561191157600080fd5b505af1158015611925573d6000803e3d6000fd5b505050506040513d601f19601f8201168201806040525081019061194991906135b1565b905080600760006101000a81548173ffffffffffffffffffffffffffffffffffffffff021916908373ffffffffffffffffffffffffffffffffffffffff160217905550600760009054906101000a900473ffffffffffffffffffffffffffffffffffffffff1673ffffffffffffffffffffffffffffffffffffffff1663d0c93a7c6040518163ffffffff1660e01b815260040160206040518083038186803b1580156119f457600080fd5b505afa158015611a08573d6000803e3d6000fd5b505050506040513d601f19601f82011682018060405250810190611a2c9190613683565b600760146101000a81548162ffffff021916908360020b62ffffff1602179055506000611a6f600d548581611a5d57fe5b04600d548781611a6957fe5b04611c8e565b505050905080600481905550611aa2600454600d548681611a8c57fe5b048603600d548881611a9a57fe5b048803612aeb565b5050505050505b611c276040518060400160405280602081526020017f746f6b656e303a202573202d3e20746f6b656e313a2025732c207469636b3a20815250600760009054906101000a900473ffffffffffffffffffffffffffffffffffffffff1673ffffffffffffffffffffffffffffffffffffffff16630dfe16816040518163ffffffff1660e01b815260040160206040518083038186803b158015611b4a57600080fd5b505afa158015611b5e573d6000803e3d6000fd5b505050506040513d601f19601f82011682018060405250810190611b8291906135b1565b600760009054906101000a900473ffffffffffffffffffffffffffffffffffffffff1673ffffffffffffffffffffffffffffffffffffffff1663d21220a76040518163ffffffff1660e01b815260040160206040518083038186803b158015611bea57600080fd5b505afa158015611bfe573d6000803e3d6000fd5b505050506040513d601f19601f82011682018060405250810190611c2291906135b1565b612de1565b611c42600760149054906101000a900460020b60020b612f1d565b5b5050565b611c5e81611c56612fb6612fd7565b63ffffffff16565b50565b6000611c86826c010000000000000000000000008086020281611c8057fe5b04612fe2565b905092915050565b600080600080611f0560405180606001604052806021815260200161430660219139600760009054906101000a900473ffffffffffffffffffffffffffffffffffffffff1673ffffffffffffffffffffffffffffffffffffffff16630dfe16816040518163ffffffff1660e01b815260040160206040518083038186803b158015611d1857600080fd5b505afa158015611d2c573d6000803e3d6000fd5b505050506040513d601f19601f82011682018060405250810190611d5091906135b1565b73ffffffffffffffffffffffffffffffffffffffff166370a08231306040518263ffffffff1660e01b8152600401611d889190613d9d565b60206040518083038186803b158015611da057600080fd5b505afa158015611db4573d6000803e3d6000fd5b505050506040513d601f19601f82011682018060405250810190611dd891906138c3565b600760009054906101000a900473ffffffffffffffffffffffffffffffffffffffff1673ffffffffffffffffffffffffffffffffffffffff1663d21220a76040518163ffffffff1660e01b815260040160206040518083038186803b158015611e4057600080fd5b505afa158015611e54573d6000803e3d6000fd5b505050506040513d601f19601f82011682018060405250810190611e7891906135b1565b73ffffffffffffffffffffffffffffffffffffffff166370a08231306040518263ffffffff1660e01b8152600401611eb09190613d9d565b60206040518083038186803b158015611ec857600080fd5b505afa158015611edc573d6000803e3d6000fd5b505050506040513d601f19601f82011682018060405250810190611f0091906138c3565b6130f1565b611f286040518060600160405280602681526020016143cf6026913987876130f1565b600760009054906101000a900473ffffffffffffffffffffffffffffffffffffffff1673ffffffffffffffffffffffffffffffffffffffff16630dfe16816040518163ffffffff1660e01b815260040160206040518083038186803b158015611f9057600080fd5b505afa158015611fa4573d6000803e3d6000fd5b505050506040513d601f19601f82011682018060405250810190611fc891906135b1565b73ffffffffffffffffffffffffffffffffffffffff1663095ea7b3600560019054906101000a900473ffffffffffffffffffffffffffffffffffffffff16886040518363ffffffff1660e01b8152600401612024929190613e6b565b602060405180830381600087803b15801561203e57600080fd5b505af1158015612052573d6000803e3d6000fd5b505050506040513d601f19601f82011682018060405250810190612076919061365a565b50600760009054906101000a900473ffffffffffffffffffffffffffffffffffffffff1673ffffffffffffffffffffffffffffffffffffffff1663d21220a76040518163ffffffff1660e01b815260040160206040518083038186803b1580156120df57600080fd5b505afa1580156120f3573d6000803e3d6000fd5b505050506040513d601f19601f8201168201806040525081019061211791906135b1565b73ffffffffffffffffffffffffffffffffffffffff1663095ea7b3600560019054906101000a900473ffffffffffffffffffffffffffffffffffffffff16876040518363ffffffff1660e01b8152600401612173929190613e6b565b602060405180830381600087803b15801561218d57600080fd5b505af11580156121a1573d6000803e3d6000fd5b505050506040513d601f19601f820116820180604052508101906121c5919061365a565b506000600760009054906101000a900473ffffffffffffffffffffffffffffffffffffffff1673ffffffffffffffffffffffffffffffffffffffff16633850c7bd6040518163ffffffff1660e01b815260040160e06040518083038186803b15801561223057600080fd5b505afa158015612244573d6000803e3d6000fd5b505050506040513d601f19601f8201168201806040525081019061226891906137fc565b50505050509150506122ae6040518060400160405280600e81526020017f63757272656e74207469636b3a20000000000000000000000000000000000000815250610ec4565b6122ba8160020b612f1d565b600760149054906101000a900460020b60020b8160020b816122d857fe5b07810390506000600c60009054906101000a900460020b600760149054906101000a900460020b02820390506000600c60009054906101000a900460020b600760149054906101000a900460020b02830190506000600760149054906101000a900460020b60020b8460020b8161234b57fe5b0760020b1461238f576040517f08c379a000000000000000000000000000000000000000000000000000000000815260040161238690613f11565b60405180910390fd5b6123cd6040518060400160405280601181526020017f6c6f7765722a7570706572207469636b20000000000000000000000000000000815250610ec4565b6123d98260020b612f1d565b6123e58160020b612f1d565b6000604051806101600160405280600760009054906101000a900473ffffffffffffffffffffffffffffffffffffffff1673ffffffffffffffffffffffffffffffffffffffff16630dfe16816040518163ffffffff1660e01b815260040160206040518083038186803b15801561245b57600080fd5b505afa15801561246f573d6000803e3d6000fd5b505050506040513d601f19601f8201168201806040525081019061249391906135b1565b73ffffffffffffffffffffffffffffffffffffffff168152602001600760009054906101000a900473ffffffffffffffffffffffffffffffffffffffff1673ffffffffffffffffffffffffffffffffffffffff1663d21220a76040518163ffffffff1660e01b815260040160206040518083038186803b15801561251657600080fd5b505afa15801561252a573d6000803e3d6000fd5b505050506040513d601f19601f8201168201806040525081019061254e91906135b1565b73ffffffffffffffffffffffffffffffffffffffff168152602001610bb862ffffff1681526020018460020b81526020018360020b81526020018b81526020018a815260200160008152602001600081526020013073ffffffffffffffffffffffffffffffffffffffff168152602001428152509050600560019054906101000a900473ffffffffffffffffffffffffffffffffffffffff1673ffffffffffffffffffffffffffffffffffffffff166388316456826040518263ffffffff1660e01b815260040161261f9190613fac565b608060405180830381600087803b15801561263957600080fd5b505af115801561264d573d6000803e3d6000fd5b505050506040513d601f19601f8201168201806040525081019061267191906138ec565b809850819950829a50839b50505050506126c16040518060400160405280601b81526020017f6e657720706f736974696f6e206d696e7465643a2025732c202573000000000081525087876130f1565b8986101561279757612796600760009054906101000a900473ffffffffffffffffffffffffffffffffffffffff1673ffffffffffffffffffffffffffffffffffffffff16630dfe16816040518163ffffffff1660e01b815260040160206040518083038186803b15801561273457600080fd5b505afa158015612748573d6000803e3d6000fd5b505050506040513d601f19601f8201168201806040525081019061276c91906135b1565b600560019054906101000a900473ffffffffffffffffffffffffffffffffffffffff166000613201565b5b8885101561286d5761286c600760009054906101000a900473ffffffffffffffffffffffffffffffffffffffff1673ffffffffffffffffffffffffffffffffffffffff1663d21220a76040518163ffffffff1660e01b815260040160206040518083038186803b15801561280a57600080fd5b505afa15801561281e573d6000803e3d6000fd5b505050506040513d601f19601f8201168201806040525081019061284291906135b1565b600560019054906101000a900473ffffffffffffffffffffffffffffffffffffffff166000613201565b5b612ade6040518060600160405280602581526020016143aa60259139600760009054906101000a900473ffffffffffffffffffffffffffffffffffffffff1673ffffffffffffffffffffffffffffffffffffffff16630dfe16816040518163ffffffff1660e01b815260040160206040518083038186803b1580156128f157600080fd5b505afa158015612905573d6000803e3d6000fd5b505050506040513d601f19601f8201168201806040525081019061292991906135b1565b73ffffffffffffffffffffffffffffffffffffffff166370a08231306040518263ffffffff1660e01b81526004016129619190613d9d565b60206040518083038186803b15801561297957600080fd5b505afa15801561298d573d6000803e3d6000fd5b505050506040513d601f19601f820116820180604052508101906129b191906138c3565b600760009054906101000a900473ffffffffffffffffffffffffffffffffffffffff1673ffffffffffffffffffffffffffffffffffffffff1663d21220a76040518163ffffffff1660e01b815260040160206040518083038186803b158015612a1957600080fd5b505afa158015612a2d573d6000803e3d6000fd5b505050506040513d601f19601f82011682018060405250810190612a5191906135b1565b73ffffffffffffffffffffffffffffffffffffffff166370a08231306040518263ffffffff1660e01b8152600401612a899190613d9d565b60206040518083038186803b158015612aa157600080fd5b505afa158015612ab5573d6000803e3d6000fd5b505050506040513d601f19601f82011682018060405250810190612ad991906138c3565b6130f1565b5050505092959194509250565b6000806000612bbc600760009054906101000a900473ffffffffffffffffffffffffffffffffffffffff1673ffffffffffffffffffffffffffffffffffffffff16630dfe16816040518163ffffffff1660e01b815260040160206040518083038186803b158015612b5b57600080fd5b505afa158015612b6f573d6000803e3d6000fd5b505050506040513d601f19601f82011682018060405250810190612b9391906135b1565b600560019054906101000a900473ffffffffffffffffffffffffffffffffffffffff1687613201565b612c88600760009054906101000a900473ffffffffffffffffffffffffffffffffffffffff1673ffffffffffffffffffffffffffffffffffffffff1663d21220a76040518163ffffffff1660e01b815260040160206040518083038186803b158015612c2757600080fd5b505afa158015612c3b573d6000803e3d6000fd5b505050506040513d601f19601f82011682018060405250810190612c5f91906135b1565b600560019054906101000a900473ffffffffffffffffffffffffffffffffffffffff1686613201565b612cab6040518060600160405280602681526020016142e06026913986866130f1565b60006040518060c001604052808881526020018781526020018681526020016000815260200160008152602001428152509050600560019054906101000a900473ffffffffffffffffffffffffffffffffffffffff1673ffffffffffffffffffffffffffffffffffffffff1663219f5d17826040518263ffffffff1660e01b8152600401612d399190613f91565b606060405180830381600087803b158015612d5357600080fd5b505af1158015612d67573d6000803e3d6000fd5b505050506040513d601f19601f82011682018060405250810190612d8b91906137ad565b809450819550829650505050612dd76040518060400160405280601881526020017f61637475616c20616d6f756e74733a202573202d3e202573000000000000000081525084846130f1565b5093509350939050565b612f1883838360405160240180806020018473ffffffffffffffffffffffffffffffffffffffff1681526020018373ffffffffffffffffffffffffffffffffffffffff168152602001828103825285818151815260200191508051906020019080838360005b83811015612e62578082015181840152602081019050612e47565b50505050905090810190601f168015612e8f5780820380516001836020036101000a031916815260200191505b509450505050506040516020818303038152906040527ffcec75e0000000000000000000000000000000000000000000000000000000007bffffffffffffffffffffffffffffffffffffffffffffffffffffffff19166020820180517bffffffffffffffffffffffffffffffffffffffffffffffffffffffff8381831617835250505050611c47565b505050565b612fb381604051602401808281526020019150506040516020818303038152906040527f2d5b6cb9000000000000000000000000000000000000000000000000000000007bffffffffffffffffffffffffffffffffffffffffffffffffffffffff19166020820180517bffffffffffffffffffffffffffffffffffffffffffffffffffffffff8381831617835250505050611c47565b50565b60006a636f6e736f6c652e6c6f679050600080835160208501845afa505050565b613402819050919050565b60006001905081700100000000000000000000000000000000811061300e578060801c90508160401b91505b68010000000000000000811061302b578060401c90508160201b91505b6401000000008110613044578060201c90508160101b91505b62010000811061305b578060101c90508160081b91505b6101008110613071578060081c90508160041b91505b60108110613086578060041c90508160021b91505b60088110613095578160011b91505b818304820160011c9150818304820160011c9150818304820160011c9150818304820160011c9150818304820160011c9150818304820160011c9150818304820160011c9150818304828110156130ea578092505b5050919050565b6131fc8383836040516024018080602001848152602001838152602001828103825285818151815260200191508051906020019080838360005b8381101561314657808201518184015260208101905061312b565b50505050905090810190601f1680156131735780820380516001836020036101000a031916815260200191505b509450505050506040516020818303038152906040527fca47c4eb000000000000000000000000000000000000000000000000000000007bffffffffffffffffffffffffffffffffffffffffffffffffffffffff19166020820180517bffffffffffffffffffffffffffffffffffffffffffffffffffffffff8381831617835250505050611c47565b505050565b6000808473ffffffffffffffffffffffffffffffffffffffff1663095ea7b360e01b8585604051602401808373ffffffffffffffffffffffffffffffffffffffff16815260200182815260200192505050604051602081830303815290604052907bffffffffffffffffffffffffffffffffffffffffffffffffffffffff19166020820180517bffffffffffffffffffffffffffffffffffffffffffffffffffffffff83818316178352505050506040518082805190602001908083835b602083106132e257805182526020820191506020810190506020830392506132bf565b6001836020036101000a0380198251168184511680821785525050505050509050019150506000604051808303816000865af19150503d8060008114613344576040519150601f19603f3d011682016040523d82523d6000602084013e613349565b606091505b50915091508180156133895750600081511480613388575080806020019051602081101561337657600080fd5b81019080805190602001909291905050505b5b6133fb576040517f08c379a00000000000000000000000000000000000000000000000000000000081526004018080602001828103825260028152602001807f534100000000000000000000000000000000000000000000000000000000000081525060200191505060405180910390fd5b5050505050565bfe5b60006134176134128461402f565b613ffe565b90508281526020810184848401111561342f57600080fd5b61343a848285614183565b509392505050565b600081359050613451816141e2565b92915050565b600081519050613466816141e2565b92915050565b60008151905061347b816141f9565b92915050565b60008083601f84011261349357600080fd5b8235905067ffffffffffffffff8111156134ac57600080fd5b6020830191508360018202830111156134c457600080fd5b9250929050565b6000815190506134da81614210565b92915050565b600082601f8301126134f157600080fd5b8135613501848260208601613404565b91505092915050565b60008151905061351981614227565b92915050565b60008151905061352e81614255565b92915050565b6000815190506135438161423e565b92915050565b6000813590506135588161426c565b92915050565b60008151905061356d8161426c565b92915050565b60008151905061358281614283565b92915050565b60006020828403121561359a57600080fd5b60006135a884828501613442565b91505092915050565b6000602082840312156135c357600080fd5b60006135d184828501613457565b91505092915050565b6000806000806000608086880312156135f257600080fd5b600061360088828901613442565b955050602061361188828901613442565b945050604061362288828901613549565b935050606086013567ffffffffffffffff81111561363f57600080fd5b61364b88828901613481565b92509250509295509295909350565b60006020828403121561366c57600080fd5b600061367a8482850161346c565b91505092915050565b60006020828403121561369557600080fd5b60006136a3848285016134cb565b91505092915050565b6000602082840312156136be57600080fd5b600082013567ffffffffffffffff8111156136d857600080fd5b6136e4848285016134e0565b91505092915050565b6000806040838503121561370057600080fd5b600083013567ffffffffffffffff81111561371a57600080fd5b613726858286016134e0565b925050602083013567ffffffffffffffff81111561374357600080fd5b61374f858286016134e0565b9150509250929050565b6000806040838503121561376c57600080fd5b600083013567ffffffffffffffff81111561378657600080fd5b613792858286016134e0565b92505060206137a385828601613549565b9150509250929050565b6000806000606084860312156137c257600080fd5b60006137d08682870161350a565b93505060206137e18682870161355e565b92505060406137f28682870161355e565b9150509250925092565b600080600080600080600060e0888a03121561381757600080fd5b60006138258a828b0161351f565b97505060206138368a828b016134cb565b96505060406138478a828b01613534565b95505060606138588a828b01613534565b94505060806138698a828b01613534565b93505060a061387a8a828b01613573565b92505060c061388b8a828b0161346c565b91505092959891949750929550565b6000602082840312156138ac57600080fd5b60006138ba84828501613549565b91505092915050565b6000602082840312156138d557600080fd5b60006138e38482850161355e565b91505092915050565b6000806000806080858703121561390257600080fd5b60006139108782880161355e565b94505060206139218782880161350a565b93505060406139328782880161355e565b92505060606139438782880161355e565b91505092959194509250565b6139588161414d565b82525050565b61396781614086565b82525050565b61397681614086565b82525050565b613985816140a4565b82525050565b613994816140d0565b82525050565b60006139a58261405f565b6139af818561406a565b93506139bf818560208601614192565b6139c8816141d1565b840191505092915050565b60006139de8261405f565b6139e8818561407b565b93506139f8818560208601614192565b80840191505092915050565b6000613a11601d8361406a565b91507f46756e64696e67206f76657220686173206265656e2063616c6c65642e0000006000830152602082019050919050565b6000613a5160108361406a565b91507f66756e64206d757374203e207a65726f000000000000000000000000000000006000830152602082019050919050565b6000613a91600a8361406a565b91507f7469636b206572726f72000000000000000000000000000000000000000000006000830152602082019050919050565b6000613ad160168361406a565b91507f457468657265756d206e6f74206465706f7369746564000000000000000000006000830152602082019050919050565b6000613b1160098361406a565b91507f6e6f74206f776e657200000000000000000000000000000000000000000000006000830152602082019050919050565b6000613b5160118361406a565b91507f66756e64696e672068617320656e6465640000000000000000000000000000006000830152602082019050919050565b60c082016000820151613b9a6000850182613d1c565b506020820151613bad6020850182613d1c565b506040820151613bc06040850182613d1c565b506060820151613bd36060850182613d1c565b506080820151613be66080850182613d1c565b5060a0820151613bf960a0850182613d1c565b50505050565b61016082016000820151613c16600085018261395e565b506020820151613c29602085018261395e565b506040820151613c3c6040850182613cfe565b506060820151613c4f606085018261398b565b506080820151613c62608085018261398b565b5060a0820151613c7560a0850182613d1c565b5060c0820151613c8860c0850182613d1c565b5060e0820151613c9b60e0850182613d1c565b50610100820151613cb0610100850182613d1c565b50610120820151613cc561012085018261395e565b50610140820151613cda610140850182613d1c565b50505050565b613ce9816140dd565b82525050565b613cf881614107565b82525050565b613d0781614127565b82525050565b613d1681614127565b82525050565b613d2581614136565b82525050565b613d3481614136565b82525050565b613d4b613d4682614136565b6141c5565b82525050565b6000613d5d82856139d3565b9150613d6982846139d3565b91508190509392505050565b6000613d8182856139d3565b9150613d8d8284613d3a565b6020820191508190509392505050565b6000602082019050613db2600083018461396d565b92915050565b6000604082019050613dcd600083018561394f565b613dda6020830184613d2b565b9392505050565b6000608082019050613df6600083018761396d565b613e03602083018661396d565b613e106040830185613d0d565b613e1d6060830184613cef565b95945050505050565b6000608082019050613e3b600083018761396d565b613e486020830186613ce0565b613e55604083018561396d565b613e62606083018461396d565b95945050505050565b6000604082019050613e80600083018561396d565b613e8d6020830184613d2b565b9392505050565b6000602082019050613ea9600083018461397c565b92915050565b60006020820190508181036000830152613ec9818461399a565b905092915050565b60006020820190508181036000830152613eea81613a04565b9050919050565b60006020820190508181036000830152613f0a81613a44565b9050919050565b60006020820190508181036000830152613f2a81613a84565b9050919050565b60006020820190508181036000830152613f4a81613ac4565b9050919050565b60006020820190508181036000830152613f6a81613b04565b9050919050565b60006020820190508181036000830152613f8a81613b44565b9050919050565b600060c082019050613fa66000830184613b84565b92915050565b600061016082019050613fc26000830184613bff565b92915050565b6000602082019050613fdd6000830184613d0d565b92915050565b6000602082019050613ff86000830184613d2b565b92915050565b6000604051905081810181811067ffffffffffffffff82111715614025576140246141cf565b5b8060405250919050565b600067ffffffffffffffff82111561404a576140496141cf565b5b601f19601f8301169050602081019050919050565b600081519050919050565b600082825260208201905092915050565b600081905092915050565b600061409182614107565b9050919050565b60008115159050919050565b60007fffffffff0000000000000000000000000000000000000000000000000000000082169050919050565b60008160020b9050919050565b60006fffffffffffffffffffffffffffffffff82169050919050565b600061ffff82169050919050565b600073ffffffffffffffffffffffffffffffffffffffff82169050919050565b600062ffffff82169050919050565b6000819050919050565b600060ff82169050919050565b60006141588261415f565b9050919050565b600061416a82614171565b9050919050565b600061417c82614107565b9050919050565b82818337600083830152505050565b60005b838110156141b0578082015181840152602081019050614195565b838111156141bf576000848401525b50505050565b6000819050919050565bfe5b6000601f19601f8301169050919050565b6141eb81614086565b81146141f657600080fd5b50565b61420281614098565b811461420d57600080fd5b50565b614219816140d0565b811461422457600080fd5b50565b614230816140dd565b811461423b57600080fd5b50565b614247816140f9565b811461425257600080fd5b50565b61425e81614107565b811461426957600080fd5b50565b61427581614136565b811461428057600080fd5b50565b61428c81614140565b811461429757600080fd5b5056fe2d2d2d2d2d2d2d2d2d2d2d2d20626567696e206f6620636f6e7472616374206d6574686f642073656e644d696e67546f46756e6465722829202d2d2d2d2d2d2d2d2d2d2d2d616d6f756e7420746f20696e637265617365206c69717569646974793a202573202d3e20257362616c616e6365206f662045544820616e64204d494e47202d3e2025732c2025732d2d2d2d2d2d2d2d2d2d2d2d20656e64206f6620636f6e7472616374206d6574686f642073656e644d696e67546f46756e6465722829202d2d2d2d2d2d2d2d2d2d2d2d2d2d2d2d2d2d2d2d2d2d2d2d20656e64206f6620636f6e7472616374206d6574686f64206f6e46756e64696e674f7665722829202d2d2d2d2d2d2d2d2d2d2d2d6e65772062616c616e6365206f662045544820616e64204d494e47202d3e2025732c202573616d6f756e7420746f206d696e74206e657720706f736974696f6e20202d3e2025732c2025732d2d2d2d2d2d2d2d2d2d2d2d20626567696e206f6620636f6e7472616374206d6574686f64206f6e46756e64696e674f7665722829202d2d2d2d2d2d2d2d2d2d2d2da26469706673582212209e2cde85443dc4d5a5f9b95b2f0aa4af66d51edcf8c44a0c959b7ab321e00ec564736f6c63430007060033",
  "devdoc": {
    "kind": "dev",
    "methods": {},
    "stateVariables": {
      "deposits": {
        "details": "deposits[tokenId] => Deposit"
      }
    },
    "version": 1
  },
  "userdoc": {
    "kind": "user",
    "methods": {},
    "version": 1
  },
  "storageLayout": {
    "storage": [
      {
        "astId": 2211,
        "contract": "contracts/Funding.sol:Funding",
        "label": "deposits",
        "offset": 0,
        "slot": "0",
        "type": "t_mapping(t_uint256,t_struct(Deposit)2203_storage)"
      },
      {
        "astId": 2215,
        "contract": "contracts/Funding.sol:Funding",
        "label": "addressToAmountFunded",
        "offset": 0,
        "slot": "1",
        "type": "t_mapping(t_address,t_struct(Funds)2194_storage)"
      },
      {
        "astId": 2218,
        "contract": "contracts/Funding.sol:Funding",
        "label": "funders",
        "offset": 0,
        "slot": "2",
        "type": "t_array(t_address)dyn_storage"
      },
      {
        "astId": 2220,
        "contract": "contracts/Funding.sol:Funding",
        "label": "addressOfMing",
        "offset": 0,
        "slot": "3",
        "type": "t_address"
      },
      {
        "astId": 2223,
        "contract": "contracts/Funding.sol:Funding",
        "label": "tokenId",
        "offset": 0,
        "slot": "4",
        "type": "t_uint256"
      },
      {
        "astId": 2226,
        "contract": "contracts/Funding.sol:Funding",
        "label": "fundingIsOver",
        "offset": 0,
        "slot": "5",
        "type": "t_bool"
      },
      {
        "astId": 2232,
        "contract": "contracts/Funding.sol:Funding",
        "label": "nonfungiblePositionManager",
        "offset": 1,
        "slot": "5",
        "type": "t_contract(INonfungiblePositionManager)1708"
      },
      {
        "astId": 2238,
        "contract": "contracts/Funding.sol:Funding",
        "label": "v3Factory",
        "offset": 0,
        "slot": "6",
        "type": "t_contract(IUniswapV3Factory)364"
      },
      {
        "astId": 2240,
        "contract": "contracts/Funding.sol:Funding",
        "label": "pool",
        "offset": 0,
        "slot": "7",
        "type": "t_contract(IUniswapV3Pool)386"
      },
      {
        "astId": 2245,
        "contract": "contracts/Funding.sol:Funding",
        "label": "tickSpacing",
        "offset": 20,
        "slot": "7",
        "type": "t_int24"
      },
      {
        "astId": 2247,
        "contract": "contracts/Funding.sol:Funding",
        "label": "weth",
        "offset": 0,
        "slot": "8",
        "type": "t_contract(IWETH)2173"
      },
      {
        "astId": 2249,
        "contract": "contracts/Funding.sol:Funding",
        "label": "i_owner",
        "offset": 0,
        "slot": "9",
        "type": "t_address"
      },
      {
        "astId": 2251,
        "contract": "contracts/Funding.sol:Funding",
        "label": "endTime",
        "offset": 0,
        "slot": "10",
        "type": "t_uint256"
      },
      {
        "astId": 2253,
        "contract": "contracts/Funding.sol:Funding",
        "label": "fundRaised",
        "offset": 0,
        "slot": "11",
        "type": "t_uint256"
      },
      {
        "astId": 2256,
        "contract": "contracts/Funding.sol:Funding",
        "label": "TICK_SPACING_MULTIPLIER",
        "offset": 0,
        "slot": "12",
        "type": "t_int24"
      },
      {
        "astId": 2259,
        "contract": "contracts/Funding.sol:Funding",
        "label": "DIVIDER",
        "offset": 0,
        "slot": "13",
        "type": "t_uint256"
      }
    ],
    "types": {
      "t_address": {
        "encoding": "inplace",
        "label": "address",
        "numberOfBytes": "20"
      },
      "t_array(t_address)dyn_storage": {
        "base": "t_address",
        "encoding": "dynamic_array",
        "label": "address[]",
        "numberOfBytes": "32"
      },
      "t_bool": {
        "encoding": "inplace",
        "label": "bool",
        "numberOfBytes": "1"
      },
      "t_contract(INonfungiblePositionManager)1708": {
        "encoding": "inplace",
        "label": "contract INonfungiblePositionManager",
        "numberOfBytes": "20"
      },
      "t_contract(IUniswapV3Factory)364": {
        "encoding": "inplace",
        "label": "contract IUniswapV3Factory",
        "numberOfBytes": "20"
      },
      "t_contract(IUniswapV3Pool)386": {
        "encoding": "inplace",
        "label": "contract IUniswapV3Pool",
        "numberOfBytes": "20"
      },
      "t_contract(IWETH)2173": {
        "encoding": "inplace",
        "label": "contract IWETH",
        "numberOfBytes": "20"
      },
      "t_int24": {
        "encoding": "inplace",
        "label": "int24",
        "numberOfBytes": "3"
      },
      "t_mapping(t_address,t_struct(Funds)2194_storage)": {
        "encoding": "mapping",
        "key": "t_address",
        "label": "mapping(address => struct Funding.Funds)",
        "numberOfBytes": "32",
        "value": "t_struct(Funds)2194_storage"
      },
      "t_mapping(t_uint256,t_struct(Deposit)2203_storage)": {
        "encoding": "mapping",
        "key": "t_uint256",
        "label": "mapping(uint256 => struct Funding.Deposit)",
        "numberOfBytes": "32",
        "value": "t_struct(Deposit)2203_storage"
      },
      "t_struct(Deposit)2203_storage": {
        "encoding": "inplace",
        "label": "struct Funding.Deposit",
        "members": [
          {
            "astId": 2196,
            "contract": "contracts/Funding.sol:Funding",
            "label": "owner",
            "offset": 0,
            "slot": "0",
            "type": "t_address"
          },
          {
            "astId": 2198,
            "contract": "contracts/Funding.sol:Funding",
            "label": "liquidity",
            "offset": 0,
            "slot": "1",
            "type": "t_uint128"
          },
          {
            "astId": 2200,
            "contract": "contracts/Funding.sol:Funding",
            "label": "token0",
            "offset": 0,
            "slot": "2",
            "type": "t_address"
          },
          {
            "astId": 2202,
            "contract": "contracts/Funding.sol:Funding",
            "label": "token1",
            "offset": 0,
            "slot": "3",
            "type": "t_address"
          }
        ],
        "numberOfBytes": "128"
      },
      "t_struct(Funds)2194_storage": {
        "encoding": "inplace",
        "label": "struct Funding.Funds",
        "members": [
          {
            "astId": 2191,
            "contract": "contracts/Funding.sol:Funding",
            "label": "amount",
            "offset": 0,
            "slot": "0",
            "type": "t_uint256"
          },
          {
            "astId": 2193,
            "contract": "contracts/Funding.sol:Funding",
            "label": "exists",
            "offset": 0,
            "slot": "1",
            "type": "t_bool"
          }
        ],
        "numberOfBytes": "64"
      },
      "t_uint128": {
        "encoding": "inplace",
        "label": "uint128",
        "numberOfBytes": "16"
      },
      "t_uint256": {
        "encoding": "inplace",
        "label": "uint256",
        "numberOfBytes": "32"
      }
    }
  }
}