{
  "address": "0x76a999d5F7EFDE0a300e710e6f52Fb0A4b61aD58",
  "abi": [
    {
      "inputs": [],
      "stateMutability": "nonpayable",
      "type": "constructor"
    },
    {
      "anonymous": false,
      "inputs": [
        {
          "indexed": true,
          "internalType": "address",
          "name": "owner",
          "type": "address"
        },
        {
          "indexed": true,
          "internalType": "address",
          "name": "spender",
          "type": "address"
        },
        {
          "indexed": false,
          "internalType": "uint256",
          "name": "value",
          "type": "uint256"
        }
      ],
      "name": "Approval",
      "type": "event"
    },
    {
      "anonymous": false,
      "inputs": [
        {
          "indexed": true,
          "internalType": "address",
          "name": "from",
          "type": "address"
        },
        {
          "indexed": true,
          "internalType": "address",
          "name": "to",
          "type": "address"
        },
        {
          "indexed": false,
          "internalType": "uint256",
          "name": "value",
          "type": "uint256"
        }
      ],
      "name": "Transfer",
      "type": "event"
    },
    {
      "inputs": [
        {
          "internalType": "address",
          "name": "owner",
          "type": "address"
        },
        {
          "internalType": "address",
          "name": "spender",
          "type": "address"
        }
      ],
      "name": "allowance",
      "outputs": [
        {
          "internalType": "uint256",
          "name": "",
          "type": "uint256"
        }
      ],
      "stateMutability": "view",
      "type": "function"
    },
    {
      "inputs": [
        {
          "internalType": "address",
          "name": "spender",
          "type": "address"
        },
        {
          "internalType": "uint256",
          "name": "value",
          "type": "uint256"
        }
      ],
      "name": "approve",
      "outputs": [
        {
          "internalType": "bool",
          "name": "",
          "type": "bool"
        }
      ],
      "stateMutability": "nonpayable",
      "type": "function"
    },
    {
      "inputs": [
        {
          "internalType": "address",
          "name": "account",
          "type": "address"
        }
      ],
      "name": "balanceOf",
      "outputs": [
        {
          "internalType": "uint256",
          "name": "",
          "type": "uint256"
        }
      ],
      "stateMutability": "view",
      "type": "function"
    },
    {
      "inputs": [],
      "name": "balanceToMint",
      "outputs": [
        {
          "internalType": "uint256",
          "name": "",
          "type": "uint256"
        }
      ],
      "stateMutability": "view",
      "type": "function"
    },
    {
      "inputs": [],
      "name": "batchMint",
      "outputs": [],
      "stateMutability": "payable",
      "type": "function"
    },
    {
      "inputs": [
        {
          "internalType": "string",
          "name": "displayName",
          "type": "string"
        },
        {
          "internalType": "string",
          "name": "recipient",
          "type": "string"
        },
        {
          "internalType": "uint256",
          "name": "amount",
          "type": "uint256"
        }
      ],
      "name": "burn",
      "outputs": [
        {
          "internalType": "address",
          "name": "",
          "type": "address"
        }
      ],
      "stateMutability": "nonpayable",
      "type": "function"
    },
    {
      "inputs": [
        {
          "internalType": "address",
          "name": "addr",
          "type": "address"
        },
        {
          "internalType": "uint256",
          "name": "amount",
          "type": "uint256"
        }
      ],
      "name": "burnToAddress",
      "outputs": [],
      "stateMutability": "nonpayable",
      "type": "function"
    },
    {
      "inputs": [],
      "name": "decimals",
      "outputs": [
        {
          "internalType": "uint8",
          "name": "",
          "type": "uint8"
        }
      ],
      "stateMutability": "view",
      "type": "function"
    },
    {
      "inputs": [
        {
          "internalType": "string",
          "name": "recipient",
          "type": "string"
        }
      ],
      "name": "getAddressByName",
      "outputs": [
        {
          "internalType": "address",
          "name": "",
          "type": "address"
        }
      ],
      "stateMutability": "view",
      "type": "function"
    },
    {
      "inputs": [
        {
          "internalType": "address",
          "name": "addr",
          "type": "address"
        }
      ],
      "name": "getBaseProfile",
      "outputs": [
        {
          "components": [
            {
              "internalType": "address",
              "name": "addr",
              "type": "address"
            },
            {
              "internalType": "string",
              "name": "name",
              "type": "string"
            },
            {
              "internalType": "string",
              "name": "displayName",
              "type": "string"
            },
            {
              "internalType": "uint256",
              "name": "amount",
              "type": "uint256"
            },
            {
              "internalType": "bool",
              "name": "exists",
              "type": "bool"
            }
          ],
          "internalType": "struct MingCoin.Burning",
          "name": "",
          "type": "tuple"
        }
      ],
      "stateMutability": "view",
      "type": "function"
    },
    {
      "inputs": [],
      "name": "getBurningList",
      "outputs": [
        {
          "components": [
            {
              "internalType": "address",
              "name": "addr",
              "type": "address"
            },
            {
              "internalType": "string",
              "name": "name",
              "type": "string"
            },
            {
              "internalType": "string",
              "name": "displayName",
              "type": "string"
            },
            {
              "internalType": "uint256",
              "name": "amount",
              "type": "uint256"
            },
            {
              "internalType": "bool",
              "name": "exists",
              "type": "bool"
            }
          ],
          "internalType": "struct MingCoin.Burning[]",
          "name": "",
          "type": "tuple[]"
        }
      ],
      "stateMutability": "view",
      "type": "function"
    },
    {
      "inputs": [
        {
          "internalType": "address",
          "name": "addr",
          "type": "address"
        }
      ],
      "name": "getNameByAddress",
      "outputs": [
        {
          "internalType": "string",
          "name": "",
          "type": "string"
        }
      ],
      "stateMutability": "view",
      "type": "function"
    },
    {
      "inputs": [
        {
          "internalType": "uint256",
          "name": "_type",
          "type": "uint256"
        },
        {
          "internalType": "address",
          "name": "addr",
          "type": "address"
        }
      ],
      "name": "getProfileList",
      "outputs": [
        {
          "components": [
            {
              "internalType": "string",
              "name": "key",
              "type": "string"
            },
            {
              "internalType": "uint256",
              "name": "value",
              "type": "uint256"
            }
          ],
          "internalType": "struct MingCoin.KV[]",
          "name": "",
          "type": "tuple[]"
        }
      ],
      "stateMutability": "view",
      "type": "function"
    },
    {
      "inputs": [],
      "name": "isMintOver",
      "outputs": [
        {
          "internalType": "bool",
          "name": "",
          "type": "bool"
        }
      ],
      "stateMutability": "view",
      "type": "function"
    },
    {
      "inputs": [],
      "name": "maxSupply",
      "outputs": [
        {
          "internalType": "uint256",
          "name": "",
          "type": "uint256"
        }
      ],
      "stateMutability": "pure",
      "type": "function"
    },
    {
      "inputs": [],
      "name": "mint",
      "outputs": [
        {
          "internalType": "uint256",
          "name": "",
          "type": "uint256"
        }
      ],
      "stateMutability": "nonpayable",
      "type": "function"
    },
    {
      "inputs": [],
      "name": "name",
      "outputs": [
        {
          "internalType": "string",
          "name": "",
          "type": "string"
        }
      ],
      "stateMutability": "view",
      "type": "function"
    },
    {
      "inputs": [],
      "name": "symbol",
      "outputs": [
        {
          "internalType": "string",
          "name": "",
          "type": "string"
        }
      ],
      "stateMutability": "view",
      "type": "function"
    },
    {
      "inputs": [],
      "name": "totalMinted",
      "outputs": [
        {
          "internalType": "uint256",
          "name": "",
          "type": "uint256"
        }
      ],
      "stateMutability": "view",
      "type": "function"
    },
    {
      "inputs": [],
      "name": "totalSupply",
      "outputs": [
        {
          "internalType": "uint256",
          "name": "",
          "type": "uint256"
        }
      ],
      "stateMutability": "view",
      "type": "function"
    },
    {
      "inputs": [
        {
          "internalType": "address",
          "name": "to",
          "type": "address"
        },
        {
          "internalType": "uint256",
          "name": "value",
          "type": "uint256"
        }
      ],
      "name": "transfer",
      "outputs": [
        {
          "internalType": "bool",
          "name": "",
          "type": "bool"
        }
      ],
      "stateMutability": "nonpayable",
      "type": "function"
    },
    {
      "inputs": [
        {
          "internalType": "address",
          "name": "from",
          "type": "address"
        },
        {
          "internalType": "address",
          "name": "to",
          "type": "address"
        },
        {
          "internalType": "uint256",
          "name": "value",
          "type": "uint256"
        }
      ],
      "name": "transferFrom",
      "outputs": [
        {
          "internalType": "bool",
          "name": "",
          "type": "bool"
        }
      ],
      "stateMutability": "nonpayable",
      "type": "function"
    },
    {
      "inputs": [
        {
          "internalType": "uint256",
          "name": "_type",
          "type": "uint256"
        },
        {
          "internalType": "address",
          "name": "addr",
          "type": "address"
        },
        {
          "internalType": "string",
          "name": "url",
          "type": "string"
        },
        {
          "internalType": "uint256",
          "name": "amount",
          "type": "uint256"
        }
      ],
      "name": "updateProfile",
      "outputs": [],
      "stateMutability": "nonpayable",
      "type": "function"
    }
  ],
  "transactionHash": "0x2e90465d6f14c03f7bef70f68944dc25318ec36d57389dc448fa611dc91d5ea7",
  "args": [],
  "numDeployments": 1,
  "solcInputHash": "a828e39d95c225524fff70d61513e7d4",
  "bytecode": "0x60806040526000600b553480156200001657600080fd5b506040518060400160405280601081526020017f4d696e6720436f696e2076302e312e32000000000000000000000000000000008152506040518060400160405280600481526020017f4d494e470000000000000000000000000000000000000000000000000000000081525081600390805190602001906200009b92919062000112565b508060049080519060200190620000b492919062000112565b50505073b4fbf271143f4fbf7b91a5ded31805e42b2208d6600c60006101000a81548173ffffffffffffffffffffffffffffffffffffffff021916908373ffffffffffffffffffffffffffffffffffffffff160217905550620001c8565b828054600181600116156101000203166002900490600052602060002090601f0160209004810192826200014a576000855562000196565b82601f106200016557805160ff191683800117855562000196565b8280016001018555821562000196579182015b828111156200019557825182559160200191906001019062000178565b5b509050620001a59190620001a9565b5090565b5b80821115620001c4576000816000905550600101620001aa565b5090565b61367a80620001d86000396000f3fe6080604052600436106101405760003560e01c806380a3c633116100b6578063a73154cd1161006f578063a73154cd14610488578063a9059cbb146104c5578063b01b515814610502578063d5abeb011461053f578063dd62ed3e1461056a578063e3424c93146105a757610140565b806380a3c6331461036457806389791cb6146103a157806395d89b41146103cc578063995a38f6146103f75780639a65ddec14610420578063a2309ff81461045d57610140565b80631c783c7b116101085780631c783c7b1461022e57806323b872dd14610259578063313ce5671461029657806370a08231146102c15780637c80bb4f146102fe5780637fd2ca131461033b57610140565b806306fdde0314610145578063095ea7b3146101705780630b59c43e146101ad5780631249c58b146101d857806318160ddd14610203575b600080fd5b34801561015157600080fd5b5061015a6105b1565b6040516101679190613218565b60405180910390f35b34801561017c57600080fd5b5061019760048036038101906101929190612972565b610653565b6040516101a491906131fd565b60405180910390f35b3480156101b957600080fd5b506101c2610676565b6040516101cf91906131fd565b60405180910390f35b3480156101e457600080fd5b506101ed610690565b6040516101fa919061333c565b60405180910390f35b34801561020f57600080fd5b50610218610766565b604051610225919061333c565b60405180910390f35b34801561023a57600080fd5b50610243610770565b60405161025091906131b9565b60405180910390f35b34801561026557600080fd5b50610280600480360381019061027b9190612923565b610a93565b60405161028d91906131fd565b60405180910390f35b3480156102a257600080fd5b506102ab610ac2565b6040516102b89190613357565b60405180910390f35b3480156102cd57600080fd5b506102e860048036038101906102e391906128be565b610acb565b6040516102f5919061333c565b60405180910390f35b34801561030a57600080fd5b50610325600480360381019061032091906128be565b610b13565b6040516103329190613218565b60405180910390f35b34801561034757600080fd5b50610362600480360381019061035d9190612972565b610bf7565b005b34801561037057600080fd5b5061038b60048036038101906103869190612a1c565b610cec565b604051610398919061314c565b60405180910390f35b3480156103ad57600080fd5b506103b6611007565b6040516103c3919061333c565b60405180910390f35b3480156103d857600080fd5b506103e1611020565b6040516103ee9190613218565b60405180910390f35b34801561040357600080fd5b5061041e60048036038101906104199190612b00565b6110c2565b005b34801561042c57600080fd5b50610447600480360381019061044291906129d7565b61135b565b604051610454919061314c565b60405180910390f35b34801561046957600080fd5b50610472611436565b60405161047f919061333c565b60405180910390f35b34801561049457600080fd5b506104af60048036038101906104aa91906128be565b611440565b6040516104bc919061331a565b60405180910390f35b3480156104d157600080fd5b506104ec60048036038101906104e79190612972565b611658565b6040516104f991906131fd565b60405180910390f35b34801561050e57600080fd5b5061052960048036038101906105249190612ac4565b61167b565b60405161053691906131db565b60405180910390f35b34801561054b57600080fd5b50610554611937565b604051610561919061333c565b60405180910390f35b34801561057657600080fd5b50610591600480360381019061058c91906128e7565b61194c565b60405161059e919061333c565b60405180910390f35b6105af6119d3565b005b606060038054600181600116156101000203166002900480601f0160208091040260200160405190810160405280929190818152602001828054600181600116156101000203166002900480156106495780601f1061061e57610100808354040283529160200191610649565b820191906000526020600020905b81548152906001019060200180831161062c57829003601f168201915b5050505050905090565b60008061065e611dfe565b905061066b818585611e06565b600191505092915050565b60006c059c13d3eac3d0188a0af00000600b541015905090565b600080695e1d5b8642c46ef0000090506c059c13d3eac3d0188a0af00000600b54106106f1576040517f08c379a00000000000000000000000000000000000000000000000000000000081526004016106e89061329a565b60405180910390fd5b6c059c13d3eac3d0188a0af0000081600b54011115610744576000600b546c059c13d3eac3d0188a0af0000003905061072a3382611e18565b80600b600082825401925050819055508092505050610763565b61074e3382611e18565b80600b60008282540192505081905550809150505b90565b6000600254905090565b6060612710600a8054905011156107bc576040517f08c379a00000000000000000000000000000000000000000000000000000000081526004016107b3906132fa565b60405180910390fd5b6000600a8054905067ffffffffffffffff811180156107da57600080fd5b5060405190808252806020026020018201604052801561081457816020015b6108016126ac565b8152602001906001900390816107f95790505b50905060005b600a80549050811015610a8b5760086000600a838154811061083857fe5b9060005260206000200160009054906101000a900473ffffffffffffffffffffffffffffffffffffffff1673ffffffffffffffffffffffffffffffffffffffff1673ffffffffffffffffffffffffffffffffffffffff1681526020019081526020016000206040518060a00160405290816000820160009054906101000a900473ffffffffffffffffffffffffffffffffffffffff1673ffffffffffffffffffffffffffffffffffffffff1673ffffffffffffffffffffffffffffffffffffffff168152602001600182018054600181600116156101000203166002900480601f0160208091040260200160405190810160405280929190818152602001828054600181600116156101000203166002900480156109975780601f1061096c57610100808354040283529160200191610997565b820191906000526020600020905b81548152906001019060200180831161097a57829003601f168201915b50505050508152602001600282018054600181600116156101000203166002900480601f016020809104026020016040519081016040528092919081815260200182805460018160011615610100020316600290048015610a395780601f10610a0e57610100808354040283529160200191610a39565b820191906000526020600020905b815481529060010190602001808311610a1c57829003601f168201915b50505050508152602001600382015481526020016004820160009054906101000a900460ff161515151581525050828281518110610a7357fe5b6020026020010181905250808060010191505061081a565b508091505090565b600080610a9e611dfe565b9050610aab858285611ecb565b610ab6858585611f95565b60019150509392505050565b60006012905090565b60008060008373ffffffffffffffffffffffffffffffffffffffff1673ffffffffffffffffffffffffffffffffffffffff168152602001908152602001600020549050919050565b6060600860008373ffffffffffffffffffffffffffffffffffffffff1673ffffffffffffffffffffffffffffffffffffffff1681526020019081526020016000206001018054600181600116156101000203166002900480601f016020809104026020016040519081016040528092919081815260200182805460018160011615610100020316600290048015610beb5780601f10610bc057610100808354040283529160200191610beb565b820191906000526020600020905b815481529060010190602001808311610bce57829003601f168201915b50505050509050919050565b60011515600860008473ffffffffffffffffffffffffffffffffffffffff1673ffffffffffffffffffffffffffffffffffffffff16815260200190815260200160002060040160009054906101000a900460ff16151514610c8d576040517f08c379a0000000000000000000000000000000000000000000000000000000008152600401610c849061323a565b60405180910390fd5b610c978282611658565b5080600860008473ffffffffffffffffffffffffffffffffffffffff1673ffffffffffffffffffffffffffffffffffffffff168152602001908152602001600020600301600082825401925050819055505050565b600080610cf8846120b1565b9050610d048184611658565b5060001515600860008373ffffffffffffffffffffffffffffffffffffffff1673ffffffffffffffffffffffffffffffffffffffff16815260200190815260200160002060040160009054906101000a900460ff1615151415610f4f576001600860008373ffffffffffffffffffffffffffffffffffffffff1673ffffffffffffffffffffffffffffffffffffffff16815260200190815260200160002060040160006101000a81548160ff02191690831515021790555084600860008373ffffffffffffffffffffffffffffffffffffffff1673ffffffffffffffffffffffffffffffffffffffff1681526020019081526020016000206002019080519060200190610e129291906126f3565b5083600860008373ffffffffffffffffffffffffffffffffffffffff1673ffffffffffffffffffffffffffffffffffffffff1681526020019081526020016000206001019080519060200190610e699291906126f3565b5080600860008373ffffffffffffffffffffffffffffffffffffffff1673ffffffffffffffffffffffffffffffffffffffff16815260200190815260200160002060000160006101000a81548173ffffffffffffffffffffffffffffffffffffffff021916908373ffffffffffffffffffffffffffffffffffffffff160217905550600a819080600181540180825580915050600190039060005260206000200160009091909190916101000a81548173ffffffffffffffffffffffffffffffffffffffff021916908373ffffffffffffffffffffffffffffffffffffffff1602179055505b82600860008373ffffffffffffffffffffffffffffffffffffffff1673ffffffffffffffffffffffffffffffffffffffff1681526020019081526020016000206003016000828254019250508190555080600985604051610fb09190613135565b908152602001604051809103902060006101000a81548173ffffffffffffffffffffffffffffffffffffffff021916908373ffffffffffffffffffffffffffffffffffffffff160217905550809150509392505050565b6000600b546c059c13d3eac3d0188a0af0000003905090565b606060048054600181600116156101000203166002900480601f0160208091040260200160405190810160405280929190818152602001828054600181600116156101000203166002900480156110b85780601f1061108d576101008083540402835291602001916110b8565b820191906000526020600020905b81548152906001019060200180831161109b57829003601f168201915b5050505050905090565b60011515600860008573ffffffffffffffffffffffffffffffffffffffff1673ffffffffffffffffffffffffffffffffffffffff16815260200190815260200160002060040160009054906101000a900460ff16151514611158576040517f08c379a000000000000000000000000000000000000000000000000000000000815260040161114f9061323a565b60405180910390fd5b6001841015801561116a575060038411155b6111a9576040517f08c379a00000000000000000000000000000000000000000000000000000000081526004016111a0906132ba565b60405180910390fd5b600060018514156111fa57600560008573ffffffffffffffffffffffffffffffffffffffff1673ffffffffffffffffffffffffffffffffffffffff1681526020019081526020016000209050611296565b600285141561124957600660008573ffffffffffffffffffffffffffffffffffffffff1673ffffffffffffffffffffffffffffffffffffffff1681526020019081526020016000209050611295565b600385141561129457600760008573ffffffffffffffffffffffffffffffffffffffff1673ffffffffffffffffffffffffffffffffffffffff16815260200190815260200160002090505b5b5b60008211156112ab576112a98483611658565b505b600081600001846040516112bf9190613135565b908152602001604051809103902090508060010160009054906101000a900460ff166113415760018160010160006101000a81548160ff021916908315150217905550816001018490806001815401808255809150506001900390600052602060002001600090919091909150908051906020019061133f9291906126f3565b505b828160000160008282540192505081905550505050505050565b6000806009848460405161137092919061311c565b908152602001604051809103902060009054906101000a900473ffffffffffffffffffffffffffffffffffffffff169050600073ffffffffffffffffffffffffffffffffffffffff168173ffffffffffffffffffffffffffffffffffffffff16141561142b5761142384848080601f016020809104026020016040519081016040528093929190818152602001838380828437600081840152601f19601f820116905080830192505050505050506120b1565b915050611430565b809150505b92915050565b6000600b54905090565b6114486126ac565b600860008373ffffffffffffffffffffffffffffffffffffffff1673ffffffffffffffffffffffffffffffffffffffff1681526020019081526020016000206040518060a00160405290816000820160009054906101000a900473ffffffffffffffffffffffffffffffffffffffff1673ffffffffffffffffffffffffffffffffffffffff1673ffffffffffffffffffffffffffffffffffffffff168152602001600182018054600181600116156101000203166002900480601f0160208091040260200160405190810160405280929190818152602001828054600181600116156101000203166002900480156115815780601f1061155657610100808354040283529160200191611581565b820191906000526020600020905b81548152906001019060200180831161156457829003601f168201915b50505050508152602001600282018054600181600116156101000203166002900480601f0160208091040260200160405190810160405280929190818152602001828054600181600116156101000203166002900480156116235780601f106115f857610100808354040283529160200191611623565b820191906000526020600020905b81548152906001019060200180831161160657829003601f168201915b50505050508152602001600382015481526020016004820160009054906101000a900460ff1615151515815250509050919050565b600080611663611dfe565b9050611670818585611f95565b600191505092915050565b6060600060018414156116ce57600560008473ffffffffffffffffffffffffffffffffffffffff1673ffffffffffffffffffffffffffffffffffffffff16815260200190815260200160002090506117a9565b600284141561171d57600660008473ffffffffffffffffffffffffffffffffffffffff1673ffffffffffffffffffffffffffffffffffffffff16815260200190815260200160002090506117a8565b600384141561176c57600760008473ffffffffffffffffffffffffffffffffffffffff1673ffffffffffffffffffffffffffffffffffffffff16815260200190815260200160002090506117a7565b6040517f08c379a000000000000000000000000000000000000000000000000000000000815260040161179e906132ba565b60405180910390fd5b5b5b6000816001018054905067ffffffffffffffff811180156117c957600080fd5b5060405190808252806020026020018201604052801561180357816020015b6117f0612781565b8152602001906001900390816117e85790505b50905060005b826001018054905081101561192b57600083600101828154811061182957fe5b906000526020600020018054600181600116156101000203166002900480601f0160208091040260200160405190810160405280929190818152602001828054600181600116156101000203166002900480156118c75780601f1061189c576101008083540402835291602001916118c7565b820191906000526020600020905b8154815290600101906020018083116118aa57829003601f168201915b50505050509050604051806040016040528082815260200185600001836040516118f19190613135565b90815260200160405180910390206000015481525083838151811061191257fe5b6020026020010181905250508080600101915050611809565b50809250505092915050565b60006c059c13d3eac3d0188a0af00000905090565b6000600160008473ffffffffffffffffffffffffffffffffffffffff1673ffffffffffffffffffffffffffffffffffffffff16815260200190815260200160002060008373ffffffffffffffffffffffffffffffffffffffff1673ffffffffffffffffffffffffffffffffffffffff16815260200190815260200160002054905092915050565b600034905060008111611a1b576040517f08c379a0000000000000000000000000000000000000000000000000000000008152600401611a129061327a565b60405180910390fd5b600063065b9aaa8202905060028102611a32611007565b1015611a73576040517f08c379a0000000000000000000000000000000000000000000000000000000008152600401611a6a9061325a565b60405180910390fd5b6000600c60009054906101000a900473ffffffffffffffffffffffffffffffffffffffff1673ffffffffffffffffffffffffffffffffffffffff166370a08231306040518263ffffffff1660e01b8152600401611ad0919061314c565b60206040518083038186803b158015611ae857600080fd5b505afa158015611afc573d6000803e3d6000fd5b505050506040513d601f19601f82011682018060405250810190611b209190612a9b565b905060008314611c5e57600c60009054906101000a900473ffffffffffffffffffffffffffffffffffffffff1673ffffffffffffffffffffffffffffffffffffffff1663d0e30db0846040518263ffffffff1660e01b81526004016000604051808303818588803b158015611b9457600080fd5b505af1158015611ba8573d6000803e3d6000fd5b5050505050600c60009054906101000a900473ffffffffffffffffffffffffffffffffffffffff1673ffffffffffffffffffffffffffffffffffffffff1663a9059cbb30856040518363ffffffff1660e01b8152600401611c0a929190613190565b602060405180830381600087803b158015611c2457600080fd5b505af1158015611c38573d6000803e3d6000fd5b505050506040513d601f19601f82011682018060405250810190611c5c91906129ae565b505b6000600c60009054906101000a900473ffffffffffffffffffffffffffffffffffffffff1673ffffffffffffffffffffffffffffffffffffffff166370a08231306040518263ffffffff1660e01b8152600401611cbb919061314c565b60206040518083038186803b158015611cd357600080fd5b505afa158015611ce7573d6000803e3d6000fd5b505050506040513d601f19601f82011682018060405250810190611d0b9190612a9b565b90508382820314611d51576040517f08c379a0000000000000000000000000000000000000000000000000000000008152600401611d48906132da565b60405180910390fd5b60003090508073ffffffffffffffffffffffffffffffffffffffff1663a9059cbb33866040518363ffffffff1660e01b8152600401611d91929190613167565b602060405180830381600087803b158015611dab57600080fd5b505af1158015611dbf573d6000803e3d6000fd5b505050506040513d601f19601f82011682018060405250810190611de391906129ae565b5060028402600b600082825401925050819055505050505050565b600033905090565b611e138383836001612254565b505050565b600073ffffffffffffffffffffffffffffffffffffffff168273ffffffffffffffffffffffffffffffffffffffff161415611ebb576040517f08c379a000000000000000000000000000000000000000000000000000000000815260040180806020018281038252601f8152602001807f45524332303a206d696e7420746f20746865207a65726f20616464726573730081525060200191505060405180910390fd5b611ec760008383612453565b5050565b6000611ed7848461194c565b90507fffffffffffffffffffffffffffffffffffffffffffffffffffffffffffffffff8114611f8f5781811015611f7f5781811015611f7e576040517f08c379a000000000000000000000000000000000000000000000000000000000815260040180806020018281038252601a8152602001807f4552433230496e73756666696369656e74416c6c6f77616e636500000000000081525060200191505060405180910390fd5b5b611f8e84848484036000612254565b5b50505050565b600073ffffffffffffffffffffffffffffffffffffffff168373ffffffffffffffffffffffffffffffffffffffff16141561201b576040517f08c379a00000000000000000000000000000000000000000000000000000000081526004018080602001828103825260258152602001806135fc6025913960400191505060405180910390fd5b600073ffffffffffffffffffffffffffffffffffffffff168273ffffffffffffffffffffffffffffffffffffffff1614156120a1576040517f08c379a00000000000000000000000000000000000000000000000000000000081526004018080602001828103825260238152602001806135b76023913960400191505060405180910390fd5b6120ac838383612453565b505050565b600080826040516020016120c59190613135565b6040516020818303038152906040528051906020012090506000816040516020016120f09190613101565b60405160208183030381529060405290506000601467ffffffffffffffff8111801561211b57600080fd5b506040519080825280601f01601f19166020018201604052801561214e5781602001600182028036833780820191505090505b5090506000805b60048110156121cd577f440000000000000000000000000000000000000000000000000000000000000083838060010194508151811061219157fe5b60200101907effffffffffffffffffffffffffffffffffffffffffffffffffffffffffffff1916908160001a9053508080600101915050612155565b5060005b601482101561223f578381815181106121e657fe5b602001015160f81c60f81b83838060010194508151811061220357fe5b60200101907effffffffffffffffffffffffffffffffffffffffffffffffffffffffffffff1916908160001a90535080806001019150506121d1565b506122498261269e565b945050505050919050565b600073ffffffffffffffffffffffffffffffffffffffff168473ffffffffffffffffffffffffffffffffffffffff1614156122da576040517f08c379a00000000000000000000000000000000000000000000000000000000081526004018080602001828103825260248152602001806136216024913960400191505060405180910390fd5b600073ffffffffffffffffffffffffffffffffffffffff168373ffffffffffffffffffffffffffffffffffffffff161415612360576040517f08c379a00000000000000000000000000000000000000000000000000000000081526004018080602001828103825260228152602001806135da6022913960400191505060405180910390fd5b81600160008673ffffffffffffffffffffffffffffffffffffffff1673ffffffffffffffffffffffffffffffffffffffff16815260200190815260200160002060008573ffffffffffffffffffffffffffffffffffffffff1673ffffffffffffffffffffffffffffffffffffffff16815260200190815260200160002081905550801561244d578273ffffffffffffffffffffffffffffffffffffffff168473ffffffffffffffffffffffffffffffffffffffff167f8c5be1e5ebec7d5bd14f71427d1e84f3dd0314c0f7b2291e5b200ac8c7c3b925846040518082815260200191505060405180910390a35b50505050565b600073ffffffffffffffffffffffffffffffffffffffff168373ffffffffffffffffffffffffffffffffffffffff16141561249d578060026000828254019250508190555061259d565b60008060008573ffffffffffffffffffffffffffffffffffffffff1673ffffffffffffffffffffffffffffffffffffffff16815260200190815260200160002054905081811015612556576040517f08c379a00000000000000000000000000000000000000000000000000000000081526004018080602001828103825260148152602001807f696e73756666696369656e742062616c616e636500000000000000000000000081525060200191505060405180910390fd5b8181036000808673ffffffffffffffffffffffffffffffffffffffff1673ffffffffffffffffffffffffffffffffffffffff16815260200190815260200160002081905550505b600073ffffffffffffffffffffffffffffffffffffffff168273ffffffffffffffffffffffffffffffffffffffff1614156125e75780600260008282540392505081905550612634565b806000808473ffffffffffffffffffffffffffffffffffffffff1673ffffffffffffffffffffffffffffffffffffffff168152602001908152602001600020600082825401925050819055505b8173ffffffffffffffffffffffffffffffffffffffff168373ffffffffffffffffffffffffffffffffffffffff167fddf252ad1be2c89b69c2b068fc378daa952ba7f163c4a11628f55a4df523b3ef836040518082815260200191505060405180910390a3505050565b600060148201519050919050565b6040518060a00160405280600073ffffffffffffffffffffffffffffffffffffffff1681526020016060815260200160608152602001600081526020016000151581525090565b828054600181600116156101000203166002900490600052602060002090601f0160209004810192826127295760008555612770565b82601f1061274257805160ff1916838001178555612770565b82800160010185558215612770579182015b8281111561276f578251825591602001919060010190612754565b5b50905061277d919061279b565b5090565b604051806040016040528060608152602001600081525090565b5b808211156127b457600081600090555060010161279c565b5090565b60006127cb6127c6846133a3565b613372565b9050828152602081018484840111156127e357600080fd5b6127ee848285613512565b509392505050565b60008135905061280581613571565b92915050565b60008151905061281a81613588565b92915050565b60008083601f84011261283257600080fd5b8235905067ffffffffffffffff81111561284b57600080fd5b60208301915083600182028301111561286357600080fd5b9250929050565b600082601f83011261287b57600080fd5b813561288b8482602086016127b8565b91505092915050565b6000813590506128a38161359f565b92915050565b6000815190506128b88161359f565b92915050565b6000602082840312156128d057600080fd5b60006128de848285016127f6565b91505092915050565b600080604083850312156128fa57600080fd5b6000612908858286016127f6565b9250506020612919858286016127f6565b9150509250929050565b60008060006060848603121561293857600080fd5b6000612946868287016127f6565b9350506020612957868287016127f6565b925050604061296886828701612894565b9150509250925092565b6000806040838503121561298557600080fd5b6000612993858286016127f6565b92505060206129a485828601612894565b9150509250929050565b6000602082840312156129c057600080fd5b60006129ce8482850161280b565b91505092915050565b600080602083850312156129ea57600080fd5b600083013567ffffffffffffffff811115612a0457600080fd5b612a1085828601612820565b92509250509250929050565b600080600060608486031215612a3157600080fd5b600084013567ffffffffffffffff811115612a4b57600080fd5b612a578682870161286a565b935050602084013567ffffffffffffffff811115612a7457600080fd5b612a808682870161286a565b9250506040612a9186828701612894565b9150509250925092565b600060208284031215612aad57600080fd5b6000612abb848285016128a9565b91505092915050565b60008060408385031215612ad757600080fd5b6000612ae585828601612894565b9250506020612af6858286016127f6565b9150509250929050565b60008060008060808587031215612b1657600080fd5b6000612b2487828801612894565b9450506020612b35878288016127f6565b935050604085013567ffffffffffffffff811115612b5257600080fd5b612b5e8782880161286a565b9250506060612b6f87828801612894565b91505092959194509250565b6000612b878383612f9d565b905092915050565b6000612b9b8383613097565b905092915050565b612bac816134dc565b82525050565b612bbb8161347d565b82525050565b612bca8161347d565b82525050565b6000612bdb826133f3565b612be5818561342e565b935083602082028501612bf7856133d3565b8060005b85811015612c335784840389528151612c148582612b7b565b9450612c1f83613414565b925060208a01995050600181019050612bfb565b50829750879550505050505092915050565b6000612c50826133fe565b612c5a818561343f565b935083602082028501612c6c856133e3565b8060005b85811015612ca85784840389528151612c898582612b8f565b9450612c9483613421565b925060208a01995050600181019050612c70565b50829750879550505050505092915050565b612cc38161348f565b82525050565b612cd28161348f565b82525050565b612ce9612ce48261349b565b613554565b82525050565b6000612cfb8385613472565b9350612d08838584613512565b82840190509392505050565b6000612d1f82613409565b612d298185613450565b9350612d39818560208601613521565b612d4281613560565b840191505092915050565b6000612d5882613409565b612d628185613461565b9350612d72818560208601613521565b612d7b81613560565b840191505092915050565b6000612d9182613409565b612d9b8185613472565b9350612dab818560208601613521565b80840191505092915050565b6000612dc4601283613461565b91507f41646472657373206e6f742065786973747300000000000000000000000000006000830152602082019050919050565b6000612e04601783613461565b91507f4e6f7420656e6f756768204d494e4720746f206d696e740000000000000000006000830152602082019050919050565b6000612e44601083613461565b91507f66756e64206d757374203e207a65726f000000000000000000000000000000006000830152602082019050919050565b6000612e84600d83613461565b91507f4d696e742066696e6973686564000000000000000000000000000000000000006000830152602082019050919050565b6000612ec4600c83613461565b91507f496e76616c6964207479706500000000000000000000000000000000000000006000830152602082019050919050565b6000612f04601683613461565b91507f457468657265756d206e6f74206465706f7369746564000000000000000000006000830152602082019050919050565b6000612f44603b83613461565b91507f41766f69642063616c6c696e6720746869732066756e6374696f6e206173207460008301527f6865206164647265737365732067726f7720746f6f206c6172676500000000006020830152604082019050919050565b600060a083016000830151612fb56000860182612bb2565b5060208301518482036020860152612fcd8282612d14565b91505060408301518482036040860152612fe78282612d14565b9150506060830151612ffc60608601826130d4565b50608083015161300f6080860182612cba565b508091505092915050565b600060a0830160008301516130326000860182612bb2565b506020830151848203602086015261304a8282612d14565b915050604083015184820360408601526130648282612d14565b915050606083015161307960608601826130d4565b50608083015161308c6080860182612cba565b508091505092915050565b600060408301600083015184820360008601526130b48282612d14565b91505060208301516130c960208601826130d4565b508091505092915050565b6130dd816134c5565b82525050565b6130ec816134c5565b82525050565b6130fb816134cf565b82525050565b600061310d8284612cd8565b60208201915081905092915050565b6000613129828486612cef565b91508190509392505050565b60006131418284612d86565b915081905092915050565b60006020820190506131616000830184612bc1565b92915050565b600060408201905061317c6000830185612ba3565b61318960208301846130e3565b9392505050565b60006040820190506131a56000830185612bc1565b6131b260208301846130e3565b9392505050565b600060208201905081810360008301526131d38184612bd0565b905092915050565b600060208201905081810360008301526131f58184612c45565b905092915050565b60006020820190506132126000830184612cc9565b92915050565b600060208201905081810360008301526132328184612d4d565b905092915050565b6000602082019050818103600083015261325381612db7565b9050919050565b6000602082019050818103600083015261327381612df7565b9050919050565b6000602082019050818103600083015261329381612e37565b9050919050565b600060208201905081810360008301526132b381612e77565b9050919050565b600060208201905081810360008301526132d381612eb7565b9050919050565b600060208201905081810360008301526132f381612ef7565b9050919050565b6000602082019050818103600083015261331381612f37565b9050919050565b60006020820190508181036000830152613334818461301a565b905092915050565b600060208201905061335160008301846130e3565b92915050565b600060208201905061336c60008301846130f2565b92915050565b6000604051905081810181811067ffffffffffffffff821117156133995761339861355e565b5b8060405250919050565b600067ffffffffffffffff8211156133be576133bd61355e565b5b601f19601f8301169050602081019050919050565b6000819050602082019050919050565b6000819050602082019050919050565b600081519050919050565b600081519050919050565b600081519050919050565b6000602082019050919050565b6000602082019050919050565b600082825260208201905092915050565b600082825260208201905092915050565b600082825260208201905092915050565b600082825260208201905092915050565b600081905092915050565b6000613488826134a5565b9050919050565b60008115159050919050565b6000819050919050565b600073ffffffffffffffffffffffffffffffffffffffff82169050919050565b6000819050919050565b600060ff82169050919050565b60006134e7826134ee565b9050919050565b60006134f982613500565b9050919050565b600061350b826134a5565b9050919050565b82818337600083830152505050565b60005b8381101561353f578082015181840152602081019050613524565b8381111561354e576000848401525b50505050565b6000819050919050565bfe5b6000601f19601f8301169050919050565b61357a8161347d565b811461358557600080fd5b50565b6135918161348f565b811461359c57600080fd5b50565b6135a8816134c5565b81146135b357600080fd5b5056fe45524332303a207472616e7366657220746f20746865207a65726f206164647265737345524332303a20617070726f766520746f20746865207a65726f206164647265737345524332303a207472616e736665722066726f6d20746865207a65726f206164647265737345524332303a20617070726f76652066726f6d20746865207a65726f2061646472657373a2646970667358221220c613e457b4fba9e31320ee4e311a5d75e9e51dfd92cce4af9adcdee5698d86fb64736f6c63430007060033",
  "devdoc": {
    "kind": "dev",
    "methods": {
      "allowance(address,address)": {
        "details": "See {IERC20-allowance}."
      },
      "approve(address,uint256)": {
        "details": "See {IERC20-approve}. NOTE: If `value` is the maximum `uint256`, the allowance is not updated on `transferFrom`. This is semantically equivalent to an infinite approval. Requirements: - `spender` cannot be the zero address."
      },
      "balanceOf(address)": {
        "details": "See {IERC20-balanceOf}."
      },
      "decimals()": {
        "details": "Returns the number of decimals used to get its user representation. For example, if `decimals` equals `2`, a balance of `505` tokens should be displayed to a user as `5.05` (`505 / 10 ** 2`). Tokens usually opt for a value of 18, imitating the relationship between Ether and Wei. This is the default value returned by this function, unless it's overridden. NOTE: This information is only used for _display_ purposes: it in no way affects any of the arithmetic of the contract, including {IERC20-balanceOf} and {IERC20-transfer}."
      },
      "name()": {
        "details": "Returns the name of the token."
      },
      "symbol()": {
        "details": "Returns the symbol of the token, usually a shorter version of the name."
      },
      "totalSupply()": {
        "details": "See {IERC20-totalSupply}."
      },
      "transfer(address,uint256)": {
        "details": "See {IERC20-transfer}. Requirements: - `to` cannot be the zero address. - the caller must have a balance of at least `value`."
      },
      "transferFrom(address,address,uint256)": {
        "details": "See {IERC20-transferFrom}. Emits an {Approval} event indicating the updated allowance. This is not required by the EIP. See the note at the beginning of {ERC20}. NOTE: Does not update the allowance if the current allowance is the maximum `uint256`. Requirements: - `from` and `to` cannot be the zero address. - `from` must have a balance of at least `value`. - the caller must have allowance for ``from``'s tokens of at least `value`."
      }
    },
    "version": 1
  },
  "userdoc": {
    "kind": "user",
    "methods": {},
    "version": 1
  },
  "storageLayout": {
    "storage": [
      {
        "astId": 253,
        "contract": "contracts/MingCoin.sol:MingCoin",
        "label": "_balances",
        "offset": 0,
        "slot": "0",
        "type": "t_mapping(t_address,t_uint256)"
      },
      {
        "astId": 259,
        "contract": "contracts/MingCoin.sol:MingCoin",
        "label": "_allowances",
        "offset": 0,
        "slot": "1",
        "type": "t_mapping(t_address,t_mapping(t_address,t_uint256))"
      },
      {
        "astId": 261,
        "contract": "contracts/MingCoin.sol:MingCoin",
        "label": "_totalSupply",
        "offset": 0,
        "slot": "2",
        "type": "t_uint256"
      },
      {
        "astId": 263,
        "contract": "contracts/MingCoin.sol:MingCoin",
        "label": "_name",
        "offset": 0,
        "slot": "3",
        "type": "t_string_storage"
      },
      {
        "astId": 265,
        "contract": "contracts/MingCoin.sol:MingCoin",
        "label": "_symbol",
        "offset": 0,
        "slot": "4",
        "type": "t_string_storage"
      },
      {
        "astId": 782,
        "contract": "contracts/MingCoin.sol:MingCoin",
        "label": "bannerMap",
        "offset": 0,
        "slot": "5",
        "type": "t_mapping(t_address,t_struct(Profile)767_storage)"
      },
      {
        "astId": 786,
        "contract": "contracts/MingCoin.sol:MingCoin",
        "label": "portraitMap",
        "offset": 0,
        "slot": "6",
        "type": "t_mapping(t_address,t_struct(Profile)767_storage)"
      },
      {
        "astId": 790,
        "contract": "contracts/MingCoin.sol:MingCoin",
        "label": "bioMap",
        "offset": 0,
        "slot": "7",
        "type": "t_mapping(t_address,t_struct(Profile)767_storage)"
      },
      {
        "astId": 794,
        "contract": "contracts/MingCoin.sol:MingCoin",
        "label": "addressMap",
        "offset": 0,
        "slot": "8",
        "type": "t_mapping(t_address,t_struct(Burning)778_storage)"
      },
      {
        "astId": 798,
        "contract": "contracts/MingCoin.sol:MingCoin",
        "label": "name2Address",
        "offset": 0,
        "slot": "9",
        "type": "t_mapping(t_string_memory_ptr,t_address)"
      },
      {
        "astId": 801,
        "contract": "contracts/MingCoin.sol:MingCoin",
        "label": "addresses",
        "offset": 0,
        "slot": "10",
        "type": "t_array(t_address)dyn_storage"
      },
      {
        "astId": 814,
        "contract": "contracts/MingCoin.sol:MingCoin",
        "label": "total",
        "offset": 0,
        "slot": "11",
        "type": "t_uint256"
      },
      {
        "astId": 816,
        "contract": "contracts/MingCoin.sol:MingCoin",
        "label": "weth",
        "offset": 0,
        "slot": "12",
        "type": "t_contract(IWETH)745"
      }
    ],
    "types": {
      "t_address": {
        "encoding": "inplace",
        "label": "address",
        "numberOfBytes": "20"
      },
      "t_array(t_address)dyn_storage": {
        "base": "t_address",
        "encoding": "dynamic_array",
        "label": "address[]",
        "numberOfBytes": "32"
      },
      "t_array(t_string_storage)dyn_storage": {
        "base": "t_string_storage",
        "encoding": "dynamic_array",
        "label": "string[]",
        "numberOfBytes": "32"
      },
      "t_bool": {
        "encoding": "inplace",
        "label": "bool",
        "numberOfBytes": "1"
      },
      "t_contract(IWETH)745": {
        "encoding": "inplace",
        "label": "contract IWETH",
        "numberOfBytes": "20"
      },
      "t_mapping(t_address,t_mapping(t_address,t_uint256))": {
        "encoding": "mapping",
        "key": "t_address",
        "label": "mapping(address => mapping(address => uint256))",
        "numberOfBytes": "32",
        "value": "t_mapping(t_address,t_uint256)"
      },
      "t_mapping(t_address,t_struct(Burning)778_storage)": {
        "encoding": "mapping",
        "key": "t_address",
        "label": "mapping(address => struct MingCoin.Burning)",
        "numberOfBytes": "32",
        "value": "t_struct(Burning)778_storage"
      },
      "t_mapping(t_address,t_struct(Profile)767_storage)": {
        "encoding": "mapping",
        "key": "t_address",
        "label": "mapping(address => struct MingCoin.Profile)",
        "numberOfBytes": "32",
        "value": "t_struct(Profile)767_storage"
      },
      "t_mapping(t_address,t_uint256)": {
        "encoding": "mapping",
        "key": "t_address",
        "label": "mapping(address => uint256)",
        "numberOfBytes": "32",
        "value": "t_uint256"
      },
      "t_mapping(t_string_memory_ptr,t_address)": {
        "encoding": "mapping",
        "key": "t_string_memory_ptr",
        "label": "mapping(string => address)",
        "numberOfBytes": "32",
        "value": "t_address"
      },
      "t_mapping(t_string_memory_ptr,t_struct(KeyValue)757_storage)": {
        "encoding": "mapping",
        "key": "t_string_memory_ptr",
        "label": "mapping(string => struct MingCoin.KeyValue)",
        "numberOfBytes": "32",
        "value": "t_struct(KeyValue)757_storage"
      },
      "t_string_memory_ptr": {
        "encoding": "bytes",
        "label": "string",
        "numberOfBytes": "32"
      },
      "t_string_storage": {
        "encoding": "bytes",
        "label": "string",
        "numberOfBytes": "32"
      },
      "t_struct(Burning)778_storage": {
        "encoding": "inplace",
        "label": "struct MingCoin.Burning",
        "members": [
          {
            "astId": 769,
            "contract": "contracts/MingCoin.sol:MingCoin",
            "label": "addr",
            "offset": 0,
            "slot": "0",
            "type": "t_address"
          },
          {
            "astId": 771,
            "contract": "contracts/MingCoin.sol:MingCoin",
            "label": "name",
            "offset": 0,
            "slot": "1",
            "type": "t_string_storage"
          },
          {
            "astId": 773,
            "contract": "contracts/MingCoin.sol:MingCoin",
            "label": "displayName",
            "offset": 0,
            "slot": "2",
            "type": "t_string_storage"
          },
          {
            "astId": 775,
            "contract": "contracts/MingCoin.sol:MingCoin",
            "label": "amount",
            "offset": 0,
            "slot": "3",
            "type": "t_uint256"
          },
          {
            "astId": 777,
            "contract": "contracts/MingCoin.sol:MingCoin",
            "label": "exists",
            "offset": 0,
            "slot": "4",
            "type": "t_bool"
          }
        ],
        "numberOfBytes": "160"
      },
      "t_struct(KeyValue)757_storage": {
        "encoding": "inplace",
        "label": "struct MingCoin.KeyValue",
        "members": [
          {
            "astId": 754,
            "contract": "contracts/MingCoin.sol:MingCoin",
            "label": "value",
            "offset": 0,
            "slot": "0",
            "type": "t_uint256"
          },
          {
            "astId": 756,
            "contract": "contracts/MingCoin.sol:MingCoin",
            "label": "exists",
            "offset": 0,
            "slot": "1",
            "type": "t_bool"
          }
        ],
        "numberOfBytes": "64"
      },
      "t_struct(Profile)767_storage": {
        "encoding": "inplace",
        "label": "struct MingCoin.Profile",
        "members": [
          {
            "astId": 761,
            "contract": "contracts/MingCoin.sol:MingCoin",
            "label": "valueMap",
            "offset": 0,
            "slot": "0",
            "type": "t_mapping(t_string_memory_ptr,t_struct(KeyValue)757_storage)"
          },
          {
            "astId": 764,
            "contract": "contracts/MingCoin.sol:MingCoin",
            "label": "keys",
            "offset": 0,
            "slot": "1",
            "type": "t_array(t_string_storage)dyn_storage"
          },
          {
            "astId": 766,
            "contract": "contracts/MingCoin.sol:MingCoin",
            "label": "exists",
            "offset": 0,
            "slot": "2",
            "type": "t_bool"
          }
        ],
        "numberOfBytes": "96"
      },
      "t_uint256": {
        "encoding": "inplace",
        "label": "uint256",
        "numberOfBytes": "32"
      }
    }
  }
}