{
  "address": "0x9852795dbb01913439f534b4984fBf74aC8AfA12",
  "abi": [
    {
      "inputs": [],
      "stateMutability": "nonpayable",
      "type": "constructor"
    },
    {
      "anonymous": false,
      "inputs": [
        {
          "indexed": true,
          "internalType": "address",
          "name": "owner",
          "type": "address"
        },
        {
          "indexed": true,
          "internalType": "address",
          "name": "spender",
          "type": "address"
        },
        {
          "indexed": false,
          "internalType": "uint256",
          "name": "value",
          "type": "uint256"
        }
      ],
      "name": "Approval",
      "type": "event"
    },
    {
      "anonymous": false,
      "inputs": [
        {
          "indexed": true,
          "internalType": "address",
          "name": "from",
          "type": "address"
        },
        {
          "indexed": true,
          "internalType": "address",
          "name": "to",
          "type": "address"
        },
        {
          "indexed": false,
          "internalType": "uint256",
          "name": "value",
          "type": "uint256"
        }
      ],
      "name": "Transfer",
      "type": "event"
    },
    {
      "inputs": [
        {
          "internalType": "address",
          "name": "_addr",
          "type": "address"
        }
      ],
      "name": "addressToKeccak256Hash",
      "outputs": [
        {
          "internalType": "bytes32",
          "name": "",
          "type": "bytes32"
        }
      ],
      "stateMutability": "pure",
      "type": "function"
    },
    {
      "inputs": [
        {
          "internalType": "address",
          "name": "owner",
          "type": "address"
        },
        {
          "internalType": "address",
          "name": "spender",
          "type": "address"
        }
      ],
      "name": "allowance",
      "outputs": [
        {
          "internalType": "uint256",
          "name": "",
          "type": "uint256"
        }
      ],
      "stateMutability": "view",
      "type": "function"
    },
    {
      "inputs": [
        {
          "internalType": "address",
          "name": "spender",
          "type": "address"
        },
        {
          "internalType": "uint256",
          "name": "value",
          "type": "uint256"
        }
      ],
      "name": "approve",
      "outputs": [
        {
          "internalType": "bool",
          "name": "",
          "type": "bool"
        }
      ],
      "stateMutability": "nonpayable",
      "type": "function"
    },
    {
      "inputs": [
        {
          "internalType": "address",
          "name": "account",
          "type": "address"
        }
      ],
      "name": "balanceOf",
      "outputs": [
        {
          "internalType": "uint256",
          "name": "",
          "type": "uint256"
        }
      ],
      "stateMutability": "view",
      "type": "function"
    },
    {
      "inputs": [
        {
          "internalType": "string",
          "name": "recipient",
          "type": "string"
        },
        {
          "internalType": "uint256",
          "name": "amount",
          "type": "uint256"
        }
      ],
      "name": "burn",
      "outputs": [
        {
          "internalType": "address",
          "name": "",
          "type": "address"
        }
      ],
      "stateMutability": "nonpayable",
      "type": "function"
    },
    {
      "inputs": [
        {
          "internalType": "bytes1",
          "name": "b",
          "type": "bytes1"
        }
      ],
      "name": "char",
      "outputs": [
        {
          "internalType": "bytes1",
          "name": "c",
          "type": "bytes1"
        }
      ],
      "stateMutability": "pure",
      "type": "function"
    },
    {
      "inputs": [],
      "name": "decimals",
      "outputs": [
        {
          "internalType": "uint8",
          "name": "",
          "type": "uint8"
        }
      ],
      "stateMutability": "view",
      "type": "function"
    },
    {
      "inputs": [
        {
          "internalType": "string",
          "name": "recipient",
          "type": "string"
        }
      ],
      "name": "getAddressByName",
      "outputs": [
        {
          "internalType": "address",
          "name": "",
          "type": "address"
        }
      ],
      "stateMutability": "view",
      "type": "function"
    },
    {
      "inputs": [
        {
          "internalType": "address",
          "name": "addr",
          "type": "address"
        }
      ],
      "name": "getBurning",
      "outputs": [
        {
          "components": [
            {
              "internalType": "string",
              "name": "name",
              "type": "string"
            },
            {
              "internalType": "uint256",
              "name": "amount",
              "type": "uint256"
            },
            {
              "internalType": "bool",
              "name": "exists",
              "type": "bool"
            }
          ],
          "internalType": "struct MingCoin.Burning",
          "name": "",
          "type": "tuple"
        }
      ],
      "stateMutability": "view",
      "type": "function"
    },
    {
      "inputs": [
        {
          "internalType": "address",
          "name": "addr",
          "type": "address"
        }
      ],
      "name": "getNameByAddress",
      "outputs": [
        {
          "internalType": "string",
          "name": "",
          "type": "string"
        }
      ],
      "stateMutability": "view",
      "type": "function"
    },
    {
      "inputs": [],
      "name": "getSortedBurnings",
      "outputs": [
        {
          "components": [
            {
              "internalType": "string",
              "name": "name",
              "type": "string"
            },
            {
              "internalType": "uint256",
              "name": "amount",
              "type": "uint256"
            },
            {
              "internalType": "bool",
              "name": "exists",
              "type": "bool"
            }
          ],
          "internalType": "struct MingCoin.Burning[]",
          "name": "",
          "type": "tuple[]"
        }
      ],
      "stateMutability": "view",
      "type": "function"
    },
    {
      "inputs": [],
      "name": "name",
      "outputs": [
        {
          "internalType": "string",
          "name": "",
          "type": "string"
        }
      ],
      "stateMutability": "view",
      "type": "function"
    },
    {
      "inputs": [
        {
          "internalType": "address",
          "name": "_addr",
          "type": "address"
        }
      ],
      "name": "startsWith44444444",
      "outputs": [
        {
          "internalType": "bool",
          "name": "",
          "type": "bool"
        }
      ],
      "stateMutability": "pure",
      "type": "function"
    },
    {
      "inputs": [],
      "name": "symbol",
      "outputs": [
        {
          "internalType": "string",
          "name": "",
          "type": "string"
        }
      ],
      "stateMutability": "view",
      "type": "function"
    },
    {
      "inputs": [
        {
          "internalType": "address",
          "name": "_addr",
          "type": "address"
        }
      ],
      "name": "toAsciiString",
      "outputs": [
        {
          "internalType": "string",
          "name": "",
          "type": "string"
        }
      ],
      "stateMutability": "pure",
      "type": "function"
    },
    {
      "inputs": [],
      "name": "totalSupply",
      "outputs": [
        {
          "internalType": "uint256",
          "name": "",
          "type": "uint256"
        }
      ],
      "stateMutability": "view",
      "type": "function"
    },
    {
      "inputs": [
        {
          "internalType": "address",
          "name": "recipient",
          "type": "address"
        },
        {
          "internalType": "uint256",
          "name": "amount",
          "type": "uint256"
        }
      ],
      "name": "transfer",
      "outputs": [
        {
          "internalType": "bool",
          "name": "",
          "type": "bool"
        }
      ],
      "stateMutability": "nonpayable",
      "type": "function"
    },
    {
      "inputs": [
        {
          "internalType": "address",
          "name": "from",
          "type": "address"
        },
        {
          "internalType": "address",
          "name": "to",
          "type": "address"
        },
        {
          "internalType": "uint256",
          "name": "value",
          "type": "uint256"
        }
      ],
      "name": "transferFrom",
      "outputs": [
        {
          "internalType": "bool",
          "name": "",
          "type": "bool"
        }
      ],
      "stateMutability": "nonpayable",
      "type": "function"
    }
  ],
  "transactionHash": "0xc53ec3506bb1890be5715e58e795971daf234b39e33febdf976d16fd5ee0d9ea",
  "args": [],
  "numDeployments": 1,
  "solcInputHash": "239d6d01f7a5ca336a745b483594e90d",
  "bytecode": "0x60806040523480156200001157600080fd5b506040518060400160405280601081526020017f4d696e6720436f696e2076302e302e32000000000000000000000000000000008152506040518060400160405280600481526020017f4d494e4700000000000000000000000000000000000000000000000000000000815250816003908051906020019062000096929190620003e4565b508060049080519060200190620000af929190620003e4565b505050620000d2336d15e9ad73cd24f69cbad10af00000620000d860201b60201c565b6200049a565b600073ffffffffffffffffffffffffffffffffffffffff168273ffffffffffffffffffffffffffffffffffffffff1614156200017c576040517f08c379a000000000000000000000000000000000000000000000000000000000815260040180806020018281038252601f8152602001807f45524332303a206d696e7420746f20746865207a65726f20616464726573730081525060200191505060405180910390fd5b62000190600083836200019460201b60201c565b5050565b600073ffffffffffffffffffffffffffffffffffffffff168373ffffffffffffffffffffffffffffffffffffffff161415620001e05780600260008282540192505081905550620002e1565b60008060008573ffffffffffffffffffffffffffffffffffffffff1673ffffffffffffffffffffffffffffffffffffffff168152602001908152602001600020549050818110156200029a576040517f08c379a00000000000000000000000000000000000000000000000000000000081526004018080602001828103825260148152602001807f696e73756666696369656e742062616c616e636500000000000000000000000081525060200191505060405180910390fd5b8181036000808673ffffffffffffffffffffffffffffffffffffffff1673ffffffffffffffffffffffffffffffffffffffff16815260200190815260200160002081905550505b600073ffffffffffffffffffffffffffffffffffffffff168273ffffffffffffffffffffffffffffffffffffffff1614156200032d57806002600082825403925050819055506200037a565b806000808473ffffffffffffffffffffffffffffffffffffffff1673ffffffffffffffffffffffffffffffffffffffff168152602001908152602001600020600082825401925050819055505b8173ffffffffffffffffffffffffffffffffffffffff168373ffffffffffffffffffffffffffffffffffffffff167fddf252ad1be2c89b69c2b068fc378daa952ba7f163c4a11628f55a4df523b3ef836040518082815260200191505060405180910390a3505050565b828054600181600116156101000203166002900490600052602060002090601f0160209004810192826200041c576000855562000468565b82601f106200043757805160ff191683800117855562000468565b8280016001018555821562000468579182015b82811115620004675782518255916020019190600101906200044a565b5b5090506200047791906200047b565b5090565b5b80821115620004965760008160009055506001016200047c565b5090565b61266880620004aa6000396000f3fe608060405234801561001057600080fd5b50600436106101165760003560e01c806369f9ad2f116100a257806395d89b411161007157806395d89b41146103435780639a65ddec14610361578063a9059cbb14610391578063b48272cc146103c1578063dd62ed3e146103f157610116565b806369f9ad2f1461028357806370a08231146102b35780637c80bb4f146102e357806395c7cf8d1461031357610116565b80632c6e7598116100e95780632c6e7598146101b7578063313ce567146101e7578063642591b61461020557806364f54cb51461022357806368f3097a1461025357610116565b806306fdde031461011b578063095ea7b31461013957806318160ddd1461016957806323b872dd14610187575b600080fd5b610123610421565b60405161013091906122d0565b60405180910390f35b610153600480360381019061014e9190611e47565b6104c3565b604051610160919061227f565b60405180910390f35b6101716104e6565b60405161017e9190612314565b60405180910390f35b6101a1600480360381019061019c9190611df8565b6104f0565b6040516101ae919061227f565b60405180910390f35b6101d160048036038101906101cc9190611d93565b61051f565b6040516101de91906122d0565b60405180910390f35b6101ef6107c2565b6040516101fc919061232f565b60405180910390f35b61020d6107cb565b60405161021a919061225d565b60405180910390f35b61023d60048036038101906102389190611d93565b6109b5565b60405161024a91906122f2565b60405180910390f35b61026d60048036038101906102689190611d93565b610ad5565b60405161027a919061227f565b60405180910390f35b61029d60048036038101906102989190611e83565b610bc6565b6040516102aa919061229a565b60405180910390f35b6102cd60048036038101906102c89190611d93565b610bfa565b6040516102da9190612314565b60405180910390f35b6102fd60048036038101906102f89190611d93565b610c42565b60405161030a91906122d0565b60405180910390f35b61032d60048036038101906103289190611d93565b610d26565b60405161033a91906122b5565b60405180910390f35b61034b610d5e565b60405161035891906122d0565b60405180910390f35b61037b60048036038101906103769190611eac565b610e00565b6040516103889190612242565b60405180910390f35b6103ab60048036038101906103a69190611e47565b610e4b565b6040516103b8919061227f565b60405180910390f35b6103db60048036038101906103d69190611ef1565b610e83565b6040516103e89190612242565b60405180910390f35b61040b60048036038101906104069190611dbc565b6110c5565b6040516104189190612314565b60405180910390f35b606060038054600181600116156101000203166002900480601f0160208091040260200160405190810160405280929190818152602001828054600181600116156101000203166002900480156104b95780601f1061048e576101008083540402835291602001916104b9565b820191906000526020600020905b81548152906001019060200180831161049c57829003601f168201915b5050505050905090565b6000806104ce61114c565b90506104db818585611154565b600191505092915050565b6000600254905090565b6000806104fb61114c565b9050610508858285611166565b610513858585611230565b60019150509392505050565b606060008260405160200161053491906121dc565b604051602081830303815290604052905060006040518060400160405280601081526020017f303132333435363738396162636465660000000000000000000000000000000081525090506000602a67ffffffffffffffff8111801561059957600080fd5b506040519080825280601f01601f1916602001820160405280156105cc5781602001600182028036833780820191505090505b5090507f3000000000000000000000000000000000000000000000000000000000000000816000815181106105fd57fe5b60200101907effffffffffffffffffffffffffffffffffffffffffffffffffffffffffffff1916908160001a9053507f78000000000000000000000000000000000000000000000000000000000000008160018151811061065a57fe5b60200101907effffffffffffffffffffffffffffffffffffffffffffffffffffffffffffff1916908160001a90535060005b60148110156107b6578260048583815181106106a457fe5b602001015160f81c60f81b7effffffffffffffffffffffffffffffffffffffffffffffffffffffffffffff1916901c60f81c60ff16815181106106e357fe5b602001015160f81c60f81b82600283026002018151811061070057fe5b60200101907effffffffffffffffffffffffffffffffffffffffffffffffffffffffffffff1916908160001a90535082600f60f81b85838151811061074157fe5b602001015160f81c60f81b1660f81c60ff168151811061075d57fe5b602001015160f81c60f81b82600283026003018151811061077a57fe5b60200101907effffffffffffffffffffffffffffffffffffffffffffffffffffffffffffff1916908160001a905350808060010191505061068c565b50809350505050919050565b60006012905090565b6060600060078054905067ffffffffffffffff811180156107eb57600080fd5b5060405190808252806020026020018201604052801561082557816020015b610812611bd2565b81526020019060019003908161080a5790505b50905060005b6007805490508110156109a457600560006007838154811061084957fe5b9060005260206000200160009054906101000a900473ffffffffffffffffffffffffffffffffffffffff1673ffffffffffffffffffffffffffffffffffffffff1673ffffffffffffffffffffffffffffffffffffffff168152602001908152602001600020604051806060016040529081600082018054600181600116156101000203166002900480601f0160208091040260200160405190810160405280929190818152602001828054600181600116156101000203166002900480156109525780601f1061092757610100808354040283529160200191610952565b820191906000526020600020905b81548152906001019060200180831161093557829003601f168201915b50505050508152602001600182015481526020016002820160009054906101000a900460ff16151515158152505082828151811061098c57fe5b6020026020010181905250808060010191505061082b565b506109ae8161134c565b8091505090565b6109bd611bd2565b600560008373ffffffffffffffffffffffffffffffffffffffff1673ffffffffffffffffffffffffffffffffffffffff168152602001908152602001600020604051806060016040529081600082018054600181600116156101000203166002900480601f016020809104026020016040519081016040528092919081815260200182805460018160011615610100020316600290048015610aa05780601f10610a7557610100808354040283529160200191610aa0565b820191906000526020600020905b815481529060010190602001808311610a8357829003601f168201915b50505050508152602001600182015481526020016002820160009054906101000a900460ff1615151515815250509050919050565b600080610ae18361051f565b905060006040518060400160405280600a81526020017f3078343434343434343400000000000000000000000000000000000000000000815250905060005b6008811015610bb957818181518110610b3557fe5b602001015160f81c60f81b7effffffffffffffffffffffffffffffffffffffffffffffffffffffffffffff1916838281518110610b6e57fe5b602001015160f81c60f81b7effffffffffffffffffffffffffffffffffffffffffffffffffffffffffffff191614610bac5760009350505050610bc1565b8080600101915050610b20565b506001925050505b919050565b6000600a8260f81c60ff161015610be85760308260f81c0160f81b9050610bf5565b60578260f81c0160f81b90505b919050565b60008060008373ffffffffffffffffffffffffffffffffffffffff1673ffffffffffffffffffffffffffffffffffffffff168152602001908152602001600020549050919050565b6060600560008373ffffffffffffffffffffffffffffffffffffffff1673ffffffffffffffffffffffffffffffffffffffff1681526020019081526020016000206000018054600181600116156101000203166002900480601f016020809104026020016040519081016040528092919081815260200182805460018160011615610100020316600290048015610d1a5780601f10610cef57610100808354040283529160200191610d1a565b820191906000526020600020905b815481529060010190602001808311610cfd57829003601f168201915b50505050509050919050565b6000610d318261051f565b604051602001610d41919061222b565b604051602081830303815290604052805190602001209050919050565b606060048054600181600116156101000203166002900480601f016020809104026020016040519081016040528092919081815260200182805460018160011615610100020316600290048015610df65780601f10610dcb57610100808354040283529160200191610df6565b820191906000526020600020905b815481529060010190602001808311610dd957829003601f168201915b5050505050905090565b600060068383604051610e14929190612212565b908152602001604051809103902060009054906101000a900473ffffffffffffffffffffffffffffffffffffffff16905092915050565b6000610e716040518060600160405280602881526020016125c260289139833386611429565b610e7b838361156e565b905092915050565b600080610e8f84611591565b9050610e9b8184610e4b565b5060001515600560008373ffffffffffffffffffffffffffffffffffffffff1673ffffffffffffffffffffffffffffffffffffffff16815260200190815260200160002060020160009054906101000a900460ff161515141561100e576001600560008373ffffffffffffffffffffffffffffffffffffffff1673ffffffffffffffffffffffffffffffffffffffff16815260200190815260200160002060020160006101000a81548160ff02191690831515021790555083600560008373ffffffffffffffffffffffffffffffffffffffff1673ffffffffffffffffffffffffffffffffffffffff1681526020019081526020016000206000019080519060200190610fa9929190611bf5565b506007819080600181540180825580915050600190039060005260206000200160009091909190916101000a81548173ffffffffffffffffffffffffffffffffffffffff021916908373ffffffffffffffffffffffffffffffffffffffff1602179055505b82600560008373ffffffffffffffffffffffffffffffffffffffff1673ffffffffffffffffffffffffffffffffffffffff168152602001908152602001600020600101600082825401925050819055508060068560405161106f919061222b565b908152602001604051809103902060006101000a81548173ffffffffffffffffffffffffffffffffffffffff021916908373ffffffffffffffffffffffffffffffffffffffff1602179055508091505092915050565b6000600160008473ffffffffffffffffffffffffffffffffffffffff1673ffffffffffffffffffffffffffffffffffffffff16815260200190815260200160002060008373ffffffffffffffffffffffffffffffffffffffff1673ffffffffffffffffffffffffffffffffffffffff16815260200190815260200160002054905092915050565b600033905090565b6111618383836001611734565b505050565b600061117284846110c5565b90507fffffffffffffffffffffffffffffffffffffffffffffffffffffffffffffffff811461122a578181101561121a5781811015611219576040517f08c379a000000000000000000000000000000000000000000000000000000000815260040180806020018281038252601a8152602001807f4552433230496e73756666696369656e74416c6c6f77616e636500000000000081525060200191505060405180910390fd5b5b61122984848484036000611734565b5b50505050565b600073ffffffffffffffffffffffffffffffffffffffff168373ffffffffffffffffffffffffffffffffffffffff1614156112b6576040517f08c379a00000000000000000000000000000000000000000000000000000000081526004018080602001828103825260258152602001806125ea6025913960400191505060405180910390fd5b600073ffffffffffffffffffffffffffffffffffffffff168273ffffffffffffffffffffffffffffffffffffffff16141561133c576040517f08c379a000000000000000000000000000000000000000000000000000000000815260040180806020018281038252602381526020018061257d6023913960400191505060405180910390fd5b611347838383611933565b505050565b60008151905060005b818110156114245760005b6001828403038110156114165783600182018151811061137c57fe5b60200260200101516020015184828151811061139457fe5b60200260200101516020015110156114095760008482815181106113b457fe5b602002602001015190508460018301815181106113cd57fe5b60200260200101518583815181106113e157fe5b6020026020010181905250808560018401815181106113fc57fe5b6020026020010181905250505b8080600101915050611360565b508080600101915050611355565b505050565b6115688484848460405160240180806020018581526020018473ffffffffffffffffffffffffffffffffffffffff1681526020018373ffffffffffffffffffffffffffffffffffffffff168152602001828103825286818151815260200191508051906020019080838360005b838110156114b1578082015181840152602081019050611496565b50505050905090810190601f1680156114de5780820380516001836020036101000a031916815260200191505b50955050505050506040516020818303038152906040527f5ea2b7ae000000000000000000000000000000000000000000000000000000007bffffffffffffffffffffffffffffffffffffffffffffffffffffffff19166020820180517bffffffffffffffffffffffffffffffffffffffffffffffffffffffff8381831617835250505050611b7e565b50505050565b60008061157961114c565b9050611586818585611230565b600191505092915050565b600080826040516020016115a5919061222b565b6040516020818303038152906040528051906020012090506000816040516020016115d091906121f7565b60405160208183030381529060405290506000601467ffffffffffffffff811180156115fb57600080fd5b506040519080825280601f01601f19166020018201604052801561162e5781602001600182028036833780820191505090505b5090506000805b60048110156116ad577f440000000000000000000000000000000000000000000000000000000000000083838060010194508151811061167157fe5b60200101907effffffffffffffffffffffffffffffffffffffffffffffffffffffffffffff1916908160001a9053508080600101915050611635565b5060005b601482101561171f578381815181106116c657fe5b602001015160f81c60f81b8383806001019450815181106116e357fe5b60200101907effffffffffffffffffffffffffffffffffffffffffffffffffffffffffffff1916908160001a90535080806001019150506116b1565b5061172982611b98565b945050505050919050565b600073ffffffffffffffffffffffffffffffffffffffff168473ffffffffffffffffffffffffffffffffffffffff1614156117ba576040517f08c379a000000000000000000000000000000000000000000000000000000000815260040180806020018281038252602481526020018061260f6024913960400191505060405180910390fd5b600073ffffffffffffffffffffffffffffffffffffffff168373ffffffffffffffffffffffffffffffffffffffff161415611840576040517f08c379a00000000000000000000000000000000000000000000000000000000081526004018080602001828103825260228152602001806125a06022913960400191505060405180910390fd5b81600160008673ffffffffffffffffffffffffffffffffffffffff1673ffffffffffffffffffffffffffffffffffffffff16815260200190815260200160002060008573ffffffffffffffffffffffffffffffffffffffff1673ffffffffffffffffffffffffffffffffffffffff16815260200190815260200160002081905550801561192d578273ffffffffffffffffffffffffffffffffffffffff168473ffffffffffffffffffffffffffffffffffffffff167f8c5be1e5ebec7d5bd14f71427d1e84f3dd0314c0f7b2291e5b200ac8c7c3b925846040518082815260200191505060405180910390a35b50505050565b600073ffffffffffffffffffffffffffffffffffffffff168373ffffffffffffffffffffffffffffffffffffffff16141561197d5780600260008282540192505081905550611a7d565b60008060008573ffffffffffffffffffffffffffffffffffffffff1673ffffffffffffffffffffffffffffffffffffffff16815260200190815260200160002054905081811015611a36576040517f08c379a00000000000000000000000000000000000000000000000000000000081526004018080602001828103825260148152602001807f696e73756666696369656e742062616c616e636500000000000000000000000081525060200191505060405180910390fd5b8181036000808673ffffffffffffffffffffffffffffffffffffffff1673ffffffffffffffffffffffffffffffffffffffff16815260200190815260200160002081905550505b600073ffffffffffffffffffffffffffffffffffffffff168273ffffffffffffffffffffffffffffffffffffffff161415611ac75780600260008282540392505081905550611b14565b806000808473ffffffffffffffffffffffffffffffffffffffff1673ffffffffffffffffffffffffffffffffffffffff168152602001908152602001600020600082825401925050819055505b8173ffffffffffffffffffffffffffffffffffffffff168373ffffffffffffffffffffffffffffffffffffffff167fddf252ad1be2c89b69c2b068fc378daa952ba7f163c4a11628f55a4df523b3ef836040518082815260200191505060405180910390a3505050565b611b9581611b8d611ba6611bc7565b63ffffffff16565b50565b600060148201519050919050565b60006a636f6e736f6c652e6c6f679050600080835160208501845afa505050565b611c83819050919050565b604051806060016040528060608152602001600081526020016000151581525090565b828054600181600116156101000203166002900490600052602060002090601f016020900481019282611c2b5760008555611c72565b82601f10611c4457805160ff1916838001178555611c72565b82800160010185558215611c72579182015b82811115611c71578251825591602001919060010190611c56565b5b509050611c7f9190611c85565b5090565bfe5b5b80821115611c9e576000816000905550600101611c86565b5090565b6000611cb5611cb08461237b565b61234a565b905082815260208101848484011115611ccd57600080fd5b611cd88482856124a7565b509392505050565b600081359050611cef81612537565b92915050565b600081359050611d048161254e565b92915050565b60008083601f840112611d1c57600080fd5b8235905067ffffffffffffffff811115611d3557600080fd5b602083019150836001820283011115611d4d57600080fd5b9250929050565b600082601f830112611d6557600080fd5b8135611d75848260208601611ca2565b91505092915050565b600081359050611d8d81612565565b92915050565b600060208284031215611da557600080fd5b6000611db384828501611ce0565b91505092915050565b60008060408385031215611dcf57600080fd5b6000611ddd85828601611ce0565b9250506020611dee85828601611ce0565b9150509250929050565b600080600060608486031215611e0d57600080fd5b6000611e1b86828701611ce0565b9350506020611e2c86828701611ce0565b9250506040611e3d86828701611d7e565b9150509250925092565b60008060408385031215611e5a57600080fd5b6000611e6885828601611ce0565b9250506020611e7985828601611d7e565b9150509250929050565b600060208284031215611e9557600080fd5b6000611ea384828501611cf5565b91505092915050565b60008060208385031215611ebf57600080fd5b600083013567ffffffffffffffff811115611ed957600080fd5b611ee585828601611d0a565b92509250509250929050565b60008060408385031215611f0457600080fd5b600083013567ffffffffffffffff811115611f1e57600080fd5b611f2a85828601611d54565b9250506020611f3b85828601611d7e565b9150509250929050565b6000611f51838361210f565b905092915050565b611f628161241c565b82525050565b611f79611f748261241c565b6124e9565b82525050565b6000611f8a826123bb565b611f9481856123de565b935083602082028501611fa6856123ab565b8060005b85811015611fe25784840389528151611fc38582611f45565b9450611fce836123d1565b925060208a01995050600181019050611faa565b50829750879550505050505092915050565b611ffd8161242e565b82525050565b61200c8161242e565b82525050565b61201b8161243a565b82525050565b61202a81612466565b82525050565b61204161203c82612466565b6124fb565b82525050565b60006120538385612411565b93506120608385846124a7565b82840190509392505050565b6000612077826123c6565b61208181856123ef565b93506120918185602086016124b6565b61209a81612519565b840191505092915050565b60006120b0826123c6565b6120ba8185612400565b93506120ca8185602086016124b6565b6120d381612519565b840191505092915050565b60006120e9826123c6565b6120f38185612411565b93506121038185602086016124b6565b80840191505092915050565b6000606083016000830151848203600086015261212c828261206c565b915050602083015161214160208601826121af565b5060408301516121546040860182611ff4565b508091505092915050565b6000606083016000830151848203600086015261217c828261206c565b915050602083015161219160208601826121af565b5060408301516121a46040860182611ff4565b508091505092915050565b6121b881612490565b82525050565b6121c781612490565b82525050565b6121d68161249a565b82525050565b60006121e88284611f68565b60148201915081905092915050565b60006122038284612030565b60208201915081905092915050565b600061221f828486612047565b91508190509392505050565b600061223782846120de565b915081905092915050565b60006020820190506122576000830184611f59565b92915050565b600060208201905081810360008301526122778184611f7f565b905092915050565b60006020820190506122946000830184612003565b92915050565b60006020820190506122af6000830184612012565b92915050565b60006020820190506122ca6000830184612021565b92915050565b600060208201905081810360008301526122ea81846120a5565b905092915050565b6000602082019050818103600083015261230c818461215f565b905092915050565b600060208201905061232960008301846121be565b92915050565b600060208201905061234460008301846121cd565b92915050565b6000604051905081810181811067ffffffffffffffff8211171561237157612370612517565b5b8060405250919050565b600067ffffffffffffffff82111561239657612395612517565b5b601f19601f8301169050602081019050919050565b6000819050602082019050919050565b600081519050919050565b600081519050919050565b6000602082019050919050565b600082825260208201905092915050565b600082825260208201905092915050565b600082825260208201905092915050565b600081905092915050565b600061242782612470565b9050919050565b60008115159050919050565b60007fff0000000000000000000000000000000000000000000000000000000000000082169050919050565b6000819050919050565b600073ffffffffffffffffffffffffffffffffffffffff82169050919050565b6000819050919050565b600060ff82169050919050565b82818337600083830152505050565b60005b838110156124d45780820151818401526020810190506124b9565b838111156124e3576000848401525b50505050565b60006124f482612505565b9050919050565b6000819050919050565b60006125108261252a565b9050919050565bfe5b6000601f19601f8301169050919050565b60008160601b9050919050565b6125408161241c565b811461254b57600080fd5b50565b6125578161243a565b811461256257600080fd5b50565b61256e81612490565b811461257957600080fd5b5056fe45524332303a207472616e7366657220746f20746865207a65726f206164647265737345524332303a20617070726f766520746f20746865207a65726f206164647265737363616c6c696e67204d696e672e7472616e73666572282573292c2066726f6d20257320746f20257345524332303a207472616e736665722066726f6d20746865207a65726f206164647265737345524332303a20617070726f76652066726f6d20746865207a65726f2061646472657373a264697066735822122017c79fc553c3ffdf9e5ca9061897e7857319435ce970d03ae8871ec044319e6764736f6c63430007060033",
  "devdoc": {
    "kind": "dev",
    "methods": {
      "allowance(address,address)": {
        "details": "See {IERC20-allowance}."
      },
      "approve(address,uint256)": {
        "details": "See {IERC20-approve}. NOTE: If `value` is the maximum `uint256`, the allowance is not updated on `transferFrom`. This is semantically equivalent to an infinite approval. Requirements: - `spender` cannot be the zero address."
      },
      "balanceOf(address)": {
        "details": "See {IERC20-balanceOf}."
      },
      "decimals()": {
        "details": "Returns the number of decimals used to get its user representation. For example, if `decimals` equals `2`, a balance of `505` tokens should be displayed to a user as `5.05` (`505 / 10 ** 2`). Tokens usually opt for a value of 18, imitating the relationship between Ether and Wei. This is the default value returned by this function, unless it's overridden. NOTE: This information is only used for _display_ purposes: it in no way affects any of the arithmetic of the contract, including {IERC20-balanceOf} and {IERC20-transfer}."
      },
      "name()": {
        "details": "Returns the name of the token."
      },
      "symbol()": {
        "details": "Returns the symbol of the token, usually a shorter version of the name."
      },
      "totalSupply()": {
        "details": "See {IERC20-totalSupply}."
      },
      "transferFrom(address,address,uint256)": {
        "details": "See {IERC20-transferFrom}. Emits an {Approval} event indicating the updated allowance. This is not required by the EIP. See the note at the beginning of {ERC20}. NOTE: Does not update the allowance if the current allowance is the maximum `uint256`. Requirements: - `from` and `to` cannot be the zero address. - `from` must have a balance of at least `value`. - the caller must have allowance for ``from``'s tokens of at least `value`."
      }
    },
    "version": 1
  },
  "userdoc": {
    "kind": "user",
    "methods": {},
    "version": 1
  },
  "storageLayout": {
    "storage": [
      {
        "astId": 241,
        "contract": "contracts/MingCoin.sol:MingCoin",
        "label": "_balances",
        "offset": 0,
        "slot": "0",
        "type": "t_mapping(t_address,t_uint256)"
      },
      {
        "astId": 247,
        "contract": "contracts/MingCoin.sol:MingCoin",
        "label": "_allowances",
        "offset": 0,
        "slot": "1",
        "type": "t_mapping(t_address,t_mapping(t_address,t_uint256))"
      },
      {
        "astId": 249,
        "contract": "contracts/MingCoin.sol:MingCoin",
        "label": "_totalSupply",
        "offset": 0,
        "slot": "2",
        "type": "t_uint256"
      },
      {
        "astId": 251,
        "contract": "contracts/MingCoin.sol:MingCoin",
        "label": "_name",
        "offset": 0,
        "slot": "3",
        "type": "t_string_storage"
      },
      {
        "astId": 253,
        "contract": "contracts/MingCoin.sol:MingCoin",
        "label": "_symbol",
        "offset": 0,
        "slot": "4",
        "type": "t_string_storage"
      },
      {
        "astId": 733,
        "contract": "contracts/MingCoin.sol:MingCoin",
        "label": "addressMap",
        "offset": 0,
        "slot": "5",
        "type": "t_mapping(t_address,t_struct(Burning)729_storage)"
      },
      {
        "astId": 737,
        "contract": "contracts/MingCoin.sol:MingCoin",
        "label": "name2Address",
        "offset": 0,
        "slot": "6",
        "type": "t_mapping(t_string_memory_ptr,t_address)"
      },
      {
        "astId": 740,
        "contract": "contracts/MingCoin.sol:MingCoin",
        "label": "addresses",
        "offset": 0,
        "slot": "7",
        "type": "t_array(t_address)dyn_storage"
      }
    ],
    "types": {
      "t_address": {
        "encoding": "inplace",
        "label": "address",
        "numberOfBytes": "20"
      },
      "t_array(t_address)dyn_storage": {
        "base": "t_address",
        "encoding": "dynamic_array",
        "label": "address[]",
        "numberOfBytes": "32"
      },
      "t_bool": {
        "encoding": "inplace",
        "label": "bool",
        "numberOfBytes": "1"
      },
      "t_mapping(t_address,t_mapping(t_address,t_uint256))": {
        "encoding": "mapping",
        "key": "t_address",
        "label": "mapping(address => mapping(address => uint256))",
        "numberOfBytes": "32",
        "value": "t_mapping(t_address,t_uint256)"
      },
      "t_mapping(t_address,t_struct(Burning)729_storage)": {
        "encoding": "mapping",
        "key": "t_address",
        "label": "mapping(address => struct MingCoin.Burning)",
        "numberOfBytes": "32",
        "value": "t_struct(Burning)729_storage"
      },
      "t_mapping(t_address,t_uint256)": {
        "encoding": "mapping",
        "key": "t_address",
        "label": "mapping(address => uint256)",
        "numberOfBytes": "32",
        "value": "t_uint256"
      },
      "t_mapping(t_string_memory_ptr,t_address)": {
        "encoding": "mapping",
        "key": "t_string_memory_ptr",
        "label": "mapping(string => address)",
        "numberOfBytes": "32",
        "value": "t_address"
      },
      "t_string_memory_ptr": {
        "encoding": "bytes",
        "label": "string",
        "numberOfBytes": "32"
      },
      "t_string_storage": {
        "encoding": "bytes",
        "label": "string",
        "numberOfBytes": "32"
      },
      "t_struct(Burning)729_storage": {
        "encoding": "inplace",
        "label": "struct MingCoin.Burning",
        "members": [
          {
            "astId": 724,
            "contract": "contracts/MingCoin.sol:MingCoin",
            "label": "name",
            "offset": 0,
            "slot": "0",
            "type": "t_string_storage"
          },
          {
            "astId": 726,
            "contract": "contracts/MingCoin.sol:MingCoin",
            "label": "amount",
            "offset": 0,
            "slot": "1",
            "type": "t_uint256"
          },
          {
            "astId": 728,
            "contract": "contracts/MingCoin.sol:MingCoin",
            "label": "exists",
            "offset": 0,
            "slot": "2",
            "type": "t_bool"
          }
        ],
        "numberOfBytes": "96"
      },
      "t_uint256": {
        "encoding": "inplace",
        "label": "uint256",
        "numberOfBytes": "32"
      }
    }
  }
}