{
  "address": "0xb6057e08a11da09a998985874FE2119e98dB3D5D",
  "abi": [
    {
      "inputs": [],
      "stateMutability": "nonpayable",
      "type": "constructor"
    },
    {
      "anonymous": false,
      "inputs": [
        {
          "indexed": true,
          "internalType": "address",
          "name": "owner",
          "type": "address"
        },
        {
          "indexed": true,
          "internalType": "address",
          "name": "spender",
          "type": "address"
        },
        {
          "indexed": false,
          "internalType": "uint256",
          "name": "value",
          "type": "uint256"
        }
      ],
      "name": "Approval",
      "type": "event"
    },
    {
      "anonymous": false,
      "inputs": [
        {
          "indexed": true,
          "internalType": "address",
          "name": "from",
          "type": "address"
        },
        {
          "indexed": true,
          "internalType": "address",
          "name": "to",
          "type": "address"
        },
        {
          "indexed": false,
          "internalType": "uint256",
          "name": "value",
          "type": "uint256"
        }
      ],
      "name": "Transfer",
      "type": "event"
    },
    {
      "inputs": [
        {
          "internalType": "address",
          "name": "owner",
          "type": "address"
        },
        {
          "internalType": "address",
          "name": "spender",
          "type": "address"
        }
      ],
      "name": "allowance",
      "outputs": [
        {
          "internalType": "uint256",
          "name": "",
          "type": "uint256"
        }
      ],
      "stateMutability": "view",
      "type": "function"
    },
    {
      "inputs": [
        {
          "internalType": "address",
          "name": "spender",
          "type": "address"
        },
        {
          "internalType": "uint256",
          "name": "value",
          "type": "uint256"
        }
      ],
      "name": "approve",
      "outputs": [
        {
          "internalType": "bool",
          "name": "",
          "type": "bool"
        }
      ],
      "stateMutability": "nonpayable",
      "type": "function"
    },
    {
      "inputs": [
        {
          "internalType": "address",
          "name": "account",
          "type": "address"
        }
      ],
      "name": "balanceOf",
      "outputs": [
        {
          "internalType": "uint256",
          "name": "",
          "type": "uint256"
        }
      ],
      "stateMutability": "view",
      "type": "function"
    },
    {
      "inputs": [],
      "name": "balanceToMint",
      "outputs": [
        {
          "internalType": "uint256",
          "name": "",
          "type": "uint256"
        }
      ],
      "stateMutability": "view",
      "type": "function"
    },
    {
      "inputs": [],
      "name": "batchMint",
      "outputs": [],
      "stateMutability": "payable",
      "type": "function"
    },
    {
      "inputs": [
        {
          "internalType": "string",
          "name": "recipient",
          "type": "string"
        },
        {
          "internalType": "uint256",
          "name": "amount",
          "type": "uint256"
        },
        {
          "internalType": "string",
          "name": "message",
          "type": "string"
        }
      ],
      "name": "burn",
      "outputs": [
        {
          "internalType": "address",
          "name": "",
          "type": "address"
        }
      ],
      "stateMutability": "nonpayable",
      "type": "function"
    },
    {
      "inputs": [
        {
          "internalType": "address",
          "name": "addr",
          "type": "address"
        },
        {
          "internalType": "uint256",
          "name": "amount",
          "type": "uint256"
        },
        {
          "internalType": "string",
          "name": "message",
          "type": "string"
        }
      ],
      "name": "burnToAddress",
      "outputs": [],
      "stateMutability": "nonpayable",
      "type": "function"
    },
    {
      "inputs": [],
      "name": "decimals",
      "outputs": [
        {
          "internalType": "uint8",
          "name": "",
          "type": "uint8"
        }
      ],
      "stateMutability": "view",
      "type": "function"
    },
    {
      "inputs": [
        {
          "internalType": "string",
          "name": "recipient",
          "type": "string"
        }
      ],
      "name": "getAddressByName",
      "outputs": [
        {
          "internalType": "address",
          "name": "",
          "type": "address"
        }
      ],
      "stateMutability": "view",
      "type": "function"
    },
    {
      "inputs": [
        {
          "internalType": "address",
          "name": "addr",
          "type": "address"
        }
      ],
      "name": "getBaseProfile",
      "outputs": [
        {
          "components": [
            {
              "internalType": "address",
              "name": "addr",
              "type": "address"
            },
            {
              "internalType": "string",
              "name": "name",
              "type": "string"
            },
            {
              "internalType": "uint256",
              "name": "amount",
              "type": "uint256"
            },
            {
              "internalType": "bool",
              "name": "exists",
              "type": "bool"
            }
          ],
          "internalType": "struct MingCoin.Burning",
          "name": "",
          "type": "tuple"
        }
      ],
      "stateMutability": "view",
      "type": "function"
    },
    {
      "inputs": [
        {
          "internalType": "address",
          "name": "addr",
          "type": "address"
        }
      ],
      "name": "getBurningHistory",
      "outputs": [
        {
          "components": [
            {
              "internalType": "address",
              "name": "from",
              "type": "address"
            },
            {
              "internalType": "uint256",
              "name": "amount",
              "type": "uint256"
            },
            {
              "internalType": "string",
              "name": "message",
              "type": "string"
            }
          ],
          "internalType": "struct MingCoin.BurningInfo[]",
          "name": "",
          "type": "tuple[]"
        }
      ],
      "stateMutability": "view",
      "type": "function"
    },
    {
      "inputs": [],
      "name": "getBurningList",
      "outputs": [
        {
          "components": [
            {
              "internalType": "address",
              "name": "addr",
              "type": "address"
            },
            {
              "internalType": "string",
              "name": "name",
              "type": "string"
            },
            {
              "internalType": "uint256",
              "name": "amount",
              "type": "uint256"
            },
            {
              "internalType": "bool",
              "name": "exists",
              "type": "bool"
            }
          ],
          "internalType": "struct MingCoin.Burning[]",
          "name": "",
          "type": "tuple[]"
        }
      ],
      "stateMutability": "view",
      "type": "function"
    },
    {
      "inputs": [
        {
          "internalType": "address",
          "name": "addr",
          "type": "address"
        }
      ],
      "name": "getNameByAddress",
      "outputs": [
        {
          "internalType": "string",
          "name": "",
          "type": "string"
        }
      ],
      "stateMutability": "view",
      "type": "function"
    },
    {
      "inputs": [
        {
          "internalType": "uint256",
          "name": "_type",
          "type": "uint256"
        },
        {
          "internalType": "address",
          "name": "addr",
          "type": "address"
        }
      ],
      "name": "getProfileList",
      "outputs": [
        {
          "components": [
            {
              "internalType": "string",
              "name": "key",
              "type": "string"
            },
            {
              "internalType": "uint256",
              "name": "value",
              "type": "uint256"
            }
          ],
          "internalType": "struct MingCoin.KV[]",
          "name": "",
          "type": "tuple[]"
        }
      ],
      "stateMutability": "view",
      "type": "function"
    },
    {
      "inputs": [],
      "name": "i_owner",
      "outputs": [
        {
          "internalType": "address",
          "name": "",
          "type": "address"
        }
      ],
      "stateMutability": "view",
      "type": "function"
    },
    {
      "inputs": [],
      "name": "isMintOver",
      "outputs": [
        {
          "internalType": "bool",
          "name": "",
          "type": "bool"
        }
      ],
      "stateMutability": "view",
      "type": "function"
    },
    {
      "inputs": [],
      "name": "maxSupply",
      "outputs": [
        {
          "internalType": "uint256",
          "name": "",
          "type": "uint256"
        }
      ],
      "stateMutability": "pure",
      "type": "function"
    },
    {
      "inputs": [],
      "name": "mint",
      "outputs": [
        {
          "internalType": "uint256",
          "name": "",
          "type": "uint256"
        }
      ],
      "stateMutability": "nonpayable",
      "type": "function"
    },
    {
      "inputs": [],
      "name": "name",
      "outputs": [
        {
          "internalType": "string",
          "name": "",
          "type": "string"
        }
      ],
      "stateMutability": "view",
      "type": "function"
    },
    {
      "inputs": [],
      "name": "onFundingOver",
      "outputs": [],
      "stateMutability": "nonpayable",
      "type": "function"
    },
    {
      "inputs": [],
      "name": "poolFee",
      "outputs": [
        {
          "internalType": "uint24",
          "name": "",
          "type": "uint24"
        }
      ],
      "stateMutability": "view",
      "type": "function"
    },
    {
      "inputs": [],
      "name": "symbol",
      "outputs": [
        {
          "internalType": "string",
          "name": "",
          "type": "string"
        }
      ],
      "stateMutability": "view",
      "type": "function"
    },
    {
      "inputs": [],
      "name": "totalMinted",
      "outputs": [
        {
          "internalType": "uint256",
          "name": "",
          "type": "uint256"
        }
      ],
      "stateMutability": "view",
      "type": "function"
    },
    {
      "inputs": [],
      "name": "totalSupply",
      "outputs": [
        {
          "internalType": "uint256",
          "name": "",
          "type": "uint256"
        }
      ],
      "stateMutability": "view",
      "type": "function"
    },
    {
      "inputs": [
        {
          "internalType": "address",
          "name": "to",
          "type": "address"
        },
        {
          "internalType": "uint256",
          "name": "value",
          "type": "uint256"
        }
      ],
      "name": "transfer",
      "outputs": [
        {
          "internalType": "bool",
          "name": "",
          "type": "bool"
        }
      ],
      "stateMutability": "nonpayable",
      "type": "function"
    },
    {
      "inputs": [
        {
          "internalType": "address",
          "name": "from",
          "type": "address"
        },
        {
          "internalType": "address",
          "name": "to",
          "type": "address"
        },
        {
          "internalType": "uint256",
          "name": "value",
          "type": "uint256"
        }
      ],
      "name": "transferFrom",
      "outputs": [
        {
          "internalType": "bool",
          "name": "",
          "type": "bool"
        }
      ],
      "stateMutability": "nonpayable",
      "type": "function"
    },
    {
      "inputs": [
        {
          "internalType": "uint256",
          "name": "_type",
          "type": "uint256"
        },
        {
          "internalType": "address",
          "name": "addr",
          "type": "address"
        },
        {
          "internalType": "string",
          "name": "url",
          "type": "string"
        },
        {
          "internalType": "uint256",
          "name": "amount",
          "type": "uint256"
        }
      ],
      "name": "updateProfile",
      "outputs": [],
      "stateMutability": "nonpayable",
      "type": "function"
    }
  ],
  "transactionHash": "0x38b8532b746d1dbb114659e8a3e7f48927307eb33ad366ddc41cf51ab1cedf10",
  "args": [],
  "numDeployments": 1,
  "solcInputHash": "14a031dd1a8bf98d267675570650d9eb",
  "bytecode": "0x60806040526000600c556000600d5573c36442b4a4522e871399cd717abdd847ab11fe88601060006101000a81548173ffffffffffffffffffffffffffffffffffffffff021916908373ffffffffffffffffffffffffffffffffffffffff160217905550731f98431c8ad98523631ae4a59f267346ea31f984601160006101000a81548173ffffffffffffffffffffffffffffffffffffffff021916908373ffffffffffffffffffffffffffffffffffffffff160217905550348015620000c557600080fd5b506040518060400160405280601081526020017f4d696e6720436f696e2076302e312e33000000000000000000000000000000008152506040518060400160405280600481526020017f4d494e470000000000000000000000000000000000000000000000000000000081525081600390805190602001906200014a92919062000202565b5080600490805190602001906200016392919062000202565b50505073b4fbf271143f4fbf7b91a5ded31805e42b2208d6600e60006101000a81548173ffffffffffffffffffffffffffffffffffffffff021916908373ffffffffffffffffffffffffffffffffffffffff16021790555033600f60006101000a81548173ffffffffffffffffffffffffffffffffffffffff021916908373ffffffffffffffffffffffffffffffffffffffff160217905550620002b8565b828054600181600116156101000203166002900490600052602060002090601f0160209004810192826200023a576000855562000286565b82601f106200025557805160ff191683800117855562000286565b8280016001018555821562000286579182015b828111156200028557825182559160200191906001019062000268565b5b50905062000295919062000299565b5090565b5b80821115620002b45760008160009055506001016200029a565b5090565b615e7880620002c86000396000f3fe60806040526004361061019c5760003560e01c80637c80bb4f116100ec578063a9059cbb1161008a578063d5abeb0111610064578063d5abeb011461061a578063dba6335f14610645578063dd62ed3e14610670578063e3424c93146106ad5761019c565b8063a9059cbb14610563578063b01b5158146105a0578063ccfba881146105dd5761019c565b8063995a38f6116100c6578063995a38f6146104955780639a65ddec146104be578063a2309ff8146104fb578063a73154cd146105265761019c565b80637c80bb4f1461040257806389791cb61461043f57806395d89b411461046a5761019c565b806318160ddd11610159578063313ce56711610133578063313ce5671461035a5780636dbcf2521461038557806370a082311461039c578063743d6152146103d95761019c565b806318160ddd146102c75780631c783c7b146102f257806323b872dd1461031d5761019c565b806306fdde03146101a1578063089fe6aa146101cc578063095ea7b3146101f75780630b59c43e146102345780631249c58b1461025f57806313a768e11461028a575b600080fd5b3480156101ad57600080fd5b506101b66106b7565b6040516101c391906157d5565b60405180910390f35b3480156101d857600080fd5b506101e1610759565b6040516101ee9190615975565b60405180910390f35b34801561020357600080fd5b5061021e60048036038101906102199190614aed565b61075f565b60405161022b91906157ba565b60405180910390f35b34801561024057600080fd5b50610249610782565b60405161025691906157ba565b60405180910390f35b34801561026b57600080fd5b5061027461079c565b6040516102819190615990565b60405180910390f35b34801561029657600080fd5b506102b160048036038101906102ac9190614c27565b61088a565b6040516102be91906156cb565b60405180910390f35b3480156102d357600080fd5b506102dc610aa1565b6040516102e99190615990565b60405180910390f35b3480156102fe57600080fd5b50610307610aab565b6040516103149190615776565b60405180910390f35b34801561032957600080fd5b50610344600480360381019061033f9190614a9e565b610d2c565b60405161035191906157ba565b60405180910390f35b34801561036657600080fd5b5061036f610d5b565b60405161037c91906159ab565b60405180910390f35b34801561039157600080fd5b5061039a610d64565b005b3480156103a857600080fd5b506103c360048036038101906103be9190614a10565b611009565b6040516103d09190615990565b60405180910390f35b3480156103e557600080fd5b5061040060048036038101906103fb9190614b29565b611051565b005b34801561040e57600080fd5b5061042960048036038101906104249190614a10565b6110f7565b60405161043691906157d5565b60405180910390f35b34801561044b57600080fd5b506104546111db565b6040516104619190615990565b60405180910390f35b34801561047657600080fd5b5061047f6111f4565b60405161048c91906157d5565b60405180910390f35b3480156104a157600080fd5b506104bc60048036038101906104b79190614da9565b611296565b005b3480156104ca57600080fd5b506104e560048036038101906104e09190614be2565b61152f565b6040516104f291906156cb565b60405180910390f35b34801561050757600080fd5b5061051061160a565b60405161051d9190615990565b60405180910390f35b34801561053257600080fd5b5061054d60048036038101906105489190614a10565b611614565b60405161055a9190615937565b60405180910390f35b34801561056f57600080fd5b5061058a60048036038101906105859190614aed565b61178a565b60405161059791906157ba565b60405180910390f35b3480156105ac57600080fd5b506105c760048036038101906105c29190614d6d565b6117ad565b6040516105d49190615798565b60405180910390f35b3480156105e957600080fd5b5061060460048036038101906105ff9190614a10565b611a69565b6040516106119190615754565b60405180910390f35b34801561062657600080fd5b5061062f611c09565b60405161063c9190615990565b60405180910390f35b34801561065157600080fd5b5061065a611c1e565b60405161066791906156cb565b60405180910390f35b34801561067c57600080fd5b5061069760048036038101906106929190614a62565b611c44565b6040516106a49190615990565b60405180910390f35b6106b5611ccb565b005b606060038054600181600116156101000203166002900480601f01602080910402602001604051908101604052809291908181526020018280546001816001161561010002031660029004801561074f5780601f106107245761010080835404028352916020019161074f565b820191906000526020600020905b81548152906001019060200180831161073257829003601f168201915b5050505050905090565b610bb881565b60008061076a61207c565b9050610777818585612084565b600191505092915050565b60006c059c13d3eac3d0188a0af00000600c541015905090565b60006c059c13d3eac3d0188a0af00000600c54106107ef576040517f08c379a00000000000000000000000000000000000000000000000000000000081526004016107e690615877565b60405180910390fd5b6c059c13d3eac3d0188a0af00000695e1d5b8642c46ef00000600c5401111561084b576000600c546c059c13d3eac3d0188a0af000000390506108323382612096565b80600c6000828254019250508190555080915050610887565b61085f33695e1d5b8642c46ef00000612096565b695e1d5b8642c46ef00000600c60008282540192505081905550695e1d5b8642c46ef0000090505b90565b60008061089685612149565b905060001515600860008373ffffffffffffffffffffffffffffffffffffffff1673ffffffffffffffffffffffffffffffffffffffff16815260200190815260200160002060030160009054906101000a900460ff1615151415610a8b576001600860008373ffffffffffffffffffffffffffffffffffffffff1673ffffffffffffffffffffffffffffffffffffffff16815260200190815260200160002060030160006101000a81548160ff02191690831515021790555084600860008373ffffffffffffffffffffffffffffffffffffffff1673ffffffffffffffffffffffffffffffffffffffff16815260200190815260200160002060010190805190602001906109a5929190614785565b5080600860008373ffffffffffffffffffffffffffffffffffffffff1673ffffffffffffffffffffffffffffffffffffffff16815260200190815260200160002060000160006101000a81548173ffffffffffffffffffffffffffffffffffffffff021916908373ffffffffffffffffffffffffffffffffffffffff160217905550600b819080600181540180825580915050600190039060005260206000200160009091909190916101000a81548173ffffffffffffffffffffffffffffffffffffffff021916908373ffffffffffffffffffffffffffffffffffffffff1602179055505b610a968185856122ec565b809150509392505050565b6000600254905090565b6060612710600b805490501115610af7576040517f08c379a0000000000000000000000000000000000000000000000000000000008152600401610aee906158f7565b60405180910390fd5b6000600b8054905067ffffffffffffffff81118015610b1557600080fd5b50604051908082528060200260200182016040528015610b4f57816020015b610b3c614813565b815260200190600190039081610b345790505b50905060005b600b80549050811015610d245760086000600b8381548110610b7357fe5b9060005260206000200160009054906101000a900473ffffffffffffffffffffffffffffffffffffffff1673ffffffffffffffffffffffffffffffffffffffff1673ffffffffffffffffffffffffffffffffffffffff1681526020019081526020016000206040518060800160405290816000820160009054906101000a900473ffffffffffffffffffffffffffffffffffffffff1673ffffffffffffffffffffffffffffffffffffffff1673ffffffffffffffffffffffffffffffffffffffff168152602001600182018054600181600116156101000203166002900480601f016020809104026020016040519081016040528092919081815260200182805460018160011615610100020316600290048015610cd25780601f10610ca757610100808354040283529160200191610cd2565b820191906000526020600020905b815481529060010190602001808311610cb557829003601f168201915b50505050508152602001600282015481526020016003820160009054906101000a900460ff161515151581525050828281518110610d0c57fe5b60200260200101819052508080600101915050610b55565b508091505090565b600080610d3761207c565b9050610d44858285612455565b610d4f85858561251f565b60019150509392505050565b60006012905090565b600f60009054906101000a900473ffffffffffffffffffffffffffffffffffffffff1673ffffffffffffffffffffffffffffffffffffffff163373ffffffffffffffffffffffffffffffffffffffff1614610df4576040517f08c379a0000000000000000000000000000000000000000000000000000000008152600401610deb90615917565b60405180910390fd5b610dfc610782565b15610e3c576040517f08c379a0000000000000000000000000000000000000000000000000000000008152600401610e3390615837565b60405180910390fd5b6000600e60009054906101000a900473ffffffffffffffffffffffffffffffffffffffff1673ffffffffffffffffffffffffffffffffffffffff166370a08231306040518263ffffffff1660e01b8152600401610e9991906156cb565b60206040518083038186803b158015610eb157600080fd5b505afa158015610ec5573d6000803e3d6000fd5b505050506040513d601f19601f82011682018060405250810190610ee99190614d44565b9050610f0c604051806080016040528060428152602001615e016042913961263b565b610f4b6040518060400160405280600e81526020017f66756e645261697365643a20257300000000000000000000000000000000000081525082612739565b610f8c6040518060400160405280601e81526020017f616d6f756e74206f66204d494e4720746f2020756e69737761703a2025730000815250600d54612739565b6000811415610fd857610fd36040518060400160405280600b81526020017f7a65726f2072616973656400000000000000000000000000000000000000000081525061263b565b610fe5565b610fe481600d54612840565b5b611006604051806060016040528060408152602001615d526040913961263b565b50565b60008060008373ffffffffffffffffffffffffffffffffffffffff1673ffffffffffffffffffffffffffffffffffffffff168152602001908152602001600020549050919050565b60011515600860008573ffffffffffffffffffffffffffffffffffffffff1673ffffffffffffffffffffffffffffffffffffffff16815260200190815260200160002060030160009054906101000a900460ff161515146110e7576040517f08c379a00000000000000000000000000000000000000000000000000000000081526004016110de906157f7565b60405180910390fd5b6110f28383836122ec565b505050565b6060600860008373ffffffffffffffffffffffffffffffffffffffff1673ffffffffffffffffffffffffffffffffffffffff1681526020019081526020016000206001018054600181600116156101000203166002900480601f0160208091040260200160405190810160405280929190818152602001828054600181600116156101000203166002900480156111cf5780601f106111a4576101008083540402835291602001916111cf565b820191906000526020600020905b8154815290600101906020018083116111b257829003601f168201915b50505050509050919050565b6000600c546c059c13d3eac3d0188a0af0000003905090565b606060048054600181600116156101000203166002900480601f01602080910402602001604051908101604052809291908181526020018280546001816001161561010002031660029004801561128c5780601f106112615761010080835404028352916020019161128c565b820191906000526020600020905b81548152906001019060200180831161126f57829003601f168201915b5050505050905090565b60011515600860008573ffffffffffffffffffffffffffffffffffffffff1673ffffffffffffffffffffffffffffffffffffffff16815260200190815260200160002060030160009054906101000a900460ff1615151461132c576040517f08c379a0000000000000000000000000000000000000000000000000000000008152600401611323906157f7565b60405180910390fd5b6001841015801561133e575060038411155b61137d576040517f08c379a0000000000000000000000000000000000000000000000000000000008152600401611374906158b7565b60405180910390fd5b600060018514156113ce57600560008573ffffffffffffffffffffffffffffffffffffffff1673ffffffffffffffffffffffffffffffffffffffff168152602001908152602001600020905061146a565b600285141561141d57600660008573ffffffffffffffffffffffffffffffffffffffff1673ffffffffffffffffffffffffffffffffffffffff1681526020019081526020016000209050611469565b600385141561146857600760008573ffffffffffffffffffffffffffffffffffffffff1673ffffffffffffffffffffffffffffffffffffffff16815260200190815260200160002090505b5b5b600082111561147f5761147d848361178a565b505b6000816000018460405161149391906156b4565b908152602001604051809103902090508060010160009054906101000a900460ff166115155760018160010160006101000a81548160ff0219169083151502179055508160010184908060018154018082558091505060019003906000526020600020016000909190919091509080519060200190611513929190614785565b505b828160000160008282540192505081905550505050505050565b600080600a848460405161154492919061569b565b908152602001604051809103902060009054906101000a900473ffffffffffffffffffffffffffffffffffffffff169050600073ffffffffffffffffffffffffffffffffffffffff168173ffffffffffffffffffffffffffffffffffffffff1614156115ff576115f784848080601f016020809104026020016040519081016040528093929190818152602001838380828437600081840152601f19601f82011690508083019250505050505050612149565b915050611604565b809150505b92915050565b6000600c54905090565b61161c614813565b600860008373ffffffffffffffffffffffffffffffffffffffff1673ffffffffffffffffffffffffffffffffffffffff1681526020019081526020016000206040518060800160405290816000820160009054906101000a900473ffffffffffffffffffffffffffffffffffffffff1673ffffffffffffffffffffffffffffffffffffffff1673ffffffffffffffffffffffffffffffffffffffff168152602001600182018054600181600116156101000203166002900480601f0160208091040260200160405190810160405280929190818152602001828054600181600116156101000203166002900480156117555780601f1061172a57610100808354040283529160200191611755565b820191906000526020600020905b81548152906001019060200180831161173857829003601f168201915b50505050508152602001600282015481526020016003820160009054906101000a900460ff1615151515815250509050919050565b60008061179561207c565b90506117a281858561251f565b600191505092915050565b60606000600184141561180057600560008473ffffffffffffffffffffffffffffffffffffffff1673ffffffffffffffffffffffffffffffffffffffff16815260200190815260200160002090506118db565b600284141561184f57600660008473ffffffffffffffffffffffffffffffffffffffff1673ffffffffffffffffffffffffffffffffffffffff16815260200190815260200160002090506118da565b600384141561189e57600760008473ffffffffffffffffffffffffffffffffffffffff1673ffffffffffffffffffffffffffffffffffffffff16815260200190815260200160002090506118d9565b6040517f08c379a00000000000000000000000000000000000000000000000000000000081526004016118d0906158b7565b60405180910390fd5b5b5b6000816001018054905067ffffffffffffffff811180156118fb57600080fd5b5060405190808252806020026020018201604052801561193557816020015b611922614853565b81526020019060019003908161191a5790505b50905060005b8260010180549050811015611a5d57600083600101828154811061195b57fe5b906000526020600020018054600181600116156101000203166002900480601f0160208091040260200160405190810160405280929190818152602001828054600181600116156101000203166002900480156119f95780601f106119ce576101008083540402835291602001916119f9565b820191906000526020600020905b8154815290600101906020018083116119dc57829003601f168201915b5050505050905060405180604001604052808281526020018560000183604051611a2391906156b4565b908152602001604051809103902060000154815250838381518110611a4457fe5b602002602001018190525050808060010191505061193b565b50809250505092915050565b6060600960008373ffffffffffffffffffffffffffffffffffffffff1673ffffffffffffffffffffffffffffffffffffffff168152602001908152602001600020805480602002602001604051908101604052809291908181526020016000905b82821015611bfe57838290600052602060002090600302016040518060600160405290816000820160009054906101000a900473ffffffffffffffffffffffffffffffffffffffff1673ffffffffffffffffffffffffffffffffffffffff1673ffffffffffffffffffffffffffffffffffffffff16815260200160018201548152602001600282018054600181600116156101000203166002900480601f016020809104026020016040519081016040528092919081815260200182805460018160011615610100020316600290048015611be65780601f10611bbb57610100808354040283529160200191611be6565b820191906000526020600020905b815481529060010190602001808311611bc957829003601f168201915b50505050508152505081526020019060010190611aca565b505050509050919050565b60006c059c13d3eac3d0188a0af00000905090565b600f60009054906101000a900473ffffffffffffffffffffffffffffffffffffffff1681565b6000600160008473ffffffffffffffffffffffffffffffffffffffff1673ffffffffffffffffffffffffffffffffffffffff16815260200190815260200160002060008373ffffffffffffffffffffffffffffffffffffffff1673ffffffffffffffffffffffffffffffffffffffff16815260200190815260200160002054905092915050565b600034905060008111611d13576040517f08c379a0000000000000000000000000000000000000000000000000000000008152600401611d0a90615857565b60405180910390fd5b600063065b9aaa8202905060028102611d2a6111db565b1015611d6b576040517f08c379a0000000000000000000000000000000000000000000000000000000008152600401611d6290615817565b60405180910390fd5b6000600e60009054906101000a900473ffffffffffffffffffffffffffffffffffffffff1673ffffffffffffffffffffffffffffffffffffffff166370a08231306040518263ffffffff1660e01b8152600401611dc891906156cb565b60206040518083038186803b158015611de057600080fd5b505afa158015611df4573d6000803e3d6000fd5b505050506040513d601f19601f82011682018060405250810190611e189190614d44565b905060008314611f5657600e60009054906101000a900473ffffffffffffffffffffffffffffffffffffffff1673ffffffffffffffffffffffffffffffffffffffff1663d0e30db0846040518263ffffffff1660e01b81526004016000604051808303818588803b158015611e8c57600080fd5b505af1158015611ea0573d6000803e3d6000fd5b5050505050600e60009054906101000a900473ffffffffffffffffffffffffffffffffffffffff1673ffffffffffffffffffffffffffffffffffffffff1663a9059cbb30856040518363ffffffff1660e01b8152600401611f0292919061572b565b602060405180830381600087803b158015611f1c57600080fd5b505af1158015611f30573d6000803e3d6000fd5b505050506040513d601f19601f82011682018060405250810190611f549190614b90565b505b6000600e60009054906101000a900473ffffffffffffffffffffffffffffffffffffffff1673ffffffffffffffffffffffffffffffffffffffff166370a08231306040518263ffffffff1660e01b8152600401611fb391906156cb565b60206040518083038186803b158015611fcb57600080fd5b505afa158015611fdf573d6000803e3d6000fd5b505050506040513d601f19601f820116820180604052508101906120039190614d44565b90508382820314612049576040517f08c379a0000000000000000000000000000000000000000000000000000000008152600401612040906158d7565b60405180910390fd5b6120533384612096565b82600d6000828254019250508190555060028302600c6000828254019250508190555050505050565b600033905090565b6120918383836001612e89565b505050565b600073ffffffffffffffffffffffffffffffffffffffff168273ffffffffffffffffffffffffffffffffffffffff161415612139576040517f08c379a000000000000000000000000000000000000000000000000000000000815260040180806020018281038252601f8152602001807f45524332303a206d696e7420746f20746865207a65726f20616464726573730081525060200191505060405180910390fd5b61214560008383613088565b5050565b6000808260405160200161215d91906156b4565b6040516020818303038152906040528051906020012090506000816040516020016121889190615680565b60405160208183030381529060405290506000601467ffffffffffffffff811180156121b357600080fd5b506040519080825280601f01601f1916602001820160405280156121e65781602001600182028036833780820191505090505b5090506000805b6004811015612265577f440000000000000000000000000000000000000000000000000000000000000083838060010194508151811061222957fe5b60200101907effffffffffffffffffffffffffffffffffffffffffffffffffffffffffffff1916908160001a90535080806001019150506121ed565b5060005b60148210156122d75783818151811061227e57fe5b602001015160f81c60f81b83838060010194508151811061229b57fe5b60200101907effffffffffffffffffffffffffffffffffffffffffffffffffffffffffffff1916908160001a9053508080600101915050612269565b506122e1826132d3565b945050505050919050565b6122f6838361178a565b5081600860008573ffffffffffffffffffffffffffffffffffffffff1673ffffffffffffffffffffffffffffffffffffffff16815260200190815260200160002060020160008282540192505081905550600960008473ffffffffffffffffffffffffffffffffffffffff1673ffffffffffffffffffffffffffffffffffffffff16815260200190815260200160002060405180606001604052803373ffffffffffffffffffffffffffffffffffffffff16815260200184815260200183815250908060018154018082558091505060019003906000526020600020906003020160009091909190915060008201518160000160006101000a81548173ffffffffffffffffffffffffffffffffffffffff021916908373ffffffffffffffffffffffffffffffffffffffff16021790555060208201518160010155604082015181600201908051906020019061244d929190614785565b505050505050565b60006124618484611c44565b90507fffffffffffffffffffffffffffffffffffffffffffffffffffffffffffffffff811461251957818110156125095781811015612508576040517f08c379a000000000000000000000000000000000000000000000000000000000815260040180806020018281038252601a8152602001807f4552433230496e73756666696369656e74416c6c6f77616e636500000000000081525060200191505060405180910390fd5b5b61251884848484036000612e89565b5b50505050565b600073ffffffffffffffffffffffffffffffffffffffff168373ffffffffffffffffffffffffffffffffffffffff1614156125a5576040517f08c379a0000000000000000000000000000000000000000000000000000000008152600401808060200182810382526025815260200180615d2d6025913960400191505060405180910390fd5b600073ffffffffffffffffffffffffffffffffffffffff168273ffffffffffffffffffffffffffffffffffffffff16141561262b576040517f08c379a0000000000000000000000000000000000000000000000000000000008152600401808060200182810382526023815260200180615cc76023913960400191505060405180910390fd5b612636838383613088565b505050565b612736816040516024018080602001828103825283818151815260200191508051906020019080838360005b83811015612682578082015181840152602081019050612667565b50505050905090810190601f1680156126af5780820380516001836020036101000a031916815260200191505b50925050506040516020818303038152906040527f41304fac000000000000000000000000000000000000000000000000000000007bffffffffffffffffffffffffffffffffffffffffffffffffffffffff19166020820180517bffffffffffffffffffffffffffffffffffffffffffffffffffffffff83818316178352505050506132e1565b50565b61283c82826040516024018080602001838152602001828103825284818151815260200191508051906020019080838360005b8381101561278757808201518184015260208101905061276c565b50505050905090810190601f1680156127b45780820380516001836020036101000a031916815260200191505b5093505050506040516020818303038152906040527fb60e72cc000000000000000000000000000000000000000000000000000000007bffffffffffffffffffffffffffffffffffffffffffffffffffffffff19166020820180517bffffffffffffffffffffffffffffffffffffffffffffffffffffffff83818316178352505050506132e1565b5050565b3073ffffffffffffffffffffffffffffffffffffffff1673b4fbf271143f4fbf7b91a5ded31805e42b2208d673ffffffffffffffffffffffffffffffffffffffff161015612abc576128c66040518060400160405280600981526020017f696e697420706f6f6c000000000000000000000000000000000000000000000081525061263b565b60006128d282846132fb565b90506000601060009054906101000a900473ffffffffffffffffffffffffffffffffffffffff1673ffffffffffffffffffffffffffffffffffffffff166313ead56273b4fbf271143f4fbf7b91a5ded31805e42b2208d630610bb8866040518563ffffffff1660e01b815260040161294d94939291906156e6565b602060405180830381600087803b15801561296757600080fd5b505af115801561297b573d6000803e3d6000fd5b505050506040513d601f19601f8201168201806040525081019061299f9190614a39565b905080601260006101000a81548173ffffffffffffffffffffffffffffffffffffffff021916908373ffffffffffffffffffffffffffffffffffffffff160217905550601260009054906101000a900473ffffffffffffffffffffffffffffffffffffffff1673ffffffffffffffffffffffffffffffffffffffff1663d0c93a7c6040518163ffffffff1660e01b815260040160206040518083038186803b158015612a4a57600080fd5b505afa158015612a5e573d6000803e3d6000fd5b505050506040513d601f19601f82011682018060405250810190612a829190614bb9565b601260146101000a81548162ffffff021916908360020b62ffffff1602179055506000612aaf8585613328565b5050509050505050612cec565b612afa6040518060400160405280601281526020017f696e697420706f6f6c207265766572736564000000000000000000000000000081525061263b565b6000612b0683836132fb565b90506000601060009054906101000a900473ffffffffffffffffffffffffffffffffffffffff1673ffffffffffffffffffffffffffffffffffffffff166313ead5623073b4fbf271143f4fbf7b91a5ded31805e42b2208d6610bb8866040518563ffffffff1660e01b8152600401612b8194939291906156e6565b602060405180830381600087803b158015612b9b57600080fd5b505af1158015612baf573d6000803e3d6000fd5b505050506040513d601f19601f82011682018060405250810190612bd39190614a39565b905080601260006101000a81548173ffffffffffffffffffffffffffffffffffffffff021916908373ffffffffffffffffffffffffffffffffffffffff160217905550601260009054906101000a900473ffffffffffffffffffffffffffffffffffffffff1673ffffffffffffffffffffffffffffffffffffffff1663d0c93a7c6040518163ffffffff1660e01b815260040160206040518083038186803b158015612c7e57600080fd5b505afa158015612c92573d6000803e3d6000fd5b505050506040513d601f19601f82011682018060405250810190612cb69190614bb9565b601260146101000a81548162ffffff021916908360020b62ffffff1602179055506000612ce38486613328565b50505090505050505b612e6a6040518060400160405280602081526020017f746f6b656e303a202573202d3e20746f6b656e313a2025732c207469636b3a20815250601260009054906101000a900473ffffffffffffffffffffffffffffffffffffffff1673ffffffffffffffffffffffffffffffffffffffff16630dfe16816040518163ffffffff1660e01b815260040160206040518083038186803b158015612d8d57600080fd5b505afa158015612da1573d6000803e3d6000fd5b505050506040513d601f19601f82011682018060405250810190612dc59190614a39565b601260009054906101000a900473ffffffffffffffffffffffffffffffffffffffff1673ffffffffffffffffffffffffffffffffffffffff1663d21220a76040518163ffffffff1660e01b815260040160206040518083038186803b158015612e2d57600080fd5b505afa158015612e41573d6000803e3d6000fd5b505050506040513d601f19601f82011682018060405250810190612e659190614a39565b614164565b612e85601260149054906101000a900460020b60020b6142a0565b5050565b600073ffffffffffffffffffffffffffffffffffffffff168473ffffffffffffffffffffffffffffffffffffffff161415612f0f576040517f08c379a0000000000000000000000000000000000000000000000000000000008152600401808060200182810382526024815260200180615d926024913960400191505060405180910390fd5b600073ffffffffffffffffffffffffffffffffffffffff168373ffffffffffffffffffffffffffffffffffffffff161415612f95576040517f08c379a0000000000000000000000000000000000000000000000000000000008152600401808060200182810382526022815260200180615cea6022913960400191505060405180910390fd5b81600160008673ffffffffffffffffffffffffffffffffffffffff1673ffffffffffffffffffffffffffffffffffffffff16815260200190815260200160002060008573ffffffffffffffffffffffffffffffffffffffff1673ffffffffffffffffffffffffffffffffffffffff168152602001908152602001600020819055508015613082578273ffffffffffffffffffffffffffffffffffffffff168473ffffffffffffffffffffffffffffffffffffffff167f8c5be1e5ebec7d5bd14f71427d1e84f3dd0314c0f7b2291e5b200ac8c7c3b925846040518082815260200191505060405180910390a35b50505050565b600073ffffffffffffffffffffffffffffffffffffffff168373ffffffffffffffffffffffffffffffffffffffff1614156130d257806002600082825401925050819055506131d2565b60008060008573ffffffffffffffffffffffffffffffffffffffff1673ffffffffffffffffffffffffffffffffffffffff1681526020019081526020016000205490508181101561318b576040517f08c379a00000000000000000000000000000000000000000000000000000000081526004018080602001828103825260148152602001807f696e73756666696369656e742062616c616e636500000000000000000000000081525060200191505060405180910390fd5b8181036000808673ffffffffffffffffffffffffffffffffffffffff1673ffffffffffffffffffffffffffffffffffffffff16815260200190815260200160002081905550505b600073ffffffffffffffffffffffffffffffffffffffff168273ffffffffffffffffffffffffffffffffffffffff16141561321c5780600260008282540392505081905550613269565b806000808473ffffffffffffffffffffffffffffffffffffffff1673ffffffffffffffffffffffffffffffffffffffff168152602001908152602001600020600082825401925050819055505b8173ffffffffffffffffffffffffffffffffffffffff168373ffffffffffffffffffffffffffffffffffffffff167fddf252ad1be2c89b69c2b068fc378daa952ba7f163c4a11628f55a4df523b3ef836040518082815260200191505060405180910390a3505050565b600060148201519050919050565b6132f8816132f061433961435a565b63ffffffff16565b50565b6000613320826c01000000000000000000000000808602028161331a57fe5b04614365565b905092915050565b60008060008061359f604051806060016040528060218152602001615d0c60219139601260009054906101000a900473ffffffffffffffffffffffffffffffffffffffff1673ffffffffffffffffffffffffffffffffffffffff16630dfe16816040518163ffffffff1660e01b815260040160206040518083038186803b1580156133b257600080fd5b505afa1580156133c6573d6000803e3d6000fd5b505050506040513d601f19601f820116820180604052508101906133ea9190614a39565b73ffffffffffffffffffffffffffffffffffffffff166370a08231306040518263ffffffff1660e01b815260040161342291906156cb565b60206040518083038186803b15801561343a57600080fd5b505afa15801561344e573d6000803e3d6000fd5b505050506040513d601f19601f820116820180604052508101906134729190614d44565b601260009054906101000a900473ffffffffffffffffffffffffffffffffffffffff1673ffffffffffffffffffffffffffffffffffffffff1663d21220a76040518163ffffffff1660e01b815260040160206040518083038186803b1580156134da57600080fd5b505afa1580156134ee573d6000803e3d6000fd5b505050506040513d601f19601f820116820180604052508101906135129190614a39565b73ffffffffffffffffffffffffffffffffffffffff166370a08231306040518263ffffffff1660e01b815260040161354a91906156cb565b60206040518083038186803b15801561356257600080fd5b505afa158015613576573d6000803e3d6000fd5b505050506040513d601f19601f8201168201806040525081019061359a9190614d44565b614474565b6135c2604051806060016040528060268152602001615ddb602691398787614474565b601260009054906101000a900473ffffffffffffffffffffffffffffffffffffffff1673ffffffffffffffffffffffffffffffffffffffff16630dfe16816040518163ffffffff1660e01b815260040160206040518083038186803b15801561362a57600080fd5b505afa15801561363e573d6000803e3d6000fd5b505050506040513d601f19601f820116820180604052508101906136629190614a39565b73ffffffffffffffffffffffffffffffffffffffff1663095ea7b3601060009054906101000a900473ffffffffffffffffffffffffffffffffffffffff16886040518363ffffffff1660e01b81526004016136be92919061572b565b602060405180830381600087803b1580156136d857600080fd5b505af11580156136ec573d6000803e3d6000fd5b505050506040513d601f19601f820116820180604052508101906137109190614b90565b50601260009054906101000a900473ffffffffffffffffffffffffffffffffffffffff1673ffffffffffffffffffffffffffffffffffffffff1663d21220a76040518163ffffffff1660e01b815260040160206040518083038186803b15801561377957600080fd5b505afa15801561378d573d6000803e3d6000fd5b505050506040513d601f19601f820116820180604052508101906137b19190614a39565b73ffffffffffffffffffffffffffffffffffffffff1663095ea7b3601060009054906101000a900473ffffffffffffffffffffffffffffffffffffffff16876040518363ffffffff1660e01b815260040161380d92919061572b565b602060405180830381600087803b15801561382757600080fd5b505af115801561383b573d6000803e3d6000fd5b505050506040513d601f19601f8201168201806040525081019061385f9190614b90565b506000601260009054906101000a900473ffffffffffffffffffffffffffffffffffffffff1673ffffffffffffffffffffffffffffffffffffffff16633850c7bd6040518163ffffffff1660e01b815260040160e06040518083038186803b1580156138ca57600080fd5b505afa1580156138de573d6000803e3d6000fd5b505050506040513d601f19601f820116820180604052508101906139029190614ca6565b50505050509150506139486040518060400160405280600e81526020017f63757272656e74207469636b3a2000000000000000000000000000000000000081525061263b565b6139548160020b6142a0565b601260149054906101000a900460020b60020b8160020b8161397257fe5b07810390506000620d89e8905060007ffffffffffffffffffffffffffffffffffffffffffffffffffffffffffff2761890506000601260149054906101000a900460020b60020b8460020b816139c457fe5b0760020b14613a08576040517f08c379a00000000000000000000000000000000000000000000000000000000081526004016139ff90615897565b60405180910390fd5b613a466040518060400160405280601181526020017f6c6f7765722a7570706572207469636b2000000000000000000000000000000081525061263b565b613a528260020b6142a0565b613a5e8160020b6142a0565b6000604051806101600160405280601260009054906101000a900473ffffffffffffffffffffffffffffffffffffffff1673ffffffffffffffffffffffffffffffffffffffff16630dfe16816040518163ffffffff1660e01b815260040160206040518083038186803b158015613ad457600080fd5b505afa158015613ae8573d6000803e3d6000fd5b505050506040513d601f19601f82011682018060405250810190613b0c9190614a39565b73ffffffffffffffffffffffffffffffffffffffff168152602001601260009054906101000a900473ffffffffffffffffffffffffffffffffffffffff1673ffffffffffffffffffffffffffffffffffffffff1663d21220a76040518163ffffffff1660e01b815260040160206040518083038186803b158015613b8f57600080fd5b505afa158015613ba3573d6000803e3d6000fd5b505050506040513d601f19601f82011682018060405250810190613bc79190614a39565b73ffffffffffffffffffffffffffffffffffffffff168152602001610bb862ffffff1681526020018460020b81526020018360020b81526020018b81526020018a815260200160008152602001600081526020013073ffffffffffffffffffffffffffffffffffffffff168152602001428152509050601060009054906101000a900473ffffffffffffffffffffffffffffffffffffffff1673ffffffffffffffffffffffffffffffffffffffff166388316456826040518263ffffffff1660e01b8152600401613c989190615959565b608060405180830381600087803b158015613cb257600080fd5b505af1158015613cc6573d6000803e3d6000fd5b505050506040513d601f19601f82011682018060405250810190613cea9190614e24565b809850819950829a50839b5050505050613d3a6040518060400160405280601b81526020017f6e657720706f736974696f6e206d696e7465643a2025732c20257300000000008152508787614474565b89861015613e1057613e0f601260009054906101000a900473ffffffffffffffffffffffffffffffffffffffff1673ffffffffffffffffffffffffffffffffffffffff16630dfe16816040518163ffffffff1660e01b815260040160206040518083038186803b158015613dad57600080fd5b505afa158015613dc1573d6000803e3d6000fd5b505050506040513d601f19601f82011682018060405250810190613de59190614a39565b601060009054906101000a900473ffffffffffffffffffffffffffffffffffffffff166000614584565b5b88851015613ee657613ee5601260009054906101000a900473ffffffffffffffffffffffffffffffffffffffff1673ffffffffffffffffffffffffffffffffffffffff1663d21220a76040518163ffffffff1660e01b815260040160206040518083038186803b158015613e8357600080fd5b505afa158015613e97573d6000803e3d6000fd5b505050506040513d601f19601f82011682018060405250810190613ebb9190614a39565b601060009054906101000a900473ffffffffffffffffffffffffffffffffffffffff166000614584565b5b614157604051806060016040528060258152602001615db660259139601260009054906101000a900473ffffffffffffffffffffffffffffffffffffffff1673ffffffffffffffffffffffffffffffffffffffff16630dfe16816040518163ffffffff1660e01b815260040160206040518083038186803b158015613f6a57600080fd5b505afa158015613f7e573d6000803e3d6000fd5b505050506040513d601f19601f82011682018060405250810190613fa29190614a39565b73ffffffffffffffffffffffffffffffffffffffff166370a08231306040518263ffffffff1660e01b8152600401613fda91906156cb565b60206040518083038186803b158015613ff257600080fd5b505afa158015614006573d6000803e3d6000fd5b505050506040513d601f19601f8201168201806040525081019061402a9190614d44565b601260009054906101000a900473ffffffffffffffffffffffffffffffffffffffff1673ffffffffffffffffffffffffffffffffffffffff1663d21220a76040518163ffffffff1660e01b815260040160206040518083038186803b15801561409257600080fd5b505afa1580156140a6573d6000803e3d6000fd5b505050506040513d601f19601f820116820180604052508101906140ca9190614a39565b73ffffffffffffffffffffffffffffffffffffffff166370a08231306040518263ffffffff1660e01b815260040161410291906156cb565b60206040518083038186803b15801561411a57600080fd5b505afa15801561412e573d6000803e3d6000fd5b505050506040513d601f19601f820116820180604052508101906141529190614d44565b614474565b5050505092959194509250565b61429b83838360405160240180806020018473ffffffffffffffffffffffffffffffffffffffff1681526020018373ffffffffffffffffffffffffffffffffffffffff168152602001828103825285818151815260200191508051906020019080838360005b838110156141e55780820151818401526020810190506141ca565b50505050905090810190601f1680156142125780820380516001836020036101000a031916815260200191505b509450505050506040516020818303038152906040527ffcec75e0000000000000000000000000000000000000000000000000000000007bffffffffffffffffffffffffffffffffffffffffffffffffffffffff19166020820180517bffffffffffffffffffffffffffffffffffffffffffffffffffffffff83818316178352505050506132e1565b505050565b61433681604051602401808281526020019150506040516020818303038152906040527f2d5b6cb9000000000000000000000000000000000000000000000000000000007bffffffffffffffffffffffffffffffffffffffffffffffffffffffff19166020820180517bffffffffffffffffffffffffffffffffffffffffffffffffffffffff83818316178352505050506132e1565b50565b60006a636f6e736f6c652e6c6f679050600080835160208501845afa505050565b61486d819050919050565b600060019050817001000000000000000000000000000000008110614391578060801c90508160401b91505b6801000000000000000081106143ae578060401c90508160201b91505b64010000000081106143c7578060201c90508160101b91505b6201000081106143de578060101c90508160081b91505b61010081106143f4578060081c90508160041b91505b60108110614409578060041c90508160021b91505b60088110614418578160011b91505b818304820160011c9150818304820160011c9150818304820160011c9150818304820160011c9150818304820160011c9150818304820160011c9150818304820160011c91508183048281101561446d578092505b5050919050565b61457f8383836040516024018080602001848152602001838152602001828103825285818151815260200191508051906020019080838360005b838110156144c95780820151818401526020810190506144ae565b50505050905090810190601f1680156144f65780820380516001836020036101000a031916815260200191505b509450505050506040516020818303038152906040527fca47c4eb000000000000000000000000000000000000000000000000000000007bffffffffffffffffffffffffffffffffffffffffffffffffffffffff19166020820180517bffffffffffffffffffffffffffffffffffffffffffffffffffffffff83818316178352505050506132e1565b505050565b6000808473ffffffffffffffffffffffffffffffffffffffff1663095ea7b360e01b8585604051602401808373ffffffffffffffffffffffffffffffffffffffff16815260200182815260200192505050604051602081830303815290604052907bffffffffffffffffffffffffffffffffffffffffffffffffffffffff19166020820180517bffffffffffffffffffffffffffffffffffffffffffffffffffffffff83818316178352505050506040518082805190602001908083835b602083106146655780518252602082019150602081019050602083039250614642565b6001836020036101000a0380198251168184511680821785525050505050509050019150506000604051808303816000865af19150503d80600081146146c7576040519150601f19603f3d011682016040523d82523d6000602084013e6146cc565b606091505b509150915081801561470c575060008151148061470b57508080602001905160208110156146f957600080fd5b81019080805190602001909291905050505b5b61477e576040517f08c379a00000000000000000000000000000000000000000000000000000000081526004018080602001828103825260028152602001807f534100000000000000000000000000000000000000000000000000000000000081525060200191505060405180910390fd5b5050505050565b828054600181600116156101000203166002900490600052602060002090601f0160209004810192826147bb5760008555614802565b82601f106147d457805160ff1916838001178555614802565b82800160010185558215614802579182015b828111156148015782518255916020019190600101906147e6565b5b50905061480f919061486f565b5090565b6040518060800160405280600073ffffffffffffffffffffffffffffffffffffffff16815260200160608152602001600081526020016000151581525090565b604051806040016040528060608152602001600081525090565bfe5b5b80821115614888576000816000905550600101614870565b5090565b600061489f61489a846159f7565b6159c6565b9050828152602081018484840111156148b757600080fd5b6148c2848285615baf565b509392505050565b6000813590506148d981615c0e565b92915050565b6000815190506148ee81615c0e565b92915050565b60008151905061490381615c25565b92915050565b60008151905061491881615c3c565b92915050565b60008083601f84011261493057600080fd5b8235905067ffffffffffffffff81111561494957600080fd5b60208301915083600182028301111561496157600080fd5b9250929050565b600082601f83011261497957600080fd5b813561498984826020860161488c565b91505092915050565b6000815190506149a181615c53565b92915050565b6000815190506149b681615c81565b92915050565b6000815190506149cb81615c6a565b92915050565b6000813590506149e081615c98565b92915050565b6000815190506149f581615c98565b92915050565b600081519050614a0a81615caf565b92915050565b600060208284031215614a2257600080fd5b6000614a30848285016148ca565b91505092915050565b600060208284031215614a4b57600080fd5b6000614a59848285016148df565b91505092915050565b60008060408385031215614a7557600080fd5b6000614a83858286016148ca565b9250506020614a94858286016148ca565b9150509250929050565b600080600060608486031215614ab357600080fd5b6000614ac1868287016148ca565b9350506020614ad2868287016148ca565b9250506040614ae3868287016149d1565b9150509250925092565b60008060408385031215614b0057600080fd5b6000614b0e858286016148ca565b9250506020614b1f858286016149d1565b9150509250929050565b600080600060608486031215614b3e57600080fd5b6000614b4c868287016148ca565b9350506020614b5d868287016149d1565b925050604084013567ffffffffffffffff811115614b7a57600080fd5b614b8686828701614968565b9150509250925092565b600060208284031215614ba257600080fd5b6000614bb0848285016148f4565b91505092915050565b600060208284031215614bcb57600080fd5b6000614bd984828501614909565b91505092915050565b60008060208385031215614bf557600080fd5b600083013567ffffffffffffffff811115614c0f57600080fd5b614c1b8582860161491e565b92509250509250929050565b600080600060608486031215614c3c57600080fd5b600084013567ffffffffffffffff811115614c5657600080fd5b614c6286828701614968565b9350506020614c73868287016149d1565b925050604084013567ffffffffffffffff811115614c9057600080fd5b614c9c86828701614968565b9150509250925092565b600080600080600080600060e0888a031215614cc157600080fd5b6000614ccf8a828b016149a7565b9750506020614ce08a828b01614909565b9650506040614cf18a828b016149bc565b9550506060614d028a828b016149bc565b9450506080614d138a828b016149bc565b93505060a0614d248a828b016149fb565b92505060c0614d358a828b016148f4565b91505092959891949750929550565b600060208284031215614d5657600080fd5b6000614d64848285016149e6565b91505092915050565b60008060408385031215614d8057600080fd5b6000614d8e858286016149d1565b9250506020614d9f858286016148ca565b9150509250929050565b60008060008060808587031215614dbf57600080fd5b6000614dcd878288016149d1565b9450506020614dde878288016148ca565b935050604085013567ffffffffffffffff811115614dfb57600080fd5b614e0787828801614968565b9250506060614e18878288016149d1565b91505092959194509250565b60008060008060808587031215614e3a57600080fd5b6000614e48878288016149e6565b9450506020614e5987828801614992565b9350506040614e6a878288016149e6565b9250506060614e7b878288016149e6565b91505092959194509250565b6000614e9383836153f2565b905092915050565b6000614ea78383615442565b905092915050565b6000614ebb8383615508565b905092915050565b614ecc81615b0a565b82525050565b614edb81615b0a565b82525050565b6000614eec82615a57565b614ef68185615aaa565b935083602082028501614f0885615a27565b8060005b85811015614f445784840389528151614f258582614e87565b9450614f3083615a83565b925060208a01995050600181019050614f0c565b50829750879550505050505092915050565b6000614f6182615a62565b614f6b8185615abb565b935083602082028501614f7d85615a37565b8060005b85811015614fb95784840389528151614f9a8582614e9b565b9450614fa583615a90565b925060208a01995050600181019050614f81565b50829750879550505050505092915050565b6000614fd682615a6d565b614fe08185615acc565b935083602082028501614ff285615a47565b8060005b8581101561502e578484038952815161500f8582614eaf565b945061501a83615a9d565b925060208a01995050600181019050614ff6565b50829750879550505050505092915050565b61504981615b1c565b82525050565b61505881615b1c565b82525050565b61506f61506a82615b28565b615bf1565b82525050565b61507e81615b32565b82525050565b60006150908385615aff565b935061509d838584615baf565b82840190509392505050565b60006150b482615a78565b6150be8185615add565b93506150ce818560208601615bbe565b6150d781615bfd565b840191505092915050565b60006150ed82615a78565b6150f78185615aee565b9350615107818560208601615bbe565b61511081615bfd565b840191505092915050565b600061512682615a78565b6151308185615aff565b9350615140818560208601615bbe565b80840191505092915050565b6000615159601283615aee565b91507f41646472657373206e6f742065786973747300000000000000000000000000006000830152602082019050919050565b6000615199601783615aee565b91507f4e6f7420656e6f756768204d494e4720746f206d696e740000000000000000006000830152602082019050919050565b60006151d9601d83615aee565b91507f46756e64696e67206f76657220686173206265656e2063616c6c65642e0000006000830152602082019050919050565b6000615219601083615aee565b91507f66756e64206d757374203e207a65726f000000000000000000000000000000006000830152602082019050919050565b6000615259600d83615aee565b91507f4d696e742066696e6973686564000000000000000000000000000000000000006000830152602082019050919050565b6000615299600a83615aee565b91507f7469636b206572726f72000000000000000000000000000000000000000000006000830152602082019050919050565b60006152d9600c83615aee565b91507f496e76616c6964207479706500000000000000000000000000000000000000006000830152602082019050919050565b6000615319601683615aee565b91507f457468657265756d206e6f74206465706f7369746564000000000000000000006000830152602082019050919050565b6000615359603b83615aee565b91507f41766f69642063616c6c696e6720746869732066756e6374696f6e206173207460008301527f6865206164647265737365732067726f7720746f6f206c6172676500000000006020830152604082019050919050565b60006153bf600983615aee565b91507f6e6f74206f776e657200000000000000000000000000000000000000000000006000830152602082019050919050565b600060608301600083015161540a6000860182614ec3565b50602083015161541d6020860182615653565b506040830151848203604086015261543582826150a9565b9150508091505092915050565b600060808301600083015161545a6000860182614ec3565b506020830151848203602086015261547282826150a9565b91505060408301516154876040860182615653565b50606083015161549a6060860182615040565b508091505092915050565b60006080830160008301516154bd6000860182614ec3565b50602083015184820360208601526154d582826150a9565b91505060408301516154ea6040860182615653565b5060608301516154fd6060860182615040565b508091505092915050565b6000604083016000830151848203600086015261552582826150a9565b915050602083015161553a6020860182615653565b508091505092915050565b6101608201600082015161555c6000850182614ec3565b50602082015161556f6020850182614ec3565b5060408201516155826040850182615635565b5060608201516155956060850182615075565b5060808201516155a86080850182615075565b5060a08201516155bb60a0850182615653565b5060c08201516155ce60c0850182615653565b5060e08201516155e160e0850182615653565b506101008201516155f6610100850182615653565b5061012082015161560b610120850182614ec3565b50610140820151615620610140850182615653565b50505050565b61562f81615b69565b82525050565b61563e81615b89565b82525050565b61564d81615b89565b82525050565b61565c81615b98565b82525050565b61566b81615b98565b82525050565b61567a81615ba2565b82525050565b600061568c828461505e565b60208201915081905092915050565b60006156a8828486615084565b91508190509392505050565b60006156c0828461511b565b915081905092915050565b60006020820190506156e06000830184614ed2565b92915050565b60006080820190506156fb6000830187614ed2565b6157086020830186614ed2565b6157156040830185615644565b6157226060830184615626565b95945050505050565b60006040820190506157406000830185614ed2565b61574d6020830184615662565b9392505050565b6000602082019050818103600083015261576e8184614ee1565b905092915050565b600060208201905081810360008301526157908184614f56565b905092915050565b600060208201905081810360008301526157b28184614fcb565b905092915050565b60006020820190506157cf600083018461504f565b92915050565b600060208201905081810360008301526157ef81846150e2565b905092915050565b600060208201905081810360008301526158108161514c565b9050919050565b600060208201905081810360008301526158308161518c565b9050919050565b60006020820190508181036000830152615850816151cc565b9050919050565b600060208201905081810360008301526158708161520c565b9050919050565b600060208201905081810360008301526158908161524c565b9050919050565b600060208201905081810360008301526158b08161528c565b9050919050565b600060208201905081810360008301526158d0816152cc565b9050919050565b600060208201905081810360008301526158f08161530c565b9050919050565b600060208201905081810360008301526159108161534c565b9050919050565b60006020820190508181036000830152615930816153b2565b9050919050565b6000602082019050818103600083015261595181846154a5565b905092915050565b60006101608201905061596f6000830184615545565b92915050565b600060208201905061598a6000830184615644565b92915050565b60006020820190506159a56000830184615662565b92915050565b60006020820190506159c06000830184615671565b92915050565b6000604051905081810181811067ffffffffffffffff821117156159ed576159ec615bfb565b5b8060405250919050565b600067ffffffffffffffff821115615a1257615a11615bfb565b5b601f19601f8301169050602081019050919050565b6000819050602082019050919050565b6000819050602082019050919050565b6000819050602082019050919050565b600081519050919050565b600081519050919050565b600081519050919050565b600081519050919050565b6000602082019050919050565b6000602082019050919050565b6000602082019050919050565b600082825260208201905092915050565b600082825260208201905092915050565b600082825260208201905092915050565b600082825260208201905092915050565b600082825260208201905092915050565b600081905092915050565b6000615b1582615b69565b9050919050565b60008115159050919050565b6000819050919050565b60008160020b9050919050565b60006fffffffffffffffffffffffffffffffff82169050919050565b600061ffff82169050919050565b600073ffffffffffffffffffffffffffffffffffffffff82169050919050565b600062ffffff82169050919050565b6000819050919050565b600060ff82169050919050565b82818337600083830152505050565b60005b83811015615bdc578082015181840152602081019050615bc1565b83811115615beb576000848401525b50505050565b6000819050919050565bfe5b6000601f19601f8301169050919050565b615c1781615b0a565b8114615c2257600080fd5b50565b615c2e81615b1c565b8114615c3957600080fd5b50565b615c4581615b32565b8114615c5057600080fd5b50565b615c5c81615b3f565b8114615c6757600080fd5b50565b615c7381615b5b565b8114615c7e57600080fd5b50565b615c8a81615b69565b8114615c9557600080fd5b50565b615ca181615b98565b8114615cac57600080fd5b50565b615cb881615ba2565b8114615cc357600080fd5b5056fe45524332303a207472616e7366657220746f20746865207a65726f206164647265737345524332303a20617070726f766520746f20746865207a65726f206164647265737362616c616e6365206f662045544820616e64204d494e47202d3e2025732c20257345524332303a207472616e736665722066726f6d20746865207a65726f20616464726573732d2d2d2d2d2d2d2d2d2d2d2d20656e64206f6620636f6e7472616374206d6574686f64206f6e46756e64696e674f7665722829202d2d2d2d2d2d2d2d2d2d2d2d45524332303a20617070726f76652066726f6d20746865207a65726f20616464726573736e65772062616c616e6365206f662045544820616e64204d494e47202d3e2025732c202573616d6f756e7420746f206d696e74206e657720706f736974696f6e20202d3e2025732c2025732d2d2d2d2d2d2d2d2d2d2d2d20626567696e206f6620636f6e7472616374206d6574686f64206f6e46756e64696e674f7665722829202d2d2d2d2d2d2d2d2d2d2d2da2646970667358221220eb5d7fa86615220ef4264f8c1b850d4bb5d69b8704858ab8b8e76201b8e69d6e64736f6c63430007060033",
  "devdoc": {
    "kind": "dev",
    "methods": {
      "allowance(address,address)": {
        "details": "See {IERC20-allowance}."
      },
      "approve(address,uint256)": {
        "details": "See {IERC20-approve}. NOTE: If `value` is the maximum `uint256`, the allowance is not updated on `transferFrom`. This is semantically equivalent to an infinite approval. Requirements: - `spender` cannot be the zero address."
      },
      "balanceOf(address)": {
        "details": "See {IERC20-balanceOf}."
      },
      "decimals()": {
        "details": "Returns the number of decimals used to get its user representation. For example, if `decimals` equals `2`, a balance of `505` tokens should be displayed to a user as `5.05` (`505 / 10 ** 2`). Tokens usually opt for a value of 18, imitating the relationship between Ether and Wei. This is the default value returned by this function, unless it's overridden. NOTE: This information is only used for _display_ purposes: it in no way affects any of the arithmetic of the contract, including {IERC20-balanceOf} and {IERC20-transfer}."
      },
      "name()": {
        "details": "Returns the name of the token."
      },
      "symbol()": {
        "details": "Returns the symbol of the token, usually a shorter version of the name."
      },
      "totalSupply()": {
        "details": "See {IERC20-totalSupply}."
      },
      "transfer(address,uint256)": {
        "details": "See {IERC20-transfer}. Requirements: - `to` cannot be the zero address. - the caller must have a balance of at least `value`."
      },
      "transferFrom(address,address,uint256)": {
        "details": "See {IERC20-transferFrom}. Emits an {Approval} event indicating the updated allowance. This is not required by the EIP. See the note at the beginning of {ERC20}. NOTE: Does not update the allowance if the current allowance is the maximum `uint256`. Requirements: - `from` and `to` cannot be the zero address. - `from` must have a balance of at least `value`. - the caller must have allowance for ``from``'s tokens of at least `value`."
      }
    },
    "version": 1
  },
  "userdoc": {
    "kind": "user",
    "methods": {},
    "version": 1
  },
  "storageLayout": {
    "storage": [
      {
        "astId": 2182,
        "contract": "contracts/MingCoin.sol:MingCoin",
        "label": "_balances",
        "offset": 0,
        "slot": "0",
        "type": "t_mapping(t_address,t_uint256)"
      },
      {
        "astId": 2188,
        "contract": "contracts/MingCoin.sol:MingCoin",
        "label": "_allowances",
        "offset": 0,
        "slot": "1",
        "type": "t_mapping(t_address,t_mapping(t_address,t_uint256))"
      },
      {
        "astId": 2190,
        "contract": "contracts/MingCoin.sol:MingCoin",
        "label": "_totalSupply",
        "offset": 0,
        "slot": "2",
        "type": "t_uint256"
      },
      {
        "astId": 2192,
        "contract": "contracts/MingCoin.sol:MingCoin",
        "label": "_name",
        "offset": 0,
        "slot": "3",
        "type": "t_string_storage"
      },
      {
        "astId": 2194,
        "contract": "contracts/MingCoin.sol:MingCoin",
        "label": "_symbol",
        "offset": 0,
        "slot": "4",
        "type": "t_string_storage"
      },
      {
        "astId": 4121,
        "contract": "contracts/MingCoin.sol:MingCoin",
        "label": "bannerMap",
        "offset": 0,
        "slot": "5",
        "type": "t_mapping(t_address,t_struct(Profile)4101_storage)"
      },
      {
        "astId": 4125,
        "contract": "contracts/MingCoin.sol:MingCoin",
        "label": "portraitMap",
        "offset": 0,
        "slot": "6",
        "type": "t_mapping(t_address,t_struct(Profile)4101_storage)"
      },
      {
        "astId": 4129,
        "contract": "contracts/MingCoin.sol:MingCoin",
        "label": "bioMap",
        "offset": 0,
        "slot": "7",
        "type": "t_mapping(t_address,t_struct(Profile)4101_storage)"
      },
      {
        "astId": 4133,
        "contract": "contracts/MingCoin.sol:MingCoin",
        "label": "addressMap",
        "offset": 0,
        "slot": "8",
        "type": "t_mapping(t_address,t_struct(Burning)4117_storage)"
      },
      {
        "astId": 4138,
        "contract": "contracts/MingCoin.sol:MingCoin",
        "label": "burningMap",
        "offset": 0,
        "slot": "9",
        "type": "t_mapping(t_address,t_array(t_struct(BurningInfo)4108_storage)dyn_storage)"
      },
      {
        "astId": 4142,
        "contract": "contracts/MingCoin.sol:MingCoin",
        "label": "name2Address",
        "offset": 0,
        "slot": "10",
        "type": "t_mapping(t_string_memory_ptr,t_address)"
      },
      {
        "astId": 4145,
        "contract": "contracts/MingCoin.sol:MingCoin",
        "label": "addresses",
        "offset": 0,
        "slot": "11",
        "type": "t_array(t_address)dyn_storage"
      },
      {
        "astId": 4165,
        "contract": "contracts/MingCoin.sol:MingCoin",
        "label": "total",
        "offset": 0,
        "slot": "12",
        "type": "t_uint256"
      },
      {
        "astId": 4168,
        "contract": "contracts/MingCoin.sol:MingCoin",
        "label": "liquidity",
        "offset": 0,
        "slot": "13",
        "type": "t_uint256"
      },
      {
        "astId": 4170,
        "contract": "contracts/MingCoin.sol:MingCoin",
        "label": "weth",
        "offset": 0,
        "slot": "14",
        "type": "t_contract(IWETH)4079"
      },
      {
        "astId": 4172,
        "contract": "contracts/MingCoin.sol:MingCoin",
        "label": "i_owner",
        "offset": 0,
        "slot": "15",
        "type": "t_address"
      },
      {
        "astId": 4181,
        "contract": "contracts/MingCoin.sol:MingCoin",
        "label": "nonfungiblePositionManager",
        "offset": 0,
        "slot": "16",
        "type": "t_contract(INonfungiblePositionManager)1731"
      },
      {
        "astId": 4187,
        "contract": "contracts/MingCoin.sol:MingCoin",
        "label": "v3Factory",
        "offset": 0,
        "slot": "17",
        "type": "t_contract(IUniswapV3Factory)387"
      },
      {
        "astId": 4189,
        "contract": "contracts/MingCoin.sol:MingCoin",
        "label": "pool",
        "offset": 0,
        "slot": "18",
        "type": "t_contract(IUniswapV3Pool)409"
      },
      {
        "astId": 4194,
        "contract": "contracts/MingCoin.sol:MingCoin",
        "label": "tickSpacing",
        "offset": 20,
        "slot": "18",
        "type": "t_int24"
      }
    ],
    "types": {
      "t_address": {
        "encoding": "inplace",
        "label": "address",
        "numberOfBytes": "20"
      },
      "t_array(t_address)dyn_storage": {
        "base": "t_address",
        "encoding": "dynamic_array",
        "label": "address[]",
        "numberOfBytes": "32"
      },
      "t_array(t_string_storage)dyn_storage": {
        "base": "t_string_storage",
        "encoding": "dynamic_array",
        "label": "string[]",
        "numberOfBytes": "32"
      },
      "t_array(t_struct(BurningInfo)4108_storage)dyn_storage": {
        "base": "t_struct(BurningInfo)4108_storage",
        "encoding": "dynamic_array",
        "label": "struct MingCoin.BurningInfo[]",
        "numberOfBytes": "32"
      },
      "t_bool": {
        "encoding": "inplace",
        "label": "bool",
        "numberOfBytes": "1"
      },
      "t_contract(INonfungiblePositionManager)1731": {
        "encoding": "inplace",
        "label": "contract INonfungiblePositionManager",
        "numberOfBytes": "20"
      },
      "t_contract(IUniswapV3Factory)387": {
        "encoding": "inplace",
        "label": "contract IUniswapV3Factory",
        "numberOfBytes": "20"
      },
      "t_contract(IUniswapV3Pool)409": {
        "encoding": "inplace",
        "label": "contract IUniswapV3Pool",
        "numberOfBytes": "20"
      },
      "t_contract(IWETH)4079": {
        "encoding": "inplace",
        "label": "contract IWETH",
        "numberOfBytes": "20"
      },
      "t_int24": {
        "encoding": "inplace",
        "label": "int24",
        "numberOfBytes": "3"
      },
      "t_mapping(t_address,t_array(t_struct(BurningInfo)4108_storage)dyn_storage)": {
        "encoding": "mapping",
        "key": "t_address",
        "label": "mapping(address => struct MingCoin.BurningInfo[])",
        "numberOfBytes": "32",
        "value": "t_array(t_struct(BurningInfo)4108_storage)dyn_storage"
      },
      "t_mapping(t_address,t_mapping(t_address,t_uint256))": {
        "encoding": "mapping",
        "key": "t_address",
        "label": "mapping(address => mapping(address => uint256))",
        "numberOfBytes": "32",
        "value": "t_mapping(t_address,t_uint256)"
      },
      "t_mapping(t_address,t_struct(Burning)4117_storage)": {
        "encoding": "mapping",
        "key": "t_address",
        "label": "mapping(address => struct MingCoin.Burning)",
        "numberOfBytes": "32",
        "value": "t_struct(Burning)4117_storage"
      },
      "t_mapping(t_address,t_struct(Profile)4101_storage)": {
        "encoding": "mapping",
        "key": "t_address",
        "label": "mapping(address => struct MingCoin.Profile)",
        "numberOfBytes": "32",
        "value": "t_struct(Profile)4101_storage"
      },
      "t_mapping(t_address,t_uint256)": {
        "encoding": "mapping",
        "key": "t_address",
        "label": "mapping(address => uint256)",
        "numberOfBytes": "32",
        "value": "t_uint256"
      },
      "t_mapping(t_string_memory_ptr,t_address)": {
        "encoding": "mapping",
        "key": "t_string_memory_ptr",
        "label": "mapping(string => address)",
        "numberOfBytes": "32",
        "value": "t_address"
      },
      "t_mapping(t_string_memory_ptr,t_struct(KeyValue)4091_storage)": {
        "encoding": "mapping",
        "key": "t_string_memory_ptr",
        "label": "mapping(string => struct MingCoin.KeyValue)",
        "numberOfBytes": "32",
        "value": "t_struct(KeyValue)4091_storage"
      },
      "t_string_memory_ptr": {
        "encoding": "bytes",
        "label": "string",
        "numberOfBytes": "32"
      },
      "t_string_storage": {
        "encoding": "bytes",
        "label": "string",
        "numberOfBytes": "32"
      },
      "t_struct(Burning)4117_storage": {
        "encoding": "inplace",
        "label": "struct MingCoin.Burning",
        "members": [
          {
            "astId": 4110,
            "contract": "contracts/MingCoin.sol:MingCoin",
            "label": "addr",
            "offset": 0,
            "slot": "0",
            "type": "t_address"
          },
          {
            "astId": 4112,
            "contract": "contracts/MingCoin.sol:MingCoin",
            "label": "name",
            "offset": 0,
            "slot": "1",
            "type": "t_string_storage"
          },
          {
            "astId": 4114,
            "contract": "contracts/MingCoin.sol:MingCoin",
            "label": "amount",
            "offset": 0,
            "slot": "2",
            "type": "t_uint256"
          },
          {
            "astId": 4116,
            "contract": "contracts/MingCoin.sol:MingCoin",
            "label": "exists",
            "offset": 0,
            "slot": "3",
            "type": "t_bool"
          }
        ],
        "numberOfBytes": "128"
      },
      "t_struct(BurningInfo)4108_storage": {
        "encoding": "inplace",
        "label": "struct MingCoin.BurningInfo",
        "members": [
          {
            "astId": 4103,
            "contract": "contracts/MingCoin.sol:MingCoin",
            "label": "from",
            "offset": 0,
            "slot": "0",
            "type": "t_address"
          },
          {
            "astId": 4105,
            "contract": "contracts/MingCoin.sol:MingCoin",
            "label": "amount",
            "offset": 0,
            "slot": "1",
            "type": "t_uint256"
          },
          {
            "astId": 4107,
            "contract": "contracts/MingCoin.sol:MingCoin",
            "label": "message",
            "offset": 0,
            "slot": "2",
            "type": "t_string_storage"
          }
        ],
        "numberOfBytes": "96"
      },
      "t_struct(KeyValue)4091_storage": {
        "encoding": "inplace",
        "label": "struct MingCoin.KeyValue",
        "members": [
          {
            "astId": 4088,
            "contract": "contracts/MingCoin.sol:MingCoin",
            "label": "value",
            "offset": 0,
            "slot": "0",
            "type": "t_uint256"
          },
          {
            "astId": 4090,
            "contract": "contracts/MingCoin.sol:MingCoin",
            "label": "exists",
            "offset": 0,
            "slot": "1",
            "type": "t_bool"
          }
        ],
        "numberOfBytes": "64"
      },
      "t_struct(Profile)4101_storage": {
        "encoding": "inplace",
        "label": "struct MingCoin.Profile",
        "members": [
          {
            "astId": 4095,
            "contract": "contracts/MingCoin.sol:MingCoin",
            "label": "valueMap",
            "offset": 0,
            "slot": "0",
            "type": "t_mapping(t_string_memory_ptr,t_struct(KeyValue)4091_storage)"
          },
          {
            "astId": 4098,
            "contract": "contracts/MingCoin.sol:MingCoin",
            "label": "keys",
            "offset": 0,
            "slot": "1",
            "type": "t_array(t_string_storage)dyn_storage"
          },
          {
            "astId": 4100,
            "contract": "contracts/MingCoin.sol:MingCoin",
            "label": "exists",
            "offset": 0,
            "slot": "2",
            "type": "t_bool"
          }
        ],
        "numberOfBytes": "96"
      },
      "t_uint256": {
        "encoding": "inplace",
        "label": "uint256",
        "numberOfBytes": "32"
      }
    }
  }
}