{
  "address": "0x80AfFC3E23B59D63F8830Fcd9f9b4dC08F98BDEb",
  "abi": [
    {
      "inputs": [],
      "stateMutability": "nonpayable",
      "type": "constructor"
    },
    {
      "anonymous": false,
      "inputs": [
        {
          "indexed": true,
          "internalType": "address",
          "name": "owner",
          "type": "address"
        },
        {
          "indexed": true,
          "internalType": "address",
          "name": "spender",
          "type": "address"
        },
        {
          "indexed": false,
          "internalType": "uint256",
          "name": "value",
          "type": "uint256"
        }
      ],
      "name": "Approval",
      "type": "event"
    },
    {
      "anonymous": false,
      "inputs": [
        {
          "indexed": true,
          "internalType": "address",
          "name": "from",
          "type": "address"
        },
        {
          "indexed": true,
          "internalType": "address",
          "name": "to",
          "type": "address"
        },
        {
          "indexed": false,
          "internalType": "uint256",
          "name": "value",
          "type": "uint256"
        }
      ],
      "name": "Transfer",
      "type": "event"
    },
    {
      "inputs": [
        {
          "internalType": "address",
          "name": "owner",
          "type": "address"
        },
        {
          "internalType": "address",
          "name": "spender",
          "type": "address"
        }
      ],
      "name": "allowance",
      "outputs": [
        {
          "internalType": "uint256",
          "name": "",
          "type": "uint256"
        }
      ],
      "stateMutability": "view",
      "type": "function"
    },
    {
      "inputs": [
        {
          "internalType": "address",
          "name": "spender",
          "type": "address"
        },
        {
          "internalType": "uint256",
          "name": "value",
          "type": "uint256"
        }
      ],
      "name": "approve",
      "outputs": [
        {
          "internalType": "bool",
          "name": "",
          "type": "bool"
        }
      ],
      "stateMutability": "nonpayable",
      "type": "function"
    },
    {
      "inputs": [
        {
          "internalType": "address",
          "name": "account",
          "type": "address"
        }
      ],
      "name": "balanceOf",
      "outputs": [
        {
          "internalType": "uint256",
          "name": "",
          "type": "uint256"
        }
      ],
      "stateMutability": "view",
      "type": "function"
    },
    {
      "inputs": [],
      "name": "balanceToMint",
      "outputs": [
        {
          "internalType": "uint256",
          "name": "",
          "type": "uint256"
        }
      ],
      "stateMutability": "view",
      "type": "function"
    },
    {
      "inputs": [],
      "name": "batchMint",
      "outputs": [],
      "stateMutability": "payable",
      "type": "function"
    },
    {
      "inputs": [
        {
          "internalType": "string",
          "name": "recipient",
          "type": "string"
        },
        {
          "internalType": "uint256",
          "name": "amount",
          "type": "uint256"
        },
        {
          "internalType": "string",
          "name": "message",
          "type": "string"
        }
      ],
      "name": "burn",
      "outputs": [
        {
          "internalType": "address",
          "name": "",
          "type": "address"
        }
      ],
      "stateMutability": "nonpayable",
      "type": "function"
    },
    {
      "inputs": [
        {
          "internalType": "address",
          "name": "addr",
          "type": "address"
        },
        {
          "internalType": "uint256",
          "name": "amount",
          "type": "uint256"
        },
        {
          "internalType": "string",
          "name": "message",
          "type": "string"
        }
      ],
      "name": "burnToAddress",
      "outputs": [],
      "stateMutability": "nonpayable",
      "type": "function"
    },
    {
      "inputs": [],
      "name": "decimals",
      "outputs": [
        {
          "internalType": "uint8",
          "name": "",
          "type": "uint8"
        }
      ],
      "stateMutability": "view",
      "type": "function"
    },
    {
      "inputs": [
        {
          "internalType": "string",
          "name": "recipient",
          "type": "string"
        }
      ],
      "name": "getAddressByName",
      "outputs": [
        {
          "internalType": "address",
          "name": "",
          "type": "address"
        }
      ],
      "stateMutability": "view",
      "type": "function"
    },
    {
      "inputs": [
        {
          "internalType": "address",
          "name": "addr",
          "type": "address"
        }
      ],
      "name": "getBaseProfile",
      "outputs": [
        {
          "components": [
            {
              "internalType": "address",
              "name": "addr",
              "type": "address"
            },
            {
              "internalType": "string",
              "name": "name",
              "type": "string"
            },
            {
              "internalType": "uint256",
              "name": "amount",
              "type": "uint256"
            },
            {
              "internalType": "bool",
              "name": "exists",
              "type": "bool"
            }
          ],
          "internalType": "struct MingCoin.Burning",
          "name": "",
          "type": "tuple"
        }
      ],
      "stateMutability": "view",
      "type": "function"
    },
    {
      "inputs": [
        {
          "internalType": "address",
          "name": "addr",
          "type": "address"
        }
      ],
      "name": "getBurningHistory",
      "outputs": [
        {
          "components": [
            {
              "internalType": "address",
              "name": "from",
              "type": "address"
            },
            {
              "internalType": "uint256",
              "name": "amount",
              "type": "uint256"
            },
            {
              "internalType": "string",
              "name": "message",
              "type": "string"
            }
          ],
          "internalType": "struct MingCoin.BurningInfo[]",
          "name": "",
          "type": "tuple[]"
        }
      ],
      "stateMutability": "view",
      "type": "function"
    },
    {
      "inputs": [],
      "name": "getBurningList",
      "outputs": [
        {
          "components": [
            {
              "internalType": "address",
              "name": "addr",
              "type": "address"
            },
            {
              "internalType": "string",
              "name": "name",
              "type": "string"
            },
            {
              "internalType": "uint256",
              "name": "amount",
              "type": "uint256"
            },
            {
              "internalType": "bool",
              "name": "exists",
              "type": "bool"
            }
          ],
          "internalType": "struct MingCoin.Burning[]",
          "name": "",
          "type": "tuple[]"
        }
      ],
      "stateMutability": "view",
      "type": "function"
    },
    {
      "inputs": [
        {
          "internalType": "address",
          "name": "addr",
          "type": "address"
        }
      ],
      "name": "getNameByAddress",
      "outputs": [
        {
          "internalType": "string",
          "name": "",
          "type": "string"
        }
      ],
      "stateMutability": "view",
      "type": "function"
    },
    {
      "inputs": [
        {
          "internalType": "uint256",
          "name": "_type",
          "type": "uint256"
        },
        {
          "internalType": "address",
          "name": "addr",
          "type": "address"
        }
      ],
      "name": "getProfileList",
      "outputs": [
        {
          "components": [
            {
              "internalType": "string",
              "name": "key",
              "type": "string"
            },
            {
              "internalType": "uint256",
              "name": "value",
              "type": "uint256"
            }
          ],
          "internalType": "struct MingCoin.KV[]",
          "name": "",
          "type": "tuple[]"
        }
      ],
      "stateMutability": "view",
      "type": "function"
    },
    {
      "inputs": [],
      "name": "i_owner",
      "outputs": [
        {
          "internalType": "address",
          "name": "",
          "type": "address"
        }
      ],
      "stateMutability": "view",
      "type": "function"
    },
    {
      "inputs": [],
      "name": "isMintOver",
      "outputs": [
        {
          "internalType": "bool",
          "name": "",
          "type": "bool"
        }
      ],
      "stateMutability": "view",
      "type": "function"
    },
    {
      "inputs": [],
      "name": "maxSupply",
      "outputs": [
        {
          "internalType": "uint256",
          "name": "",
          "type": "uint256"
        }
      ],
      "stateMutability": "pure",
      "type": "function"
    },
    {
      "inputs": [],
      "name": "mint",
      "outputs": [
        {
          "internalType": "uint256",
          "name": "",
          "type": "uint256"
        }
      ],
      "stateMutability": "nonpayable",
      "type": "function"
    },
    {
      "inputs": [],
      "name": "name",
      "outputs": [
        {
          "internalType": "string",
          "name": "",
          "type": "string"
        }
      ],
      "stateMutability": "view",
      "type": "function"
    },
    {
      "inputs": [],
      "name": "onFundingOver",
      "outputs": [],
      "stateMutability": "nonpayable",
      "type": "function"
    },
    {
      "inputs": [],
      "name": "poolFee",
      "outputs": [
        {
          "internalType": "uint24",
          "name": "",
          "type": "uint24"
        }
      ],
      "stateMutability": "view",
      "type": "function"
    },
    {
      "inputs": [],
      "name": "symbol",
      "outputs": [
        {
          "internalType": "string",
          "name": "",
          "type": "string"
        }
      ],
      "stateMutability": "view",
      "type": "function"
    },
    {
      "inputs": [],
      "name": "totalMinted",
      "outputs": [
        {
          "internalType": "uint256",
          "name": "",
          "type": "uint256"
        }
      ],
      "stateMutability": "view",
      "type": "function"
    },
    {
      "inputs": [],
      "name": "totalSupply",
      "outputs": [
        {
          "internalType": "uint256",
          "name": "",
          "type": "uint256"
        }
      ],
      "stateMutability": "view",
      "type": "function"
    },
    {
      "inputs": [
        {
          "internalType": "address",
          "name": "to",
          "type": "address"
        },
        {
          "internalType": "uint256",
          "name": "value",
          "type": "uint256"
        }
      ],
      "name": "transfer",
      "outputs": [
        {
          "internalType": "bool",
          "name": "",
          "type": "bool"
        }
      ],
      "stateMutability": "nonpayable",
      "type": "function"
    },
    {
      "inputs": [
        {
          "internalType": "address",
          "name": "from",
          "type": "address"
        },
        {
          "internalType": "address",
          "name": "to",
          "type": "address"
        },
        {
          "internalType": "uint256",
          "name": "value",
          "type": "uint256"
        }
      ],
      "name": "transferFrom",
      "outputs": [
        {
          "internalType": "bool",
          "name": "",
          "type": "bool"
        }
      ],
      "stateMutability": "nonpayable",
      "type": "function"
    },
    {
      "inputs": [
        {
          "internalType": "uint256",
          "name": "_type",
          "type": "uint256"
        },
        {
          "internalType": "address",
          "name": "addr",
          "type": "address"
        },
        {
          "internalType": "string",
          "name": "url",
          "type": "string"
        },
        {
          "internalType": "uint256",
          "name": "amount",
          "type": "uint256"
        }
      ],
      "name": "updateProfile",
      "outputs": [],
      "stateMutability": "nonpayable",
      "type": "function"
    }
  ],
  "transactionHash": "0xa8aff42c7b13e0886b2d470a67beae619333839b7df89f529e692267f63b19a5",
  "args": [],
  "numDeployments": 3,
  "solcInputHash": "b5448caa57acf14b6032a0edf771ae9a",
  "bytecode": "0x60806040526000600c5573c36442b4a4522e871399cd717abdd847ab11fe88600f60006101000a81548173ffffffffffffffffffffffffffffffffffffffff021916908373ffffffffffffffffffffffffffffffffffffffff160217905550731f98431c8ad98523631ae4a59f267346ea31f984601060006101000a81548173ffffffffffffffffffffffffffffffffffffffff021916908373ffffffffffffffffffffffffffffffffffffffff160217905550348015620000c057600080fd5b506040518060400160405280601081526020017f4d696e6720436f696e2076302e312e33000000000000000000000000000000008152506040518060400160405280600481526020017f4d494e4700000000000000000000000000000000000000000000000000000000815250816003908051906020019062000145929190620001fd565b5080600490805190602001906200015e929190620001fd565b505050734200000000000000000000000000000000000006600d60006101000a81548173ffffffffffffffffffffffffffffffffffffffff021916908373ffffffffffffffffffffffffffffffffffffffff16021790555033600e60006101000a81548173ffffffffffffffffffffffffffffffffffffffff021916908373ffffffffffffffffffffffffffffffffffffffff160217905550620002b3565b828054600181600116156101000203166002900490600052602060002090601f01602090048101928262000235576000855562000281565b82601f106200025057805160ff191683800117855562000281565b8280016001018555821562000281579182015b828111156200028057825182559160200191906001019062000263565b5b50905062000290919062000294565b5090565b5b80821115620002af57600081600090555060010162000295565b5090565b613efc80620002c36000396000f3fe60806040526004361061019c5760003560e01c80637c80bb4f116100ec578063a9059cbb1161008a578063d5abeb0111610064578063d5abeb011461061a578063dba6335f14610645578063dd62ed3e14610670578063e3424c93146106ad5761019c565b8063a9059cbb14610563578063b01b5158146105a0578063ccfba881146105dd5761019c565b8063995a38f6116100c6578063995a38f6146104955780639a65ddec146104be578063a2309ff8146104fb578063a73154cd146105265761019c565b80637c80bb4f1461040257806389791cb61461043f57806395d89b411461046a5761019c565b806318160ddd11610159578063313ce56711610133578063313ce5671461035a5780636dbcf2521461038557806370a082311461039c578063743d6152146103d95761019c565b806318160ddd146102c75780631c783c7b146102f257806323b872dd1461031d5761019c565b806306fdde03146101a1578063089fe6aa146101cc578063095ea7b3146101f75780630b59c43e146102345780631249c58b1461025f57806313a768e11461028a575b600080fd5b3480156101ad57600080fd5b506101b66106b7565b6040516101c391906139cb565b60405180910390f35b3480156101d857600080fd5b506101e1610759565b6040516101ee9190613b0f565b60405180910390f35b34801561020357600080fd5b5061021e60048036038101906102199190612fe0565b61075f565b60405161022b91906139b0565b60405180910390f35b34801561024057600080fd5b50610249610782565b60405161025691906139b0565b60405180910390f35b34801561026b57600080fd5b5061027461079c565b6040516102819190613b2a565b60405180910390f35b34801561029657600080fd5b506102b160048036038101906102ac91906130f1565b61088a565b6040516102be9190613906565b60405180910390f35b3480156102d357600080fd5b506102dc610aa1565b6040516102e99190613b2a565b60405180910390f35b3480156102fe57600080fd5b50610307610aab565b604051610314919061396c565b60405180910390f35b34801561032957600080fd5b50610344600480360381019061033f9190612f91565b610d2c565b60405161035191906139b0565b60405180910390f35b34801561036657600080fd5b5061036f610d5b565b60405161037c9190613b45565b60405180910390f35b34801561039157600080fd5b5061039a610d64565b005b3480156103a857600080fd5b506103c360048036038101906103be9190612f2c565b610f7d565b6040516103d09190613b2a565b60405180910390f35b3480156103e557600080fd5b5061040060048036038101906103fb919061301c565b610fc5565b005b34801561040e57600080fd5b5061042960048036038101906104249190612f2c565b61106b565b60405161043691906139cb565b60405180910390f35b34801561044b57600080fd5b5061045461114f565b6040516104619190613b2a565b60405180910390f35b34801561047657600080fd5b5061047f611168565b60405161048c91906139cb565b60405180910390f35b3480156104a157600080fd5b506104bc60048036038101906104b791906131d5565b61120a565b005b3480156104ca57600080fd5b506104e560048036038101906104e091906130ac565b6114a3565b6040516104f29190613906565b60405180910390f35b34801561050757600080fd5b5061051061157e565b60405161051d9190613b2a565b60405180910390f35b34801561053257600080fd5b5061054d60048036038101906105489190612f2c565b611588565b60405161055a9190613aed565b60405180910390f35b34801561056f57600080fd5b5061058a60048036038101906105859190612fe0565b6116fe565b60405161059791906139b0565b60405180910390f35b3480156105ac57600080fd5b506105c760048036038101906105c29190613199565b611721565b6040516105d4919061398e565b60405180910390f35b3480156105e957600080fd5b5061060460048036038101906105ff9190612f2c565b6119dd565b604051610611919061394a565b60405180910390f35b34801561062657600080fd5b5061062f611b7d565b60405161063c9190613b2a565b60405180910390f35b34801561065157600080fd5b5061065a611b92565b6040516106679190613906565b60405180910390f35b34801561067c57600080fd5b5061069760048036038101906106929190612f55565b611bb8565b6040516106a49190613b2a565b60405180910390f35b6106b5611c3f565b005b606060038054600181600116156101000203166002900480601f01602080910402602001604051908101604052809291908181526020018280546001816001161561010002031660029004801561074f5780601f106107245761010080835404028352916020019161074f565b820191906000526020600020905b81548152906001019060200180831161073257829003601f168201915b5050505050905090565b610bb881565b60008061076a612021565b9050610777818585612029565b600191505092915050565b60006c059c13d3eac3d0188a0af00000600c541015905090565b60006c059c13d3eac3d0188a0af00000600c54106107ef576040517f08c379a00000000000000000000000000000000000000000000000000000000081526004016107e690613a4d565b60405180910390fd5b6c059c13d3eac3d0188a0af00000695e1d5b8642c46ef00000600c5401111561084b576000600c546c059c13d3eac3d0188a0af00000039050610832338261203b565b80600c6000828254019250508190555080915050610887565b61085f33695e1d5b8642c46ef0000061203b565b695e1d5b8642c46ef00000600c60008282540192505081905550695e1d5b8642c46ef0000090505b90565b600080610896856120ee565b905060001515600860008373ffffffffffffffffffffffffffffffffffffffff1673ffffffffffffffffffffffffffffffffffffffff16815260200190815260200160002060030160009054906101000a900460ff1615151415610a8b576001600860008373ffffffffffffffffffffffffffffffffffffffff1673ffffffffffffffffffffffffffffffffffffffff16815260200190815260200160002060030160006101000a81548160ff02191690831515021790555084600860008373ffffffffffffffffffffffffffffffffffffffff1673ffffffffffffffffffffffffffffffffffffffff16815260200190815260200160002060010190805190602001906109a5929190612d1f565b5080600860008373ffffffffffffffffffffffffffffffffffffffff1673ffffffffffffffffffffffffffffffffffffffff16815260200190815260200160002060000160006101000a81548173ffffffffffffffffffffffffffffffffffffffff021916908373ffffffffffffffffffffffffffffffffffffffff160217905550600b819080600181540180825580915050600190039060005260206000200160009091909190916101000a81548173ffffffffffffffffffffffffffffffffffffffff021916908373ffffffffffffffffffffffffffffffffffffffff1602179055505b610a96818585612291565b809150509392505050565b6000600254905090565b6060612710600b805490501115610af7576040517f08c379a0000000000000000000000000000000000000000000000000000000008152600401610aee90613aad565b60405180910390fd5b6000600b8054905067ffffffffffffffff81118015610b1557600080fd5b50604051908082528060200260200182016040528015610b4f57816020015b610b3c612dad565b815260200190600190039081610b345790505b50905060005b600b80549050811015610d245760086000600b8381548110610b7357fe5b9060005260206000200160009054906101000a900473ffffffffffffffffffffffffffffffffffffffff1673ffffffffffffffffffffffffffffffffffffffff1673ffffffffffffffffffffffffffffffffffffffff1681526020019081526020016000206040518060800160405290816000820160009054906101000a900473ffffffffffffffffffffffffffffffffffffffff1673ffffffffffffffffffffffffffffffffffffffff1673ffffffffffffffffffffffffffffffffffffffff168152602001600182018054600181600116156101000203166002900480601f016020809104026020016040519081016040528092919081815260200182805460018160011615610100020316600290048015610cd25780601f10610ca757610100808354040283529160200191610cd2565b820191906000526020600020905b815481529060010190602001808311610cb557829003601f168201915b50505050508152602001600282015481526020016003820160009054906101000a900460ff161515151581525050828281518110610d0c57fe5b60200260200101819052508080600101915050610b55565b508091505090565b600080610d37612021565b9050610d448582856123fa565b610d4f8585856124c4565b60019150509392505050565b60006012905090565b600e60009054906101000a900473ffffffffffffffffffffffffffffffffffffffff1673ffffffffffffffffffffffffffffffffffffffff163373ffffffffffffffffffffffffffffffffffffffff1614610df4576040517f08c379a0000000000000000000000000000000000000000000000000000000008152600401610deb90613acd565b60405180910390fd5b6000600d60009054906101000a900473ffffffffffffffffffffffffffffffffffffffff1673ffffffffffffffffffffffffffffffffffffffff166370a08231306040518263ffffffff1660e01b8152600401610e519190613906565b60206040518083038186803b158015610e6957600080fd5b505afa158015610e7d573d6000803e3d6000fd5b505050506040513d601f19601f82011682018060405250810190610ea19190613170565b9050610ec4604051806080016040528060428152602001613e85604291396125e0565b610f036040518060400160405280600e81526020017f66756e645261697365643a202573000000000000000000000000000000000000815250826126de565b6000811415610f4f57610f4a6040518060400160405280600b81526020017f7a65726f207261697365640000000000000000000000000000000000000000008152506125e0565b610f59565b610f58816127e5565b5b610f7a604051806060016040528060408152602001613e21604091396125e0565b50565b60008060008373ffffffffffffffffffffffffffffffffffffffff1673ffffffffffffffffffffffffffffffffffffffff168152602001908152602001600020549050919050565b60011515600860008573ffffffffffffffffffffffffffffffffffffffff1673ffffffffffffffffffffffffffffffffffffffff16815260200190815260200160002060030160009054906101000a900460ff1615151461105b576040517f08c379a0000000000000000000000000000000000000000000000000000000008152600401611052906139ed565b60405180910390fd5b611066838383612291565b505050565b6060600860008373ffffffffffffffffffffffffffffffffffffffff1673ffffffffffffffffffffffffffffffffffffffff1681526020019081526020016000206001018054600181600116156101000203166002900480601f0160208091040260200160405190810160405280929190818152602001828054600181600116156101000203166002900480156111435780601f1061111857610100808354040283529160200191611143565b820191906000526020600020905b81548152906001019060200180831161112657829003601f168201915b50505050509050919050565b6000600c546c059c13d3eac3d0188a0af0000003905090565b606060048054600181600116156101000203166002900480601f0160208091040260200160405190810160405280929190818152602001828054600181600116156101000203166002900480156112005780601f106111d557610100808354040283529160200191611200565b820191906000526020600020905b8154815290600101906020018083116111e357829003601f168201915b5050505050905090565b60011515600860008573ffffffffffffffffffffffffffffffffffffffff1673ffffffffffffffffffffffffffffffffffffffff16815260200190815260200160002060030160009054906101000a900460ff161515146112a0576040517f08c379a0000000000000000000000000000000000000000000000000000000008152600401611297906139ed565b60405180910390fd5b600184101580156112b2575060038411155b6112f1576040517f08c379a00000000000000000000000000000000000000000000000000000000081526004016112e890613a6d565b60405180910390fd5b6000600185141561134257600560008573ffffffffffffffffffffffffffffffffffffffff1673ffffffffffffffffffffffffffffffffffffffff16815260200190815260200160002090506113de565b600285141561139157600660008573ffffffffffffffffffffffffffffffffffffffff1673ffffffffffffffffffffffffffffffffffffffff16815260200190815260200160002090506113dd565b60038514156113dc57600760008573ffffffffffffffffffffffffffffffffffffffff1673ffffffffffffffffffffffffffffffffffffffff16815260200190815260200160002090505b5b5b60008211156113f3576113f184836116fe565b505b6000816000018460405161140791906138ef565b908152602001604051809103902090508060010160009054906101000a900460ff166114895760018160010160006101000a81548160ff0219169083151502179055508160010184908060018154018082558091505060019003906000526020600020016000909190919091509080519060200190611487929190612d1f565b505b828160000160008282540192505081905550505050505050565b600080600a84846040516114b89291906138d6565b908152602001604051809103902060009054906101000a900473ffffffffffffffffffffffffffffffffffffffff169050600073ffffffffffffffffffffffffffffffffffffffff168173ffffffffffffffffffffffffffffffffffffffff1614156115735761156b84848080601f016020809104026020016040519081016040528093929190818152602001838380828437600081840152601f19601f820116905080830192505050505050506120ee565b915050611578565b809150505b92915050565b6000600c54905090565b611590612dad565b600860008373ffffffffffffffffffffffffffffffffffffffff1673ffffffffffffffffffffffffffffffffffffffff1681526020019081526020016000206040518060800160405290816000820160009054906101000a900473ffffffffffffffffffffffffffffffffffffffff1673ffffffffffffffffffffffffffffffffffffffff1673ffffffffffffffffffffffffffffffffffffffff168152602001600182018054600181600116156101000203166002900480601f0160208091040260200160405190810160405280929190818152602001828054600181600116156101000203166002900480156116c95780601f1061169e576101008083540402835291602001916116c9565b820191906000526020600020905b8154815290600101906020018083116116ac57829003601f168201915b50505050508152602001600282015481526020016003820160009054906101000a900460ff1615151515815250509050919050565b600080611709612021565b90506117168185856124c4565b600191505092915050565b60606000600184141561177457600560008473ffffffffffffffffffffffffffffffffffffffff1673ffffffffffffffffffffffffffffffffffffffff168152602001908152602001600020905061184f565b60028414156117c357600660008473ffffffffffffffffffffffffffffffffffffffff1673ffffffffffffffffffffffffffffffffffffffff168152602001908152602001600020905061184e565b600384141561181257600760008473ffffffffffffffffffffffffffffffffffffffff1673ffffffffffffffffffffffffffffffffffffffff168152602001908152602001600020905061184d565b6040517f08c379a000000000000000000000000000000000000000000000000000000000815260040161184490613a6d565b60405180910390fd5b5b5b6000816001018054905067ffffffffffffffff8111801561186f57600080fd5b506040519080825280602002602001820160405280156118a957816020015b611896612ded565b81526020019060019003908161188e5790505b50905060005b82600101805490508110156119d15760008360010182815481106118cf57fe5b906000526020600020018054600181600116156101000203166002900480601f01602080910402602001604051908101604052809291908181526020018280546001816001161561010002031660029004801561196d5780601f106119425761010080835404028352916020019161196d565b820191906000526020600020905b81548152906001019060200180831161195057829003601f168201915b505050505090506040518060400160405280828152602001856000018360405161199791906138ef565b9081526020016040518091039020600001548152508383815181106119b857fe5b60200260200101819052505080806001019150506118af565b50809250505092915050565b6060600960008373ffffffffffffffffffffffffffffffffffffffff1673ffffffffffffffffffffffffffffffffffffffff168152602001908152602001600020805480602002602001604051908101604052809291908181526020016000905b82821015611b7257838290600052602060002090600302016040518060600160405290816000820160009054906101000a900473ffffffffffffffffffffffffffffffffffffffff1673ffffffffffffffffffffffffffffffffffffffff1673ffffffffffffffffffffffffffffffffffffffff16815260200160018201548152602001600282018054600181600116156101000203166002900480601f016020809104026020016040519081016040528092919081815260200182805460018160011615610100020316600290048015611b5a5780601f10611b2f57610100808354040283529160200191611b5a565b820191906000526020600020905b815481529060010190602001808311611b3d57829003601f168201915b50505050508152505081526020019060010190611a3e565b505050509050919050565b60006c059c13d3eac3d0188a0af00000905090565b600e60009054906101000a900473ffffffffffffffffffffffffffffffffffffffff1681565b6000600160008473ffffffffffffffffffffffffffffffffffffffff1673ffffffffffffffffffffffffffffffffffffffff16815260200190815260200160002060008373ffffffffffffffffffffffffffffffffffffffff1673ffffffffffffffffffffffffffffffffffffffff16815260200190815260200160002054905092915050565b6000349050611c826040518060400160405280600b81526020017f455448416d6f756e743a200000000000000000000000000000000000000000008152506125e0565b611c8b816127e8565b60008111611cce576040517f08c379a0000000000000000000000000000000000000000000000000000000008152600401611cc590613a2d565b60405180910390fd5b600063065b9aaa8202905080611ce261114f565b1015611d23576040517f08c379a0000000000000000000000000000000000000000000000000000000008152600401611d1a90613a0d565b60405180910390fd5b6000600d60009054906101000a900473ffffffffffffffffffffffffffffffffffffffff1673ffffffffffffffffffffffffffffffffffffffff166370a08231306040518263ffffffff1660e01b8152600401611d809190613906565b60206040518083038186803b158015611d9857600080fd5b505afa158015611dac573d6000803e3d6000fd5b505050506040513d601f19601f82011682018060405250810190611dd09190613170565b905060008314611f0e57600d60009054906101000a900473ffffffffffffffffffffffffffffffffffffffff1673ffffffffffffffffffffffffffffffffffffffff1663d0e30db0846040518263ffffffff1660e01b81526004016000604051808303818588803b158015611e4457600080fd5b505af1158015611e58573d6000803e3d6000fd5b5050505050600d60009054906101000a900473ffffffffffffffffffffffffffffffffffffffff1673ffffffffffffffffffffffffffffffffffffffff1663a9059cbb30856040518363ffffffff1660e01b8152600401611eba929190613921565b602060405180830381600087803b158015611ed457600080fd5b505af1158015611ee8573d6000803e3d6000fd5b505050506040513d601f19601f82011682018060405250810190611f0c9190613083565b505b6000600d60009054906101000a900473ffffffffffffffffffffffffffffffffffffffff1673ffffffffffffffffffffffffffffffffffffffff166370a08231306040518263ffffffff1660e01b8152600401611f6b9190613906565b60206040518083038186803b158015611f8357600080fd5b505afa158015611f97573d6000803e3d6000fd5b505050506040513d601f19601f82011682018060405250810190611fbb9190613170565b90508382820314612001576040517f08c379a0000000000000000000000000000000000000000000000000000000008152600401611ff890613a8d565b60405180910390fd5b61200b338461203b565b82600c6000828254019250508190555050505050565b600033905090565b6120368383836001612881565b505050565b600073ffffffffffffffffffffffffffffffffffffffff168273ffffffffffffffffffffffffffffffffffffffff1614156120de576040517f08c379a000000000000000000000000000000000000000000000000000000000815260040180806020018281038252601f8152602001807f45524332303a206d696e7420746f20746865207a65726f20616464726573730081525060200191505060405180910390fd5b6120ea60008383612a80565b5050565b6000808260405160200161210291906138ef565b60405160208183030381529060405280519060200120905060008160405160200161212d91906138bb565b60405160208183030381529060405290506000601467ffffffffffffffff8111801561215857600080fd5b506040519080825280601f01601f19166020018201604052801561218b5781602001600182028036833780820191505090505b5090506000805b600481101561220a577f44000000000000000000000000000000000000000000000000000000000000008383806001019450815181106121ce57fe5b60200101907effffffffffffffffffffffffffffffffffffffffffffffffffffffffffffff1916908160001a9053508080600101915050612192565b5060005b601482101561227c5783818151811061222357fe5b602001015160f81c60f81b83838060010194508151811061224057fe5b60200101907effffffffffffffffffffffffffffffffffffffffffffffffffffffffffffff1916908160001a905350808060010191505061220e565b5061228682612ccb565b945050505050919050565b61229b83836116fe565b5081600860008573ffffffffffffffffffffffffffffffffffffffff1673ffffffffffffffffffffffffffffffffffffffff16815260200190815260200160002060020160008282540192505081905550600960008473ffffffffffffffffffffffffffffffffffffffff1673ffffffffffffffffffffffffffffffffffffffff16815260200190815260200160002060405180606001604052803373ffffffffffffffffffffffffffffffffffffffff16815260200184815260200183815250908060018154018082558091505060019003906000526020600020906003020160009091909190915060008201518160000160006101000a81548173ffffffffffffffffffffffffffffffffffffffff021916908373ffffffffffffffffffffffffffffffffffffffff1602179055506020820151816001015560408201518160020190805190602001906123f2929190612d1f565b505050505050565b60006124068484611bb8565b90507fffffffffffffffffffffffffffffffffffffffffffffffffffffffffffffffff81146124be57818110156124ae57818110156124ad576040517f08c379a000000000000000000000000000000000000000000000000000000000815260040180806020018281038252601a8152602001807f4552433230496e73756666696369656e74416c6c6f77616e636500000000000081525060200191505060405180910390fd5b5b6124bd84848484036000612881565b5b50505050565b600073ffffffffffffffffffffffffffffffffffffffff168373ffffffffffffffffffffffffffffffffffffffff16141561254a576040517f08c379a0000000000000000000000000000000000000000000000000000000008152600401808060200182810382526025815260200180613dfc6025913960400191505060405180910390fd5b600073ffffffffffffffffffffffffffffffffffffffff168273ffffffffffffffffffffffffffffffffffffffff1614156125d0576040517f08c379a0000000000000000000000000000000000000000000000000000000008152600401808060200182810382526023815260200180613db76023913960400191505060405180910390fd5b6125db838383612a80565b505050565b6126db816040516024018080602001828103825283818151815260200191508051906020019080838360005b8381101561262757808201518184015260208101905061260c565b50505050905090810190601f1680156126545780820380516001836020036101000a031916815260200191505b50925050506040516020818303038152906040527f41304fac000000000000000000000000000000000000000000000000000000007bffffffffffffffffffffffffffffffffffffffffffffffffffffffff19166020820180517bffffffffffffffffffffffffffffffffffffffffffffffffffffffff8381831617835250505050612cd9565b50565b6127e182826040516024018080602001838152602001828103825284818151815260200191508051906020019080838360005b8381101561272c578082015181840152602081019050612711565b50505050905090810190601f1680156127595780820380516001836020036101000a031916815260200191505b5093505050506040516020818303038152906040527fb60e72cc000000000000000000000000000000000000000000000000000000007bffffffffffffffffffffffffffffffffffffffffffffffffffffffff19166020820180517bffffffffffffffffffffffffffffffffffffffffffffffffffffffff8381831617835250505050612cd9565b5050565b50565b61287e81604051602401808281526020019150506040516020818303038152906040527ff82c50f1000000000000000000000000000000000000000000000000000000007bffffffffffffffffffffffffffffffffffffffffffffffffffffffff19166020820180517bffffffffffffffffffffffffffffffffffffffffffffffffffffffff8381831617835250505050612cd9565b50565b600073ffffffffffffffffffffffffffffffffffffffff168473ffffffffffffffffffffffffffffffffffffffff161415612907576040517f08c379a0000000000000000000000000000000000000000000000000000000008152600401808060200182810382526024815260200180613e616024913960400191505060405180910390fd5b600073ffffffffffffffffffffffffffffffffffffffff168373ffffffffffffffffffffffffffffffffffffffff16141561298d576040517f08c379a0000000000000000000000000000000000000000000000000000000008152600401808060200182810382526022815260200180613dda6022913960400191505060405180910390fd5b81600160008673ffffffffffffffffffffffffffffffffffffffff1673ffffffffffffffffffffffffffffffffffffffff16815260200190815260200160002060008573ffffffffffffffffffffffffffffffffffffffff1673ffffffffffffffffffffffffffffffffffffffff168152602001908152602001600020819055508015612a7a578273ffffffffffffffffffffffffffffffffffffffff168473ffffffffffffffffffffffffffffffffffffffff167f8c5be1e5ebec7d5bd14f71427d1e84f3dd0314c0f7b2291e5b200ac8c7c3b925846040518082815260200191505060405180910390a35b50505050565b600073ffffffffffffffffffffffffffffffffffffffff168373ffffffffffffffffffffffffffffffffffffffff161415612aca5780600260008282540192505081905550612bca565b60008060008573ffffffffffffffffffffffffffffffffffffffff1673ffffffffffffffffffffffffffffffffffffffff16815260200190815260200160002054905081811015612b83576040517f08c379a00000000000000000000000000000000000000000000000000000000081526004018080602001828103825260148152602001807f696e73756666696369656e742062616c616e636500000000000000000000000081525060200191505060405180910390fd5b8181036000808673ffffffffffffffffffffffffffffffffffffffff1673ffffffffffffffffffffffffffffffffffffffff16815260200190815260200160002081905550505b600073ffffffffffffffffffffffffffffffffffffffff168273ffffffffffffffffffffffffffffffffffffffff161415612c145780600260008282540392505081905550612c61565b806000808473ffffffffffffffffffffffffffffffffffffffff1673ffffffffffffffffffffffffffffffffffffffff168152602001908152602001600020600082825401925050819055505b8173ffffffffffffffffffffffffffffffffffffffff168373ffffffffffffffffffffffffffffffffffffffff167fddf252ad1be2c89b69c2b068fc378daa952ba7f163c4a11628f55a4df523b3ef836040518082815260200191505060405180910390a3505050565b600060148201519050919050565b612cf081612ce8612cf3612d14565b63ffffffff16565b50565b60006a636f6e736f6c652e6c6f679050600080835160208501845afa505050565b612e07819050919050565b828054600181600116156101000203166002900490600052602060002090601f016020900481019282612d555760008555612d9c565b82601f10612d6e57805160ff1916838001178555612d9c565b82800160010185558215612d9c579182015b82811115612d9b578251825591602001919060010190612d80565b5b509050612da99190612e09565b5090565b6040518060800160405280600073ffffffffffffffffffffffffffffffffffffffff16815260200160608152602001600081526020016000151581525090565b604051806040016040528060608152602001600081525090565bfe5b5b80821115612e22576000816000905550600101612e0a565b5090565b6000612e39612e3484613b91565b613b60565b905082815260208101848484011115612e5157600080fd5b612e5c848285613d12565b509392505050565b600081359050612e7381613d71565b92915050565b600081519050612e8881613d88565b92915050565b60008083601f840112612ea057600080fd5b8235905067ffffffffffffffff811115612eb957600080fd5b602083019150836001820283011115612ed157600080fd5b9250929050565b600082601f830112612ee957600080fd5b8135612ef9848260208601612e26565b91505092915050565b600081359050612f1181613d9f565b92915050565b600081519050612f2681613d9f565b92915050565b600060208284031215612f3e57600080fd5b6000612f4c84828501612e64565b91505092915050565b60008060408385031215612f6857600080fd5b6000612f7685828601612e64565b9250506020612f8785828601612e64565b9150509250929050565b600080600060608486031215612fa657600080fd5b6000612fb486828701612e64565b9350506020612fc586828701612e64565b9250506040612fd686828701612f02565b9150509250925092565b60008060408385031215612ff357600080fd5b600061300185828601612e64565b925050602061301285828601612f02565b9150509250929050565b60008060006060848603121561303157600080fd5b600061303f86828701612e64565b935050602061305086828701612f02565b925050604084013567ffffffffffffffff81111561306d57600080fd5b61307986828701612ed8565b9150509250925092565b60006020828403121561309557600080fd5b60006130a384828501612e79565b91505092915050565b600080602083850312156130bf57600080fd5b600083013567ffffffffffffffff8111156130d957600080fd5b6130e585828601612e8e565b92509250509250929050565b60008060006060848603121561310657600080fd5b600084013567ffffffffffffffff81111561312057600080fd5b61312c86828701612ed8565b935050602061313d86828701612f02565b925050604084013567ffffffffffffffff81111561315a57600080fd5b61316686828701612ed8565b9150509250925092565b60006020828403121561318257600080fd5b600061319084828501612f17565b91505092915050565b600080604083850312156131ac57600080fd5b60006131ba85828601612f02565b92505060206131cb85828601612e64565b9150509250929050565b600080600080608085870312156131eb57600080fd5b60006131f987828801612f02565b945050602061320a87828801612e64565b935050604085013567ffffffffffffffff81111561322757600080fd5b61323387828801612ed8565b925050606061324487828801612f02565b91505092959194509250565b600061325c838361372c565b905092915050565b6000613270838361377c565b905092915050565b60006132848383613842565b905092915050565b61329581613ca4565b82525050565b6132a481613ca4565b82525050565b60006132b582613bf1565b6132bf8185613c44565b9350836020820285016132d185613bc1565b8060005b8581101561330d57848403895281516132ee8582613250565b94506132f983613c1d565b925060208a019950506001810190506132d5565b50829750879550505050505092915050565b600061332a82613bfc565b6133348185613c55565b93508360208202850161334685613bd1565b8060005b8581101561338257848403895281516133638582613264565b945061336e83613c2a565b925060208a0199505060018101905061334a565b50829750879550505050505092915050565b600061339f82613c07565b6133a98185613c66565b9350836020820285016133bb85613be1565b8060005b858110156133f757848403895281516133d88582613278565b94506133e383613c37565b925060208a019950506001810190506133bf565b50829750879550505050505092915050565b61341281613cb6565b82525050565b61342181613cb6565b82525050565b61343861343382613cc2565b613d54565b82525050565b600061344a8385613c99565b9350613457838584613d12565b82840190509392505050565b600061346e82613c12565b6134788185613c77565b9350613488818560208601613d21565b61349181613d60565b840191505092915050565b60006134a782613c12565b6134b18185613c88565b93506134c1818560208601613d21565b6134ca81613d60565b840191505092915050565b60006134e082613c12565b6134ea8185613c99565b93506134fa818560208601613d21565b80840191505092915050565b6000613513601283613c88565b91507f41646472657373206e6f742065786973747300000000000000000000000000006000830152602082019050919050565b6000613553601783613c88565b91507f4e6f7420656e6f756768204d494e4720746f206d696e740000000000000000006000830152602082019050919050565b6000613593601083613c88565b91507f66756e64206d757374203e207a65726f000000000000000000000000000000006000830152602082019050919050565b60006135d3600d83613c88565b91507f4d696e742066696e6973686564000000000000000000000000000000000000006000830152602082019050919050565b6000613613600c83613c88565b91507f496e76616c6964207479706500000000000000000000000000000000000000006000830152602082019050919050565b6000613653601683613c88565b91507f457468657265756d206e6f74206465706f7369746564000000000000000000006000830152602082019050919050565b6000613693603b83613c88565b91507f41766f69642063616c6c696e6720746869732066756e6374696f6e206173207460008301527f6865206164647265737365732067726f7720746f6f206c6172676500000000006020830152604082019050919050565b60006136f9600983613c88565b91507f6e6f74206f776e657200000000000000000000000000000000000000000000006000830152602082019050919050565b6000606083016000830151613744600086018261328c565b506020830151613757602086018261388e565b506040830151848203604086015261376f8282613463565b9150508091505092915050565b6000608083016000830151613794600086018261328c565b50602083015184820360208601526137ac8282613463565b91505060408301516137c1604086018261388e565b5060608301516137d46060860182613409565b508091505092915050565b60006080830160008301516137f7600086018261328c565b506020830151848203602086015261380f8282613463565b9150506040830151613824604086018261388e565b5060608301516138376060860182613409565b508091505092915050565b6000604083016000830151848203600086015261385f8282613463565b9150506020830151613874602086018261388e565b508091505092915050565b61388881613cec565b82525050565b61389781613cfb565b82525050565b6138a681613cfb565b82525050565b6138b581613d05565b82525050565b60006138c78284613427565b60208201915081905092915050565b60006138e382848661343e565b91508190509392505050565b60006138fb82846134d5565b915081905092915050565b600060208201905061391b600083018461329b565b92915050565b6000604082019050613936600083018561329b565b613943602083018461389d565b9392505050565b6000602082019050818103600083015261396481846132aa565b905092915050565b60006020820190508181036000830152613986818461331f565b905092915050565b600060208201905081810360008301526139a88184613394565b905092915050565b60006020820190506139c56000830184613418565b92915050565b600060208201905081810360008301526139e5818461349c565b905092915050565b60006020820190508181036000830152613a0681613506565b9050919050565b60006020820190508181036000830152613a2681613546565b9050919050565b60006020820190508181036000830152613a4681613586565b9050919050565b60006020820190508181036000830152613a66816135c6565b9050919050565b60006020820190508181036000830152613a8681613606565b9050919050565b60006020820190508181036000830152613aa681613646565b9050919050565b60006020820190508181036000830152613ac681613686565b9050919050565b60006020820190508181036000830152613ae6816136ec565b9050919050565b60006020820190508181036000830152613b0781846137df565b905092915050565b6000602082019050613b24600083018461387f565b92915050565b6000602082019050613b3f600083018461389d565b92915050565b6000602082019050613b5a60008301846138ac565b92915050565b6000604051905081810181811067ffffffffffffffff82111715613b8757613b86613d5e565b5b8060405250919050565b600067ffffffffffffffff821115613bac57613bab613d5e565b5b601f19601f8301169050602081019050919050565b6000819050602082019050919050565b6000819050602082019050919050565b6000819050602082019050919050565b600081519050919050565b600081519050919050565b600081519050919050565b600081519050919050565b6000602082019050919050565b6000602082019050919050565b6000602082019050919050565b600082825260208201905092915050565b600082825260208201905092915050565b600082825260208201905092915050565b600082825260208201905092915050565b600082825260208201905092915050565b600081905092915050565b6000613caf82613ccc565b9050919050565b60008115159050919050565b6000819050919050565b600073ffffffffffffffffffffffffffffffffffffffff82169050919050565b600062ffffff82169050919050565b6000819050919050565b600060ff82169050919050565b82818337600083830152505050565b60005b83811015613d3f578082015181840152602081019050613d24565b83811115613d4e576000848401525b50505050565b6000819050919050565bfe5b6000601f19601f8301169050919050565b613d7a81613ca4565b8114613d8557600080fd5b50565b613d9181613cb6565b8114613d9c57600080fd5b50565b613da881613cfb565b8114613db357600080fd5b5056fe45524332303a207472616e7366657220746f20746865207a65726f206164647265737345524332303a20617070726f766520746f20746865207a65726f206164647265737345524332303a207472616e736665722066726f6d20746865207a65726f20616464726573732d2d2d2d2d2d2d2d2d2d2d2d20656e64206f6620636f6e7472616374206d6574686f64206f6e46756e64696e674f7665722829202d2d2d2d2d2d2d2d2d2d2d2d45524332303a20617070726f76652066726f6d20746865207a65726f20616464726573732d2d2d2d2d2d2d2d2d2d2d2d20626567696e206f6620636f6e7472616374206d6574686f64206f6e46756e64696e674f7665722829202d2d2d2d2d2d2d2d2d2d2d2da2646970667358221220258a228dad596f8aefa97ca1d8bee7ffa6a5efc4da83ed0a9235fb75074bf50b64736f6c63430007060033",
  "devdoc": {
    "kind": "dev",
    "methods": {
      "allowance(address,address)": {
        "details": "See {IERC20-allowance}."
      },
      "approve(address,uint256)": {
        "details": "See {IERC20-approve}. NOTE: If `value` is the maximum `uint256`, the allowance is not updated on `transferFrom`. This is semantically equivalent to an infinite approval. Requirements: - `spender` cannot be the zero address."
      },
      "balanceOf(address)": {
        "details": "See {IERC20-balanceOf}."
      },
      "decimals()": {
        "details": "Returns the number of decimals used to get its user representation. For example, if `decimals` equals `2`, a balance of `505` tokens should be displayed to a user as `5.05` (`505 / 10 ** 2`). Tokens usually opt for a value of 18, imitating the relationship between Ether and Wei. This is the default value returned by this function, unless it's overridden. NOTE: This information is only used for _display_ purposes: it in no way affects any of the arithmetic of the contract, including {IERC20-balanceOf} and {IERC20-transfer}."
      },
      "name()": {
        "details": "Returns the name of the token."
      },
      "symbol()": {
        "details": "Returns the symbol of the token, usually a shorter version of the name."
      },
      "totalSupply()": {
        "details": "See {IERC20-totalSupply}."
      },
      "transfer(address,uint256)": {
        "details": "See {IERC20-transfer}. Requirements: - `to` cannot be the zero address. - the caller must have a balance of at least `value`."
      },
      "transferFrom(address,address,uint256)": {
        "details": "See {IERC20-transferFrom}. Emits an {Approval} event indicating the updated allowance. This is not required by the EIP. See the note at the beginning of {ERC20}. NOTE: Does not update the allowance if the current allowance is the maximum `uint256`. Requirements: - `from` and `to` cannot be the zero address. - `from` must have a balance of at least `value`. - the caller must have allowance for ``from``'s tokens of at least `value`."
      }
    },
    "version": 1
  },
  "userdoc": {
    "kind": "user",
    "methods": {},
    "version": 1
  },
  "storageLayout": {
    "storage": [
      {
        "astId": 2182,
        "contract": "contracts/MingCoin.sol:MingCoin",
        "label": "_balances",
        "offset": 0,
        "slot": "0",
        "type": "t_mapping(t_address,t_uint256)"
      },
      {
        "astId": 2188,
        "contract": "contracts/MingCoin.sol:MingCoin",
        "label": "_allowances",
        "offset": 0,
        "slot": "1",
        "type": "t_mapping(t_address,t_mapping(t_address,t_uint256))"
      },
      {
        "astId": 2190,
        "contract": "contracts/MingCoin.sol:MingCoin",
        "label": "_totalSupply",
        "offset": 0,
        "slot": "2",
        "type": "t_uint256"
      },
      {
        "astId": 2192,
        "contract": "contracts/MingCoin.sol:MingCoin",
        "label": "_name",
        "offset": 0,
        "slot": "3",
        "type": "t_string_storage"
      },
      {
        "astId": 2194,
        "contract": "contracts/MingCoin.sol:MingCoin",
        "label": "_symbol",
        "offset": 0,
        "slot": "4",
        "type": "t_string_storage"
      },
      {
        "astId": 4121,
        "contract": "contracts/MingCoin.sol:MingCoin",
        "label": "bannerMap",
        "offset": 0,
        "slot": "5",
        "type": "t_mapping(t_address,t_struct(Profile)4101_storage)"
      },
      {
        "astId": 4125,
        "contract": "contracts/MingCoin.sol:MingCoin",
        "label": "portraitMap",
        "offset": 0,
        "slot": "6",
        "type": "t_mapping(t_address,t_struct(Profile)4101_storage)"
      },
      {
        "astId": 4129,
        "contract": "contracts/MingCoin.sol:MingCoin",
        "label": "bioMap",
        "offset": 0,
        "slot": "7",
        "type": "t_mapping(t_address,t_struct(Profile)4101_storage)"
      },
      {
        "astId": 4133,
        "contract": "contracts/MingCoin.sol:MingCoin",
        "label": "addressMap",
        "offset": 0,
        "slot": "8",
        "type": "t_mapping(t_address,t_struct(Burning)4117_storage)"
      },
      {
        "astId": 4138,
        "contract": "contracts/MingCoin.sol:MingCoin",
        "label": "burningMap",
        "offset": 0,
        "slot": "9",
        "type": "t_mapping(t_address,t_array(t_struct(BurningInfo)4108_storage)dyn_storage)"
      },
      {
        "astId": 4142,
        "contract": "contracts/MingCoin.sol:MingCoin",
        "label": "name2Address",
        "offset": 0,
        "slot": "10",
        "type": "t_mapping(t_string_memory_ptr,t_address)"
      },
      {
        "astId": 4145,
        "contract": "contracts/MingCoin.sol:MingCoin",
        "label": "addresses",
        "offset": 0,
        "slot": "11",
        "type": "t_array(t_address)dyn_storage"
      },
      {
        "astId": 4165,
        "contract": "contracts/MingCoin.sol:MingCoin",
        "label": "total",
        "offset": 0,
        "slot": "12",
        "type": "t_uint256"
      },
      {
        "astId": 4167,
        "contract": "contracts/MingCoin.sol:MingCoin",
        "label": "weth",
        "offset": 0,
        "slot": "13",
        "type": "t_contract(IWETH)4079"
      },
      {
        "astId": 4169,
        "contract": "contracts/MingCoin.sol:MingCoin",
        "label": "i_owner",
        "offset": 0,
        "slot": "14",
        "type": "t_address"
      },
      {
        "astId": 4178,
        "contract": "contracts/MingCoin.sol:MingCoin",
        "label": "nonfungiblePositionManager",
        "offset": 0,
        "slot": "15",
        "type": "t_contract(INonfungiblePositionManager)1731"
      },
      {
        "astId": 4184,
        "contract": "contracts/MingCoin.sol:MingCoin",
        "label": "v3Factory",
        "offset": 0,
        "slot": "16",
        "type": "t_contract(IUniswapV3Factory)387"
      },
      {
        "astId": 4186,
        "contract": "contracts/MingCoin.sol:MingCoin",
        "label": "pool",
        "offset": 0,
        "slot": "17",
        "type": "t_contract(IUniswapV3Pool)409"
      },
      {
        "astId": 4191,
        "contract": "contracts/MingCoin.sol:MingCoin",
        "label": "tickSpacing",
        "offset": 20,
        "slot": "17",
        "type": "t_int24"
      }
    ],
    "types": {
      "t_address": {
        "encoding": "inplace",
        "label": "address",
        "numberOfBytes": "20"
      },
      "t_array(t_address)dyn_storage": {
        "base": "t_address",
        "encoding": "dynamic_array",
        "label": "address[]",
        "numberOfBytes": "32"
      },
      "t_array(t_string_storage)dyn_storage": {
        "base": "t_string_storage",
        "encoding": "dynamic_array",
        "label": "string[]",
        "numberOfBytes": "32"
      },
      "t_array(t_struct(BurningInfo)4108_storage)dyn_storage": {
        "base": "t_struct(BurningInfo)4108_storage",
        "encoding": "dynamic_array",
        "label": "struct MingCoin.BurningInfo[]",
        "numberOfBytes": "32"
      },
      "t_bool": {
        "encoding": "inplace",
        "label": "bool",
        "numberOfBytes": "1"
      },
      "t_contract(INonfungiblePositionManager)1731": {
        "encoding": "inplace",
        "label": "contract INonfungiblePositionManager",
        "numberOfBytes": "20"
      },
      "t_contract(IUniswapV3Factory)387": {
        "encoding": "inplace",
        "label": "contract IUniswapV3Factory",
        "numberOfBytes": "20"
      },
      "t_contract(IUniswapV3Pool)409": {
        "encoding": "inplace",
        "label": "contract IUniswapV3Pool",
        "numberOfBytes": "20"
      },
      "t_contract(IWETH)4079": {
        "encoding": "inplace",
        "label": "contract IWETH",
        "numberOfBytes": "20"
      },
      "t_int24": {
        "encoding": "inplace",
        "label": "int24",
        "numberOfBytes": "3"
      },
      "t_mapping(t_address,t_array(t_struct(BurningInfo)4108_storage)dyn_storage)": {
        "encoding": "mapping",
        "key": "t_address",
        "label": "mapping(address => struct MingCoin.BurningInfo[])",
        "numberOfBytes": "32",
        "value": "t_array(t_struct(BurningInfo)4108_storage)dyn_storage"
      },
      "t_mapping(t_address,t_mapping(t_address,t_uint256))": {
        "encoding": "mapping",
        "key": "t_address",
        "label": "mapping(address => mapping(address => uint256))",
        "numberOfBytes": "32",
        "value": "t_mapping(t_address,t_uint256)"
      },
      "t_mapping(t_address,t_struct(Burning)4117_storage)": {
        "encoding": "mapping",
        "key": "t_address",
        "label": "mapping(address => struct MingCoin.Burning)",
        "numberOfBytes": "32",
        "value": "t_struct(Burning)4117_storage"
      },
      "t_mapping(t_address,t_struct(Profile)4101_storage)": {
        "encoding": "mapping",
        "key": "t_address",
        "label": "mapping(address => struct MingCoin.Profile)",
        "numberOfBytes": "32",
        "value": "t_struct(Profile)4101_storage"
      },
      "t_mapping(t_address,t_uint256)": {
        "encoding": "mapping",
        "key": "t_address",
        "label": "mapping(address => uint256)",
        "numberOfBytes": "32",
        "value": "t_uint256"
      },
      "t_mapping(t_string_memory_ptr,t_address)": {
        "encoding": "mapping",
        "key": "t_string_memory_ptr",
        "label": "mapping(string => address)",
        "numberOfBytes": "32",
        "value": "t_address"
      },
      "t_mapping(t_string_memory_ptr,t_struct(KeyValue)4091_storage)": {
        "encoding": "mapping",
        "key": "t_string_memory_ptr",
        "label": "mapping(string => struct MingCoin.KeyValue)",
        "numberOfBytes": "32",
        "value": "t_struct(KeyValue)4091_storage"
      },
      "t_string_memory_ptr": {
        "encoding": "bytes",
        "label": "string",
        "numberOfBytes": "32"
      },
      "t_string_storage": {
        "encoding": "bytes",
        "label": "string",
        "numberOfBytes": "32"
      },
      "t_struct(Burning)4117_storage": {
        "encoding": "inplace",
        "label": "struct MingCoin.Burning",
        "members": [
          {
            "astId": 4110,
            "contract": "contracts/MingCoin.sol:MingCoin",
            "label": "addr",
            "offset": 0,
            "slot": "0",
            "type": "t_address"
          },
          {
            "astId": 4112,
            "contract": "contracts/MingCoin.sol:MingCoin",
            "label": "name",
            "offset": 0,
            "slot": "1",
            "type": "t_string_storage"
          },
          {
            "astId": 4114,
            "contract": "contracts/MingCoin.sol:MingCoin",
            "label": "amount",
            "offset": 0,
            "slot": "2",
            "type": "t_uint256"
          },
          {
            "astId": 4116,
            "contract": "contracts/MingCoin.sol:MingCoin",
            "label": "exists",
            "offset": 0,
            "slot": "3",
            "type": "t_bool"
          }
        ],
        "numberOfBytes": "128"
      },
      "t_struct(BurningInfo)4108_storage": {
        "encoding": "inplace",
        "label": "struct MingCoin.BurningInfo",
        "members": [
          {
            "astId": 4103,
            "contract": "contracts/MingCoin.sol:MingCoin",
            "label": "from",
            "offset": 0,
            "slot": "0",
            "type": "t_address"
          },
          {
            "astId": 4105,
            "contract": "contracts/MingCoin.sol:MingCoin",
            "label": "amount",
            "offset": 0,
            "slot": "1",
            "type": "t_uint256"
          },
          {
            "astId": 4107,
            "contract": "contracts/MingCoin.sol:MingCoin",
            "label": "message",
            "offset": 0,
            "slot": "2",
            "type": "t_string_storage"
          }
        ],
        "numberOfBytes": "96"
      },
      "t_struct(KeyValue)4091_storage": {
        "encoding": "inplace",
        "label": "struct MingCoin.KeyValue",
        "members": [
          {
            "astId": 4088,
            "contract": "contracts/MingCoin.sol:MingCoin",
            "label": "value",
            "offset": 0,
            "slot": "0",
            "type": "t_uint256"
          },
          {
            "astId": 4090,
            "contract": "contracts/MingCoin.sol:MingCoin",
            "label": "exists",
            "offset": 0,
            "slot": "1",
            "type": "t_bool"
          }
        ],
        "numberOfBytes": "64"
      },
      "t_struct(Profile)4101_storage": {
        "encoding": "inplace",
        "label": "struct MingCoin.Profile",
        "members": [
          {
            "astId": 4095,
            "contract": "contracts/MingCoin.sol:MingCoin",
            "label": "valueMap",
            "offset": 0,
            "slot": "0",
            "type": "t_mapping(t_string_memory_ptr,t_struct(KeyValue)4091_storage)"
          },
          {
            "astId": 4098,
            "contract": "contracts/MingCoin.sol:MingCoin",
            "label": "keys",
            "offset": 0,
            "slot": "1",
            "type": "t_array(t_string_storage)dyn_storage"
          },
          {
            "astId": 4100,
            "contract": "contracts/MingCoin.sol:MingCoin",
            "label": "exists",
            "offset": 0,
            "slot": "2",
            "type": "t_bool"
          }
        ],
        "numberOfBytes": "96"
      },
      "t_uint256": {
        "encoding": "inplace",
        "label": "uint256",
        "numberOfBytes": "32"
      }
    }
  }
}