{
  "address": "0x87Ad1fdef700005B35A0D8b4885CFd8F7F8c548E",
  "abi": [
    {
      "inputs": [],
      "stateMutability": "nonpayable",
      "type": "constructor"
    },
    {
      "anonymous": false,
      "inputs": [
        {
          "indexed": true,
          "internalType": "address",
          "name": "owner",
          "type": "address"
        },
        {
          "indexed": true,
          "internalType": "address",
          "name": "spender",
          "type": "address"
        },
        {
          "indexed": false,
          "internalType": "uint256",
          "name": "value",
          "type": "uint256"
        }
      ],
      "name": "Approval",
      "type": "event"
    },
    {
      "anonymous": false,
      "inputs": [
        {
          "indexed": true,
          "internalType": "address",
          "name": "from",
          "type": "address"
        },
        {
          "indexed": true,
          "internalType": "address",
          "name": "to",
          "type": "address"
        },
        {
          "indexed": false,
          "internalType": "uint256",
          "name": "value",
          "type": "uint256"
        }
      ],
      "name": "Transfer",
      "type": "event"
    },
    {
      "anonymous": false,
      "inputs": [
        {
          "indexed": false,
          "internalType": "address",
          "name": "from",
          "type": "address"
        },
        {
          "indexed": false,
          "internalType": "uint256",
          "name": "value",
          "type": "uint256"
        },
        {
          "indexed": false,
          "internalType": "string",
          "name": "message",
          "type": "string"
        }
      ],
      "name": "burnMing",
      "type": "event"
    },
    {
      "anonymous": false,
      "inputs": [
        {
          "indexed": false,
          "internalType": "address",
          "name": "from",
          "type": "address"
        },
        {
          "indexed": false,
          "internalType": "uint256",
          "name": "_type",
          "type": "uint256"
        },
        {
          "indexed": false,
          "internalType": "string",
          "name": "value",
          "type": "string"
        },
        {
          "indexed": false,
          "internalType": "uint256",
          "name": "amount",
          "type": "uint256"
        }
      ],
      "name": "updateProfileEvent",
      "type": "event"
    },
    {
      "inputs": [
        {
          "internalType": "address",
          "name": "",
          "type": "address"
        }
      ],
      "name": "addressMap",
      "outputs": [
        {
          "internalType": "address",
          "name": "addr",
          "type": "address"
        },
        {
          "internalType": "string",
          "name": "name",
          "type": "string"
        },
        {
          "internalType": "uint256",
          "name": "amount",
          "type": "uint256"
        },
        {
          "internalType": "bool",
          "name": "exists",
          "type": "bool"
        }
      ],
      "stateMutability": "view",
      "type": "function"
    },
    {
      "inputs": [
        {
          "internalType": "uint256",
          "name": "",
          "type": "uint256"
        }
      ],
      "name": "addresses",
      "outputs": [
        {
          "internalType": "address",
          "name": "",
          "type": "address"
        }
      ],
      "stateMutability": "view",
      "type": "function"
    },
    {
      "inputs": [
        {
          "internalType": "address",
          "name": "owner",
          "type": "address"
        },
        {
          "internalType": "address",
          "name": "spender",
          "type": "address"
        }
      ],
      "name": "allowance",
      "outputs": [
        {
          "internalType": "uint256",
          "name": "",
          "type": "uint256"
        }
      ],
      "stateMutability": "view",
      "type": "function"
    },
    {
      "inputs": [
        {
          "internalType": "address",
          "name": "spender",
          "type": "address"
        },
        {
          "internalType": "uint256",
          "name": "amount",
          "type": "uint256"
        }
      ],
      "name": "approve",
      "outputs": [
        {
          "internalType": "bool",
          "name": "",
          "type": "bool"
        }
      ],
      "stateMutability": "nonpayable",
      "type": "function"
    },
    {
      "inputs": [
        {
          "internalType": "address",
          "name": "account",
          "type": "address"
        }
      ],
      "name": "balanceOf",
      "outputs": [
        {
          "internalType": "uint256",
          "name": "",
          "type": "uint256"
        }
      ],
      "stateMutability": "view",
      "type": "function"
    },
    {
      "inputs": [
        {
          "internalType": "address",
          "name": "",
          "type": "address"
        }
      ],
      "name": "bannerMap",
      "outputs": [
        {
          "internalType": "uint256",
          "name": "_type",
          "type": "uint256"
        },
        {
          "internalType": "bool",
          "name": "exists",
          "type": "bool"
        }
      ],
      "stateMutability": "view",
      "type": "function"
    },
    {
      "inputs": [
        {
          "internalType": "address",
          "name": "",
          "type": "address"
        }
      ],
      "name": "bioMap",
      "outputs": [
        {
          "internalType": "uint256",
          "name": "_type",
          "type": "uint256"
        },
        {
          "internalType": "bool",
          "name": "exists",
          "type": "bool"
        }
      ],
      "stateMutability": "view",
      "type": "function"
    },
    {
      "inputs": [
        {
          "internalType": "string",
          "name": "recipient",
          "type": "string"
        },
        {
          "internalType": "uint256",
          "name": "amount",
          "type": "uint256"
        },
        {
          "internalType": "string",
          "name": "message",
          "type": "string"
        }
      ],
      "name": "burn",
      "outputs": [],
      "stateMutability": "nonpayable",
      "type": "function"
    },
    {
      "inputs": [
        {
          "internalType": "address",
          "name": "addr",
          "type": "address"
        },
        {
          "internalType": "uint256",
          "name": "amount",
          "type": "uint256"
        },
        {
          "internalType": "string",
          "name": "message",
          "type": "string"
        }
      ],
      "name": "burnToAddress",
      "outputs": [],
      "stateMutability": "nonpayable",
      "type": "function"
    },
    {
      "inputs": [],
      "name": "decimals",
      "outputs": [
        {
          "internalType": "uint8",
          "name": "",
          "type": "uint8"
        }
      ],
      "stateMutability": "view",
      "type": "function"
    },
    {
      "inputs": [
        {
          "internalType": "address",
          "name": "spender",
          "type": "address"
        },
        {
          "internalType": "uint256",
          "name": "subtractedValue",
          "type": "uint256"
        }
      ],
      "name": "decreaseAllowance",
      "outputs": [
        {
          "internalType": "bool",
          "name": "",
          "type": "bool"
        }
      ],
      "stateMutability": "nonpayable",
      "type": "function"
    },
    {
      "inputs": [
        {
          "internalType": "string",
          "name": "recipient",
          "type": "string"
        }
      ],
      "name": "getAddressByName",
      "outputs": [
        {
          "internalType": "address",
          "name": "",
          "type": "address"
        }
      ],
      "stateMutability": "view",
      "type": "function"
    },
    {
      "inputs": [
        {
          "internalType": "address",
          "name": "addr",
          "type": "address"
        }
      ],
      "name": "getNameByAddress",
      "outputs": [
        {
          "internalType": "string",
          "name": "",
          "type": "string"
        }
      ],
      "stateMutability": "view",
      "type": "function"
    },
    {
      "inputs": [
        {
          "internalType": "uint256",
          "name": "_type",
          "type": "uint256"
        },
        {
          "internalType": "address",
          "name": "addr",
          "type": "address"
        }
      ],
      "name": "getProfileList",
      "outputs": [
        {
          "components": [
            {
              "internalType": "string",
              "name": "key",
              "type": "string"
            },
            {
              "internalType": "uint256",
              "name": "value",
              "type": "uint256"
            }
          ],
          "internalType": "struct MingCoin.KV[]",
          "name": "",
          "type": "tuple[]"
        }
      ],
      "stateMutability": "view",
      "type": "function"
    },
    {
      "inputs": [],
      "name": "i_owner",
      "outputs": [
        {
          "internalType": "address",
          "name": "",
          "type": "address"
        }
      ],
      "stateMutability": "view",
      "type": "function"
    },
    {
      "inputs": [
        {
          "internalType": "address",
          "name": "spender",
          "type": "address"
        },
        {
          "internalType": "uint256",
          "name": "addedValue",
          "type": "uint256"
        }
      ],
      "name": "increaseAllowance",
      "outputs": [
        {
          "internalType": "bool",
          "name": "",
          "type": "bool"
        }
      ],
      "stateMutability": "nonpayable",
      "type": "function"
    },
    {
      "inputs": [],
      "name": "mint",
      "outputs": [],
      "stateMutability": "payable",
      "type": "function"
    },
    {
      "inputs": [],
      "name": "name",
      "outputs": [
        {
          "internalType": "string",
          "name": "",
          "type": "string"
        }
      ],
      "stateMutability": "view",
      "type": "function"
    },
    {
      "inputs": [
        {
          "internalType": "string",
          "name": "",
          "type": "string"
        }
      ],
      "name": "name2Address",
      "outputs": [
        {
          "internalType": "address",
          "name": "",
          "type": "address"
        }
      ],
      "stateMutability": "view",
      "type": "function"
    },
    {
      "inputs": [
        {
          "internalType": "address",
          "name": "",
          "type": "address"
        }
      ],
      "name": "portraitMap",
      "outputs": [
        {
          "internalType": "uint256",
          "name": "_type",
          "type": "uint256"
        },
        {
          "internalType": "bool",
          "name": "exists",
          "type": "bool"
        }
      ],
      "stateMutability": "view",
      "type": "function"
    },
    {
      "inputs": [],
      "name": "symbol",
      "outputs": [
        {
          "internalType": "string",
          "name": "",
          "type": "string"
        }
      ],
      "stateMutability": "view",
      "type": "function"
    },
    {
      "inputs": [],
      "name": "totalSupply",
      "outputs": [
        {
          "internalType": "uint256",
          "name": "",
          "type": "uint256"
        }
      ],
      "stateMutability": "view",
      "type": "function"
    },
    {
      "inputs": [
        {
          "internalType": "address",
          "name": "recipient",
          "type": "address"
        },
        {
          "internalType": "uint256",
          "name": "amount",
          "type": "uint256"
        }
      ],
      "name": "transfer",
      "outputs": [
        {
          "internalType": "bool",
          "name": "",
          "type": "bool"
        }
      ],
      "stateMutability": "nonpayable",
      "type": "function"
    },
    {
      "inputs": [
        {
          "internalType": "address",
          "name": "sender",
          "type": "address"
        },
        {
          "internalType": "address",
          "name": "recipient",
          "type": "address"
        },
        {
          "internalType": "uint256",
          "name": "amount",
          "type": "uint256"
        }
      ],
      "name": "transferFrom",
      "outputs": [
        {
          "internalType": "bool",
          "name": "",
          "type": "bool"
        }
      ],
      "stateMutability": "nonpayable",
      "type": "function"
    },
    {
      "inputs": [
        {
          "internalType": "uint256",
          "name": "_type",
          "type": "uint256"
        },
        {
          "internalType": "address",
          "name": "addr",
          "type": "address"
        },
        {
          "internalType": "string",
          "name": "url",
          "type": "string"
        },
        {
          "internalType": "uint256",
          "name": "amount",
          "type": "uint256"
        }
      ],
      "name": "updateProfile",
      "outputs": [],
      "stateMutability": "nonpayable",
      "type": "function"
    },
    {
      "inputs": [],
      "name": "withdraw",
      "outputs": [],
      "stateMutability": "nonpayable",
      "type": "function"
    }
  ],
  "transactionHash": "0x9543d96706ca51c62a16c366f04136a66a3b3d4eca596600e8c089642a4bca28",
  "args": [],
  "numDeployments": 5,
  "solcInputHash": "03cb2f97ffe20de5166fcf446381650c",
  "bytecode": "0x60806040523480156200001157600080fd5b506040518060400160405280600981526020017f4d696e6720436f696e00000000000000000000000000000000000000000000008152506040518060400160405280600481526020017f4d494e470000000000000000000000000000000000000000000000000000000081525081600390805190602001906200009692919062000115565b508060049080519060200190620000af92919062000115565b506012600560006101000a81548160ff021916908360ff160217905550505033600c60006101000a81548173ffffffffffffffffffffffffffffffffffffffff021916908373ffffffffffffffffffffffffffffffffffffffff160217905550620001cb565b828054600181600116156101000203166002900490600052602060002090601f0160209004810192826200014d576000855562000199565b82601f106200016857805160ff191683800117855562000199565b8280016001018555821562000199579182015b82811115620001985782518255916020019190600101906200017b565b5b509050620001a89190620001ac565b5090565b5b80821115620001c7576000816000905550600101620001ad565b5090565b61352880620001db6000396000f3fe6080604052600436106101815760003560e01c8063995a38f6116100d1578063c5f26b601161008a578063dba6335f11610064578063dba6335f146105ec578063dd62ed3e14610617578063edf26d9b14610654578063fdf92afe1461069157610181565b8063c5f26b6014610531578063da05af451461056e578063da5633ef146105ac57610181565b8063995a38f6146103d65780639a65ddec146103ff578063a457c2d71461043c578063a9059cbb14610479578063ae5dcbaa146104b6578063b01b5158146104f457610181565b8063313ce5671161013e57806370a082311161011857806370a0823114610308578063743d6152146103455780637c80bb4f1461036e57806395d89b41146103ab57610181565b8063313ce5671461028957806339509351146102b45780633ccfd60b146102f157610181565b806306fdde0314610186578063095ea7b3146101b15780631249c58b146101ee57806313a768e1146101f857806318160ddd1461022157806323b872dd1461024c575b600080fd5b34801561019257600080fd5b5061019b6106cf565b6040516101a891906130e7565b60405180910390f35b3480156101bd57600080fd5b506101d860048036038101906101d39190612902565b610771565b6040516101e591906130cc565b60405180910390f35b6101f661078f565b005b34801561020457600080fd5b5061021f600480360381019061021a91906129ef565b610890565b005b34801561022d57600080fd5b50610236610ae3565b60405161024391906131c9565b60405180910390f35b34801561025857600080fd5b50610273600480360381019061026e91906128b3565b610aed565b60405161028091906130cc565b60405180910390f35b34801561029557600080fd5b5061029e610bc6565b6040516102ab919061320d565b60405180910390f35b3480156102c057600080fd5b506102db60048036038101906102d69190612902565b610bdd565b6040516102e891906130cc565b60405180910390f35b3480156102fd57600080fd5b50610306610c90565b005b34801561031457600080fd5b5061032f600480360381019061032a919061284e565b610df1565b60405161033c91906131c9565b60405180910390f35b34801561035157600080fd5b5061036c6004803603810190610367919061293e565b610e39565b005b34801561037a57600080fd5b506103956004803603810190610390919061284e565b610eda565b6040516103a291906130e7565b60405180910390f35b3480156103b757600080fd5b506103c0610fbe565b6040516103cd91906130e7565b60405180910390f35b3480156103e257600080fd5b506103fd60048036038101906103f89190612b1e565b611060565b005b34801561040b57600080fd5b50610426600480360381019061042191906129aa565b611372565b6040516104339190612fb5565b60405180910390f35b34801561044857600080fd5b50610463600480360381019061045e9190612902565b61144d565b60405161047091906130cc565b60405180910390f35b34801561048557600080fd5b506104a0600480360381019061049b9190612902565b61151a565b6040516104ad91906130cc565b60405180910390f35b3480156104c257600080fd5b506104dd60048036038101906104d8919061284e565b611538565b6040516104eb9291906131e4565b60405180910390f35b34801561050057600080fd5b5061051b60048036038101906105169190612ae2565b611569565b60405161052891906130aa565b60405180910390f35b34801561053d57600080fd5b5061055860048036038101906105539190612a78565b611825565b6040516105659190612fb5565b60405180910390f35b34801561057a57600080fd5b506105956004803603810190610590919061284e565b61186e565b6040516105a39291906131e4565b60405180910390f35b3480156105b857600080fd5b506105d360048036038101906105ce919061284e565b61189f565b6040516105e39493929190612fd0565b60405180910390f35b3480156105f857600080fd5b50610601611994565b60405161060e9190612fb5565b60405180910390f35b34801561062357600080fd5b5061063e60048036038101906106399190612877565b6119ba565b60405161064b91906131c9565b60405180910390f35b34801561066057600080fd5b5061067b60048036038101906106769190612ab9565b611a41565b6040516106889190612fb5565b60405180910390f35b34801561069d57600080fd5b506106b860048036038101906106b3919061284e565b611a80565b6040516106c69291906131e4565b60405180910390f35b606060038054600181600116156101000203166002900480601f0160208091040260200160405190810160405280929190818152602001828054600181600116156101000203166002900480156107675780601f1061073c57610100808354040283529160200191610767565b820191906000526020600020905b81548152906001019060200180831161074a57829003601f168201915b5050505050905090565b600061078561077e611ab1565b8484611ab9565b6001905092915050565b60003490506107d26040518060400160405280600b81526020017f455448416d6f756e743a20000000000000000000000000000000000000000000815250611cb0565b6107db81611dae565b6000811161081e576040517f08c379a000000000000000000000000000000000000000000000000000000000815260040161081590613149565b60405180910390fd5b600063065b9aaa8202905080610832610ae3565b6c059c13d3eac3d0188a0af00000031015610882576040517f08c379a000000000000000000000000000000000000000000000000000000000815260040161087990613129565b60405180910390fd5b61088c3382611e47565b5050565b60006108df86868080601f016020809104026020016040519081016040528093929190818152602001838380828437600081840152601f19601f8201169050808301925050505050505061200e565b905060001515600960008373ffffffffffffffffffffffffffffffffffffffff1673ffffffffffffffffffffffffffffffffffffffff16815260200190815260200160002060030160009054906101000a900460ff1615151415610acf576001600960008373ffffffffffffffffffffffffffffffffffffffff1673ffffffffffffffffffffffffffffffffffffffff16815260200190815260200160002060030160006101000a81548160ff0219169083151502179055508585600960008473ffffffffffffffffffffffffffffffffffffffff1673ffffffffffffffffffffffffffffffffffffffff16815260200190815260200160002060010191906109e99291906126ab565b5080600960008373ffffffffffffffffffffffffffffffffffffffff1673ffffffffffffffffffffffffffffffffffffffff16815260200190815260200160002060000160006101000a81548173ffffffffffffffffffffffffffffffffffffffff021916908373ffffffffffffffffffffffffffffffffffffffff160217905550600b819080600181540180825580915050600190039060005260206000200160009091909190916101000a81548173ffffffffffffffffffffffffffffffffffffffff021916908373ffffffffffffffffffffffffffffffffffffffff1602179055505b610adb818585856121b1565b505050505050565b6000600254905090565b6000610afa84848461224f565b610bbb84610b06611ab1565b610bb68560405180606001604052806028815260200161345d60289139600160008b73ffffffffffffffffffffffffffffffffffffffff1673ffffffffffffffffffffffffffffffffffffffff1681526020019081526020016000206000610b6c611ab1565b73ffffffffffffffffffffffffffffffffffffffff1673ffffffffffffffffffffffffffffffffffffffff168152602001908152602001600020546125109092919063ffffffff16565b611ab9565b600190509392505050565b6000600560009054906101000a900460ff16905090565b6000610c86610bea611ab1565b84610c818560016000610bfb611ab1565b73ffffffffffffffffffffffffffffffffffffffff1673ffffffffffffffffffffffffffffffffffffffff16815260200190815260200160002060008973ffffffffffffffffffffffffffffffffffffffff1673ffffffffffffffffffffffffffffffffffffffff168152602001908152602001600020546125ca90919063ffffffff16565b611ab9565b6001905092915050565b600c60009054906101000a900473ffffffffffffffffffffffffffffffffffffffff1673ffffffffffffffffffffffffffffffffffffffff163373ffffffffffffffffffffffffffffffffffffffff1614610d20576040517f08c379a0000000000000000000000000000000000000000000000000000000008152600401610d17906131a9565b60405180910390fd5b6000600c60009054906101000a900473ffffffffffffffffffffffffffffffffffffffff1673ffffffffffffffffffffffffffffffffffffffff1647604051610d6890612fa0565b60006040518083038185875af1925050503d8060008114610da5576040519150601f19603f3d011682016040523d82523d6000602084013e610daa565b606091505b5050905080610dee576040517f08c379a0000000000000000000000000000000000000000000000000000000008152600401610de590613169565b60405180910390fd5b50565b60008060008373ffffffffffffffffffffffffffffffffffffffff1673ffffffffffffffffffffffffffffffffffffffff168152602001908152602001600020549050919050565b600960008573ffffffffffffffffffffffffffffffffffffffff1673ffffffffffffffffffffffffffffffffffffffff16815260200190815260200160002060030160009054906101000a900460ff16610ec8576040517f08c379a0000000000000000000000000000000000000000000000000000000008152600401610ebf90613109565b60405180910390fd5b610ed4848484846121b1565b50505050565b6060600960008373ffffffffffffffffffffffffffffffffffffffff1673ffffffffffffffffffffffffffffffffffffffff1681526020019081526020016000206001018054600181600116156101000203166002900480601f016020809104026020016040519081016040528092919081815260200182805460018160011615610100020316600290048015610fb25780601f10610f8757610100808354040283529160200191610fb2565b820191906000526020600020905b815481529060010190602001808311610f9557829003601f168201915b50505050509050919050565b606060048054600181600116156101000203166002900480601f0160208091040260200160405190810160405280929190818152602001828054600181600116156101000203166002900480156110565780601f1061102b57610100808354040283529160200191611056565b820191906000526020600020905b81548152906001019060200180831161103957829003601f168201915b5050505050905090565b600960008573ffffffffffffffffffffffffffffffffffffffff1673ffffffffffffffffffffffffffffffffffffffff16815260200190815260200160002060030160009054906101000a900460ff166110ef576040517f08c379a00000000000000000000000000000000000000000000000000000000081526004016110e690613109565b60405180910390fd5b60018510158015611101575060038511155b611140576040517f08c379a000000000000000000000000000000000000000000000000000000000815260040161113790613189565b60405180910390fd5b6000600186141561119157600660008673ffffffffffffffffffffffffffffffffffffffff1673ffffffffffffffffffffffffffffffffffffffff168152602001908152602001600020905061122d565b60028614156111e057600760008673ffffffffffffffffffffffffffffffffffffffff1673ffffffffffffffffffffffffffffffffffffffff168152602001908152602001600020905061122c565b600386141561122b57600860008673ffffffffffffffffffffffffffffffffffffffff1673ffffffffffffffffffffffffffffffffffffffff16815260200190815260200160002090505b5b5b600082111561124257611240858361151a565b505b806000018484604051611256929190612f70565b908152602001604051809103902060010160009054906101000a900460ff166112f857600181600001858560405161128f929190612f70565b908152602001604051809103902060010160006101000a81548160ff021916908315150217905550806001018484909180600181540180825580915050600190039060005260206000200160009091929091929091929091925091906112f69291906126ab565b505b8181600001858560405161130d929190612f70565b9081526020016040518091039020600001600082825401925050819055507fa1729388298e43a2ad98930a2162e9b36083a1924eafd528d34fdadda7ae60f3858786868660405161136295949392919061305c565b60405180910390a1505050505050565b600080600a8484604051611387929190612f70565b908152602001604051809103902060009054906101000a900473ffffffffffffffffffffffffffffffffffffffff169050600073ffffffffffffffffffffffffffffffffffffffff168173ffffffffffffffffffffffffffffffffffffffff1614156114425761143a84848080601f016020809104026020016040519081016040528093929190818152602001838380828437600081840152601f19601f8201169050808301925050505050505061200e565b915050611447565b809150505b92915050565b600061151061145a611ab1565b8461150b856040518060600160405280602581526020016134ce6025913960016000611484611ab1565b73ffffffffffffffffffffffffffffffffffffffff1673ffffffffffffffffffffffffffffffffffffffff16815260200190815260200160002060008a73ffffffffffffffffffffffffffffffffffffffff1673ffffffffffffffffffffffffffffffffffffffff168152602001908152602001600020546125109092919063ffffffff16565b611ab9565b6001905092915050565b600061152e611527611ab1565b848461224f565b6001905092915050565b60086020528060005260406000206000915090508060020154908060030160009054906101000a900460ff16905082565b6060600060018414156115bc57600660008473ffffffffffffffffffffffffffffffffffffffff1673ffffffffffffffffffffffffffffffffffffffff1681526020019081526020016000209050611697565b600284141561160b57600760008473ffffffffffffffffffffffffffffffffffffffff1673ffffffffffffffffffffffffffffffffffffffff1681526020019081526020016000209050611696565b600384141561165a57600860008473ffffffffffffffffffffffffffffffffffffffff1673ffffffffffffffffffffffffffffffffffffffff1681526020019081526020016000209050611695565b6040517f08c379a000000000000000000000000000000000000000000000000000000000815260040161168c90613189565b60405180910390fd5b5b5b6000816001018054905067ffffffffffffffff811180156116b757600080fd5b506040519080825280602002602001820160405280156116f157816020015b6116de612739565b8152602001906001900390816116d65790505b50905060005b826001018054905081101561181957600083600101828154811061171757fe5b906000526020600020018054600181600116156101000203166002900480601f0160208091040260200160405190810160405280929190818152602001828054600181600116156101000203166002900480156117b55780601f1061178a576101008083540402835291602001916117b5565b820191906000526020600020905b81548152906001019060200180831161179857829003601f168201915b50505050509050604051806040016040528082815260200185600001836040516117df9190612f89565b90815260200160405180910390206000015481525083838151811061180057fe5b60200260200101819052505080806001019150506116f7565b50809250505092915050565b600a818051602081018201805184825260208301602085012081835280955050505050506000915054906101000a900473ffffffffffffffffffffffffffffffffffffffff1681565b60076020528060005260406000206000915090508060020154908060030160009054906101000a900460ff16905082565b60096020528060005260406000206000915090508060000160009054906101000a900473ffffffffffffffffffffffffffffffffffffffff1690806001018054600181600116156101000203166002900480601f0160208091040260200160405190810160405280929190818152602001828054600181600116156101000203166002900480156119715780601f1061194657610100808354040283529160200191611971565b820191906000526020600020905b81548152906001019060200180831161195457829003601f168201915b5050505050908060020154908060030160009054906101000a900460ff16905084565b600c60009054906101000a900473ffffffffffffffffffffffffffffffffffffffff1681565b6000600160008473ffffffffffffffffffffffffffffffffffffffff1673ffffffffffffffffffffffffffffffffffffffff16815260200190815260200160002060008373ffffffffffffffffffffffffffffffffffffffff1673ffffffffffffffffffffffffffffffffffffffff16815260200190815260200160002054905092915050565b600b8181548110611a5157600080fd5b906000526020600020016000915054906101000a900473ffffffffffffffffffffffffffffffffffffffff1681565b60066020528060005260406000206000915090508060020154908060030160009054906101000a900460ff16905082565b600033905090565b600073ffffffffffffffffffffffffffffffffffffffff168373ffffffffffffffffffffffffffffffffffffffff161415611b3f576040517f08c379a00000000000000000000000000000000000000000000000000000000081526004018080602001828103825260248152602001806134aa6024913960400191505060405180910390fd5b600073ffffffffffffffffffffffffffffffffffffffff168273ffffffffffffffffffffffffffffffffffffffff161415611bc5576040517f08c379a00000000000000000000000000000000000000000000000000000000081526004018080602001828103825260228152602001806134156022913960400191505060405180910390fd5b80600160008573ffffffffffffffffffffffffffffffffffffffff1673ffffffffffffffffffffffffffffffffffffffff16815260200190815260200160002060008473ffffffffffffffffffffffffffffffffffffffff1673ffffffffffffffffffffffffffffffffffffffff168152602001908152602001600020819055508173ffffffffffffffffffffffffffffffffffffffff168373ffffffffffffffffffffffffffffffffffffffff167f8c5be1e5ebec7d5bd14f71427d1e84f3dd0314c0f7b2291e5b200ac8c7c3b925836040518082815260200191505060405180910390a3505050565b611dab816040516024018080602001828103825283818151815260200191508051906020019080838360005b83811015611cf7578082015181840152602081019050611cdc565b50505050905090810190601f168015611d245780820380516001836020036101000a031916815260200191505b50925050506040516020818303038152906040527f41304fac000000000000000000000000000000000000000000000000000000007bffffffffffffffffffffffffffffffffffffffffffffffffffffffff19166020820180517bffffffffffffffffffffffffffffffffffffffffffffffffffffffff8381831617835250505050612652565b50565b611e4481604051602401808281526020019150506040516020818303038152906040527ff82c50f1000000000000000000000000000000000000000000000000000000007bffffffffffffffffffffffffffffffffffffffffffffffffffffffff19166020820180517bffffffffffffffffffffffffffffffffffffffffffffffffffffffff8381831617835250505050612652565b50565b600073ffffffffffffffffffffffffffffffffffffffff168273ffffffffffffffffffffffffffffffffffffffff161415611eea576040517f08c379a000000000000000000000000000000000000000000000000000000000815260040180806020018281038252601f8152602001807f45524332303a206d696e7420746f20746865207a65726f20616464726573730081525060200191505060405180910390fd5b611ef66000838361266c565b611f0b816002546125ca90919063ffffffff16565b600281905550611f62816000808573ffffffffffffffffffffffffffffffffffffffff1673ffffffffffffffffffffffffffffffffffffffff168152602001908152602001600020546125ca90919063ffffffff16565b6000808473ffffffffffffffffffffffffffffffffffffffff1673ffffffffffffffffffffffffffffffffffffffff168152602001908152602001600020819055508173ffffffffffffffffffffffffffffffffffffffff16600073ffffffffffffffffffffffffffffffffffffffff167fddf252ad1be2c89b69c2b068fc378daa952ba7f163c4a11628f55a4df523b3ef836040518082815260200191505060405180910390a35050565b600080826040516020016120229190612f89565b60405160208183030381529060405280519060200120905060008160405160200161204d9190612f55565b60405160208183030381529060405290506000601467ffffffffffffffff8111801561207857600080fd5b506040519080825280601f01601f1916602001820160405280156120ab5781602001600182028036833780820191505090505b5090506000805b600481101561212a577f44000000000000000000000000000000000000000000000000000000000000008383806001019450815181106120ee57fe5b60200101907effffffffffffffffffffffffffffffffffffffffffffffffffffffffffffff1916908160001a90535080806001019150506120b2565b5060005b601482101561219c5783818151811061214357fe5b602001015160f81c60f81b83838060010194508151811061216057fe5b60200101907effffffffffffffffffffffffffffffffffffffffffffffffffffffffffffff1916908160001a905350808060010191505061212e565b506121a682612671565b945050505050919050565b6121bb848461151a565b5082600960008673ffffffffffffffffffffffffffffffffffffffff1673ffffffffffffffffffffffffffffffffffffffff168152602001908152602001600020600201600082825401925050819055507fe8c30696bb16e9dd0e6d6aa11b5692f089b78a8de66b240fef54e0875dc6ea0684848484604051612241949392919061301c565b60405180910390a150505050565b600073ffffffffffffffffffffffffffffffffffffffff168373ffffffffffffffffffffffffffffffffffffffff1614156122d5576040517f08c379a00000000000000000000000000000000000000000000000000000000081526004018080602001828103825260258152602001806134856025913960400191505060405180910390fd5b600073ffffffffffffffffffffffffffffffffffffffff168273ffffffffffffffffffffffffffffffffffffffff16141561235b576040517f08c379a00000000000000000000000000000000000000000000000000000000081526004018080602001828103825260238152602001806133f26023913960400191505060405180910390fd5b61236683838361266c565b6123d181604051806060016040528060268152602001613437602691396000808773ffffffffffffffffffffffffffffffffffffffff1673ffffffffffffffffffffffffffffffffffffffff168152602001908152602001600020546125109092919063ffffffff16565b6000808573ffffffffffffffffffffffffffffffffffffffff1673ffffffffffffffffffffffffffffffffffffffff16815260200190815260200160002081905550612464816000808573ffffffffffffffffffffffffffffffffffffffff1673ffffffffffffffffffffffffffffffffffffffff168152602001908152602001600020546125ca90919063ffffffff16565b6000808473ffffffffffffffffffffffffffffffffffffffff1673ffffffffffffffffffffffffffffffffffffffff168152602001908152602001600020819055508173ffffffffffffffffffffffffffffffffffffffff168373ffffffffffffffffffffffffffffffffffffffff167fddf252ad1be2c89b69c2b068fc378daa952ba7f163c4a11628f55a4df523b3ef836040518082815260200191505060405180910390a3505050565b60008383111582906125bd576040517f08c379a00000000000000000000000000000000000000000000000000000000081526004018080602001828103825283818151815260200191508051906020019080838360005b83811015612582578082015181840152602081019050612567565b50505050905090810190601f1680156125af5780820380516001836020036101000a031916815260200191505b509250505060405180910390fd5b5082840390509392505050565b600080828401905083811015612648576040517f08c379a000000000000000000000000000000000000000000000000000000000815260040180806020018281038252601b8152602001807f536166654d6174683a206164646974696f6e206f766572666c6f77000000000081525060200191505060405180910390fd5b8091505092915050565b6126698161266161267f6126a0565b63ffffffff16565b50565b505050565b600060148201519050919050565b60006a636f6e736f6c652e6c6f679050600080835160208501845afa505050565b612753819050919050565b828054600181600116156101000203166002900490600052602060002090601f0160209004810192826126e15760008555612728565b82601f106126fa57803560ff1916838001178555612728565b82800160010185558215612728579182015b8281111561272757823582559160200191906001019061270c565b5b5090506127359190612755565b5090565b604051806040016040528060608152602001600081525090565bfe5b5b8082111561276e576000816000905550600101612756565b5090565b600061278561278084613259565b613228565b90508281526020810184848401111561279d57600080fd5b6127a8848285613364565b509392505050565b6000813590506127bf816133c3565b92915050565b60008083601f8401126127d757600080fd5b8235905067ffffffffffffffff8111156127f057600080fd5b60208301915083600182028301111561280857600080fd5b9250929050565b600082601f83011261282057600080fd5b8135612830848260208601612772565b91505092915050565b600081359050612848816133da565b92915050565b60006020828403121561286057600080fd5b600061286e848285016127b0565b91505092915050565b6000806040838503121561288a57600080fd5b6000612898858286016127b0565b92505060206128a9858286016127b0565b9150509250929050565b6000806000606084860312156128c857600080fd5b60006128d6868287016127b0565b93505060206128e7868287016127b0565b92505060406128f886828701612839565b9150509250925092565b6000806040838503121561291557600080fd5b6000612923858286016127b0565b925050602061293485828601612839565b9150509250929050565b6000806000806060858703121561295457600080fd5b6000612962878288016127b0565b945050602061297387828801612839565b935050604085013567ffffffffffffffff81111561299057600080fd5b61299c878288016127c5565b925092505092959194509250565b600080602083850312156129bd57600080fd5b600083013567ffffffffffffffff8111156129d757600080fd5b6129e3858286016127c5565b92509250509250929050565b600080600080600060608688031215612a0757600080fd5b600086013567ffffffffffffffff811115612a2157600080fd5b612a2d888289016127c5565b95509550506020612a4088828901612839565b935050604086013567ffffffffffffffff811115612a5d57600080fd5b612a69888289016127c5565b92509250509295509295909350565b600060208284031215612a8a57600080fd5b600082013567ffffffffffffffff811115612aa457600080fd5b612ab08482850161280f565b91505092915050565b600060208284031215612acb57600080fd5b6000612ad984828501612839565b91505092915050565b60008060408385031215612af557600080fd5b6000612b0385828601612839565b9250506020612b14858286016127b0565b9150509250929050565b600080600080600060808688031215612b3657600080fd5b6000612b4488828901612839565b9550506020612b55888289016127b0565b945050604086013567ffffffffffffffff811115612b7257600080fd5b612b7e888289016127c5565b93509350506060612b9188828901612839565b9150509295509295909350565b6000612baa8383612eeb565b905092915050565b612bbb81613305565b82525050565b6000612bcc82613299565b612bd681856132bc565b935083602082028501612be885613289565b8060005b85811015612c245784840389528151612c058582612b9e565b9450612c10836132af565b925060208a01995050600181019050612bec565b50829750879550505050505092915050565b612c3f81613317565b82525050565b612c56612c5182613323565b6133a6565b82525050565b6000612c6883856132e9565b9350612c75838584613364565b612c7e836133b2565b840190509392505050565b6000612c9583856132fa565b9350612ca2838584613364565b82840190509392505050565b6000612cb9826132a4565b612cc381856132d8565b9350612cd3818560208601613373565b612cdc816133b2565b840191505092915050565b6000612cf2826132a4565b612cfc81856132e9565b9350612d0c818560208601613373565b612d15816133b2565b840191505092915050565b6000612d2b826132a4565b612d3581856132fa565b9350612d45818560208601613373565b80840191505092915050565b6000612d5e6012836132e9565b91507f41646472657373206e6f742065786973747300000000000000000000000000006000830152602082019050919050565b6000612d9e6017836132e9565b91507f4e6f7420656e6f756768204d494e4720746f206d696e740000000000000000006000830152602082019050919050565b6000612dde6010836132e9565b91507f66756e64206d757374203e207a65726f000000000000000000000000000000006000830152602082019050919050565b6000612e1e6000836132cd565b9150600082019050919050565b6000612e386010836132e9565b91507f5472616e73666572206661696c65642e000000000000000000000000000000006000830152602082019050919050565b6000612e78600c836132e9565b91507f496e76616c6964207479706500000000000000000000000000000000000000006000830152602082019050919050565b6000612eb86009836132e9565b91507f6e6f74206f776e657200000000000000000000000000000000000000000000006000830152602082019050919050565b60006040830160008301518482036000860152612f088282612cae565b9150506020830151612f1d6020860182612f28565b508091505092915050565b612f318161334d565b82525050565b612f408161334d565b82525050565b612f4f81613357565b82525050565b6000612f618284612c45565b60208201915081905092915050565b6000612f7d828486612c89565b91508190509392505050565b6000612f958284612d20565b915081905092915050565b6000612fab82612e11565b9150819050919050565b6000602082019050612fca6000830184612bb2565b92915050565b6000608082019050612fe56000830187612bb2565b8181036020830152612ff78186612ce7565b90506130066040830185612f37565b6130136060830184612c36565b95945050505050565b60006060820190506130316000830187612bb2565b61303e6020830186612f37565b8181036040830152613051818486612c5c565b905095945050505050565b60006080820190506130716000830188612bb2565b61307e6020830187612f37565b8181036040830152613091818587612c5c565b90506130a06060830184612f37565b9695505050505050565b600060208201905081810360008301526130c48184612bc1565b905092915050565b60006020820190506130e16000830184612c36565b92915050565b600060208201905081810360008301526131018184612ce7565b905092915050565b6000602082019050818103600083015261312281612d51565b9050919050565b6000602082019050818103600083015261314281612d91565b9050919050565b6000602082019050818103600083015261316281612dd1565b9050919050565b6000602082019050818103600083015261318281612e2b565b9050919050565b600060208201905081810360008301526131a281612e6b565b9050919050565b600060208201905081810360008301526131c281612eab565b9050919050565b60006020820190506131de6000830184612f37565b92915050565b60006040820190506131f96000830185612f37565b6132066020830184612c36565b9392505050565b60006020820190506132226000830184612f46565b92915050565b6000604051905081810181811067ffffffffffffffff8211171561324f5761324e6133b0565b5b8060405250919050565b600067ffffffffffffffff821115613274576132736133b0565b5b601f19601f8301169050602081019050919050565b6000819050602082019050919050565b600081519050919050565b600081519050919050565b6000602082019050919050565b600082825260208201905092915050565b600081905092915050565b600082825260208201905092915050565b600082825260208201905092915050565b600081905092915050565b60006133108261332d565b9050919050565b60008115159050919050565b6000819050919050565b600073ffffffffffffffffffffffffffffffffffffffff82169050919050565b6000819050919050565b600060ff82169050919050565b82818337600083830152505050565b60005b83811015613391578082015181840152602081019050613376565b838111156133a0576000848401525b50505050565b6000819050919050565bfe5b6000601f19601f8301169050919050565b6133cc81613305565b81146133d757600080fd5b50565b6133e38161334d565b81146133ee57600080fd5b5056fe45524332303a207472616e7366657220746f20746865207a65726f206164647265737345524332303a20617070726f766520746f20746865207a65726f206164647265737345524332303a207472616e7366657220616d6f756e7420657863656564732062616c616e636545524332303a207472616e7366657220616d6f756e74206578636565647320616c6c6f77616e636545524332303a207472616e736665722066726f6d20746865207a65726f206164647265737345524332303a20617070726f76652066726f6d20746865207a65726f206164647265737345524332303a2064656372656173656420616c6c6f77616e63652062656c6f77207a65726fa2646970667358221220f019c026d6da9f782164bb180dc5f87b3db7110c178bd64980362975078bf3e864736f6c63430007060033",
  "devdoc": {
    "kind": "dev",
    "methods": {
      "allowance(address,address)": {
        "details": "See {IERC20-allowance}."
      },
      "approve(address,uint256)": {
        "details": "See {IERC20-approve}. Requirements: - `spender` cannot be the zero address."
      },
      "balanceOf(address)": {
        "details": "See {IERC20-balanceOf}."
      },
      "decimals()": {
        "details": "Returns the number of decimals used to get its user representation. For example, if `decimals` equals `2`, a balance of `505` tokens should be displayed to a user as `5,05` (`505 / 10 ** 2`). Tokens usually opt for a value of 18, imitating the relationship between Ether and Wei. This is the value {ERC20} uses, unless {_setupDecimals} is called. NOTE: This information is only used for _display_ purposes: it in no way affects any of the arithmetic of the contract, including {IERC20-balanceOf} and {IERC20-transfer}."
      },
      "decreaseAllowance(address,uint256)": {
        "details": "Atomically decreases the allowance granted to `spender` by the caller. This is an alternative to {approve} that can be used as a mitigation for problems described in {IERC20-approve}. Emits an {Approval} event indicating the updated allowance. Requirements: - `spender` cannot be the zero address. - `spender` must have allowance for the caller of at least `subtractedValue`."
      },
      "increaseAllowance(address,uint256)": {
        "details": "Atomically increases the allowance granted to `spender` by the caller. This is an alternative to {approve} that can be used as a mitigation for problems described in {IERC20-approve}. Emits an {Approval} event indicating the updated allowance. Requirements: - `spender` cannot be the zero address."
      },
      "name()": {
        "details": "Returns the name of the token."
      },
      "symbol()": {
        "details": "Returns the symbol of the token, usually a shorter version of the name."
      },
      "totalSupply()": {
        "details": "See {IERC20-totalSupply}."
      },
      "transfer(address,uint256)": {
        "details": "See {IERC20-transfer}. Requirements: - `recipient` cannot be the zero address. - the caller must have a balance of at least `amount`."
      },
      "transferFrom(address,address,uint256)": {
        "details": "See {IERC20-transferFrom}. Emits an {Approval} event indicating the updated allowance. This is not required by the EIP. See the note at the beginning of {ERC20}. Requirements: - `sender` and `recipient` cannot be the zero address. - `sender` must have a balance of at least `amount`. - the caller must have allowance for ``sender``'s tokens of at least `amount`."
      }
    },
    "version": 1
  },
  "userdoc": {
    "kind": "user",
    "methods": {},
    "version": 1
  },
  "storageLayout": {
    "storage": [
      {
        "astId": 371,
        "contract": "contracts/MingCoin.sol:MingCoin",
        "label": "_balances",
        "offset": 0,
        "slot": "0",
        "type": "t_mapping(t_address,t_uint256)"
      },
      {
        "astId": 377,
        "contract": "contracts/MingCoin.sol:MingCoin",
        "label": "_allowances",
        "offset": 0,
        "slot": "1",
        "type": "t_mapping(t_address,t_mapping(t_address,t_uint256))"
      },
      {
        "astId": 379,
        "contract": "contracts/MingCoin.sol:MingCoin",
        "label": "_totalSupply",
        "offset": 0,
        "slot": "2",
        "type": "t_uint256"
      },
      {
        "astId": 381,
        "contract": "contracts/MingCoin.sol:MingCoin",
        "label": "_name",
        "offset": 0,
        "slot": "3",
        "type": "t_string_storage"
      },
      {
        "astId": 383,
        "contract": "contracts/MingCoin.sol:MingCoin",
        "label": "_symbol",
        "offset": 0,
        "slot": "4",
        "type": "t_string_storage"
      },
      {
        "astId": 385,
        "contract": "contracts/MingCoin.sol:MingCoin",
        "label": "_decimals",
        "offset": 0,
        "slot": "5",
        "type": "t_uint8"
      },
      {
        "astId": 1001,
        "contract": "contracts/MingCoin.sol:MingCoin",
        "label": "bannerMap",
        "offset": 0,
        "slot": "6",
        "type": "t_mapping(t_address,t_struct(Profile)988_storage)"
      },
      {
        "astId": 1005,
        "contract": "contracts/MingCoin.sol:MingCoin",
        "label": "portraitMap",
        "offset": 0,
        "slot": "7",
        "type": "t_mapping(t_address,t_struct(Profile)988_storage)"
      },
      {
        "astId": 1009,
        "contract": "contracts/MingCoin.sol:MingCoin",
        "label": "bioMap",
        "offset": 0,
        "slot": "8",
        "type": "t_mapping(t_address,t_struct(Profile)988_storage)"
      },
      {
        "astId": 1013,
        "contract": "contracts/MingCoin.sol:MingCoin",
        "label": "addressMap",
        "offset": 0,
        "slot": "9",
        "type": "t_mapping(t_address,t_struct(Burning)997_storage)"
      },
      {
        "astId": 1017,
        "contract": "contracts/MingCoin.sol:MingCoin",
        "label": "name2Address",
        "offset": 0,
        "slot": "10",
        "type": "t_mapping(t_string_memory_ptr,t_address)"
      },
      {
        "astId": 1020,
        "contract": "contracts/MingCoin.sol:MingCoin",
        "label": "addresses",
        "offset": 0,
        "slot": "11",
        "type": "t_array(t_address)dyn_storage"
      },
      {
        "astId": 1042,
        "contract": "contracts/MingCoin.sol:MingCoin",
        "label": "i_owner",
        "offset": 0,
        "slot": "12",
        "type": "t_address"
      }
    ],
    "types": {
      "t_address": {
        "encoding": "inplace",
        "label": "address",
        "numberOfBytes": "20"
      },
      "t_array(t_address)dyn_storage": {
        "base": "t_address",
        "encoding": "dynamic_array",
        "label": "address[]",
        "numberOfBytes": "32"
      },
      "t_array(t_string_storage)dyn_storage": {
        "base": "t_string_storage",
        "encoding": "dynamic_array",
        "label": "string[]",
        "numberOfBytes": "32"
      },
      "t_bool": {
        "encoding": "inplace",
        "label": "bool",
        "numberOfBytes": "1"
      },
      "t_mapping(t_address,t_mapping(t_address,t_uint256))": {
        "encoding": "mapping",
        "key": "t_address",
        "label": "mapping(address => mapping(address => uint256))",
        "numberOfBytes": "32",
        "value": "t_mapping(t_address,t_uint256)"
      },
      "t_mapping(t_address,t_struct(Burning)997_storage)": {
        "encoding": "mapping",
        "key": "t_address",
        "label": "mapping(address => struct MingCoin.Burning)",
        "numberOfBytes": "32",
        "value": "t_struct(Burning)997_storage"
      },
      "t_mapping(t_address,t_struct(Profile)988_storage)": {
        "encoding": "mapping",
        "key": "t_address",
        "label": "mapping(address => struct MingCoin.Profile)",
        "numberOfBytes": "32",
        "value": "t_struct(Profile)988_storage"
      },
      "t_mapping(t_address,t_uint256)": {
        "encoding": "mapping",
        "key": "t_address",
        "label": "mapping(address => uint256)",
        "numberOfBytes": "32",
        "value": "t_uint256"
      },
      "t_mapping(t_string_memory_ptr,t_address)": {
        "encoding": "mapping",
        "key": "t_string_memory_ptr",
        "label": "mapping(string => address)",
        "numberOfBytes": "32",
        "value": "t_address"
      },
      "t_mapping(t_string_memory_ptr,t_struct(KeyValue)976_storage)": {
        "encoding": "mapping",
        "key": "t_string_memory_ptr",
        "label": "mapping(string => struct MingCoin.KeyValue)",
        "numberOfBytes": "32",
        "value": "t_struct(KeyValue)976_storage"
      },
      "t_string_memory_ptr": {
        "encoding": "bytes",
        "label": "string",
        "numberOfBytes": "32"
      },
      "t_string_storage": {
        "encoding": "bytes",
        "label": "string",
        "numberOfBytes": "32"
      },
      "t_struct(Burning)997_storage": {
        "encoding": "inplace",
        "label": "struct MingCoin.Burning",
        "members": [
          {
            "astId": 990,
            "contract": "contracts/MingCoin.sol:MingCoin",
            "label": "addr",
            "offset": 0,
            "slot": "0",
            "type": "t_address"
          },
          {
            "astId": 992,
            "contract": "contracts/MingCoin.sol:MingCoin",
            "label": "name",
            "offset": 0,
            "slot": "1",
            "type": "t_string_storage"
          },
          {
            "astId": 994,
            "contract": "contracts/MingCoin.sol:MingCoin",
            "label": "amount",
            "offset": 0,
            "slot": "2",
            "type": "t_uint256"
          },
          {
            "astId": 996,
            "contract": "contracts/MingCoin.sol:MingCoin",
            "label": "exists",
            "offset": 0,
            "slot": "3",
            "type": "t_bool"
          }
        ],
        "numberOfBytes": "128"
      },
      "t_struct(KeyValue)976_storage": {
        "encoding": "inplace",
        "label": "struct MingCoin.KeyValue",
        "members": [
          {
            "astId": 973,
            "contract": "contracts/MingCoin.sol:MingCoin",
            "label": "value",
            "offset": 0,
            "slot": "0",
            "type": "t_uint256"
          },
          {
            "astId": 975,
            "contract": "contracts/MingCoin.sol:MingCoin",
            "label": "exists",
            "offset": 0,
            "slot": "1",
            "type": "t_bool"
          }
        ],
        "numberOfBytes": "64"
      },
      "t_struct(Profile)988_storage": {
        "encoding": "inplace",
        "label": "struct MingCoin.Profile",
        "members": [
          {
            "astId": 980,
            "contract": "contracts/MingCoin.sol:MingCoin",
            "label": "valueMap",
            "offset": 0,
            "slot": "0",
            "type": "t_mapping(t_string_memory_ptr,t_struct(KeyValue)976_storage)"
          },
          {
            "astId": 983,
            "contract": "contracts/MingCoin.sol:MingCoin",
            "label": "keys",
            "offset": 0,
            "slot": "1",
            "type": "t_array(t_string_storage)dyn_storage"
          },
          {
            "astId": 985,
            "contract": "contracts/MingCoin.sol:MingCoin",
            "label": "_type",
            "offset": 0,
            "slot": "2",
            "type": "t_uint256"
          },
          {
            "astId": 987,
            "contract": "contracts/MingCoin.sol:MingCoin",
            "label": "exists",
            "offset": 0,
            "slot": "3",
            "type": "t_bool"
          }
        ],
        "numberOfBytes": "128"
      },
      "t_uint256": {
        "encoding": "inplace",
        "label": "uint256",
        "numberOfBytes": "32"
      },
      "t_uint8": {
        "encoding": "inplace",
        "label": "uint8",
        "numberOfBytes": "1"
      }
    }
  }
}