{
  "address": "0x8eea1E182Ce6324d3Ef43c070eE3E990a08C22c0",
  "abi": [
    {
      "inputs": [
        {
          "internalType": "address",
          "name": "_addressOfMing",
          "type": "address"
        },
        {
          "internalType": "uint256",
          "name": "_endTime",
          "type": "uint256"
        }
      ],
      "stateMutability": "nonpayable",
      "type": "constructor"
    },
    {
      "anonymous": false,
      "inputs": [
        {
          "indexed": false,
          "internalType": "string",
          "name": "message",
          "type": "string"
        }
      ],
      "name": "LogData",
      "type": "event"
    },
    {
      "inputs": [],
      "name": "balance",
      "outputs": [
        {
          "internalType": "uint256",
          "name": "",
          "type": "uint256"
        }
      ],
      "stateMutability": "view",
      "type": "function"
    },
    {
      "inputs": [
        {
          "internalType": "string",
          "name": "str1",
          "type": "string"
        },
        {
          "internalType": "string",
          "name": "str2",
          "type": "string"
        }
      ],
      "name": "concatString",
      "outputs": [
        {
          "internalType": "string",
          "name": "",
          "type": "string"
        }
      ],
      "stateMutability": "pure",
      "type": "function"
    },
    {
      "inputs": [
        {
          "internalType": "string",
          "name": "str",
          "type": "string"
        },
        {
          "internalType": "uint256",
          "name": "num",
          "type": "uint256"
        }
      ],
      "name": "concatStringWithUint",
      "outputs": [
        {
          "internalType": "string",
          "name": "",
          "type": "string"
        }
      ],
      "stateMutability": "pure",
      "type": "function"
    },
    {
      "inputs": [
        {
          "internalType": "uint256",
          "name": "",
          "type": "uint256"
        }
      ],
      "name": "deposits",
      "outputs": [
        {
          "internalType": "address",
          "name": "owner",
          "type": "address"
        },
        {
          "internalType": "uint128",
          "name": "liquidity",
          "type": "uint128"
        },
        {
          "internalType": "address",
          "name": "token0",
          "type": "address"
        },
        {
          "internalType": "address",
          "name": "token1",
          "type": "address"
        }
      ],
      "stateMutability": "view",
      "type": "function"
    },
    {
      "inputs": [],
      "name": "fund",
      "outputs": [],
      "stateMutability": "payable",
      "type": "function"
    },
    {
      "inputs": [],
      "name": "fund4TestOnly",
      "outputs": [],
      "stateMutability": "payable",
      "type": "function"
    },
    {
      "inputs": [
        {
          "internalType": "address",
          "name": "addr",
          "type": "address"
        }
      ],
      "name": "getAmountFunded",
      "outputs": [
        {
          "internalType": "uint256",
          "name": "",
          "type": "uint256"
        }
      ],
      "stateMutability": "view",
      "type": "function"
    },
    {
      "inputs": [
        {
          "internalType": "address",
          "name": "addr",
          "type": "address"
        }
      ],
      "name": "getCurrentAmountFunded",
      "outputs": [
        {
          "internalType": "uint256",
          "name": "",
          "type": "uint256"
        }
      ],
      "stateMutability": "view",
      "type": "function"
    },
    {
      "inputs": [],
      "name": "i_owner",
      "outputs": [
        {
          "internalType": "address",
          "name": "",
          "type": "address"
        }
      ],
      "stateMutability": "view",
      "type": "function"
    },
    {
      "inputs": [
        {
          "internalType": "string",
          "name": "message",
          "type": "string"
        }
      ],
      "name": "log",
      "outputs": [],
      "stateMutability": "nonpayable",
      "type": "function"
    },
    {
      "inputs": [
        {
          "internalType": "address",
          "name": "operator",
          "type": "address"
        },
        {
          "internalType": "address",
          "name": "",
          "type": "address"
        },
        {
          "internalType": "uint256",
          "name": "tokenId",
          "type": "uint256"
        },
        {
          "internalType": "bytes",
          "name": "",
          "type": "bytes"
        }
      ],
      "name": "onERC721Received",
      "outputs": [
        {
          "internalType": "bytes4",
          "name": "",
          "type": "bytes4"
        }
      ],
      "stateMutability": "nonpayable",
      "type": "function"
    },
    {
      "inputs": [],
      "name": "onFundingOver",
      "outputs": [],
      "stateMutability": "nonpayable",
      "type": "function"
    },
    {
      "inputs": [],
      "name": "poolFee",
      "outputs": [
        {
          "internalType": "uint24",
          "name": "",
          "type": "uint24"
        }
      ],
      "stateMutability": "view",
      "type": "function"
    }
  ],
  "transactionHash": "0x01e093ba41955c2b11fc20543372036aef79b317ed3ee7ce8bb717da0b8c773e",
  "args": [
    "0xee04E68E35d72a5e8eF9110A095d4172c0F59aE4",
    1705248000000
  ],
  "numDeployments": 12,
  "solcInputHash": "cc94189d1d3bc69fd540d57a4e85c2b2",
  "bytecode": "0x608060405260006004556000600560006101000a81548160ff02191690831515021790555073c36442b4a4522e871399cd717abdd847ab11fe88600560016101000a81548173ffffffffffffffffffffffffffffffffffffffff021916908373ffffffffffffffffffffffffffffffffffffffff160217905550731f98431c8ad98523631ae4a59f267346ea31f984600660006101000a81548173ffffffffffffffffffffffffffffffffffffffff021916908373ffffffffffffffffffffffffffffffffffffffff1602179055506002600c60006101000a81548162ffffff021916908360020b62ffffff1602179055506305f5e100600d553480156200010657600080fd5b5060405162004e8c38038062004e8c83398181016040528101906200012c919062000240565b81600360006101000a81548173ffffffffffffffffffffffffffffffffffffffff021916908373ffffffffffffffffffffffffffffffffffffffff16021790555033600960006101000a81548173ffffffffffffffffffffffffffffffffffffffff021916908373ffffffffffffffffffffffffffffffffffffffff16021790555073b4fbf271143f4fbf7b91a5ded31805e42b2208d6600860006101000a81548173ffffffffffffffffffffffffffffffffffffffff021916908373ffffffffffffffffffffffffffffffffffffffff16021790555080600a819055505050620002f3565b6000815190506200022381620002bf565b92915050565b6000815190506200023a81620002d9565b92915050565b600080604083850312156200025457600080fd5b6000620002648582860162000212565b9250506020620002778582860162000229565b9150509250929050565b60006200028e8262000295565b9050919050565b600073ffffffffffffffffffffffffffffffffffffffff82169050919050565b6000819050919050565b620002ca8162000281565b8114620002d657600080fd5b50565b620002e481620002b5565b8114620002f057600080fd5b50565b614b8980620003036000396000f3fe6080604052600436106100c25760003560e01c8063a48b45551161007f578063b60d428811610059578063b60d428814610270578063b69ef8a81461027a578063d583f402146102a5578063dba6335f146102e2576100c2565b8063a48b4555146101b6578063ac5065d2146101f3578063b02c43d014610230576100c2565b8063089fe6aa146100c7578063150b7a02146100f257806341304fac1461012f5780635bb96f1f146101585780635ee06bec146101955780636dbcf2521461019f575b600080fd5b3480156100d357600080fd5b506100dc61030d565b6040516100e991906146e5565b60405180910390f35b3480156100fe57600080fd5b5061011960048036038101906101149190613cf7565b610313565b60405161012691906145b1565b60405180910390f35b34801561013b57600080fd5b5061015660048036038101906101519190613dc9565b610328565b005b34801561016457600080fd5b5061017f600480360381019061017a9190613e0a565b610362565b60405161018c91906145cc565b60405180910390f35b61019d61038e565b005b3480156101ab57600080fd5b506101b4610a86565b005b3480156101c257600080fd5b506101dd60048036038101906101d89190613ca5565b610e09565b6040516101ea9190614700565b60405180910390f35b3480156101ff57600080fd5b5061021a60048036038101906102159190613e76565b610e55565b60405161022791906145cc565b60405180910390f35b34801561023c57600080fd5b5061025760048036038101906102529190613fb7565b610e81565b6040516102679493929190614543565b60405180910390f35b610278610f2d565b005b34801561028657600080fd5b5061028f611567565b60405161029c9190614700565b60405180910390f35b3480156102b157600080fd5b506102cc60048036038101906102c79190613ca5565b61156f565b6040516102d99190614700565b60405180910390f35b3480156102ee57600080fd5b506102f76115bb565b60405161030491906144ba565b60405180910390f35b610bb881565b600063150b7a0260e01b905095945050505050565b7f4609e0ccf047a9139d8e498ab3b5fe10aae422e66592ab6db3d4e8c87cf516ff8160405161035791906145cc565b60405180910390a150565b6060828260405160200161037792919061446e565b604051602081830303815290604052905092915050565b6103cc6040518060400160405280600e81526020017f63616c6c696e672066756e642829000000000000000000000000000000000000815250610328565b600034905060008111610414576040517f08c379a000000000000000000000000000000000000000000000000000000000815260040161040b9061460e565b60405180910390fd5b61045b6104566040518060400160405280600d81526020017f4554482062616c616e63653a200000000000000000000000000000000000000081525083610e55565b610328565b600a54421061049f576040517f08c379a00000000000000000000000000000000000000000000000000000000081526004016104969061468e565b60405180910390fd5b6000600860009054906101000a900473ffffffffffffffffffffffffffffffffffffffff1673ffffffffffffffffffffffffffffffffffffffff166370a08231306040518263ffffffff1660e01b81526004016104fc91906144ba565b60206040518083038186803b15801561051457600080fd5b505afa158015610528573d6000803e3d6000fd5b505050506040513d601f19601f8201168201806040525081019061054c9190613fe0565b90506000821461068a57600860009054906101000a900473ffffffffffffffffffffffffffffffffffffffff1673ffffffffffffffffffffffffffffffffffffffff1663d0e30db0836040518263ffffffff1660e01b81526004016000604051808303818588803b1580156105c057600080fd5b505af11580156105d4573d6000803e3d6000fd5b5050505050600860009054906101000a900473ffffffffffffffffffffffffffffffffffffffff1673ffffffffffffffffffffffffffffffffffffffff1663a9059cbb30846040518363ffffffff1660e01b8152600401610636929190614588565b602060405180830381600087803b15801561065057600080fd5b505af1158015610664573d6000803e3d6000fd5b505050506040513d601f19601f820116820180604052508101906106889190613d77565b505b6000600860009054906101000a900473ffffffffffffffffffffffffffffffffffffffff1673ffffffffffffffffffffffffffffffffffffffff166370a08231306040518263ffffffff1660e01b81526004016106e791906144ba565b60206040518083038186803b1580156106ff57600080fd5b505afa158015610713573d6000803e3d6000fd5b505050506040513d601f19601f820116820180604052508101906107379190613fe0565b905061078061077b6040518060400160405280601581526020017f62616c616e6365206f662057455448206e6f773a20000000000000000000000081525083610e55565b610328565b82828203146107c4576040517f08c379a00000000000000000000000000000000000000000000000000000000081526004016107bb9061464e565b60405180910390fd5b600160003373ffffffffffffffffffffffffffffffffffffffff1673ffffffffffffffffffffffffffffffffffffffff16815260200190815260200160002060010160009054906101000a900460ff1661091a576002339080600181540180825580915050600190039060005260206000200160009091909190916101000a81548173ffffffffffffffffffffffffffffffffffffffff021916908373ffffffffffffffffffffffffffffffffffffffff16021790555060018060003373ffffffffffffffffffffffffffffffffffffffff1673ffffffffffffffffffffffffffffffffffffffff16815260200190815260200160002060010160006101000a81548160ff0219169083151502179055506109196040518060400160405280601381526020017f66756e646572732e6c656e677468203d202573000000000000000000000000008152506002805490506115e1565b5b34600160003373ffffffffffffffffffffffffffffffffffffffff1673ffffffffffffffffffffffffffffffffffffffff1681526020019081526020016000206000016000828254019250508190555034600b600082825401925050819055506109c36109be6040518060400160405280600c81526020017f66756e645261697365643a200000000000000000000000000000000000000000815250600b54610e55565b610328565b6000600360009054906101000a900473ffffffffffffffffffffffffffffffffffffffff1690508073ffffffffffffffffffffffffffffffffffffffff1663a9059cbb3365020566c4238e34026040518363ffffffff1660e01b8152600401610a2d9291906144d5565b602060405180830381600087803b158015610a4757600080fd5b505af1158015610a5b573d6000803e3d6000fd5b505050506040513d601f19601f82011682018060405250810190610a7f9190613d77565b5050505050565b600960009054906101000a900473ffffffffffffffffffffffffffffffffffffffff1673ffffffffffffffffffffffffffffffffffffffff163373ffffffffffffffffffffffffffffffffffffffff1614610b16576040517f08c379a0000000000000000000000000000000000000000000000000000000008152600401610b0d9061466e565b60405180910390fd5b600560009054906101000a900460ff1615610b66576040517f08c379a0000000000000000000000000000000000000000000000000000000008152600401610b5d906145ee565b60405180910390fd5b6001600560006101000a81548160ff021916908315150217905550610ba2604051806080016040528060428152602001614b12604291396116e8565b610be36040518060400160405280600e81526020017f66756e645261697365643a202573000000000000000000000000000000000000815250600b546115e1565b6000600360009054906101000a900473ffffffffffffffffffffffffffffffffffffffff16905060008173ffffffffffffffffffffffffffffffffffffffff166318160ddd6040518163ffffffff1660e01b815260040160206040518083038186803b158015610c5257600080fd5b505afa158015610c66573d6000803e3d6000fd5b505050506040513d601f19601f82011682018060405250810190610c8a9190613fe0565b9050600060646032830281610c9b57fe5b049050610cdd6040518060400160405280601e81526020017f616d6f756e74206f66204d494e4720746f2020756e69737761703a2025730000815250826115e1565b6000600b541415610dcd57610d266040518060400160405280601c81526020017f7a65726f207261697365642c206275726e20616c6c20746f6b656e73000000008152506116e8565b8273ffffffffffffffffffffffffffffffffffffffff1663a9059cbb734444444444444444444444444444444444444444836040518363ffffffff1660e01b8152600401610d759291906144d5565b602060405180830381600087803b158015610d8f57600080fd5b505af1158015610da3573d6000803e3d6000fd5b505050506040513d601f19601f82011682018060405250810190610dc79190613d77565b50610de3565b610dd6816117e6565b610de2600b5482611bef565b5b610e04604051806060016040528060408152602001614a87604091396116e8565b505050565b6000600160008373ffffffffffffffffffffffffffffffffffffffff1673ffffffffffffffffffffffffffffffffffffffff168152602001908152602001600020600001549050919050565b60608282604051602001610e6a929190614492565b604051602081830303815290604052905092915050565b60006020528060005260406000206000915090508060000160009054906101000a900473ffffffffffffffffffffffffffffffffffffffff16908060010160009054906101000a90046fffffffffffffffffffffffffffffffff16908060020160009054906101000a900473ffffffffffffffffffffffffffffffffffffffff16908060030160009054906101000a900473ffffffffffffffffffffffffffffffffffffffff16905084565b610f6b6040518060400160405280600e81526020017f63616c6c696e672066756e642829000000000000000000000000000000000000815250610328565b600034905060008111610fb3576040517f08c379a0000000000000000000000000000000000000000000000000000000008152600401610faa9061460e565b60405180910390fd5b610ffa610ff56040518060400160405280600d81526020017f4554482062616c616e63653a200000000000000000000000000000000000000081525083610e55565b610328565b600a54421061103e576040517f08c379a00000000000000000000000000000000000000000000000000000000081526004016110359061468e565b60405180910390fd5b6000600860009054906101000a900473ffffffffffffffffffffffffffffffffffffffff1673ffffffffffffffffffffffffffffffffffffffff166370a08231306040518263ffffffff1660e01b815260040161109b91906144ba565b60206040518083038186803b1580156110b357600080fd5b505afa1580156110c7573d6000803e3d6000fd5b505050506040513d601f19601f820116820180604052508101906110eb9190613fe0565b90506000821461122957600860009054906101000a900473ffffffffffffffffffffffffffffffffffffffff1673ffffffffffffffffffffffffffffffffffffffff1663d0e30db0836040518263ffffffff1660e01b81526004016000604051808303818588803b15801561115f57600080fd5b505af1158015611173573d6000803e3d6000fd5b5050505050600860009054906101000a900473ffffffffffffffffffffffffffffffffffffffff1673ffffffffffffffffffffffffffffffffffffffff1663a9059cbb30846040518363ffffffff1660e01b81526004016111d5929190614588565b602060405180830381600087803b1580156111ef57600080fd5b505af1158015611203573d6000803e3d6000fd5b505050506040513d601f19601f820116820180604052508101906112279190613d77565b505b6000600860009054906101000a900473ffffffffffffffffffffffffffffffffffffffff1673ffffffffffffffffffffffffffffffffffffffff166370a08231306040518263ffffffff1660e01b815260040161128691906144ba565b60206040518083038186803b15801561129e57600080fd5b505afa1580156112b2573d6000803e3d6000fd5b505050506040513d601f19601f820116820180604052508101906112d69190613fe0565b905061131f61131a6040518060400160405280601581526020017f62616c616e6365206f662057455448206e6f773a20000000000000000000000081525083610e55565b610328565b8282820314611363576040517f08c379a000000000000000000000000000000000000000000000000000000000815260040161135a9061464e565b60405180910390fd5b600160003373ffffffffffffffffffffffffffffffffffffffff1673ffffffffffffffffffffffffffffffffffffffff16815260200190815260200160002060010160009054906101000a900460ff166114b9576002339080600181540180825580915050600190039060005260206000200160009091909190916101000a81548173ffffffffffffffffffffffffffffffffffffffff021916908373ffffffffffffffffffffffffffffffffffffffff16021790555060018060003373ffffffffffffffffffffffffffffffffffffffff1673ffffffffffffffffffffffffffffffffffffffff16815260200190815260200160002060010160006101000a81548160ff0219169083151502179055506114b86040518060400160405280601381526020017f66756e646572732e6c656e677468203d202573000000000000000000000000008152506002805490506115e1565b5b34600160003373ffffffffffffffffffffffffffffffffffffffff1673ffffffffffffffffffffffffffffffffffffffff1681526020019081526020016000206000016000828254019250508190555034600b6000828254019250508190555061156261155d6040518060400160405280600c81526020017f66756e645261697365643a200000000000000000000000000000000000000000815250600b54610e55565b610328565b505050565b600047905090565b6000600160008373ffffffffffffffffffffffffffffffffffffffff1673ffffffffffffffffffffffffffffffffffffffff168152602001908152602001600020600001549050919050565b600960009054906101000a900473ffffffffffffffffffffffffffffffffffffffff1681565b6116e482826040516024018080602001838152602001828103825284818151815260200191508051906020019080838360005b8381101561162f578082015181840152602081019050611614565b50505050905090810190601f16801561165c5780820380516001836020036101000a031916815260200191505b5093505050506040516020818303038152906040527fb60e72cc000000000000000000000000000000000000000000000000000000007bffffffffffffffffffffffffffffffffffffffffffffffffffffffff19166020820180517bffffffffffffffffffffffffffffffffffffffffffffffffffffffff8381831617835250505050612364565b5050565b6117e3816040516024018080602001828103825283818151815260200191508051906020019080838360005b8381101561172f578082015181840152602081019050611714565b50505050905090810190601f16801561175c5780820380516001836020036101000a031916815260200191505b50925050506040516020818303038152906040527f41304fac000000000000000000000000000000000000000000000000000000007bffffffffffffffffffffffffffffffffffffffffffffffffffffffff19166020820180517bffffffffffffffffffffffffffffffffffffffffffffffffffffffff8381831617835250505050612364565b50565b6118076040518060800160405280604581526020016149b8604591396116e8565b6000600360009054906101000a900473ffffffffffffffffffffffffffffffffffffffff1690506000600860009054906101000a900473ffffffffffffffffffffffffffffffffffffffff1673ffffffffffffffffffffffffffffffffffffffff166370a08231306040518263ffffffff1660e01b815260040161188b91906144ba565b60206040518083038186803b1580156118a357600080fd5b505afa1580156118b7573d6000803e3d6000fd5b505050506040513d601f19601f820116820180604052508101906118db9190613fe0565b905061191c6040518060400160405280601381526020017f62616c616e6365206f6620574554483a20257300000000000000000000000000815250826115e1565b600060028054806020026020016040519081016040528092919081815260200182805480156119a057602002820191906000526020600020905b8160009054906101000a900473ffffffffffffffffffffffffffffffffffffffff1673ffffffffffffffffffffffffffffffffffffffff1681526020019060010190808311611956575b505050505090506119e76040518060400160405280601981526020017f63757272656e7446756e646572732e6c656e6774683a2025730000000000000081525082516115e1565b60005b8151811015611bc7576000828281518110611a0157fe5b602002602001015190506000600160008373ffffffffffffffffffffffffffffffffffffffff1673ffffffffffffffffffffffffffffffffffffffff16815260200190815260200160002060000154905060008582890281611a5f57fe5b0490508673ffffffffffffffffffffffffffffffffffffffff1663a9059cbb84836040518363ffffffff1660e01b8152600401611a9d929190614588565b602060405180830381600087803b158015611ab757600080fd5b505af1158015611acb573d6000803e3d6000fd5b505050506040513d601f19601f82011682018060405250810190611aef9190613d77565b50611bb76040518060400160405280601581526020017f62616c616e6365206f662066756e6465723a20257300000000000000000000008152508873ffffffffffffffffffffffffffffffffffffffff166370a08231866040518263ffffffff1660e01b8152600401611b6291906144ba565b60206040518083038186803b158015611b7a57600080fd5b505afa158015611b8e573d6000803e3d6000fd5b505050506040513d601f19601f82011682018060405250810190611bb29190613fe0565b6115e1565b50505080806001019150506119ea565b50611be9604051806080016040528060438152602001614a44604391396116e8565b50505050565b6000600454141561236057600360009054906101000a900473ffffffffffffffffffffffffffffffffffffffff1673ffffffffffffffffffffffffffffffffffffffff1673b4fbf271143f4fbf7b91a5ded31805e42b2208d673ffffffffffffffffffffffffffffffffffffffff161015611f1757611ca26040518060400160405280600981526020017f696e697420706f6f6c00000000000000000000000000000000000000000000008152506116e8565b6000611cc4600d548381611cb257fe5b04600d548581611cbe57fe5b0461237e565b90506000600560019054906101000a900473ffffffffffffffffffffffffffffffffffffffff1673ffffffffffffffffffffffffffffffffffffffff166313ead56273b4fbf271143f4fbf7b91a5ded31805e42b2208d6600360009054906101000a900473ffffffffffffffffffffffffffffffffffffffff16610bb8866040518563ffffffff1660e01b8152600401611d6194939291906144fe565b602060405180830381600087803b158015611d7b57600080fd5b505af1158015611d8f573d6000803e3d6000fd5b505050506040513d601f19601f82011682018060405250810190611db39190613cce565b905080600760006101000a81548173ffffffffffffffffffffffffffffffffffffffff021916908373ffffffffffffffffffffffffffffffffffffffff160217905550600760009054906101000a900473ffffffffffffffffffffffffffffffffffffffff1673ffffffffffffffffffffffffffffffffffffffff1663d0c93a7c6040518163ffffffff1660e01b815260040160206040518083038186803b158015611e5e57600080fd5b505afa158015611e72573d6000803e3d6000fd5b505050506040513d601f19601f82011682018060405250810190611e969190613da0565b600760146101000a81548162ffffff021916908360020b62ffffff1602179055506000611ed9600d548681611ec757fe5b04600d548681611ed357fe5b046123ab565b505050905080600481905550611f0c600454600d548781611ef657fe5b048703600d548781611f0457fe5b048703613208565b5050505050506121c6565b611f556040518060400160405280601281526020017f696e697420706f6f6c20726576657273656400000000000000000000000000008152506116e8565b6000611f77600d548481611f6557fe5b04600d548481611f7157fe5b0461237e565b90506000600560019054906101000a900473ffffffffffffffffffffffffffffffffffffffff1673ffffffffffffffffffffffffffffffffffffffff166313ead562600360009054906101000a900473ffffffffffffffffffffffffffffffffffffffff1673b4fbf271143f4fbf7b91a5ded31805e42b2208d6610bb8866040518563ffffffff1660e01b815260040161201494939291906144fe565b602060405180830381600087803b15801561202e57600080fd5b505af1158015612042573d6000803e3d6000fd5b505050506040513d601f19601f820116820180604052508101906120669190613cce565b905080600760006101000a81548173ffffffffffffffffffffffffffffffffffffffff021916908373ffffffffffffffffffffffffffffffffffffffff160217905550600760009054906101000a900473ffffffffffffffffffffffffffffffffffffffff1673ffffffffffffffffffffffffffffffffffffffff1663d0c93a7c6040518163ffffffff1660e01b815260040160206040518083038186803b15801561211157600080fd5b505afa158015612125573d6000803e3d6000fd5b505050506040513d601f19601f820116820180604052508101906121499190613da0565b600760146101000a81548162ffffff021916908360020b62ffffff160217905550600061218c600d54858161217a57fe5b04600d54878161218657fe5b046123ab565b5050509050806004819055506121bf600454600d5486816121a957fe5b048603600d5488816121b757fe5b048803613208565b5050505050505b6123446040518060400160405280602081526020017f746f6b656e303a202573202d3e20746f6b656e313a2025732c207469636b3a20815250600760009054906101000a900473ffffffffffffffffffffffffffffffffffffffff1673ffffffffffffffffffffffffffffffffffffffff16630dfe16816040518163ffffffff1660e01b815260040160206040518083038186803b15801561226757600080fd5b505afa15801561227b573d6000803e3d6000fd5b505050506040513d601f19601f8201168201806040525081019061229f9190613cce565b600760009054906101000a900473ffffffffffffffffffffffffffffffffffffffff1673ffffffffffffffffffffffffffffffffffffffff1663d21220a76040518163ffffffff1660e01b815260040160206040518083038186803b15801561230757600080fd5b505afa15801561231b573d6000803e3d6000fd5b505050506040513d601f19601f8201168201806040525081019061233f9190613cce565b6134fe565b61235f600760149054906101000a900460020b60020b61363a565b5b5050565b61237b816123736136d36136f4565b63ffffffff16565b50565b60006123a3826c01000000000000000000000000808602028161239d57fe5b046136ff565b905092915050565b600080600080612622604051806060016040528060218152602001614a2360219139600760009054906101000a900473ffffffffffffffffffffffffffffffffffffffff1673ffffffffffffffffffffffffffffffffffffffff16630dfe16816040518163ffffffff1660e01b815260040160206040518083038186803b15801561243557600080fd5b505afa158015612449573d6000803e3d6000fd5b505050506040513d601f19601f8201168201806040525081019061246d9190613cce565b73ffffffffffffffffffffffffffffffffffffffff166370a08231306040518263ffffffff1660e01b81526004016124a591906144ba565b60206040518083038186803b1580156124bd57600080fd5b505afa1580156124d1573d6000803e3d6000fd5b505050506040513d601f19601f820116820180604052508101906124f59190613fe0565b600760009054906101000a900473ffffffffffffffffffffffffffffffffffffffff1673ffffffffffffffffffffffffffffffffffffffff1663d21220a76040518163ffffffff1660e01b815260040160206040518083038186803b15801561255d57600080fd5b505afa158015612571573d6000803e3d6000fd5b505050506040513d601f19601f820116820180604052508101906125959190613cce565b73ffffffffffffffffffffffffffffffffffffffff166370a08231306040518263ffffffff1660e01b81526004016125cd91906144ba565b60206040518083038186803b1580156125e557600080fd5b505afa1580156125f9573d6000803e3d6000fd5b505050506040513d601f19601f8201168201806040525081019061261d9190613fe0565b61380e565b612645604051806060016040528060268152602001614aec60269139878761380e565b600760009054906101000a900473ffffffffffffffffffffffffffffffffffffffff1673ffffffffffffffffffffffffffffffffffffffff16630dfe16816040518163ffffffff1660e01b815260040160206040518083038186803b1580156126ad57600080fd5b505afa1580156126c1573d6000803e3d6000fd5b505050506040513d601f19601f820116820180604052508101906126e59190613cce565b73ffffffffffffffffffffffffffffffffffffffff1663095ea7b3600560019054906101000a900473ffffffffffffffffffffffffffffffffffffffff16886040518363ffffffff1660e01b8152600401612741929190614588565b602060405180830381600087803b15801561275b57600080fd5b505af115801561276f573d6000803e3d6000fd5b505050506040513d601f19601f820116820180604052508101906127939190613d77565b50600760009054906101000a900473ffffffffffffffffffffffffffffffffffffffff1673ffffffffffffffffffffffffffffffffffffffff1663d21220a76040518163ffffffff1660e01b815260040160206040518083038186803b1580156127fc57600080fd5b505afa158015612810573d6000803e3d6000fd5b505050506040513d601f19601f820116820180604052508101906128349190613cce565b73ffffffffffffffffffffffffffffffffffffffff1663095ea7b3600560019054906101000a900473ffffffffffffffffffffffffffffffffffffffff16876040518363ffffffff1660e01b8152600401612890929190614588565b602060405180830381600087803b1580156128aa57600080fd5b505af11580156128be573d6000803e3d6000fd5b505050506040513d601f19601f820116820180604052508101906128e29190613d77565b506000600760009054906101000a900473ffffffffffffffffffffffffffffffffffffffff1673ffffffffffffffffffffffffffffffffffffffff16633850c7bd6040518163ffffffff1660e01b815260040160e06040518083038186803b15801561294d57600080fd5b505afa158015612961573d6000803e3d6000fd5b505050506040513d601f19601f820116820180604052508101906129859190613f19565b50505050509150506129cb6040518060400160405280600e81526020017f63757272656e74207469636b3a200000000000000000000000000000000000008152506116e8565b6129d78160020b61363a565b600760149054906101000a900460020b60020b8160020b816129f557fe5b07810390506000600c60009054906101000a900460020b600760149054906101000a900460020b02820390506000600c60009054906101000a900460020b600760149054906101000a900460020b02830190506000600760149054906101000a900460020b60020b8460020b81612a6857fe5b0760020b14612aac576040517f08c379a0000000000000000000000000000000000000000000000000000000008152600401612aa39061462e565b60405180910390fd5b612aea6040518060400160405280601181526020017f6c6f7765722a7570706572207469636b200000000000000000000000000000008152506116e8565b612af68260020b61363a565b612b028160020b61363a565b6000604051806101600160405280600760009054906101000a900473ffffffffffffffffffffffffffffffffffffffff1673ffffffffffffffffffffffffffffffffffffffff16630dfe16816040518163ffffffff1660e01b815260040160206040518083038186803b158015612b7857600080fd5b505afa158015612b8c573d6000803e3d6000fd5b505050506040513d601f19601f82011682018060405250810190612bb09190613cce565b73ffffffffffffffffffffffffffffffffffffffff168152602001600760009054906101000a900473ffffffffffffffffffffffffffffffffffffffff1673ffffffffffffffffffffffffffffffffffffffff1663d21220a76040518163ffffffff1660e01b815260040160206040518083038186803b158015612c3357600080fd5b505afa158015612c47573d6000803e3d6000fd5b505050506040513d601f19601f82011682018060405250810190612c6b9190613cce565b73ffffffffffffffffffffffffffffffffffffffff168152602001610bb862ffffff1681526020018460020b81526020018360020b81526020018b81526020018a815260200160008152602001600081526020013073ffffffffffffffffffffffffffffffffffffffff168152602001428152509050600560019054906101000a900473ffffffffffffffffffffffffffffffffffffffff1673ffffffffffffffffffffffffffffffffffffffff166388316456826040518263ffffffff1660e01b8152600401612d3c91906146c9565b608060405180830381600087803b158015612d5657600080fd5b505af1158015612d6a573d6000803e3d6000fd5b505050506040513d601f19601f82011682018060405250810190612d8e9190614009565b809850819950829a50839b5050505050612dde6040518060400160405280601b81526020017f6e657720706f736974696f6e206d696e7465643a2025732c2025730000000000815250878761380e565b89861015612eb457612eb3600760009054906101000a900473ffffffffffffffffffffffffffffffffffffffff1673ffffffffffffffffffffffffffffffffffffffff16630dfe16816040518163ffffffff1660e01b815260040160206040518083038186803b158015612e5157600080fd5b505afa158015612e65573d6000803e3d6000fd5b505050506040513d601f19601f82011682018060405250810190612e899190613cce565b600560019054906101000a900473ffffffffffffffffffffffffffffffffffffffff16600061391e565b5b88851015612f8a57612f89600760009054906101000a900473ffffffffffffffffffffffffffffffffffffffff1673ffffffffffffffffffffffffffffffffffffffff1663d21220a76040518163ffffffff1660e01b815260040160206040518083038186803b158015612f2757600080fd5b505afa158015612f3b573d6000803e3d6000fd5b505050506040513d601f19601f82011682018060405250810190612f5f9190613cce565b600560019054906101000a900473ffffffffffffffffffffffffffffffffffffffff16600061391e565b5b6131fb604051806060016040528060258152602001614ac760259139600760009054906101000a900473ffffffffffffffffffffffffffffffffffffffff1673ffffffffffffffffffffffffffffffffffffffff16630dfe16816040518163ffffffff1660e01b815260040160206040518083038186803b15801561300e57600080fd5b505afa158015613022573d6000803e3d6000fd5b505050506040513d601f19601f820116820180604052508101906130469190613cce565b73ffffffffffffffffffffffffffffffffffffffff166370a08231306040518263ffffffff1660e01b815260040161307e91906144ba565b60206040518083038186803b15801561309657600080fd5b505afa1580156130aa573d6000803e3d6000fd5b505050506040513d601f19601f820116820180604052508101906130ce9190613fe0565b600760009054906101000a900473ffffffffffffffffffffffffffffffffffffffff1673ffffffffffffffffffffffffffffffffffffffff1663d21220a76040518163ffffffff1660e01b815260040160206040518083038186803b15801561313657600080fd5b505afa15801561314a573d6000803e3d6000fd5b505050506040513d601f19601f8201168201806040525081019061316e9190613cce565b73ffffffffffffffffffffffffffffffffffffffff166370a08231306040518263ffffffff1660e01b81526004016131a691906144ba565b60206040518083038186803b1580156131be57600080fd5b505afa1580156131d2573d6000803e3d6000fd5b505050506040513d601f19601f820116820180604052508101906131f69190613fe0565b61380e565b5050505092959194509250565b60008060006132d9600760009054906101000a900473ffffffffffffffffffffffffffffffffffffffff1673ffffffffffffffffffffffffffffffffffffffff16630dfe16816040518163ffffffff1660e01b815260040160206040518083038186803b15801561327857600080fd5b505afa15801561328c573d6000803e3d6000fd5b505050506040513d601f19601f820116820180604052508101906132b09190613cce565b600560019054906101000a900473ffffffffffffffffffffffffffffffffffffffff168761391e565b6133a5600760009054906101000a900473ffffffffffffffffffffffffffffffffffffffff1673ffffffffffffffffffffffffffffffffffffffff1663d21220a76040518163ffffffff1660e01b815260040160206040518083038186803b15801561334457600080fd5b505afa158015613358573d6000803e3d6000fd5b505050506040513d601f19601f8201168201806040525081019061337c9190613cce565b600560019054906101000a900473ffffffffffffffffffffffffffffffffffffffff168661391e565b6133c86040518060600160405280602681526020016149fd60269139868661380e565b60006040518060c001604052808881526020018781526020018681526020016000815260200160008152602001428152509050600560019054906101000a900473ffffffffffffffffffffffffffffffffffffffff1673ffffffffffffffffffffffffffffffffffffffff1663219f5d17826040518263ffffffff1660e01b815260040161345691906146ae565b606060405180830381600087803b15801561347057600080fd5b505af1158015613484573d6000803e3d6000fd5b505050506040513d601f19601f820116820180604052508101906134a89190613eca565b8094508195508296505050506134f46040518060400160405280601881526020017f61637475616c20616d6f756e74733a202573202d3e2025730000000000000000815250848461380e565b5093509350939050565b61363583838360405160240180806020018473ffffffffffffffffffffffffffffffffffffffff1681526020018373ffffffffffffffffffffffffffffffffffffffff168152602001828103825285818151815260200191508051906020019080838360005b8381101561357f578082015181840152602081019050613564565b50505050905090810190601f1680156135ac5780820380516001836020036101000a031916815260200191505b509450505050506040516020818303038152906040527ffcec75e0000000000000000000000000000000000000000000000000000000007bffffffffffffffffffffffffffffffffffffffffffffffffffffffff19166020820180517bffffffffffffffffffffffffffffffffffffffffffffffffffffffff8381831617835250505050612364565b505050565b6136d081604051602401808281526020019150506040516020818303038152906040527f2d5b6cb9000000000000000000000000000000000000000000000000000000007bffffffffffffffffffffffffffffffffffffffffffffffffffffffff19166020820180517bffffffffffffffffffffffffffffffffffffffffffffffffffffffff8381831617835250505050612364565b50565b60006a636f6e736f6c652e6c6f679050600080835160208501845afa505050565b613b1f819050919050565b60006001905081700100000000000000000000000000000000811061372b578060801c90508160401b91505b680100000000000000008110613748578060401c90508160201b91505b6401000000008110613761578060201c90508160101b91505b620100008110613778578060101c90508160081b91505b610100811061378e578060081c90508160041b91505b601081106137a3578060041c90508160021b91505b600881106137b2578160011b91505b818304820160011c9150818304820160011c9150818304820160011c9150818304820160011c9150818304820160011c9150818304820160011c9150818304820160011c915081830482811015613807578092505b5050919050565b6139198383836040516024018080602001848152602001838152602001828103825285818151815260200191508051906020019080838360005b83811015613863578082015181840152602081019050613848565b50505050905090810190601f1680156138905780820380516001836020036101000a031916815260200191505b509450505050506040516020818303038152906040527fca47c4eb000000000000000000000000000000000000000000000000000000007bffffffffffffffffffffffffffffffffffffffffffffffffffffffff19166020820180517bffffffffffffffffffffffffffffffffffffffffffffffffffffffff8381831617835250505050612364565b505050565b6000808473ffffffffffffffffffffffffffffffffffffffff1663095ea7b360e01b8585604051602401808373ffffffffffffffffffffffffffffffffffffffff16815260200182815260200192505050604051602081830303815290604052907bffffffffffffffffffffffffffffffffffffffffffffffffffffffff19166020820180517bffffffffffffffffffffffffffffffffffffffffffffffffffffffff83818316178352505050506040518082805190602001908083835b602083106139ff57805182526020820191506020810190506020830392506139dc565b6001836020036101000a0380198251168184511680821785525050505050509050019150506000604051808303816000865af19150503d8060008114613a61576040519150601f19603f3d011682016040523d82523d6000602084013e613a66565b606091505b5091509150818015613aa65750600081511480613aa55750808060200190516020811015613a9357600080fd5b81019080805190602001909291905050505b5b613b18576040517f08c379a00000000000000000000000000000000000000000000000000000000081526004018080602001828103825260028152602001807f534100000000000000000000000000000000000000000000000000000000000081525060200191505060405180910390fd5b5050505050565bfe5b6000613b34613b2f8461474c565b61471b565b905082815260208101848484011115613b4c57600080fd5b613b578482856148a0565b509392505050565b600081359050613b6e816148ff565b92915050565b600081519050613b83816148ff565b92915050565b600081519050613b9881614916565b92915050565b60008083601f840112613bb057600080fd5b8235905067ffffffffffffffff811115613bc957600080fd5b602083019150836001820283011115613be157600080fd5b9250929050565b600081519050613bf78161492d565b92915050565b600082601f830112613c0e57600080fd5b8135613c1e848260208601613b21565b91505092915050565b600081519050613c3681614944565b92915050565b600081519050613c4b81614972565b92915050565b600081519050613c608161495b565b92915050565b600081359050613c7581614989565b92915050565b600081519050613c8a81614989565b92915050565b600081519050613c9f816149a0565b92915050565b600060208284031215613cb757600080fd5b6000613cc584828501613b5f565b91505092915050565b600060208284031215613ce057600080fd5b6000613cee84828501613b74565b91505092915050565b600080600080600060808688031215613d0f57600080fd5b6000613d1d88828901613b5f565b9550506020613d2e88828901613b5f565b9450506040613d3f88828901613c66565b935050606086013567ffffffffffffffff811115613d5c57600080fd5b613d6888828901613b9e565b92509250509295509295909350565b600060208284031215613d8957600080fd5b6000613d9784828501613b89565b91505092915050565b600060208284031215613db257600080fd5b6000613dc084828501613be8565b91505092915050565b600060208284031215613ddb57600080fd5b600082013567ffffffffffffffff811115613df557600080fd5b613e0184828501613bfd565b91505092915050565b60008060408385031215613e1d57600080fd5b600083013567ffffffffffffffff811115613e3757600080fd5b613e4385828601613bfd565b925050602083013567ffffffffffffffff811115613e6057600080fd5b613e6c85828601613bfd565b9150509250929050565b60008060408385031215613e8957600080fd5b600083013567ffffffffffffffff811115613ea357600080fd5b613eaf85828601613bfd565b9250506020613ec085828601613c66565b9150509250929050565b600080600060608486031215613edf57600080fd5b6000613eed86828701613c27565b9350506020613efe86828701613c7b565b9250506040613f0f86828701613c7b565b9150509250925092565b600080600080600080600060e0888a031215613f3457600080fd5b6000613f428a828b01613c3c565b9750506020613f538a828b01613be8565b9650506040613f648a828b01613c51565b9550506060613f758a828b01613c51565b9450506080613f868a828b01613c51565b93505060a0613f978a828b01613c90565b92505060c0613fa88a828b01613b89565b91505092959891949750929550565b600060208284031215613fc957600080fd5b6000613fd784828501613c66565b91505092915050565b600060208284031215613ff257600080fd5b600061400084828501613c7b565b91505092915050565b6000806000806080858703121561401f57600080fd5b600061402d87828801613c7b565b945050602061403e87828801613c27565b935050604061404f87828801613c7b565b925050606061406087828801613c7b565b91505092959194509250565b6140758161486a565b82525050565b614084816147a3565b82525050565b614093816147a3565b82525050565b6140a2816147c1565b82525050565b6140b1816147ed565b82525050565b60006140c28261477c565b6140cc8185614787565b93506140dc8185602086016148af565b6140e5816148ee565b840191505092915050565b60006140fb8261477c565b6141058185614798565b93506141158185602086016148af565b80840191505092915050565b600061412e601d83614787565b91507f46756e64696e67206f76657220686173206265656e2063616c6c65642e0000006000830152602082019050919050565b600061416e601083614787565b91507f66756e64206d757374203e207a65726f000000000000000000000000000000006000830152602082019050919050565b60006141ae600a83614787565b91507f7469636b206572726f72000000000000000000000000000000000000000000006000830152602082019050919050565b60006141ee601683614787565b91507f457468657265756d206e6f74206465706f7369746564000000000000000000006000830152602082019050919050565b600061422e600983614787565b91507f6e6f74206f776e657200000000000000000000000000000000000000000000006000830152602082019050919050565b600061426e601183614787565b91507f66756e64696e672068617320656e6465640000000000000000000000000000006000830152602082019050919050565b60c0820160008201516142b76000850182614439565b5060208201516142ca6020850182614439565b5060408201516142dd6040850182614439565b5060608201516142f06060850182614439565b5060808201516143036080850182614439565b5060a082015161431660a0850182614439565b50505050565b61016082016000820151614333600085018261407b565b506020820151614346602085018261407b565b506040820151614359604085018261441b565b50606082015161436c60608501826140a8565b50608082015161437f60808501826140a8565b5060a082015161439260a0850182614439565b5060c08201516143a560c0850182614439565b5060e08201516143b860e0850182614439565b506101008201516143cd610100850182614439565b506101208201516143e261012085018261407b565b506101408201516143f7610140850182614439565b50505050565b614406816147fa565b82525050565b61441581614824565b82525050565b61442481614844565b82525050565b61443381614844565b82525050565b61444281614853565b82525050565b61445181614853565b82525050565b61446861446382614853565b6148e2565b82525050565b600061447a82856140f0565b915061448682846140f0565b91508190509392505050565b600061449e82856140f0565b91506144aa8284614457565b6020820191508190509392505050565b60006020820190506144cf600083018461408a565b92915050565b60006040820190506144ea600083018561406c565b6144f76020830184614448565b9392505050565b6000608082019050614513600083018761408a565b614520602083018661408a565b61452d604083018561442a565b61453a606083018461440c565b95945050505050565b6000608082019050614558600083018761408a565b61456560208301866143fd565b614572604083018561408a565b61457f606083018461408a565b95945050505050565b600060408201905061459d600083018561408a565b6145aa6020830184614448565b9392505050565b60006020820190506145c66000830184614099565b92915050565b600060208201905081810360008301526145e681846140b7565b905092915050565b6000602082019050818103600083015261460781614121565b9050919050565b6000602082019050818103600083015261462781614161565b9050919050565b60006020820190508181036000830152614647816141a1565b9050919050565b60006020820190508181036000830152614667816141e1565b9050919050565b6000602082019050818103600083015261468781614221565b9050919050565b600060208201905081810360008301526146a781614261565b9050919050565b600060c0820190506146c360008301846142a1565b92915050565b6000610160820190506146df600083018461431c565b92915050565b60006020820190506146fa600083018461442a565b92915050565b60006020820190506147156000830184614448565b92915050565b6000604051905081810181811067ffffffffffffffff82111715614742576147416148ec565b5b8060405250919050565b600067ffffffffffffffff821115614767576147666148ec565b5b601f19601f8301169050602081019050919050565b600081519050919050565b600082825260208201905092915050565b600081905092915050565b60006147ae82614824565b9050919050565b60008115159050919050565b60007fffffffff0000000000000000000000000000000000000000000000000000000082169050919050565b60008160020b9050919050565b60006fffffffffffffffffffffffffffffffff82169050919050565b600061ffff82169050919050565b600073ffffffffffffffffffffffffffffffffffffffff82169050919050565b600062ffffff82169050919050565b6000819050919050565b600060ff82169050919050565b60006148758261487c565b9050919050565b60006148878261488e565b9050919050565b600061489982614824565b9050919050565b82818337600083830152505050565b60005b838110156148cd5780820151818401526020810190506148b2565b838111156148dc576000848401525b50505050565b6000819050919050565bfe5b6000601f19601f8301169050919050565b614908816147a3565b811461491357600080fd5b50565b61491f816147b5565b811461492a57600080fd5b50565b614936816147ed565b811461494157600080fd5b50565b61494d816147fa565b811461495857600080fd5b50565b61496481614816565b811461496f57600080fd5b50565b61497b81614824565b811461498657600080fd5b50565b61499281614853565b811461499d57600080fd5b50565b6149a98161485d565b81146149b457600080fd5b5056fe2d2d2d2d2d2d2d2d2d2d2d2d20626567696e206f6620636f6e7472616374206d6574686f642073656e644d696e67546f46756e6465722829202d2d2d2d2d2d2d2d2d2d2d2d616d6f756e7420746f20696e637265617365206c69717569646974793a202573202d3e20257362616c616e6365206f662045544820616e64204d494e47202d3e2025732c2025732d2d2d2d2d2d2d2d2d2d2d2d20656e64206f6620636f6e7472616374206d6574686f642073656e644d696e67546f46756e6465722829202d2d2d2d2d2d2d2d2d2d2d2d2d2d2d2d2d2d2d2d2d2d2d2d20656e64206f6620636f6e7472616374206d6574686f64206f6e46756e64696e674f7665722829202d2d2d2d2d2d2d2d2d2d2d2d6e65772062616c616e6365206f662045544820616e64204d494e47202d3e2025732c202573616d6f756e7420746f206d696e74206e657720706f736974696f6e20202d3e2025732c2025732d2d2d2d2d2d2d2d2d2d2d2d20626567696e206f6620636f6e7472616374206d6574686f64206f6e46756e64696e674f7665722829202d2d2d2d2d2d2d2d2d2d2d2da26469706673582212205dccabc11f01aaf682f3ede6c2518953b5c2dd54b626ec521571e58937b0483164736f6c63430007060033",
  "devdoc": {
    "kind": "dev",
    "methods": {},
    "stateVariables": {
      "deposits": {
        "details": "deposits[tokenId] => Deposit"
      }
    },
    "version": 1
  },
  "userdoc": {
    "kind": "user",
    "methods": {},
    "version": 1
  },
  "storageLayout": {
    "storage": [
      {
        "astId": 2716,
        "contract": "contracts/Funding.sol:Funding",
        "label": "deposits",
        "offset": 0,
        "slot": "0",
        "type": "t_mapping(t_uint256,t_struct(Deposit)2708_storage)"
      },
      {
        "astId": 2720,
        "contract": "contracts/Funding.sol:Funding",
        "label": "addressToAmountFunded",
        "offset": 0,
        "slot": "1",
        "type": "t_mapping(t_address,t_struct(Funds)2699_storage)"
      },
      {
        "astId": 2723,
        "contract": "contracts/Funding.sol:Funding",
        "label": "funders",
        "offset": 0,
        "slot": "2",
        "type": "t_array(t_address)dyn_storage"
      },
      {
        "astId": 2725,
        "contract": "contracts/Funding.sol:Funding",
        "label": "addressOfMing",
        "offset": 0,
        "slot": "3",
        "type": "t_address"
      },
      {
        "astId": 2728,
        "contract": "contracts/Funding.sol:Funding",
        "label": "tokenId",
        "offset": 0,
        "slot": "4",
        "type": "t_uint256"
      },
      {
        "astId": 2731,
        "contract": "contracts/Funding.sol:Funding",
        "label": "fundingIsOver",
        "offset": 0,
        "slot": "5",
        "type": "t_bool"
      },
      {
        "astId": 2737,
        "contract": "contracts/Funding.sol:Funding",
        "label": "nonfungiblePositionManager",
        "offset": 1,
        "slot": "5",
        "type": "t_contract(INonfungiblePositionManager)1731"
      },
      {
        "astId": 2743,
        "contract": "contracts/Funding.sol:Funding",
        "label": "v3Factory",
        "offset": 0,
        "slot": "6",
        "type": "t_contract(IUniswapV3Factory)387"
      },
      {
        "astId": 2745,
        "contract": "contracts/Funding.sol:Funding",
        "label": "pool",
        "offset": 0,
        "slot": "7",
        "type": "t_contract(IUniswapV3Pool)409"
      },
      {
        "astId": 2750,
        "contract": "contracts/Funding.sol:Funding",
        "label": "tickSpacing",
        "offset": 20,
        "slot": "7",
        "type": "t_int24"
      },
      {
        "astId": 2752,
        "contract": "contracts/Funding.sol:Funding",
        "label": "weth",
        "offset": 0,
        "slot": "8",
        "type": "t_contract(IWETH)2678"
      },
      {
        "astId": 2754,
        "contract": "contracts/Funding.sol:Funding",
        "label": "i_owner",
        "offset": 0,
        "slot": "9",
        "type": "t_address"
      },
      {
        "astId": 2756,
        "contract": "contracts/Funding.sol:Funding",
        "label": "endTime",
        "offset": 0,
        "slot": "10",
        "type": "t_uint256"
      },
      {
        "astId": 2758,
        "contract": "contracts/Funding.sol:Funding",
        "label": "fundRaised",
        "offset": 0,
        "slot": "11",
        "type": "t_uint256"
      },
      {
        "astId": 2761,
        "contract": "contracts/Funding.sol:Funding",
        "label": "TICK_SPACING_MULTIPLIER",
        "offset": 0,
        "slot": "12",
        "type": "t_int24"
      },
      {
        "astId": 2764,
        "contract": "contracts/Funding.sol:Funding",
        "label": "DIVIDER",
        "offset": 0,
        "slot": "13",
        "type": "t_uint256"
      }
    ],
    "types": {
      "t_address": {
        "encoding": "inplace",
        "label": "address",
        "numberOfBytes": "20"
      },
      "t_array(t_address)dyn_storage": {
        "base": "t_address",
        "encoding": "dynamic_array",
        "label": "address[]",
        "numberOfBytes": "32"
      },
      "t_bool": {
        "encoding": "inplace",
        "label": "bool",
        "numberOfBytes": "1"
      },
      "t_contract(INonfungiblePositionManager)1731": {
        "encoding": "inplace",
        "label": "contract INonfungiblePositionManager",
        "numberOfBytes": "20"
      },
      "t_contract(IUniswapV3Factory)387": {
        "encoding": "inplace",
        "label": "contract IUniswapV3Factory",
        "numberOfBytes": "20"
      },
      "t_contract(IUniswapV3Pool)409": {
        "encoding": "inplace",
        "label": "contract IUniswapV3Pool",
        "numberOfBytes": "20"
      },
      "t_contract(IWETH)2678": {
        "encoding": "inplace",
        "label": "contract IWETH",
        "numberOfBytes": "20"
      },
      "t_int24": {
        "encoding": "inplace",
        "label": "int24",
        "numberOfBytes": "3"
      },
      "t_mapping(t_address,t_struct(Funds)2699_storage)": {
        "encoding": "mapping",
        "key": "t_address",
        "label": "mapping(address => struct Funding.Funds)",
        "numberOfBytes": "32",
        "value": "t_struct(Funds)2699_storage"
      },
      "t_mapping(t_uint256,t_struct(Deposit)2708_storage)": {
        "encoding": "mapping",
        "key": "t_uint256",
        "label": "mapping(uint256 => struct Funding.Deposit)",
        "numberOfBytes": "32",
        "value": "t_struct(Deposit)2708_storage"
      },
      "t_struct(Deposit)2708_storage": {
        "encoding": "inplace",
        "label": "struct Funding.Deposit",
        "members": [
          {
            "astId": 2701,
            "contract": "contracts/Funding.sol:Funding",
            "label": "owner",
            "offset": 0,
            "slot": "0",
            "type": "t_address"
          },
          {
            "astId": 2703,
            "contract": "contracts/Funding.sol:Funding",
            "label": "liquidity",
            "offset": 0,
            "slot": "1",
            "type": "t_uint128"
          },
          {
            "astId": 2705,
            "contract": "contracts/Funding.sol:Funding",
            "label": "token0",
            "offset": 0,
            "slot": "2",
            "type": "t_address"
          },
          {
            "astId": 2707,
            "contract": "contracts/Funding.sol:Funding",
            "label": "token1",
            "offset": 0,
            "slot": "3",
            "type": "t_address"
          }
        ],
        "numberOfBytes": "128"
      },
      "t_struct(Funds)2699_storage": {
        "encoding": "inplace",
        "label": "struct Funding.Funds",
        "members": [
          {
            "astId": 2696,
            "contract": "contracts/Funding.sol:Funding",
            "label": "amount",
            "offset": 0,
            "slot": "0",
            "type": "t_uint256"
          },
          {
            "astId": 2698,
            "contract": "contracts/Funding.sol:Funding",
            "label": "exists",
            "offset": 0,
            "slot": "1",
            "type": "t_bool"
          }
        ],
        "numberOfBytes": "64"
      },
      "t_uint128": {
        "encoding": "inplace",
        "label": "uint128",
        "numberOfBytes": "16"
      },
      "t_uint256": {
        "encoding": "inplace",
        "label": "uint256",
        "numberOfBytes": "32"
      }
    }
  }
}