{
  "address": "0xF8C8EFa6d2c950808843F87a2B295FBa6b46b948",
  "abi": [
    {
      "inputs": [],
      "stateMutability": "nonpayable",
      "type": "constructor"
    },
    {
      "anonymous": false,
      "inputs": [
        {
          "indexed": true,
          "internalType": "address",
          "name": "owner",
          "type": "address"
        },
        {
          "indexed": true,
          "internalType": "address",
          "name": "spender",
          "type": "address"
        },
        {
          "indexed": false,
          "internalType": "uint256",
          "name": "value",
          "type": "uint256"
        }
      ],
      "name": "Approval",
      "type": "event"
    },
    {
      "anonymous": false,
      "inputs": [
        {
          "indexed": true,
          "internalType": "address",
          "name": "from",
          "type": "address"
        },
        {
          "indexed": true,
          "internalType": "address",
          "name": "to",
          "type": "address"
        },
        {
          "indexed": false,
          "internalType": "uint256",
          "name": "value",
          "type": "uint256"
        }
      ],
      "name": "Transfer",
      "type": "event"
    },
    {
      "inputs": [
        {
          "internalType": "address",
          "name": "_addr",
          "type": "address"
        }
      ],
      "name": "addressToKeccak256Hash",
      "outputs": [
        {
          "internalType": "bytes32",
          "name": "",
          "type": "bytes32"
        }
      ],
      "stateMutability": "pure",
      "type": "function"
    },
    {
      "inputs": [
        {
          "internalType": "address",
          "name": "owner",
          "type": "address"
        },
        {
          "internalType": "address",
          "name": "spender",
          "type": "address"
        }
      ],
      "name": "allowance",
      "outputs": [
        {
          "internalType": "uint256",
          "name": "",
          "type": "uint256"
        }
      ],
      "stateMutability": "view",
      "type": "function"
    },
    {
      "inputs": [
        {
          "internalType": "address",
          "name": "spender",
          "type": "address"
        },
        {
          "internalType": "uint256",
          "name": "value",
          "type": "uint256"
        }
      ],
      "name": "approve",
      "outputs": [
        {
          "internalType": "bool",
          "name": "",
          "type": "bool"
        }
      ],
      "stateMutability": "nonpayable",
      "type": "function"
    },
    {
      "inputs": [
        {
          "internalType": "address",
          "name": "account",
          "type": "address"
        }
      ],
      "name": "balanceOf",
      "outputs": [
        {
          "internalType": "uint256",
          "name": "",
          "type": "uint256"
        }
      ],
      "stateMutability": "view",
      "type": "function"
    },
    {
      "inputs": [
        {
          "internalType": "string",
          "name": "displayName",
          "type": "string"
        },
        {
          "internalType": "string",
          "name": "recipient",
          "type": "string"
        },
        {
          "internalType": "uint256",
          "name": "amount",
          "type": "uint256"
        }
      ],
      "name": "burn",
      "outputs": [
        {
          "internalType": "address",
          "name": "",
          "type": "address"
        }
      ],
      "stateMutability": "nonpayable",
      "type": "function"
    },
    {
      "inputs": [
        {
          "internalType": "bytes1",
          "name": "b",
          "type": "bytes1"
        }
      ],
      "name": "char",
      "outputs": [
        {
          "internalType": "bytes1",
          "name": "c",
          "type": "bytes1"
        }
      ],
      "stateMutability": "pure",
      "type": "function"
    },
    {
      "inputs": [],
      "name": "decimals",
      "outputs": [
        {
          "internalType": "uint8",
          "name": "",
          "type": "uint8"
        }
      ],
      "stateMutability": "view",
      "type": "function"
    },
    {
      "inputs": [
        {
          "internalType": "string",
          "name": "recipient",
          "type": "string"
        }
      ],
      "name": "getAddressByName",
      "outputs": [
        {
          "internalType": "address",
          "name": "",
          "type": "address"
        }
      ],
      "stateMutability": "view",
      "type": "function"
    },
    {
      "inputs": [
        {
          "internalType": "address",
          "name": "addr",
          "type": "address"
        }
      ],
      "name": "getBaseProfile",
      "outputs": [
        {
          "components": [
            {
              "internalType": "string",
              "name": "name",
              "type": "string"
            },
            {
              "internalType": "string",
              "name": "displayName",
              "type": "string"
            },
            {
              "internalType": "uint256",
              "name": "amount",
              "type": "uint256"
            },
            {
              "internalType": "bool",
              "name": "exists",
              "type": "bool"
            }
          ],
          "internalType": "struct MingCoin.Burning",
          "name": "",
          "type": "tuple"
        }
      ],
      "stateMutability": "view",
      "type": "function"
    },
    {
      "inputs": [],
      "name": "getBurningList",
      "outputs": [
        {
          "components": [
            {
              "internalType": "string",
              "name": "name",
              "type": "string"
            },
            {
              "internalType": "string",
              "name": "displayName",
              "type": "string"
            },
            {
              "internalType": "uint256",
              "name": "amount",
              "type": "uint256"
            },
            {
              "internalType": "bool",
              "name": "exists",
              "type": "bool"
            }
          ],
          "internalType": "struct MingCoin.Burning[]",
          "name": "",
          "type": "tuple[]"
        }
      ],
      "stateMutability": "view",
      "type": "function"
    },
    {
      "inputs": [
        {
          "internalType": "address",
          "name": "addr",
          "type": "address"
        }
      ],
      "name": "getNameByAddress",
      "outputs": [
        {
          "internalType": "string",
          "name": "",
          "type": "string"
        }
      ],
      "stateMutability": "view",
      "type": "function"
    },
    {
      "inputs": [
        {
          "internalType": "uint256",
          "name": "_type",
          "type": "uint256"
        },
        {
          "internalType": "address",
          "name": "addr",
          "type": "address"
        }
      ],
      "name": "getProfileList",
      "outputs": [
        {
          "components": [
            {
              "internalType": "string",
              "name": "key",
              "type": "string"
            },
            {
              "internalType": "uint256",
              "name": "value",
              "type": "uint256"
            }
          ],
          "internalType": "struct MingCoin.KV[]",
          "name": "",
          "type": "tuple[]"
        }
      ],
      "stateMutability": "view",
      "type": "function"
    },
    {
      "inputs": [],
      "name": "name",
      "outputs": [
        {
          "internalType": "string",
          "name": "",
          "type": "string"
        }
      ],
      "stateMutability": "view",
      "type": "function"
    },
    {
      "inputs": [
        {
          "internalType": "address",
          "name": "_addr",
          "type": "address"
        }
      ],
      "name": "startsWith44444444",
      "outputs": [
        {
          "internalType": "bool",
          "name": "",
          "type": "bool"
        }
      ],
      "stateMutability": "pure",
      "type": "function"
    },
    {
      "inputs": [],
      "name": "symbol",
      "outputs": [
        {
          "internalType": "string",
          "name": "",
          "type": "string"
        }
      ],
      "stateMutability": "view",
      "type": "function"
    },
    {
      "inputs": [
        {
          "internalType": "address",
          "name": "_addr",
          "type": "address"
        }
      ],
      "name": "toAsciiString",
      "outputs": [
        {
          "internalType": "string",
          "name": "",
          "type": "string"
        }
      ],
      "stateMutability": "pure",
      "type": "function"
    },
    {
      "inputs": [],
      "name": "totalSupply",
      "outputs": [
        {
          "internalType": "uint256",
          "name": "",
          "type": "uint256"
        }
      ],
      "stateMutability": "view",
      "type": "function"
    },
    {
      "inputs": [
        {
          "internalType": "address",
          "name": "recipient",
          "type": "address"
        },
        {
          "internalType": "uint256",
          "name": "amount",
          "type": "uint256"
        }
      ],
      "name": "transfer",
      "outputs": [
        {
          "internalType": "bool",
          "name": "",
          "type": "bool"
        }
      ],
      "stateMutability": "nonpayable",
      "type": "function"
    },
    {
      "inputs": [
        {
          "internalType": "address",
          "name": "from",
          "type": "address"
        },
        {
          "internalType": "address",
          "name": "to",
          "type": "address"
        },
        {
          "internalType": "uint256",
          "name": "value",
          "type": "uint256"
        }
      ],
      "name": "transferFrom",
      "outputs": [
        {
          "internalType": "bool",
          "name": "",
          "type": "bool"
        }
      ],
      "stateMutability": "nonpayable",
      "type": "function"
    },
    {
      "inputs": [
        {
          "internalType": "uint256",
          "name": "_type",
          "type": "uint256"
        },
        {
          "internalType": "address",
          "name": "addr",
          "type": "address"
        },
        {
          "internalType": "string",
          "name": "url",
          "type": "string"
        },
        {
          "internalType": "uint256",
          "name": "amount",
          "type": "uint256"
        }
      ],
      "name": "updateProfile",
      "outputs": [],
      "stateMutability": "nonpayable",
      "type": "function"
    }
  ],
  "transactionHash": "0x17532a5658c3063de42028e7e253c15518a5a218b52b339a1c9cdcc55bddc5bc",
  "args": [],
  "numDeployments": 7,
  "solcInputHash": "343f12e985b511b98f7a6af64edc4b3d",
  "bytecode": "0x60806040523480156200001157600080fd5b506040518060400160405280601081526020017f4d696e6720436f696e2076302e302e35000000000000000000000000000000008152506040518060400160405280600481526020017f4d494e4700000000000000000000000000000000000000000000000000000000815250816003908051906020019062000096929190620003e4565b508060049080519060200190620000af929190620003e4565b505050620000d2336d15e9ad73cd24f69cbad10af00000620000d860201b60201c565b6200049a565b600073ffffffffffffffffffffffffffffffffffffffff168273ffffffffffffffffffffffffffffffffffffffff1614156200017c576040517f08c379a000000000000000000000000000000000000000000000000000000000815260040180806020018281038252601f8152602001807f45524332303a206d696e7420746f20746865207a65726f20616464726573730081525060200191505060405180910390fd5b62000190600083836200019460201b60201c565b5050565b600073ffffffffffffffffffffffffffffffffffffffff168373ffffffffffffffffffffffffffffffffffffffff161415620001e05780600260008282540192505081905550620002e1565b60008060008573ffffffffffffffffffffffffffffffffffffffff1673ffffffffffffffffffffffffffffffffffffffff168152602001908152602001600020549050818110156200029a576040517f08c379a00000000000000000000000000000000000000000000000000000000081526004018080602001828103825260148152602001807f696e73756666696369656e742062616c616e636500000000000000000000000081525060200191505060405180910390fd5b8181036000808673ffffffffffffffffffffffffffffffffffffffff1673ffffffffffffffffffffffffffffffffffffffff16815260200190815260200160002081905550505b600073ffffffffffffffffffffffffffffffffffffffff168273ffffffffffffffffffffffffffffffffffffffff1614156200032d57806002600082825403925050819055506200037a565b806000808473ffffffffffffffffffffffffffffffffffffffff1673ffffffffffffffffffffffffffffffffffffffff168152602001908152602001600020600082825401925050819055505b8173ffffffffffffffffffffffffffffffffffffffff168373ffffffffffffffffffffffffffffffffffffffff167fddf252ad1be2c89b69c2b068fc378daa952ba7f163c4a11628f55a4df523b3ef836040518082815260200191505060405180910390a3505050565b828054600181600116156101000203166002900490600052602060002090601f0160209004810192826200041c576000855562000468565b82601f106200043757805160ff191683800117855562000468565b8280016001018555821562000468579182015b82811115620004675782518255916020019190600101906200044a565b5b5090506200047791906200047b565b5090565b5b80821115620004965760008160009055506001016200047c565b5090565b61312180620004aa6000396000f3fe608060405234801561001057600080fd5b506004361061012c5760003560e01c80637c80bb4f116100ad5780639a65ddec116100715780639a65ddec14610393578063a73154cd146103c3578063a9059cbb146103f3578063b01b515814610423578063dd62ed3e146104535761012c565b80637c80bb4f146102c957806380a3c633146102f957806395c7cf8d1461032957806395d89b4114610359578063995a38f6146103775761012c565b80632c6e7598116100f45780632c6e7598146101eb578063313ce5671461021b57806368f3097a1461023957806369f9ad2f1461026957806370a08231146102995761012c565b806306fdde0314610131578063095ea7b31461014f57806318160ddd1461017f5780631c783c7b1461019d57806323b872dd146101bb575b600080fd5b610139610483565b6040516101469190612d10565b60405180910390f35b61016960048036038101906101649190612609565b610525565b6040516101769190612cbf565b60405180910390f35b610187610548565b6040516101949190612d94565b60405180910390f35b6101a5610552565b6040516101b29190612c7b565b60405180910390f35b6101d560048036038101906101d091906125ba565b6107d5565b6040516101e29190612cbf565b60405180910390f35b61020560048036038101906102009190612555565b610804565b6040516102129190612d10565b60405180910390f35b610223610aa7565b6040516102309190612daf565b60405180910390f35b610253600480360381019061024e9190612555565b610ab0565b6040516102609190612cbf565b60405180910390f35b610283600480360381019061027e9190612645565b610ba1565b6040516102909190612cda565b60405180910390f35b6102b360048036038101906102ae9190612555565b610bd5565b6040516102c09190612d94565b60405180910390f35b6102e360048036038101906102de9190612555565b610c1d565b6040516102f09190612d10565b60405180910390f35b610313600480360381019061030e91906126b3565b610d01565b6040516103209190612c60565b60405180910390f35b610343600480360381019061033e9190612555565b610f9b565b6040516103509190612cf5565b60405180910390f35b610361610fd3565b60405161036e9190612d10565b60405180910390f35b610391600480360381019061038c919061276e565b611075565b005b6103ad60048036038101906103a8919061266e565b611445565b6040516103ba9190612c60565b60405180910390f35b6103dd60048036038101906103d89190612555565b611490565b6040516103ea9190612d72565b60405180910390f35b61040d60048036038101906104089190612609565b611652565b60405161041a9190612cbf565b60405180910390f35b61043d60048036038101906104389190612732565b61168a565b60405161044a9190612c9d565b60405180910390f35b61046d6004803603810190610468919061257e565b611943565b60405161047a9190612d94565b60405180910390f35b606060038054600181600116156101000203166002900480601f01602080910402602001604051908101604052809291908181526020018280546001816001161561010002031660029004801561051b5780601f106104f05761010080835404028352916020019161051b565b820191906000526020600020905b8154815290600101906020018083116104fe57829003601f168201915b5050505050905090565b6000806105306119ca565b905061053d8185856119d2565b600191505092915050565b6000600254905090565b60606000600a8054905067ffffffffffffffff8111801561057257600080fd5b506040519080825280602002602001820160405280156105ac57816020015b610599612373565b8152602001906001900390816105915790505b50905060005b600a805490508110156107cd5760086000600a83815481106105d057fe5b9060005260206000200160009054906101000a900473ffffffffffffffffffffffffffffffffffffffff1673ffffffffffffffffffffffffffffffffffffffff1673ffffffffffffffffffffffffffffffffffffffff168152602001908152602001600020604051806080016040529081600082018054600181600116156101000203166002900480601f0160208091040260200160405190810160405280929190818152602001828054600181600116156101000203166002900480156106d95780601f106106ae576101008083540402835291602001916106d9565b820191906000526020600020905b8154815290600101906020018083116106bc57829003601f168201915b50505050508152602001600182018054600181600116156101000203166002900480601f01602080910402602001604051908101604052809291908181526020018280546001816001161561010002031660029004801561077b5780601f106107505761010080835404028352916020019161077b565b820191906000526020600020905b81548152906001019060200180831161075e57829003601f168201915b50505050508152602001600282015481526020016003820160009054906101000a900460ff1615151515815250508282815181106107b557fe5b602002602001018190525080806001019150506105b2565b508091505090565b6000806107e06119ca565b90506107ed8582856119e4565b6107f8858585611aae565b60019150509392505050565b60606000826040516020016108199190612bfa565b604051602081830303815290604052905060006040518060400160405280601081526020017f303132333435363738396162636465660000000000000000000000000000000081525090506000602a67ffffffffffffffff8111801561087e57600080fd5b506040519080825280601f01601f1916602001820160405280156108b15781602001600182028036833780820191505090505b5090507f3000000000000000000000000000000000000000000000000000000000000000816000815181106108e257fe5b60200101907effffffffffffffffffffffffffffffffffffffffffffffffffffffffffffff1916908160001a9053507f78000000000000000000000000000000000000000000000000000000000000008160018151811061093f57fe5b60200101907effffffffffffffffffffffffffffffffffffffffffffffffffffffffffffff1916908160001a90535060005b6014811015610a9b5782600485838151811061098957fe5b602001015160f81c60f81b7effffffffffffffffffffffffffffffffffffffffffffffffffffffffffffff1916901c60f81c60ff16815181106109c857fe5b602001015160f81c60f81b8260028302600201815181106109e557fe5b60200101907effffffffffffffffffffffffffffffffffffffffffffffffffffffffffffff1916908160001a90535082600f60f81b858381518110610a2657fe5b602001015160f81c60f81b1660f81c60ff1681518110610a4257fe5b602001015160f81c60f81b826002830260030181518110610a5f57fe5b60200101907effffffffffffffffffffffffffffffffffffffffffffffffffffffffffffff1916908160001a9053508080600101915050610971565b50809350505050919050565b60006012905090565b600080610abc83610804565b905060006040518060400160405280600a81526020017f3078343434343434343400000000000000000000000000000000000000000000815250905060005b6008811015610b9457818181518110610b1057fe5b602001015160f81c60f81b7effffffffffffffffffffffffffffffffffffffffffffffffffffffffffffff1916838281518110610b4957fe5b602001015160f81c60f81b7effffffffffffffffffffffffffffffffffffffffffffffffffffffffffffff191614610b875760009350505050610b9c565b8080600101915050610afb565b506001925050505b919050565b6000600a8260f81c60ff161015610bc35760308260f81c0160f81b9050610bd0565b60578260f81c0160f81b90505b919050565b60008060008373ffffffffffffffffffffffffffffffffffffffff1673ffffffffffffffffffffffffffffffffffffffff168152602001908152602001600020549050919050565b6060600860008373ffffffffffffffffffffffffffffffffffffffff1673ffffffffffffffffffffffffffffffffffffffff1681526020019081526020016000206000018054600181600116156101000203166002900480601f016020809104026020016040519081016040528092919081815260200182805460018160011615610100020316600290048015610cf55780601f10610cca57610100808354040283529160200191610cf5565b820191906000526020600020905b815481529060010190602001808311610cd857829003601f168201915b50505050509050919050565b600080610d0d84611bca565b9050610d198184611652565b5060001515600860008373ffffffffffffffffffffffffffffffffffffffff1673ffffffffffffffffffffffffffffffffffffffff16815260200190815260200160002060030160009054906101000a900460ff1615151415610ee3576001600860008373ffffffffffffffffffffffffffffffffffffffff1673ffffffffffffffffffffffffffffffffffffffff16815260200190815260200160002060030160006101000a81548160ff02191690831515021790555084600860008373ffffffffffffffffffffffffffffffffffffffff1673ffffffffffffffffffffffffffffffffffffffff1681526020019081526020016000206001019080519060200190610e2792919061239d565b5083600860008373ffffffffffffffffffffffffffffffffffffffff1673ffffffffffffffffffffffffffffffffffffffff1681526020019081526020016000206000019080519060200190610e7e92919061239d565b50600a819080600181540180825580915050600190039060005260206000200160009091909190916101000a81548173ffffffffffffffffffffffffffffffffffffffff021916908373ffffffffffffffffffffffffffffffffffffffff1602179055505b82600860008373ffffffffffffffffffffffffffffffffffffffff1673ffffffffffffffffffffffffffffffffffffffff1681526020019081526020016000206002016000828254019250508190555080600985604051610f449190612c49565b908152602001604051809103902060006101000a81548173ffffffffffffffffffffffffffffffffffffffff021916908373ffffffffffffffffffffffffffffffffffffffff160217905550809150509392505050565b6000610fa682610804565b604051602001610fb69190612c49565b604051602081830303815290604052805190602001209050919050565b606060048054600181600116156101000203166002900480601f01602080910402602001604051908101604052809291908181526020018280546001816001161561010002031660029004801561106b5780601f106110405761010080835404028352916020019161106b565b820191906000526020600020905b81548152906001019060200180831161104e57829003601f168201915b5050505050905090565b60011515600860008573ffffffffffffffffffffffffffffffffffffffff1673ffffffffffffffffffffffffffffffffffffffff16815260200190815260200160002060030160009054906101000a900460ff1615151461110b576040517f08c379a000000000000000000000000000000000000000000000000000000000815260040161110290612d32565b60405180910390fd5b60008111156111205761111e8382611652565b505b600184141561121657600560008473ffffffffffffffffffffffffffffffffffffffff1673ffffffffffffffffffffffffffffffffffffffff168152602001908152602001600020600101829080600181540180825580915050600190039060005260206000200160009091909190915090805190602001906111a492919061239d565b5080600560008573ffffffffffffffffffffffffffffffffffffffff1673ffffffffffffffffffffffffffffffffffffffff168152602001908152602001600020600001836040516111f69190612c49565b90815260200160405180910390206000828254019250508190555061143f565b600284141561130c57600660008473ffffffffffffffffffffffffffffffffffffffff1673ffffffffffffffffffffffffffffffffffffffff1681526020019081526020016000206001018290806001815401808255809150506001900390600052602060002001600090919091909150908051906020019061129a92919061239d565b5080600660008573ffffffffffffffffffffffffffffffffffffffff1673ffffffffffffffffffffffffffffffffffffffff168152602001908152602001600020600001836040516112ec9190612c49565b90815260200160405180910390206000828254019250508190555061143e565b600384141561140257600760008473ffffffffffffffffffffffffffffffffffffffff1673ffffffffffffffffffffffffffffffffffffffff1681526020019081526020016000206001018290806001815401808255809150506001900390600052602060002001600090919091909150908051906020019061139092919061239d565b5080600760008573ffffffffffffffffffffffffffffffffffffffff1673ffffffffffffffffffffffffffffffffffffffff168152602001908152602001600020600001836040516113e29190612c49565b90815260200160405180910390206000828254019250508190555061143d565b6040517f08c379a000000000000000000000000000000000000000000000000000000000815260040161143490612d52565b60405180910390fd5b5b5b50505050565b600060098383604051611459929190612c30565b908152602001604051809103902060009054906101000a900473ffffffffffffffffffffffffffffffffffffffff16905092915050565b611498612373565b600860008373ffffffffffffffffffffffffffffffffffffffff1673ffffffffffffffffffffffffffffffffffffffff168152602001908152602001600020604051806080016040529081600082018054600181600116156101000203166002900480601f01602080910402602001604051908101604052809291908181526020018280546001816001161561010002031660029004801561157b5780601f106115505761010080835404028352916020019161157b565b820191906000526020600020905b81548152906001019060200180831161155e57829003601f168201915b50505050508152602001600182018054600181600116156101000203166002900480601f01602080910402602001604051908101604052809291908181526020018280546001816001161561010002031660029004801561161d5780601f106115f25761010080835404028352916020019161161d565b820191906000526020600020905b81548152906001019060200180831161160057829003601f168201915b50505050508152602001600282015481526020016003820160009054906101000a900460ff1615151515815250509050919050565b600061167860405180606001604052806028815260200161307b60289139833386611d6d565b6116828383611eb2565b905092915050565b6060600060018414156116dd57600560008473ffffffffffffffffffffffffffffffffffffffff1673ffffffffffffffffffffffffffffffffffffffff16815260200190815260200160002090506117b8565b600284141561172c57600660008473ffffffffffffffffffffffffffffffffffffffff1673ffffffffffffffffffffffffffffffffffffffff16815260200190815260200160002090506117b7565b600384141561177b57600760008473ffffffffffffffffffffffffffffffffffffffff1673ffffffffffffffffffffffffffffffffffffffff16815260200190815260200160002090506117b6565b6040517f08c379a00000000000000000000000000000000000000000000000000000000081526004016117ad90612d52565b60405180910390fd5b5b5b6000816001018054905067ffffffffffffffff811180156117d857600080fd5b5060405190808252806020026020018201604052801561181257816020015b6117ff61242b565b8152602001906001900390816117f75790505b50905060005b826001018054905081101561193757600083600101828154811061183857fe5b906000526020600020018054600181600116156101000203166002900480601f0160208091040260200160405190810160405280929190818152602001828054600181600116156101000203166002900480156118d65780601f106118ab576101008083540402835291602001916118d6565b820191906000526020600020905b8154815290600101906020018083116118b957829003601f168201915b50505050509050604051806040016040528082815260200185600001836040516119009190612c49565b90815260200160405180910390205481525083838151811061191e57fe5b6020026020010181905250508080600101915050611818565b50809250505092915050565b6000600160008473ffffffffffffffffffffffffffffffffffffffff1673ffffffffffffffffffffffffffffffffffffffff16815260200190815260200160002060008373ffffffffffffffffffffffffffffffffffffffff1673ffffffffffffffffffffffffffffffffffffffff16815260200190815260200160002054905092915050565b600033905090565b6119df8383836001611ed5565b505050565b60006119f08484611943565b90507fffffffffffffffffffffffffffffffffffffffffffffffffffffffffffffffff8114611aa85781811015611a985781811015611a97576040517f08c379a000000000000000000000000000000000000000000000000000000000815260040180806020018281038252601a8152602001807f4552433230496e73756666696369656e74416c6c6f77616e636500000000000081525060200191505060405180910390fd5b5b611aa784848484036000611ed5565b5b50505050565b600073ffffffffffffffffffffffffffffffffffffffff168373ffffffffffffffffffffffffffffffffffffffff161415611b34576040517f08c379a00000000000000000000000000000000000000000000000000000000081526004018080602001828103825260258152602001806130a36025913960400191505060405180910390fd5b600073ffffffffffffffffffffffffffffffffffffffff168273ffffffffffffffffffffffffffffffffffffffff161415611bba576040517f08c379a00000000000000000000000000000000000000000000000000000000081526004018080602001828103825260238152602001806130366023913960400191505060405180910390fd5b611bc58383836120d4565b505050565b60008082604051602001611bde9190612c49565b604051602081830303815290604052805190602001209050600081604051602001611c099190612c15565b60405160208183030381529060405290506000601467ffffffffffffffff81118015611c3457600080fd5b506040519080825280601f01601f191660200182016040528015611c675781602001600182028036833780820191505090505b5090506000805b6004811015611ce6577f4400000000000000000000000000000000000000000000000000000000000000838380600101945081518110611caa57fe5b60200101907effffffffffffffffffffffffffffffffffffffffffffffffffffffffffffff1916908160001a9053508080600101915050611c6e565b5060005b6014821015611d5857838181518110611cff57fe5b602001015160f81c60f81b838380600101945081518110611d1c57fe5b60200101907effffffffffffffffffffffffffffffffffffffffffffffffffffffffffffff1916908160001a9053508080600101915050611cea565b50611d628261231f565b945050505050919050565b611eac8484848460405160240180806020018581526020018473ffffffffffffffffffffffffffffffffffffffff1681526020018373ffffffffffffffffffffffffffffffffffffffff168152602001828103825286818151815260200191508051906020019080838360005b83811015611df5578082015181840152602081019050611dda565b50505050905090810190601f168015611e225780820380516001836020036101000a031916815260200191505b50955050505050506040516020818303038152906040527f5ea2b7ae000000000000000000000000000000000000000000000000000000007bffffffffffffffffffffffffffffffffffffffffffffffffffffffff19166020820180517bffffffffffffffffffffffffffffffffffffffffffffffffffffffff838183161783525050505061232d565b50505050565b600080611ebd6119ca565b9050611eca818585611aae565b600191505092915050565b600073ffffffffffffffffffffffffffffffffffffffff168473ffffffffffffffffffffffffffffffffffffffff161415611f5b576040517f08c379a00000000000000000000000000000000000000000000000000000000081526004018080602001828103825260248152602001806130c86024913960400191505060405180910390fd5b600073ffffffffffffffffffffffffffffffffffffffff168373ffffffffffffffffffffffffffffffffffffffff161415611fe1576040517f08c379a00000000000000000000000000000000000000000000000000000000081526004018080602001828103825260228152602001806130596022913960400191505060405180910390fd5b81600160008673ffffffffffffffffffffffffffffffffffffffff1673ffffffffffffffffffffffffffffffffffffffff16815260200190815260200160002060008573ffffffffffffffffffffffffffffffffffffffff1673ffffffffffffffffffffffffffffffffffffffff1681526020019081526020016000208190555080156120ce578273ffffffffffffffffffffffffffffffffffffffff168473ffffffffffffffffffffffffffffffffffffffff167f8c5be1e5ebec7d5bd14f71427d1e84f3dd0314c0f7b2291e5b200ac8c7c3b925846040518082815260200191505060405180910390a35b50505050565b600073ffffffffffffffffffffffffffffffffffffffff168373ffffffffffffffffffffffffffffffffffffffff16141561211e578060026000828254019250508190555061221e565b60008060008573ffffffffffffffffffffffffffffffffffffffff1673ffffffffffffffffffffffffffffffffffffffff168152602001908152602001600020549050818110156121d7576040517f08c379a00000000000000000000000000000000000000000000000000000000081526004018080602001828103825260148152602001807f696e73756666696369656e742062616c616e636500000000000000000000000081525060200191505060405180910390fd5b8181036000808673ffffffffffffffffffffffffffffffffffffffff1673ffffffffffffffffffffffffffffffffffffffff16815260200190815260200160002081905550505b600073ffffffffffffffffffffffffffffffffffffffff168273ffffffffffffffffffffffffffffffffffffffff16141561226857806002600082825403925050819055506122b5565b806000808473ffffffffffffffffffffffffffffffffffffffff1673ffffffffffffffffffffffffffffffffffffffff168152602001908152602001600020600082825401925050819055505b8173ffffffffffffffffffffffffffffffffffffffff168373ffffffffffffffffffffffffffffffffffffffff167fddf252ad1be2c89b69c2b068fc378daa952ba7f163c4a11628f55a4df523b3ef836040518082815260200191505060405180910390a3505050565b600060148201519050919050565b6123448161233c612347612368565b63ffffffff16565b50565b60006a636f6e736f6c652e6c6f679050600080835160208501845afa505050565b612445819050919050565b60405180608001604052806060815260200160608152602001600081526020016000151581525090565b828054600181600116156101000203166002900490600052602060002090601f0160209004810192826123d3576000855561241a565b82601f106123ec57805160ff191683800117855561241a565b8280016001018555821561241a579182015b828111156124195782518255916020019190600101906123fe565b5b5090506124279190612447565b5090565b604051806040016040528060608152602001600081525090565bfe5b5b80821115612460576000816000905550600101612448565b5090565b600061247761247284612dfb565b612dca565b90508281526020810184848401111561248f57600080fd5b61249a848285612f60565b509392505050565b6000813590506124b181612ff0565b92915050565b6000813590506124c681613007565b92915050565b60008083601f8401126124de57600080fd5b8235905067ffffffffffffffff8111156124f757600080fd5b60208301915083600182028301111561250f57600080fd5b9250929050565b600082601f83011261252757600080fd5b8135612537848260208601612464565b91505092915050565b60008135905061254f8161301e565b92915050565b60006020828403121561256757600080fd5b6000612575848285016124a2565b91505092915050565b6000806040838503121561259157600080fd5b600061259f858286016124a2565b92505060206125b0858286016124a2565b9150509250929050565b6000806000606084860312156125cf57600080fd5b60006125dd868287016124a2565b93505060206125ee868287016124a2565b92505060406125ff86828701612540565b9150509250925092565b6000806040838503121561261c57600080fd5b600061262a858286016124a2565b925050602061263b85828601612540565b9150509250929050565b60006020828403121561265757600080fd5b6000612665848285016124b7565b91505092915050565b6000806020838503121561268157600080fd5b600083013567ffffffffffffffff81111561269b57600080fd5b6126a7858286016124cc565b92509250509250929050565b6000806000606084860312156126c857600080fd5b600084013567ffffffffffffffff8111156126e257600080fd5b6126ee86828701612516565b935050602084013567ffffffffffffffff81111561270b57600080fd5b61271786828701612516565b925050604061272886828701612540565b9150509250925092565b6000806040838503121561274557600080fd5b600061275385828601612540565b9250506020612764858286016124a2565b9150509250929050565b6000806000806080858703121561278457600080fd5b600061279287828801612540565b94505060206127a3878288016124a2565b935050604085013567ffffffffffffffff8111156127c057600080fd5b6127cc87828801612516565b92505060606127dd87828801612540565b91505092959194509250565b60006127f58383612abc565b905092915050565b60006128098383612b90565b905092915050565b61281a81612ed5565b82525050565b61283161282c82612ed5565b612fa2565b82525050565b600061284282612e4b565b61284c8185612e86565b93508360208202850161285e85612e2b565b8060005b8581101561289a578484038952815161287b85826127e9565b945061288683612e6c565b925060208a01995050600181019050612862565b50829750879550505050505092915050565b60006128b782612e56565b6128c18185612e97565b9350836020820285016128d385612e3b565b8060005b8581101561290f57848403895281516128f085826127fd565b94506128fb83612e79565b925060208a019950506001810190506128d7565b50829750879550505050505092915050565b61292a81612ee7565b82525050565b61293981612ee7565b82525050565b61294881612ef3565b82525050565b61295781612f1f565b82525050565b61296e61296982612f1f565b612fb4565b82525050565b60006129808385612eca565b935061298d838584612f60565b82840190509392505050565b60006129a482612e61565b6129ae8185612ea8565b93506129be818560208601612f6f565b6129c781612fd2565b840191505092915050565b60006129dd82612e61565b6129e78185612eb9565b93506129f7818560208601612f6f565b612a0081612fd2565b840191505092915050565b6000612a1682612e61565b612a208185612eca565b9350612a30818560208601612f6f565b80840191505092915050565b6000612a49601283612eb9565b91507f41646472657373206e6f742065786973747300000000000000000000000000006000830152602082019050919050565b6000612a89600c83612eb9565b91507f496e76616c6964207479706500000000000000000000000000000000000000006000830152602082019050919050565b60006080830160008301518482036000860152612ad98282612999565b91505060208301518482036020860152612af38282612999565b9150506040830151612b086040860182612bcd565b506060830151612b1b6060860182612921565b508091505092915050565b60006080830160008301518482036000860152612b438282612999565b91505060208301518482036020860152612b5d8282612999565b9150506040830151612b726040860182612bcd565b506060830151612b856060860182612921565b508091505092915050565b60006040830160008301518482036000860152612bad8282612999565b9150506020830151612bc26020860182612bcd565b508091505092915050565b612bd681612f49565b82525050565b612be581612f49565b82525050565b612bf481612f53565b82525050565b6000612c068284612820565b60148201915081905092915050565b6000612c21828461295d565b60208201915081905092915050565b6000612c3d828486612974565b91508190509392505050565b6000612c558284612a0b565b915081905092915050565b6000602082019050612c756000830184612811565b92915050565b60006020820190508181036000830152612c958184612837565b905092915050565b60006020820190508181036000830152612cb781846128ac565b905092915050565b6000602082019050612cd46000830184612930565b92915050565b6000602082019050612cef600083018461293f565b92915050565b6000602082019050612d0a600083018461294e565b92915050565b60006020820190508181036000830152612d2a81846129d2565b905092915050565b60006020820190508181036000830152612d4b81612a3c565b9050919050565b60006020820190508181036000830152612d6b81612a7c565b9050919050565b60006020820190508181036000830152612d8c8184612b26565b905092915050565b6000602082019050612da96000830184612bdc565b92915050565b6000602082019050612dc46000830184612beb565b92915050565b6000604051905081810181811067ffffffffffffffff82111715612df157612df0612fd0565b5b8060405250919050565b600067ffffffffffffffff821115612e1657612e15612fd0565b5b601f19601f8301169050602081019050919050565b6000819050602082019050919050565b6000819050602082019050919050565b600081519050919050565b600081519050919050565b600081519050919050565b6000602082019050919050565b6000602082019050919050565b600082825260208201905092915050565b600082825260208201905092915050565b600082825260208201905092915050565b600082825260208201905092915050565b600081905092915050565b6000612ee082612f29565b9050919050565b60008115159050919050565b60007fff0000000000000000000000000000000000000000000000000000000000000082169050919050565b6000819050919050565b600073ffffffffffffffffffffffffffffffffffffffff82169050919050565b6000819050919050565b600060ff82169050919050565b82818337600083830152505050565b60005b83811015612f8d578082015181840152602081019050612f72565b83811115612f9c576000848401525b50505050565b6000612fad82612fbe565b9050919050565b6000819050919050565b6000612fc982612fe3565b9050919050565bfe5b6000601f19601f8301169050919050565b60008160601b9050919050565b612ff981612ed5565b811461300457600080fd5b50565b61301081612ef3565b811461301b57600080fd5b50565b61302781612f49565b811461303257600080fd5b5056fe45524332303a207472616e7366657220746f20746865207a65726f206164647265737345524332303a20617070726f766520746f20746865207a65726f206164647265737363616c6c696e67204d696e672e7472616e73666572282573292c2066726f6d20257320746f20257345524332303a207472616e736665722066726f6d20746865207a65726f206164647265737345524332303a20617070726f76652066726f6d20746865207a65726f2061646472657373a26469706673582212203f830d476d33711f32b6923da2aaa1f939767c9ff3ebc30a779640a6926e6cca64736f6c63430007060033",
  "devdoc": {
    "kind": "dev",
    "methods": {
      "allowance(address,address)": {
        "details": "See {IERC20-allowance}."
      },
      "approve(address,uint256)": {
        "details": "See {IERC20-approve}. NOTE: If `value` is the maximum `uint256`, the allowance is not updated on `transferFrom`. This is semantically equivalent to an infinite approval. Requirements: - `spender` cannot be the zero address."
      },
      "balanceOf(address)": {
        "details": "See {IERC20-balanceOf}."
      },
      "decimals()": {
        "details": "Returns the number of decimals used to get its user representation. For example, if `decimals` equals `2`, a balance of `505` tokens should be displayed to a user as `5.05` (`505 / 10 ** 2`). Tokens usually opt for a value of 18, imitating the relationship between Ether and Wei. This is the default value returned by this function, unless it's overridden. NOTE: This information is only used for _display_ purposes: it in no way affects any of the arithmetic of the contract, including {IERC20-balanceOf} and {IERC20-transfer}."
      },
      "name()": {
        "details": "Returns the name of the token."
      },
      "symbol()": {
        "details": "Returns the symbol of the token, usually a shorter version of the name."
      },
      "totalSupply()": {
        "details": "See {IERC20-totalSupply}."
      },
      "transferFrom(address,address,uint256)": {
        "details": "See {IERC20-transferFrom}. Emits an {Approval} event indicating the updated allowance. This is not required by the EIP. See the note at the beginning of {ERC20}. NOTE: Does not update the allowance if the current allowance is the maximum `uint256`. Requirements: - `from` and `to` cannot be the zero address. - `from` must have a balance of at least `value`. - the caller must have allowance for ``from``'s tokens of at least `value`."
      }
    },
    "version": 1
  },
  "userdoc": {
    "kind": "user",
    "methods": {},
    "version": 1
  },
  "storageLayout": {
    "storage": [
      {
        "astId": 241,
        "contract": "contracts/MingCoin.sol:MingCoin",
        "label": "_balances",
        "offset": 0,
        "slot": "0",
        "type": "t_mapping(t_address,t_uint256)"
      },
      {
        "astId": 247,
        "contract": "contracts/MingCoin.sol:MingCoin",
        "label": "_allowances",
        "offset": 0,
        "slot": "1",
        "type": "t_mapping(t_address,t_mapping(t_address,t_uint256))"
      },
      {
        "astId": 249,
        "contract": "contracts/MingCoin.sol:MingCoin",
        "label": "_totalSupply",
        "offset": 0,
        "slot": "2",
        "type": "t_uint256"
      },
      {
        "astId": 251,
        "contract": "contracts/MingCoin.sol:MingCoin",
        "label": "_name",
        "offset": 0,
        "slot": "3",
        "type": "t_string_storage"
      },
      {
        "astId": 253,
        "contract": "contracts/MingCoin.sol:MingCoin",
        "label": "_symbol",
        "offset": 0,
        "slot": "4",
        "type": "t_string_storage"
      },
      {
        "astId": 750,
        "contract": "contracts/MingCoin.sol:MingCoin",
        "label": "bannerMap",
        "offset": 0,
        "slot": "5",
        "type": "t_mapping(t_address,t_struct(Profile)737_storage)"
      },
      {
        "astId": 754,
        "contract": "contracts/MingCoin.sol:MingCoin",
        "label": "portraitMap",
        "offset": 0,
        "slot": "6",
        "type": "t_mapping(t_address,t_struct(Profile)737_storage)"
      },
      {
        "astId": 758,
        "contract": "contracts/MingCoin.sol:MingCoin",
        "label": "bioMap",
        "offset": 0,
        "slot": "7",
        "type": "t_mapping(t_address,t_struct(Profile)737_storage)"
      },
      {
        "astId": 762,
        "contract": "contracts/MingCoin.sol:MingCoin",
        "label": "addressMap",
        "offset": 0,
        "slot": "8",
        "type": "t_mapping(t_address,t_struct(Burning)746_storage)"
      },
      {
        "astId": 766,
        "contract": "contracts/MingCoin.sol:MingCoin",
        "label": "name2Address",
        "offset": 0,
        "slot": "9",
        "type": "t_mapping(t_string_memory_ptr,t_address)"
      },
      {
        "astId": 769,
        "contract": "contracts/MingCoin.sol:MingCoin",
        "label": "addresses",
        "offset": 0,
        "slot": "10",
        "type": "t_array(t_address)dyn_storage"
      }
    ],
    "types": {
      "t_address": {
        "encoding": "inplace",
        "label": "address",
        "numberOfBytes": "20"
      },
      "t_array(t_address)dyn_storage": {
        "base": "t_address",
        "encoding": "dynamic_array",
        "label": "address[]",
        "numberOfBytes": "32"
      },
      "t_array(t_string_storage)dyn_storage": {
        "base": "t_string_storage",
        "encoding": "dynamic_array",
        "label": "string[]",
        "numberOfBytes": "32"
      },
      "t_bool": {
        "encoding": "inplace",
        "label": "bool",
        "numberOfBytes": "1"
      },
      "t_mapping(t_address,t_mapping(t_address,t_uint256))": {
        "encoding": "mapping",
        "key": "t_address",
        "label": "mapping(address => mapping(address => uint256))",
        "numberOfBytes": "32",
        "value": "t_mapping(t_address,t_uint256)"
      },
      "t_mapping(t_address,t_struct(Burning)746_storage)": {
        "encoding": "mapping",
        "key": "t_address",
        "label": "mapping(address => struct MingCoin.Burning)",
        "numberOfBytes": "32",
        "value": "t_struct(Burning)746_storage"
      },
      "t_mapping(t_address,t_struct(Profile)737_storage)": {
        "encoding": "mapping",
        "key": "t_address",
        "label": "mapping(address => struct MingCoin.Profile)",
        "numberOfBytes": "32",
        "value": "t_struct(Profile)737_storage"
      },
      "t_mapping(t_address,t_uint256)": {
        "encoding": "mapping",
        "key": "t_address",
        "label": "mapping(address => uint256)",
        "numberOfBytes": "32",
        "value": "t_uint256"
      },
      "t_mapping(t_string_memory_ptr,t_address)": {
        "encoding": "mapping",
        "key": "t_string_memory_ptr",
        "label": "mapping(string => address)",
        "numberOfBytes": "32",
        "value": "t_address"
      },
      "t_mapping(t_string_memory_ptr,t_uint256)": {
        "encoding": "mapping",
        "key": "t_string_memory_ptr",
        "label": "mapping(string => uint256)",
        "numberOfBytes": "32",
        "value": "t_uint256"
      },
      "t_string_memory_ptr": {
        "encoding": "bytes",
        "label": "string",
        "numberOfBytes": "32"
      },
      "t_string_storage": {
        "encoding": "bytes",
        "label": "string",
        "numberOfBytes": "32"
      },
      "t_struct(Burning)746_storage": {
        "encoding": "inplace",
        "label": "struct MingCoin.Burning",
        "members": [
          {
            "astId": 739,
            "contract": "contracts/MingCoin.sol:MingCoin",
            "label": "name",
            "offset": 0,
            "slot": "0",
            "type": "t_string_storage"
          },
          {
            "astId": 741,
            "contract": "contracts/MingCoin.sol:MingCoin",
            "label": "displayName",
            "offset": 0,
            "slot": "1",
            "type": "t_string_storage"
          },
          {
            "astId": 743,
            "contract": "contracts/MingCoin.sol:MingCoin",
            "label": "amount",
            "offset": 0,
            "slot": "2",
            "type": "t_uint256"
          },
          {
            "astId": 745,
            "contract": "contracts/MingCoin.sol:MingCoin",
            "label": "exists",
            "offset": 0,
            "slot": "3",
            "type": "t_bool"
          }
        ],
        "numberOfBytes": "128"
      },
      "t_struct(Profile)737_storage": {
        "encoding": "inplace",
        "label": "struct MingCoin.Profile",
        "members": [
          {
            "astId": 731,
            "contract": "contracts/MingCoin.sol:MingCoin",
            "label": "valueMap",
            "offset": 0,
            "slot": "0",
            "type": "t_mapping(t_string_memory_ptr,t_uint256)"
          },
          {
            "astId": 734,
            "contract": "contracts/MingCoin.sol:MingCoin",
            "label": "keys",
            "offset": 0,
            "slot": "1",
            "type": "t_array(t_string_storage)dyn_storage"
          },
          {
            "astId": 736,
            "contract": "contracts/MingCoin.sol:MingCoin",
            "label": "exists",
            "offset": 0,
            "slot": "2",
            "type": "t_bool"
          }
        ],
        "numberOfBytes": "96"
      },
      "t_uint256": {
        "encoding": "inplace",
        "label": "uint256",
        "numberOfBytes": "32"
      }
    }
  }
}