{
  "address": "0xe0809B7729B756d00c51550C3323fc446b6C7e2e",
  "abi": [
    {
      "inputs": [
        {
          "internalType": "address",
          "name": "_addressOfMing",
          "type": "address"
        }
      ],
      "stateMutability": "nonpayable",
      "type": "constructor"
    },
    {
      "inputs": [],
      "name": "balance",
      "outputs": [
        {
          "internalType": "uint256",
          "name": "",
          "type": "uint256"
        }
      ],
      "stateMutability": "view",
      "type": "function"
    },
    {
      "inputs": [
        {
          "internalType": "uint256",
          "name": "",
          "type": "uint256"
        }
      ],
      "name": "deposits",
      "outputs": [
        {
          "internalType": "address",
          "name": "owner",
          "type": "address"
        },
        {
          "internalType": "uint128",
          "name": "liquidity",
          "type": "uint128"
        },
        {
          "internalType": "address",
          "name": "token0",
          "type": "address"
        },
        {
          "internalType": "address",
          "name": "token1",
          "type": "address"
        }
      ],
      "stateMutability": "view",
      "type": "function"
    },
    {
      "inputs": [],
      "name": "fund",
      "outputs": [],
      "stateMutability": "payable",
      "type": "function"
    },
    {
      "inputs": [
        {
          "internalType": "address",
          "name": "addr",
          "type": "address"
        }
      ],
      "name": "getAmountFunded",
      "outputs": [
        {
          "internalType": "uint256",
          "name": "",
          "type": "uint256"
        }
      ],
      "stateMutability": "view",
      "type": "function"
    },
    {
      "inputs": [],
      "name": "i_owner",
      "outputs": [
        {
          "internalType": "address",
          "name": "",
          "type": "address"
        }
      ],
      "stateMutability": "view",
      "type": "function"
    },
    {
      "inputs": [],
      "name": "poolFee",
      "outputs": [
        {
          "internalType": "uint24",
          "name": "",
          "type": "uint24"
        }
      ],
      "stateMutability": "view",
      "type": "function"
    }
  ],
  "transactionHash": "0x03865a47b1c11e2c5260100daaa3a5c4c1b02e96ef15a3347614392038b9944c",
  "args": [
    "0x73492E0786b9CAf76730fe8AA13Ed6f44Ff847c5"
  ],
  "numDeployments": 1,
  "solcInputHash": "a4836f113ff9639c210f7b5de7fb530e",
  "bytecode": "0x6080604052600060045573c36442b4a4522e871399cd717abdd847ab11fe88600560006101000a81548173ffffffffffffffffffffffffffffffffffffffff021916908373ffffffffffffffffffffffffffffffffffffffff16021790555073e592427a0aece92de3edee1f18e0157c05861564600660006101000a81548173ffffffffffffffffffffffffffffffffffffffff021916908373ffffffffffffffffffffffffffffffffffffffff160217905550731f98431c8ad98523631ae4a59f267346ea31f984600760006101000a81548173ffffffffffffffffffffffffffffffffffffffff021916908373ffffffffffffffffffffffffffffffffffffffff1602179055503480156200011557600080fd5b50604051620013993803806200139983398181016040528101906200013b919062000533565b80600360006101000a81548173ffffffffffffffffffffffffffffffffffffffff021916908373ffffffffffffffffffffffffffffffffffffffff16021790555033600a60006101000a81548173ffffffffffffffffffffffffffffffffffffffff021916908373ffffffffffffffffffffffffffffffffffffffff16021790555073c02aaa39b223fe8d0a0e5c4f27ead9083c756cc2600960006101000a81548173ffffffffffffffffffffffffffffffffffffffff021916908373ffffffffffffffffffffffffffffffffffffffff160217905550600b604051806060016040528063649efc0081526020016364b171008152602001630ee6b28081525090806001815401808255809150506001900390600052602060002090600302016000909190919091506000820151816000015560208201518160010155604082015181600201555050620002b360405180606001604052806024815260200162001375602491396200037860201b620007621760201c565b62000371600560009054906101000a900473ffffffffffffffffffffffffffffffffffffffff1673ffffffffffffffffffffffffffffffffffffffff166306fdde036040518163ffffffff1660e01b815260040160006040518083038186803b1580156200032057600080fd5b505afa15801562000335573d6000803e3d6000fd5b505050506040513d6000823e3d601f19601f820116820180604052508101906200036091906200055f565b6200037860201b620007621760201c565b5062000691565b6200047e816040516024018080602001828103825283818151815260200191508051906020019080838360005b83811015620003c2578082015181840152602081019050620003a5565b50505050905090810190601f168015620003f05780820380516001836020036101000a031916815260200191505b50925050506040516020818303038152906040527f41304fac000000000000000000000000000000000000000000000000000000007bffffffffffffffffffffffffffffffffffffffffffffffffffffffff19166020820180517bffffffffffffffffffffffffffffffffffffffffffffffffffffffff83818316178352505050506200048160201b60201c565b50565b60008151905060006a636f6e736f6c652e6c6f679050602083016000808483855afa5050505050565b6000620004c1620004bb84620005d8565b620005a4565b905082815260208101848484011115620004da57600080fd5b620004e78482856200063f565b509392505050565b600081519050620005008162000677565b92915050565b600082601f8301126200051857600080fd5b81516200052a848260208601620004aa565b91505092915050565b6000602082840312156200054657600080fd5b60006200055684828501620004ef565b91505092915050565b6000602082840312156200057257600080fd5b600082015167ffffffffffffffff8111156200058d57600080fd5b6200059b8482850162000506565b91505092915050565b6000604051905081810181811067ffffffffffffffff82111715620005ce57620005cd62000675565b5b8060405250919050565b600067ffffffffffffffff821115620005f657620005f562000675565b5b601f19601f8301169050602081019050919050565b600062000618826200061f565b9050919050565b600073ffffffffffffffffffffffffffffffffffffffff82169050919050565b60005b838110156200065f57808201518184015260208101905062000642565b838111156200066f576000848401525b50505050565bfe5b62000682816200060b565b81146200068e57600080fd5b50565b610cd480620006a16000396000f3fe6080604052600436106100555760003560e01c8063089fe6aa1461005a578063a48b455514610085578063b02c43d0146100c2578063b60d428814610102578063b69ef8a81461010c578063dba6335f14610137575b600080fd5b34801561006657600080fd5b5061006f610162565b60405161007c9190610b9f565b60405180910390f35b34801561009157600080fd5b506100ac60048036038101906100a79190610976565b610168565b6040516100b99190610bba565b60405180910390f35b3480156100ce57600080fd5b506100e960048036038101906100e491906109c8565b6101b4565b6040516100f99493929190610af1565b60405180910390f35b61010a610260565b005b34801561011857600080fd5b50610121610734565b60405161012e9190610bba565b60405180910390f35b34801561014357600080fd5b5061014c61073c565b6040516101599190610ad6565b60405180910390f35b610bb881565b6000600160008373ffffffffffffffffffffffffffffffffffffffff1673ffffffffffffffffffffffffffffffffffffffff168152602001908152602001600020600001549050919050565b60006020528060005260406000206000915090508060000160009054906101000a900473ffffffffffffffffffffffffffffffffffffffff16908060010160009054906101000a90046fffffffffffffffffffffffffffffffff16908060020160009054906101000a900473ffffffffffffffffffffffffffffffffffffffff16908060030160009054906101000a900473ffffffffffffffffffffffffffffffffffffffff16905084565b6000349050600081116102a8576040517f08c379a000000000000000000000000000000000000000000000000000000000815260040161029f90610b5f565b60405180910390fd5b6000600960009054906101000a900473ffffffffffffffffffffffffffffffffffffffff1673ffffffffffffffffffffffffffffffffffffffff166370a08231306040518263ffffffff1660e01b81526004016103059190610ad6565b60206040518083038186803b15801561031d57600080fd5b505afa158015610331573d6000803e3d6000fd5b505050506040513d601f19601f8201168201806040525081019061035591906109f1565b90506000821461049357600960009054906101000a900473ffffffffffffffffffffffffffffffffffffffff1673ffffffffffffffffffffffffffffffffffffffff1663d0e30db0836040518263ffffffff1660e01b81526004016000604051808303818588803b1580156103c957600080fd5b505af11580156103dd573d6000803e3d6000fd5b5050505050600960009054906101000a900473ffffffffffffffffffffffffffffffffffffffff1673ffffffffffffffffffffffffffffffffffffffff1663a9059cbb30846040518363ffffffff1660e01b815260040161043f929190610b36565b602060405180830381600087803b15801561045957600080fd5b505af115801561046d573d6000803e3d6000fd5b505050506040513d601f19601f82011682018060405250810190610491919061099f565b505b6000600960009054906101000a900473ffffffffffffffffffffffffffffffffffffffff1673ffffffffffffffffffffffffffffffffffffffff166370a08231306040518263ffffffff1660e01b81526004016104f09190610ad6565b60206040518083038186803b15801561050857600080fd5b505afa15801561051c573d6000803e3d6000fd5b505050506040513d601f19601f8201168201806040525081019061054091906109f1565b90506105806040518060400160405280601481526020017f62616c616e6365206f662057455448206e6f7720000000000000000000000000815250610762565b61058981610860565b82828203146105cd576040517f08c379a00000000000000000000000000000000000000000000000000000000081526004016105c490610b7f565b60405180910390fd5b600160003373ffffffffffffffffffffffffffffffffffffffff1673ffffffffffffffffffffffffffffffffffffffff16815260200190815260200160002060010160009054906101000a900460ff166106df576002339080600181540180825580915050600190039060005260206000200160009091909190916101000a81548173ffffffffffffffffffffffffffffffffffffffff021916908373ffffffffffffffffffffffffffffffffffffffff16021790555060018060003373ffffffffffffffffffffffffffffffffffffffff1673ffffffffffffffffffffffffffffffffffffffff16815260200190815260200160002060010160006101000a81548160ff0219169083151502179055505b34600160003373ffffffffffffffffffffffffffffffffffffffff1673ffffffffffffffffffffffffffffffffffffffff16815260200190815260200160002060000160008282540192505081905550505050565b600047905090565b600a60009054906101000a900473ffffffffffffffffffffffffffffffffffffffff1681565b61085d816040516024018080602001828103825283818151815260200191508051906020019080838360005b838110156107a957808201518184015260208101905061078e565b50505050905090810190601f1680156107d65780820380516001836020036101000a031916815260200191505b50925050506040516020818303038152906040527f41304fac000000000000000000000000000000000000000000000000000000007bffffffffffffffffffffffffffffffffffffffffffffffffffffffff19166020820180517bffffffffffffffffffffffffffffffffffffffffffffffffffffffff83818316178352505050506108f9565b50565b6108f681604051602401808281526020019150506040516020818303038152906040527ff82c50f1000000000000000000000000000000000000000000000000000000007bffffffffffffffffffffffffffffffffffffffffffffffffffffffff19166020820180517bffffffffffffffffffffffffffffffffffffffffffffffffffffffff83818316178352505050506108f9565b50565b60008151905060006a636f6e736f6c652e6c6f679050602083016000808483855afa5050505050565b60008135905061093181610c59565b92915050565b60008151905061094681610c70565b92915050565b60008135905061095b81610c87565b92915050565b60008151905061097081610c87565b92915050565b60006020828403121561098857600080fd5b600061099684828501610922565b91505092915050565b6000602082840312156109b157600080fd5b60006109bf84828501610937565b91505092915050565b6000602082840312156109da57600080fd5b60006109e88482850161094c565b91505092915050565b600060208284031215610a0357600080fd5b6000610a1184828501610961565b91505092915050565b610a2381610be6565b82525050565b6000610a36601083610bd5565b91507f66756e64206d757374203e207a65726f000000000000000000000000000000006000830152602082019050919050565b6000610a76601683610bd5565b91507f457468657265756d206e6f74206465706f7369746564000000000000000000006000830152602082019050919050565b610ab281610c04565b82525050565b610ac181610c40565b82525050565b610ad081610c4f565b82525050565b6000602082019050610aeb6000830184610a1a565b92915050565b6000608082019050610b066000830187610a1a565b610b136020830186610aa9565b610b206040830185610a1a565b610b2d6060830184610a1a565b95945050505050565b6000604082019050610b4b6000830185610a1a565b610b586020830184610ac7565b9392505050565b60006020820190508181036000830152610b7881610a29565b9050919050565b60006020820190508181036000830152610b9881610a69565b9050919050565b6000602082019050610bb46000830184610ab8565b92915050565b6000602082019050610bcf6000830184610ac7565b92915050565b600082825260208201905092915050565b6000610bf182610c20565b9050919050565b60008115159050919050565b60006fffffffffffffffffffffffffffffffff82169050919050565b600073ffffffffffffffffffffffffffffffffffffffff82169050919050565b600062ffffff82169050919050565b6000819050919050565b610c6281610be6565b8114610c6d57600080fd5b50565b610c7981610bf8565b8114610c8457600080fd5b50565b610c9081610c4f565b8114610c9b57600080fd5b5056fea2646970667358221220c7d7a0f84a7d6eab2665c393fae0743c4cb28470c30c0c02905c186b600d067e64736f6c634300070600336e6f6e66756e6769626c65506f736974696f6e4d616e616765722e6e616d652829202d3e",
  "devdoc": {
    "kind": "dev",
    "methods": {},
    "stateVariables": {
      "deposits": {
        "details": "deposits[tokenId] => Deposit"
      }
    },
    "version": 1
  },
  "userdoc": {
    "kind": "user",
    "methods": {},
    "version": 1
  },
  "storageLayout": {
    "storage": [
      {
        "astId": 2083,
        "contract": "contracts/SimpleFunding.sol:SimpleFunding",
        "label": "deposits",
        "offset": 0,
        "slot": "0",
        "type": "t_mapping(t_uint256,t_struct(Deposit)2075_storage)"
      },
      {
        "astId": 2087,
        "contract": "contracts/SimpleFunding.sol:SimpleFunding",
        "label": "addressToAmountFunded",
        "offset": 0,
        "slot": "1",
        "type": "t_mapping(t_address,t_struct(Funds)2066_storage)"
      },
      {
        "astId": 2090,
        "contract": "contracts/SimpleFunding.sol:SimpleFunding",
        "label": "funders",
        "offset": 0,
        "slot": "2",
        "type": "t_array(t_address)dyn_storage"
      },
      {
        "astId": 2092,
        "contract": "contracts/SimpleFunding.sol:SimpleFunding",
        "label": "addressOfMing",
        "offset": 0,
        "slot": "3",
        "type": "t_address"
      },
      {
        "astId": 2095,
        "contract": "contracts/SimpleFunding.sol:SimpleFunding",
        "label": "tokenId",
        "offset": 0,
        "slot": "4",
        "type": "t_uint256"
      },
      {
        "astId": 2101,
        "contract": "contracts/SimpleFunding.sol:SimpleFunding",
        "label": "nonfungiblePositionManager",
        "offset": 0,
        "slot": "5",
        "type": "t_contract(INonfungiblePositionManager)1585"
      },
      {
        "astId": 2107,
        "contract": "contracts/SimpleFunding.sol:SimpleFunding",
        "label": "v3router",
        "offset": 0,
        "slot": "6",
        "type": "t_contract(ISwapRouter)1742"
      },
      {
        "astId": 2113,
        "contract": "contracts/SimpleFunding.sol:SimpleFunding",
        "label": "v3Factory",
        "offset": 0,
        "slot": "7",
        "type": "t_contract(IUniswapV3Factory)364"
      },
      {
        "astId": 2115,
        "contract": "contracts/SimpleFunding.sol:SimpleFunding",
        "label": "pool",
        "offset": 0,
        "slot": "8",
        "type": "t_contract(IUniswapV3Pool)386"
      },
      {
        "astId": 2120,
        "contract": "contracts/SimpleFunding.sol:SimpleFunding",
        "label": "tickSpacing",
        "offset": 20,
        "slot": "8",
        "type": "t_int24"
      },
      {
        "astId": 2122,
        "contract": "contracts/SimpleFunding.sol:SimpleFunding",
        "label": "weth",
        "offset": 0,
        "slot": "9",
        "type": "t_contract(IWETH)2061"
      },
      {
        "astId": 2124,
        "contract": "contracts/SimpleFunding.sol:SimpleFunding",
        "label": "i_owner",
        "offset": 0,
        "slot": "10",
        "type": "t_address"
      },
      {
        "astId": 2134,
        "contract": "contracts/SimpleFunding.sol:SimpleFunding",
        "label": "fundingInfos",
        "offset": 0,
        "slot": "11",
        "type": "t_array(t_struct(FundingInfo)2131_storage)dyn_storage"
      }
    ],
    "types": {
      "t_address": {
        "encoding": "inplace",
        "label": "address",
        "numberOfBytes": "20"
      },
      "t_array(t_address)dyn_storage": {
        "base": "t_address",
        "encoding": "dynamic_array",
        "label": "address[]",
        "numberOfBytes": "32"
      },
      "t_array(t_struct(FundingInfo)2131_storage)dyn_storage": {
        "base": "t_struct(FundingInfo)2131_storage",
        "encoding": "dynamic_array",
        "label": "struct SimpleFunding.FundingInfo[]",
        "numberOfBytes": "32"
      },
      "t_bool": {
        "encoding": "inplace",
        "label": "bool",
        "numberOfBytes": "1"
      },
      "t_contract(INonfungiblePositionManager)1585": {
        "encoding": "inplace",
        "label": "contract INonfungiblePositionManager",
        "numberOfBytes": "20"
      },
      "t_contract(ISwapRouter)1742": {
        "encoding": "inplace",
        "label": "contract ISwapRouter",
        "numberOfBytes": "20"
      },
      "t_contract(IUniswapV3Factory)364": {
        "encoding": "inplace",
        "label": "contract IUniswapV3Factory",
        "numberOfBytes": "20"
      },
      "t_contract(IUniswapV3Pool)386": {
        "encoding": "inplace",
        "label": "contract IUniswapV3Pool",
        "numberOfBytes": "20"
      },
      "t_contract(IWETH)2061": {
        "encoding": "inplace",
        "label": "contract IWETH",
        "numberOfBytes": "20"
      },
      "t_int24": {
        "encoding": "inplace",
        "label": "int24",
        "numberOfBytes": "3"
      },
      "t_mapping(t_address,t_struct(Funds)2066_storage)": {
        "encoding": "mapping",
        "key": "t_address",
        "label": "mapping(address => struct SimpleFunding.Funds)",
        "numberOfBytes": "32",
        "value": "t_struct(Funds)2066_storage"
      },
      "t_mapping(t_uint256,t_struct(Deposit)2075_storage)": {
        "encoding": "mapping",
        "key": "t_uint256",
        "label": "mapping(uint256 => struct SimpleFunding.Deposit)",
        "numberOfBytes": "32",
        "value": "t_struct(Deposit)2075_storage"
      },
      "t_struct(Deposit)2075_storage": {
        "encoding": "inplace",
        "label": "struct SimpleFunding.Deposit",
        "members": [
          {
            "astId": 2068,
            "contract": "contracts/SimpleFunding.sol:SimpleFunding",
            "label": "owner",
            "offset": 0,
            "slot": "0",
            "type": "t_address"
          },
          {
            "astId": 2070,
            "contract": "contracts/SimpleFunding.sol:SimpleFunding",
            "label": "liquidity",
            "offset": 0,
            "slot": "1",
            "type": "t_uint128"
          },
          {
            "astId": 2072,
            "contract": "contracts/SimpleFunding.sol:SimpleFunding",
            "label": "token0",
            "offset": 0,
            "slot": "2",
            "type": "t_address"
          },
          {
            "astId": 2074,
            "contract": "contracts/SimpleFunding.sol:SimpleFunding",
            "label": "token1",
            "offset": 0,
            "slot": "3",
            "type": "t_address"
          }
        ],
        "numberOfBytes": "128"
      },
      "t_struct(FundingInfo)2131_storage": {
        "encoding": "inplace",
        "label": "struct SimpleFunding.FundingInfo",
        "members": [
          {
            "astId": 2126,
            "contract": "contracts/SimpleFunding.sol:SimpleFunding",
            "label": "startTime",
            "offset": 0,
            "slot": "0",
            "type": "t_uint256"
          },
          {
            "astId": 2128,
            "contract": "contracts/SimpleFunding.sol:SimpleFunding",
            "label": "endTime",
            "offset": 0,
            "slot": "1",
            "type": "t_uint256"
          },
          {
            "astId": 2130,
            "contract": "contracts/SimpleFunding.sol:SimpleFunding",
            "label": "percent",
            "offset": 0,
            "slot": "2",
            "type": "t_uint256"
          }
        ],
        "numberOfBytes": "96"
      },
      "t_struct(Funds)2066_storage": {
        "encoding": "inplace",
        "label": "struct SimpleFunding.Funds",
        "members": [
          {
            "astId": 2063,
            "contract": "contracts/SimpleFunding.sol:SimpleFunding",
            "label": "amount",
            "offset": 0,
            "slot": "0",
            "type": "t_uint256"
          },
          {
            "astId": 2065,
            "contract": "contracts/SimpleFunding.sol:SimpleFunding",
            "label": "exists",
            "offset": 0,
            "slot": "1",
            "type": "t_bool"
          }
        ],
        "numberOfBytes": "64"
      },
      "t_uint128": {
        "encoding": "inplace",
        "label": "uint128",
        "numberOfBytes": "16"
      },
      "t_uint256": {
        "encoding": "inplace",
        "label": "uint256",
        "numberOfBytes": "32"
      }
    }
  }
}